:060000000A128A110C280F
:10000800FE00030EF0000A08F1000A168A15B22F46
:100018000A128A110F2883160130D7001630D8012A
:10002800D901DA01DB00FF30DC000730DD000130E8
:10003800DE00DF001030E0000130E100E2001030A7
:10004800E30083120730E000E1000130E200E30042
:100058001030E4000130E500E6001030E700903091
:1000680083178400ED300A168A1567270A128A1149
:10007800A03083138400D7300A168A1567270A121E
:100088008A115030840060300A168A156727E80103
:10009800FA0183010A168A111A2CC1005208BF00FE
:1000A80052300310BF0D3F07C000410840078400CD
:1000B8000A168A1100200A128A11520603192529E4
:1000C8005208BF0052300310BF0D3F07C00041085F
:1000D800400784000A168A1100200A128A11F900C2
:1000E80052083621831203135208BF0052300310FE
:1000F800BF0D3F07C0004108400784000A168A1157
:1001080000200A128A11D2000A128A15C4288316FE
:100118000830DD0A5D020318DD011F308312D105A6
:1001280083165D088312BF0004300310BF0DFF3E25
:100138000310031D9A283F0DD104152C01305106D8
:10014800BF000139C0005108FE394004D1000A122D
:100158008A15E12B08305106BF000839C000510844
:10016800F7394004D1000A128A15E92B10305106DC
:10017800BF001039C0005108EF394004D1000A12FD
:100188008A15D92F02305106BF000239C000510824
:10019800FD394004D1000A128A15562A0430510646
:1001A800BF000439C0005108FB394004D1000A12CD
:1001B8008A153E2A2030E20A6206031DE528E2017C
:1001C800E20ACA2E0D30E30A6306031DED28E30197
:1001D800E30AC72F1E30E40A6406031DF528103011
:1001E800E400E22F83161830D10A51060319D10111
:1001F800902F83163C30D20A52060319D201AB2F36
:100208003F2CE81C0929E8100A29E8140A30F200F2
:100218000030E8180130F3000A300A128A15EF2975
:10022800410845220A128A11031C08000530F9000A
:1002380052083621053083120313D2000A128A1598
:10024800C4285208FD3E031C080084001330040231
:100258000318080018308A000310040D0407003E34
:1002680082000800A1007908031908000630790205
:10027800031808002108003A03194C29013A031908
:100288008129033A03198E29013A0319AE29B129A4
:1002980083126819542951295429F9210A128A11FB
:1002A800831624088312D1008316A3008312A000AA
:1002B80005300310A00CFF3E031D5D29200883169E
:1002C800DD000730DD05623023220A128A11623010
:1002D800F2000330F300DE30F401DE21D1300A12DF
:1002E8008A15F1270A128A11D130F2000330F3007F
:1002F800CE30F401DE21E8100800510883162306E9
:100308000319080083125108912683125108831695
:10031800A3000800CE30F2000330F300D130F4011E
:10032800B2210A128A117208730403199F29D13065
:1003380033220A128A11DE30F2000330F3006230F1
:10034800F401B2210A128A11720873040319080011
:1003580062302C2CE81C08003D2C0800F700013006
:10036800F3020030031CF403F402730FBE29740A6D
:100378000319DB297208840083130008F500770845
:100388008400000875060319D8297208840000083B
:10039800F500770884000008F60075087602F20078
:1003A800F301031CF3030800F70AF20AB329F20168
:1003B800F3010800F8007208F7007808F600013029
:1003C800F3020030031CF403F402730FEE29740ADD
:1003D80003190800770884000008F50076088400EF
:1003E80075088000F70AF60AE32901300E220A127E
:1003F8008A11F30000300E220A128A1183160313A1
:10040800A400A530730603190B2AE130A400831257
:1004180068150800F2006400831603178C180F2A69
:10042800720883128D003F3083168C050C1403105C
:100438000C1803140318013083120C080800F2008A
:1004480084008312650883138000720A840066089A
:1004580080007208023E8400670880000800F200ED
:1004680084008313000883120313DD00720A8400DA
:100478000008DE007208023E84000008DF00FA155A
:1004880008008312BB00681C4B2A031408003B08B1
:10049800031D552A83160317EC0B602A0430EC0061
:1004A800602A3B0B602A831603170530EC0A6C029E
:1004B800031C602AEC01EC0A023045260A128A1154
:1004C80000303602C8300319350203186F2A68183D
:1004D800492A0310080002300C240A128A118316D4
:1004E80003176A08903E8400831700080F398312A7
:1004F8000313BD00831603176A08903E8400000E9C
:100508000F3983120313BE00AF2A831203130B3073
:10051800BD033D02031CBF2A0A30BD00BF2A831257
:1005280003130B30BD0A3D02031CBF2ABD01BF2ABD
:10053800831203130B30BE033E02031CBF2A0A308A
:10054800BE00BF2A831203130B30BE0A3E02031CEF
:10055800BF2ABE01BF2A831603176C08013A031984
:100568009C2A033A0319932A013A0319A62A073A3F
:100578000319892ABF2A8312031350080F393D062D
:10058800031DF32A500E0F393E06031DF32A0B30C4
:10059800AA00AB01CB230A128A112908AD0028084A
:1005A800AC008E230A128A1150082A06F0392A064E
:1005B800D0000B30AA00AB01CB230A128A112908FC
:1005C800AD002808AC008E230A128A112A08BA0046
:1005D800BA0E50083A060F393A06D0000D2B83168A
:1005E80003176B08903E8400000E0F39F200F301E8
:1005F8006B08903E840000080F390A128A15EF2113
:100608000A128A11831603175A30EB0A6B02031871
:10061800EB01831203133E08F200F301F30A3D08CD
:100628000A128A15EF210A128A11831603175A3003
:10063800EA0A6A020318EA016A08903E84008317EE
:100648000008831203133D06F0393D0680003E087A
:10065800BA00831603176A08903E840083120313B6
:10066800BA0E00083A060F393A06800083160317B7
:100678006A086B06031D452B5A30EB0A6B020318F8
:10068800EB0183120313500E0F39F200F301F30A42
:1006980050080F390A128A15EF210A128A11831697
:1006A80003176B0883120313BC003C08903E8400B8
:1006B800831700080F39BA00831603176A08903E9B
:1006C800840000080F39831203133A06031D802B98
:1006D8003C08903E8400000E0F39BA0083160317B9
:1006E8006A08903E8400000E0F39831203133A06FD
:1006F800031D802B68146B2A5A30BC0A3C0203186D
:10070800BC01831603176A08831203133C06031DF2
:10071800592B6B2AAF01AD1F982BAC09AD09AC0A58
:100728000319AD0AAF01AF0AAB1F9F2BAA09AB098A
:10073800AA0A0319AB0A2A082B040319BE2BAE0117
:10074800AE0AAB1BAB2B0310AA0DAB0DA42B2B08C9
:100758002D02031DB12B2A082C02031CBA2B2A08D0
:10076800AC022B08031CAD03AD020310AB0CAA0CA2
:10077800AE0BAB2B2F080319C62BAC09AD09AC0A7D
:100788000319AD0A2D08AB002C08AA000800413057
:10079800A300C630A2004E30A1006D30A000831621
:1007A8005A088312A700831659088312A6008316D5
:1007B80058088312A500831657088312A4000A124A
:1007C8008A158A2723088316DA00831222088316DB
:1007D800D900831221088316D800831220088316B3
:1007E800D7003930D707303003183130D8070030F8
:1007F80003180130D907003003180130DA075A0806
:100808008312A900831659088312A800A9130800A7
:10081800F200A03E84008312031353088313800060
:100828000800831203135108F30005300310F30C7A
:10083800FF3E031D1A2C73080739222CF2000830DA
:100848007202031C292C0730F2007208E00008002D
:10085800F20084008313000883120313E500720A70
:1008680084000008E6007208023E84000008E700E1
:100878000800FA110800F701F201F20A7708922538
:10088800F801F201F20A78080A128A15E5260A1216
:100898008A110430F600BF30F5001D30F400640002
:1008A800F40B532CF50B532CF60B532C6400F2016C
:1008B80078080A128A15E5260A128A110B30F80AF6
:1008C8007802031C452CF201770892250A128A1136
:1008D8000C30F70A770203180800402C8312031320
:1008E800BE0103103E0DA63E840083130008B50028
:1008F800840A0008B600350403193E2DBD01031013
:100908003D0D7E3E84000A168A1100200A128A11C3
:10091800B5000A168A1100200A128A11B6000310BF
:100928003E0DA63E840083130008B700840A000821
:10093800B80035083705B90036083805BA00390453
:100948000319A82C0130A92C0030F2003D080A1226
:100958008A15E5260A128A110B30BD0A3D02031CCE
:10096800842CF201F20A3E0892250F30AB01AA004E
:100978004230A9004030A8000310600DD23E840028
:100988000A168A1100200A128A11B5000A168A115D
:1009980000200A128A11B6003508A0003608A10006
:1009A8000130A201A301A7002C30A6000030A50148
:1009B800A4010A128A158A270A128A112308AF008D
:1009C8002208AE002108AD002008AC004A250A1212
:1009D8008A112808B7002908B8002A08B9002B0886
:1009E800BA00F201831203133E0892250F30AB01BF
:1009F800AA004230A9004030A8000310600DD23E82
:100A080084000A168A1100200A128A11B5000A16F3
:100A18008A1100200A128A11B600E830B7000330A4
:100A2800B80035083702A0003608031C360A380219
:100A3800A1000130A201A301A7002C30A6000030BC
:100A4800A501A4010A128A158A270A128A11230805
:100A5800AF002208AE002108AD002008AC004A25EE
:100A68000A128A112808B9002908BA002A08BB0006
:100A78002B08BC00831203130C30BE0A3E02031C71
:100A8800762CFF30F2010A128A15E52EB001B10169
:100A9800B201B3012B082A04290428040319892D5B
:100AA800B401B40AAB1B5E2D0310A80DA90DAA0D45
:100AB800AB0D552D0310B00DB10DB20DB30D2B08B4
:100AC8002F02031D712D2A082E02031D712D2908DE
:100AD8002D02031D712D28082C02031C832D2808C4
:100AE800AC022908031C290FAD022A08031C2A0F8F
:100AF800AE022B08031C2B0FAF0230140310AB0CF3
:100B0800AA0CA90CA80CB40B5E2D3308AB00320854
:100B1800AA003108A9003008A8000800F3001B2E1D
:100B2800721C9A2D83120313861408008312031370
:100B380086100800721CA42D8312031306140800E3
:100B48008312031306100800721CAE2D83120313C0
:100B5800881708008312031388130800721CB82D25
:100B680083120313081708008312031308130800DD
:100B7800721CC22D831203138816080083120313F4
:100B880088120800721CCC2D831203130816080063
:100B98008312031308120800721CD62D8312031344
:100BA800871708008312031387130800721CE02DAF
:100BB800831203130717080083120313071308008F
:100BC800721CEA2D8312031387160800831203137D
:100BD80087120800721CF42D8312031307160800ED
:100BE8008312031307120800721CFE2D83120313CD
:100BF800881508008312031388110800721C082E38
:100C08008312031308150800831203130811080040
:100C1800831203138610061088130813881208120B
:100C28008713071387120712881108110800730821
:100C3800003A0319942D013A03199E2D033A03191A
:100C4800A82D013A0319B22D073A0319BC2D013A10
:100C58000319C62D033A0319D02D013A0319DA2DC9
:100C68000F3A0319E42D013A0319EE2D033A03193B
:100C7800F82D013A0319022EF43A03190C2E0C2E02
:100C8800080083120313B9004B30A800A901AA0178
:100C9800AB015308F200F301F21BF3033908A03E3D
:100CA800840083130008B700B801B71BB803F20229
:100CB8003808031CF303F30283267208A0007308A4
:100CC800A1000030A11BFF30A200A3000330A70140
:100CD800A601A500E830A4000A128A158A270A127C
:100CE8008A112308AF002208AE002108AD002008B1
:100CF800AC004A252908B6002808B5000800F31FEB
:100D080008007209F4007309F500F40A0319F50ADA
:100D18007408F2007508F3000800F4007408F50080
:100D28006819992EF9210A128A1183162408750662
:100D3800031908007508F2000030B0260A128A115B
:100D4800A530F2000130B0260A128A1100300E22B6
:100D580083160313A4000800F30003178C18B12EA0
:100D6800730883128D0072088C003F3083168C053F
:100D780003108B1B03148B130C1555308D00AA30F0
:100D88008D008C140C1103188B1708000230F70023
:100D98000A30F801F200620875270A128A159F23A3
:100DA8000A128A110630F7000A30F801F2006208C8
:100DB8000A128A15BD270A128A110A128A159F2B50
:100DC8000A128A1550230A128A110230F700F80114
:100DD8000A128A159F230A128A110630F70000307A
:100DE800F8010A128A159F230A128A110230F700A5
:100DF8000630F8000A30F200640875270A128A15CE
:100E08009F230A128A110630F700F8000A30F20010
:100E180064080A128A15BD270A128A110A128A154D
:100E28009F230A128A110430F2000A30F3010A12D1
:100E38008A15EF210A128A110630F2000A30F301EE
:100E48000A128A15EF290A128A1550230A128A11E2
:100E58000230F7000A30F801F20083120313620827
:100E680075270A128A159F230A128A110630F7007D
:100E78000A30F801F20062080A128A15BD270A1220
:100E88008A110A128A159F230A128A110230F70062
:100E98000630F8000A30F200630875270A128A152E
:100EA8009F230A128A110630F700F8000A30F20070
:100EB80063080A128A15BD270A128A110A128A15AE
:100EC8009F230A128A110430F2000A30F3010A1231
:100ED8008A15EF210630F2000A30F3010A128A154A
:100EE800EF29F300F501720803198E2FF401F40AB3
:100EF800F21B812F0310F20D7B2F0310F50D7208E2
:100F08007302031C8B2F7208F30275140310F20C82
:100F1800F40B812F750808000230F7000A30F80139
:100F2800F200510875270A128A159F230A128A119E
:100F38000630F7000A30F801F200831651080A1249
:100F48008A15BD270A128A110A128A159F2B0230A8
:100F5800F7000630F8000A30F200520875270A1226
:100F68008A159F230A128A110630F700F8000A3002
:100F7800F200831652080A128A15BD270A128A112E
:100F88000A128A159F2B0230F7000630F8000A3043
:100F9800F200630875270A128A159F230A128A111C
:100FA8000630F700F8000A30F20063080A128A15C2
:100FB800BD270A128A110A128A159F2B0230F700E0
:100FC8000630F8000A30F200640875270A128A15FC
:100FD8009F230A128A110630F700F8000A30F2003F
:0E0FE80064080A128A15BD270A128A159F2B6B
:10100C003430F1273408F2003C30F301F400F501E0
:10101C000A168A1599270A128A157208B0007308E5
:10102C00B1003508F2003C30F301F400F5010A166A
:10103C008A1599270A128A1572083007B2007308AC
:10104C000318730A3107B30036083207F800003072
:10105C00031801303307F900E9270A128A15D8233F
:10106C000A128A15831603171008F03901389000FC
:10107C000F39503890001108F039023891000F39AF
:10108C00503891001208F039033892000F3950385B
:10109C0092001308F039043893000F39503893003C
:1010AC000330EB01EA000230EC00100E0F39F200B5
:1010BC00F301F30A10080F39EF210A128A1583166F
:1010CC000317110E0F39F200F301F30A11080F394F
:1010DC00EF210A128A1583160317120E0F39F2002C
:1010EC00F301F30A12080F39EF210A128A1583163D
:1010FC000317130E0F39F200F301F30A13080F391B
:10110C00EF210B3083120313AA00AB010A128A11D0
:10111C00CB230A128A152908AD002808AC000A1244
:10112C008A118E230A128A1550082A06F0392A06CB
:10113C00D0000B30AA00AB010A128A11CB230A1281
:10114C008A152908AD002808AC000A128A118E23D2
:10115C000A128A152A08B000B00E500830060F3952
:10116C003006D000500E0F39F200F301F30A50088C
:10117C000F39EF218312031368100800B700FF3EEC
:10118C00031C0800840010300402031808001830F7
:10119C008A000310040D0407393E82000800242243
:1011AC000A128A1115240A128A15E1230A128A15C9
:1011BC00E9230A128A15D9270A128A1556220A120D
:1011CC008A153E2A0A168A156F2F0A168A157A2F47
:1011DC00502B062824220A128A15E1230A128A159A
:1011EC00E9230A128A15D9270A128A1556220A12DD
:1011FC008A153E220A128A150930F2000130F301D9
:10120C00F30AEF2924220A128A150930F200013060
:10121C00F301F30AEF210A128A150930F2000230A9
:10122C00F301F30AEF210A128A15E12B24220A1288
:10123C008A150930F2000130F301F30AEF210A128A
:10124C008A150930F2000230F301F30AEF210A1279
:10125C008A150930F2000330F301F30AEF210A1268
:10126C008A150930F2000430F301F30AEF210A1257
:10127C008A150930F2000530F301F30AEF210A1246
:10128C008A15E92B24220A128A150930F200013042
:10129C00F301F30AEF210A128A150930F200023029
:1012AC00F301F30AEF210A128A150930F200033018
:1012BC00F301F30AEF210A128A150930F200043007
:1012CC00F301F30AEF210A128A150930F2000530F6
:1012DC00F301F30AEF210A128A150930F2000630E5
:1012EC00F301F30AEF210A128A15D92F24220A12CC
:1012FC008A150930F2000130F301F30AEF210A12CA
:10130C008A150930F2000230F301F30AEF210A12B8
:10131C008A150930F2000330F301F30AEF210A12A7
:10132C008A15562A24220A128A150930F200013035
:10133C00F301F30AEF210A128A150930F200023088
:10134C00F301F30AEF210A128A150930F200033077
:10135C00F301F30AEF210A128A150930F200043066
:10136C00F301F30AEF210A128A153E2A0A128A1196
:10137C0027270A128A150230F2000030F301F30A13
:10138C00EF2950230A128A150230F2000030F301C3
:10139C00F30AEF2950230A128A150830F2000030A4
:1013AC00F301F30AEF290A128A1127270A128A1568
:1013BC000830F2000030F301F30AEF290A128A1107
:1013CC00E4260A128A150830F2000030F301F30A01
:1013DC00EF29F6007308031003190C2A760D7E3ED4
:1013EC0084000A168A1100200A128A15F4000A16C3
:1013FC008A110020F5000310720DA63E84007408BB
:10140C0083138004840A750880040800760D9E3EC0
:10141C0084000A168A1100200A128A15F4000A1692
:10142C008A110020F5000310720DA63E840074088A
:10143C0083138005840A750880050800D8230A12D6
:10144C008A150930F2000030F301F30AEF210A1279
:10145C008A15F8010B30F200F301F30A7808EF213A
:10146C000A128A150B30F80A780203180800302A81
:10147C0083120313511D4C2A0730CE220A128A15EF
:10148C000930CE220A128A150A30CE2A073076226B
:10149C000A128A15093076220A128A150A30762A1F
:1014AC0083120313D11C682A083076220A128A157B
:1014BC000630CE220A128A150930CE220A128A155B
:1014CC000A30CE2A063076220A128A150930762284
:1014DC000A128A150A3076220A128A150830CE2A88
:1014EC00F500F6010310760D7E3E84000A168A1173
:1014FC0000200A128A15A0000A168A1100200A126E
:10150C008A15A1000330F20075082623023E8400E0
:10151C000A168A1100200A128A15A2000A168A11CC
:10152C0000200A128A15A30020082205A400210815
:10153C002305A50024040319C82A0310760D9E3E2A
:10154C0084000A168A1100200A128A15A0000A16B5
:10155C008A1100200A128A15A1000330F2007508C6
:10156C002623013E84000A168A1100200A128A15CD
:10157C00A2002207A63E8400200883138005840A5B
:10158C00210880050B30F60A760203180800782A29
:10159C00F500F6010310760D7E3E84000A168A11C2
:1015AC0000200A128A15A0000A168A1100200A12BD
:1015BC008A15A1000330F20075082623023E840030
:1015CC000A168A1100200A128A15A2000A168A111C
:1015DC0000200A128A15A30020082205A400210865
:1015EC002305A50024040319202B0310760D7E3E41
:1015FC0084000A168A1100200A128A15A0000A1605
:10160C008A1100200A128A15A1000330F200750815
:10161C002623013E84000A168A1100200A128A151C
:10162C00A2002207A63E8400200883138004840AAB
:10163C00210880040B30F60A760203180800D02A21
:10164C00F400F30172087418F3070310F20D72081A
:10165C00F418F3070310F20D72087419F307031052
:10166C00F20D7208F419F3070310F20D7208741AD4
:10167C00F3070310F20D7208F41AF3070310F20DBE
:10168C007208741BF3070310F20D7208F41BF307B6
:10169C0073080800D8230A128A150A30F2000030A9
:1016AC00F301F30AEF210230F7000A30F801F200DF
:1016BC008316031351080A128A1175270A128A1508
:1016CC009F230A128A150630F7000A30F801F2003F
:1016DC0083165108BD270A128A159F230230F70082
:1016EC000630F8000A30F200831652080A128A11EA
:1016FC0075270A128A159F230A128A150630F700DD
:10170C00F8000A30F20083165208BD270A128A1517
:10171C009F230A128A150430F2000A30F301F30AEF
:10172C00EF210A128A150630F2000A30F301F30A8F
:10173C00EF2983120313A2000F30A300A401A5010B
:10174C000310220DBE3E84000A168A1100200A12D4
:10175C008A15A0000A168A1100200A128A15A10007
:10176C00230ABB2B0310A10CA00CFF3E031DB82BAE
:10177C002008F3000130F30524087807F20025084F
:10178C007707EF210A128A15831203130330A30380
:10179C00A50A2502031CA72B0530A40A2402031852
:1017AC000800A52B1830F201F301F400A630F50166
:1017BC000A168A15852F83120313511CE72B003050
:1017CC00CE2A0030762A83120313D11DEF2B0C3056
:1017DC00CE2A0C30762ABE00840083130008C40085
:1017EC0018304402031808003E0A84000008CB009D
:1017FC003C304B0203180800831268190C2C072C80
:10180C000C2C0A128A11F9210A128A158316240843
:10181C008312C200CC01421C152CC501CC0AC21D7E
:10182C00232C4408031D232C4B08031D232C4C088C
:10183C00453E84000C308313E72C421E612C440877
:10184C00031D612C19304B020318612C4C08453ECA
:10185C00840083138001800ACC0A4C08453E840026
:10186C00023080000530CC0A4B02031C392D0A30A3
:10187C004B020318462C4C08453E84000330E72CE1
:10188C000F304B0203184F2C4C08453E840004309B
:10189C00E72C14304B020318582C4C08453E84009E
:1018AC000530E72C19304B020318392D4C08453EF6
:1018BC0084000730E72C0C30F2004408BD270A12D4
:1018CC008A158312C4000B304402031C6F2CC30115
:1018DC00722C4408013EC30005304B0203188A2CBD
:1018EC00440B7D2C4C08453E84001930822C4C084E
:1018FC00453E840044080D3E83138000CC0A4C08FE
:10190C00453E84001A30E72C0A304B020318962C03
:10191C004C08453E8400033083138000CC0AAC2C69
:10192C000F304B0203189F2C4C08453E84000430AA
:10193C00922C14304B020318B72C4C08453E8400F3
:10194C00063083138000CC0AC21CE22C4C08453EA6
:10195C0084000A308000CC0A4C08453E84004408C0
:10196C00E62C19304B020318CE2C421DC22C4C080D
:10197C00453E84000730922C4C08453E84000430D0
:10198C0083138000CC0A4C08453E84000930092D95
:10199C001E304B020318D72C4C08453E84000330F4
:1019AC00C62C23304B020318EA2C4C08453E84000D
:1019BC000B3083138000CC0A4C08453E840043084E
:1019CC000D3E8000CC0A392D28304B020318F32C25
:1019DC004C08453E84000330022D2D304B02031879
:1019EC00102D421DFE2C4C08453E840007301A2D4C
:1019FC004C08453E8400043083138000CC0A4C080C
:101A0C00453E84000A308000CC0A4C08453E8400D8
:101A1C000B30E02C32304B020318272DC21C222D28
:101A2C004C08453E8400063083138000CC0A4C08D9
:101A3C00453E84000930E02C4C08453E84000830BB
:101A4C00DF2C37304B020318302D4C08453E8400F8
:101A5C0004301A2D3C304B020318392D4C08453EEE
:101A6C00840003301A2DC0014C08400203181E2EAE
:101A7C004008453E84008313000800070007013E20
:101A8C0084000A168A1100200A128A15BF00C101AF
:101A9C000B30410203188D2D6400831203130310C5
:101AAC00410D7E3E84000A168A1100200A128A1506
:101ABC00B6000A168A1100200A128A15B7004008CF
:101ACC00453E84008313000800070007023E840093
:101ADC000A168A1100200A128A15B8000A168A11F1
:101AEC0000200A128A15B90036083805BA003708E2
:101AFC003905BB003A040319852D0130862D0030C1
:101B0C00F2004108E5260A128A15C10A4E2DF2018F
:101B1C00F20A3F080A128A1192250A128A150F300E
:101B2C00AB01AA004230A9004030A8000310600DA0
:101B3C00D23E84000A168A1100200A128A15B600B9
:101B4C000A168A1100200A128A15B7003608A0005E
:101B5C003708A1000130A201A301A7002C30A60078
:101B6C000030A501A4018A272308AF002208AE008B
:101B7C002108AD002008AC000A128A114A250A126D
:101B8C008A152808B8002908B9002A08BA002B08B9
:101B9C00BB00F201831203133F080A128A1192252B
:101BAC000A128A150F30AB01AA004230A90040304E
:101BBC00A8000310600DD23E84000A168A11002082
:101BCC000A128A15B6000A168A1100200A128A1502
:101BDC00B700E830B8000330B90036083802A0006E
:101BEC003708031C370A3902A1000130A201A301F6
:101BFC00A7002C30A6000030A501A4018A272308D9
:101C0C00AF002208AE002108AD002008AC000A127B
:101C1C008A114A250A128A152808BA002908BB001D
:101C2C002A08BC002B08BD0083120313C00A3A2DEE
:101C3C00FF30F201E5260A128A15C62E0A30F2018F
:101C4C00F20AE5260A128A150930F201F20AE52693
:101C5C000A128A150030F201F20AE5260A128A15D8
:101C6C000130F201F20AE5260B30F201F20A0A12F7
:101C7C008A1192250A128A150F30AB01AA00423044
:101C8C00A9004030A8000310600DD23E84000A1653
:101C9C008A1100200A128A15B6000A168A11002031
:101CAC000A128A15B7003608A0003708A1000130C7
:101CBC00A201A301A7002C30A6000030A501A401AD
:101CCC008A272308AF002208AE002108AD002008A7
:101CDC00AC000A128A114A250A128A152808B80083
:101CEC002908B9002A08BA002B08BB000B30F201F6
:101CFC000A128A1192250A128A150F30AB01AA001A
:101D0C004230A9004030A8000310600DD23E840080
:101D1C000A168A1100200A128A15B6000A168A11B0
:101D2C0000200A128A15B700E830B8000330B90059
:101D3C0036083802A0003708031C370A3902A10004
:101D4C000130A201A301A7002C30A6000030A50190
:101D5C00A4018A272308AF002208AE002108AD0099
:101D6C002008AC000A128A114A250A128A15280882
:101D7C00BA002908BB002A08BC002B08BD00E22EC3
:101D8C000530F2004B08BD270A128A158312B600E3
:101D9C00B7013708003A0319D42EE22E3608013A5F
:101DAC000319362E033A0319302E013A03192A2E41
:101DBC00073A0319242EE22EFF30F201E52EF30030
:101DCC00632F721CED2E831203130514080083126B
:101DDC00031305100800721CF72E831203138514CD
:101DEC0008008312031385100800721C012F831244
:101DFC000313051508008312031305110800721C48
:101E0C000B2F8312031385150800831203138511FE
:101E1C000800721C152F8312031305160800831279
:101E2C00031305120800721C1F2F8312031385164F
:101E3C0008008312031385120800721C292F8312C9
:101E4C000313091408008312031309100800721CF1
:101E5C00332F831203138914080083120313891080
:101E6C000800721C3D2F83120313091508008312FE
:101E7C00031309110800721C472F83120313071454
:101E8C0008008312031307100800721C512F8312D1
:101E9C00031387140800831203138710080083129E
:101EAC0003130510851005118511051285120910F3
:101EBC00891009110710871008007308003A0319DC
:101ECC00E72E013A0319F12E033A0319FB2E013ABE
:101EDC000319052F073A03190F2F013A0319192F6C
:101EEC00033A0319232F013A03192D2F0F3A031923
:101EFC00372F013A0319412F033A03194B2FF53AA7
:101F0C000319552F552F0800F601F701F801F901B7
:101F1C00201CA42F2408F607250803110318013EE2
:101F2C00031DF707260803110318013E031DF807CC
:101F3C00270803110318013E031DF9070310A40D14
:101F4C00A50DA60DA70D0310A30CA20CA10CA00CA3
:101F5C002308220421042004031D8E2F7908A300DA
:101F6C007808A2007708A1007608A0000800F40009
:101F7C000830F500F6017408F30007300310F30C79
:101F8C00FF3E0310031DC52F760D7304F6000310DE
:101F9C00F40D72087602031CD52F7208F602F50BAD
:101FAC00C12F7608080083120313511EE32F013052
:101FBC00CE220A128A150230CE2A013076220A125B
:101FCC008A150230762A78088316D7007908D8004B
:101FDC00D901DA010800F20084005D088313800047
:101FEC00720A84005E0880007208023E84005F085A
:101FFC008000080010308A000408840A820700342C
:10200C0000340034DC340034E03401340134003466
:10201C00E03402340034783402348034073402342F
:10202C0080347F340334E0340F340134E0340F3423
:10203C000334E034FF34043400347034043400349A
:10204C000F3405340034F0340634E034FF340934F2
:10205C00E03403340534E03401340534803407347F
:10206C0007340034783408340034F0340934003444
:10207C003C340734C03407340834C0340F340634CD
:10208C00E03401340A3400341E340A340034F034A1
:10209C0009340034E0340534C03401340A34E034FB
:1020AC000034023411340334063401340C34043457
:1020BC00033405340434003415340634073407343F
:1020CC0008340834093409340A340A340B340B3418
:1020DC0001340C340D340D340E340E340F340F34F3
:1020EC0010341034023400341234003413340034FD
:1020FC001434003400341534153400348034003476
:10210C0040340034203400341034003408340034AB
:10211C00043400340234003401348034003440344C
:10212C0000342034003410340034083400340434C7
:10213C0000340234003401340034FF347F34FF3473
:10214C00BF34FF34DF34FF34EF34FF34F734FF3463
:10215C00FB34FF34FD34FF34FE347F34FF34BF34A2
:10216C00FF34DF34FF34EF34FF34F734FF34FB3407
:10217C00FF34FD34FF34FE34FF34DE34F634923455
:10218C002434CE34E7349E34E7349234B7349E345E
:10219C00F334DE34F3349234E434DE34F7349E34E6
:1021AC00F7347D340034FA34003477340134F434A9
:1021BC00013471340234EE3402346B340334E834B9
:1021CC00033400341F341C341F341E341F341E34AB
:1021DC001F341F341E341F341E341F3403170516CE
:1021EC0085110515851405108316031381179501A8
:1021FC00811281110115811401140F178F168F167E
:10220C008B178B1603178801890183120313850121
:10221C008601870188018901831605108510051137
:10222C0085110512851209108910091107108710E4
:10223C0086100610881308138812081287130713C8
:10224C008712071288110811871116159615161684
:10225C008B150800C700C80147080319E22906308E
:10226C004202D73003194102031CCF290730420226
:10227C009E30031941020318CF293B307A165506BC
:10228C00031D5529D430F200BE3059230A168A1189
:10229C00E130F200BE303E220A168A113B2A76301B
:1022AC005506031DCD294930F200C63059230A16B4
:1022BC008A114C30F200C6303E220A168A1183165F
:1022CC00540883124906031DA8294A08FF3EC5007D
:1022DC00FF3003180030C6008316550883124506DC
:1022EC004604031DA8298316560883124B06031DAA
:1022FC00A8298316610883124C06031DA82983168E
:10230C00620883124D06031DA829831663088312E5
:10231C004E06031DA8294308840049088000840A3E
:10232C004A088000840A4B088000440884004C084A
:10233C008000840A4D088000840A4E088000C80181
:10234C00C80A3B2AC630F2000830F300BE30F40154
:10235C000A128A11DE210A168A113B30D50049086F
:10236C008316D40083124A088316D50083124B08B7
:10237C008316D60083124C088316E10083124D0895
:10238C008316E20083124E088316E3003B2AD50124
:10239C003B2A02304202EE3003194102031CDD29B4
:1023AC0003304202B73003194102031C3B2A0230AE
:1023BC00D5017A12C8003B2A3B305506031DE8298B
:1023CC007A1EEC2976305506031DEF29D5017A12B9
:1023DC00F7293B305506031DF7290830D400073088
:1023EC00E1005508031DFF290730D401E1008316D5
:1023FC00BE01003083124202333003194102003017
:10240C00031C1C2A420296300319410203181B2A92
:10241C00D50A6108031D3A2A0730E100D40A540892
:10242C00BE3E8400831380013B2A00304202973069
:10243C0003194102031CDD2900304202FA30031952
:10244C0041020318DD29D50A5408BE3E8400013030
:10245C00C500610A332A0310C50DFF3E031D312A46
:10246C004508831380040F2AE103831248080800EF
:10247C00C000720884008001720A84008001720816
:10248C00023E840080014008043E8400801D502AD6
:10249C000130512A0030F300720884007308800761
:1024AC004008043E840000195D2AA0015F2A023016
:1024BC00A000A10172088400200880074008043E97
:1024CC00840080186B2AA2016D2A0430A200A3019B
:1024DC0072088400220880074008043E840000181B
:1024EC00792AA4017B2A0830A400A5017208840073
:1024FC00240880074008053E8400801B872AA6011B
:10250C00892A0A30A600A7017208840026088007D1
:10251C004008053E8400001B952AA801972A143018
:10252C00A800A90172088400280880074008053E0D
:10253C008400001DA32A0130A42A0030F300720A83
:10254C008400730880074008053E84008018B02A78
:10255C00AA01B22A0230AA00AB01720A84002A082E
:10256C0080074008053E84000018BE2AAC01C02A32
:10257C000430AC00AD01720A84002C0880074008BE
:10258C00063E8400801BCC2AAE01CE2A0830AE0059
:10259C00AF01720A84002E0880074008063E8400B2
:1025AC00001BDA2AB001DC2A0A30B000B101720A31
:1025BC008400300880074008063E8400801EE82A0C
:1025CC000130E92A0030F3007208023E84007308DF
:1025DC0080074008063E8400001AF62AB201F82A49
:1025EC000230B200B3017208023E84003208800748
:1025FC004008063E84008019052BB401072B0430DB
:10260C00B400B5017208023E84003408800740080B
:10261C00063E84000019142BB601162B0830B600A8
:10262C00B7017208023E8400360880074008063E57
:10263C0084008018232BB801252B0A30B800B9016F
:10264C007208023E8400380880074008063E840069
:10265C000018322BBA01342B1430BA00BB017208AB
:10266C00023E84003A0880074008073E8400801B25
:10267C00412BBC01432B2830BC00BD017208023E2B
:10268C0084003C0880074008073E8400001B502B48
:10269C00BE01522B5030BE00BF017208023E8400B6
:1026AC003E0880070800B60072088400831380017E
:1026BC00720A840080017208023E84008001360890
:1026CC00023E8400001D6C2B01306D2B0030F3009A
:1026DC00720A8400730880073608023E8400801852
:1026EC00792BA0017B2B0230A000A101720A84007F
:1026FC00200880073608023E84000018872BA201B0
:10270C00892B0430A200A301720A840022088007DE
:10271C003608033E8400801B952BA401972B0830B0
:10272C00A400A501720A8400240880073608033E21
:10273C008400001BA32BA601A52B0A30A600A70121
:10274C00720A8400260880073608033E8400801A2B
:10275C00B12BA801B32B1430A800A901720A840074
:10276C00280880073608033E8400001ABF2BAA01F4
:10277C00C12B2830AA00AB01720A84002A088007FA
:10278C003608033E8400001DCD2B0130CE2B0030CB
:10279C00F30072088400730880073608033E840037
:1027AC008018DA2BAC01DC2B0230AC00AD017208C6
:1027BC0084002C0880073608033E84000018E82BA0
:1027CC00AE01EA2B0430AE00AF01720884002E0873
:1027DC0080073608043E8400801BF62BB001F82BD2
:1027EC000830B000B1017208840030088007360848
:1027FC00043E8400001B042CB201062C0A30B200EB
:10280C00B30172088400320880073608043E840045
:10281C00801A122CB401142C1430B400B5017208B7
:10282C0084003408800708000A168A11F4200A165E
:10283C008A117B14FB14831268192B2C262C2B2C3D
:10284C000A128A11F9210A168A1183162408831296
:10285C00CF0005300310CF0CFF3E031D302C4F086A
:10286C0007390A128A1122240A168A115308831670
:10287C00EA00EB0164004B30831603136A02031C5D
:10288C007F2C4B308312D30204305702031CD70A1F
:10289C003C30DF0A5F02031C7F2CDF01DE0AFA1DCD
:1028AC00602C04305D06031D602C5E08031D602C3B
:1028BC00FA16FA113C305E02031C7F2C1830DE0134
:1028CC00DD0A5D02031C7F2C6530DD01E50A0A166A
:1028DC008A15D8270A168A11003A031D7F2C0D3051
:1028EC00E501E50AE60A6602031C7F2CE601E60A0E
:1028FC00E70AFA19B52D831287157A1C872C01303B
:10290C00882C0030CF00E81D8D2C01308E2C00302F
:10291C004F060319B52DE8117A1C952CE815831276
:10292C00031357084B30A80003194A2DA901AA011B
:10293C00AB01CF008316250883124F02A000A10122
:10294C00031CA103A201A11BA2032208A3000330B4
:10295C00A701A601A500E830A4000A128A158A274F
:10296C000A168A112308AF002208AE002108AD0018
:10297C002008AC000A128A114A250A168A112B0863
:10298C008316E90083122A088316E80083122908AB
:10299C008316E700831228088316E6008312570873
:1029AC00FF3EA000FF3003180030A100A201A11BC4
:1029BC00A2032208A3000330A701A601A500E8305A
:1029CC00A4000A128A158A270A168A11200883166F
:1029DC00E6078312210803110318013E8316031D19
:1029EC00E7078312220803110318013E8316031D07
:1029FC00E8078312230803110318013E8316031DF5
:102A0C00E90783164B308312A800A901AA01AB0178
:102A1C0083166A088312A0000330A101A201A3014E
:102A2C00A701A601A500E830A4000A128A158A277E
:102A3C000A168A112308AF002208AE002108AD0047
:102A4C002008AC000A128A114A250A168A11280895
:102A5C008316E6078312290803110318013E831617
:102A6C00031DE70783122A0803110318013E83167E
:102A7C00031DE80783122B0803110318013E83166C
:102A8C00031DE90783168C2DA901AA01AB0183163E
:102A9C0025086A028312A000A101031CA103A20154
:102AAC00A11BA2032208A300FA30A400A501A601D1
:102ABC00A7010A128A158A270A168A112308AF0061
:102ACC002208AE002108AD002008AC000A128A11C1
:102ADC004A250A168A112B088316E90083122A0844
:102AEC008316E800831229088316E700831228084E
:102AFC008316E60002308312CF0003108316E60D16
:102B0C00E70DE80DE90D8312CF0B832D8312D7014E
:102B1C0083166A08A50067088312C200831666082C
:102B2C008312C1005D30C3006530C4000030E81969
:102B3C0001300A168A1130210A168A118316E40014
:102B4C00640BAB2DFA158312B42DFA1EB52D05307E
:102B5C0083125D02031CB52DFA12FA158711FA1CAB
:102B6C00B92D0130BA2D00308312CF007B1CC02D43
:102B7C000130C12D00304F060319D32D7B10FA1CE8
:102B8C00C82D7B147A137B187A177B1CD32D00303D
:102B9C000A128A110C240A168A117A1DD72D0130BB
:102BAC00D82D003083120313CF00FB1CDF2D013016
:102BBC00E02D00304F060319F22DFB107A1DE72D86
:102BCC00FB14FA13FB18FA17FB1CF22D01300A1236
:102BDC008A110C240A168A117A1F032E00300A124D
:102BEC008A1145260A168A11003036023330031931
:102BFC003502031C1A2E0030132EFA1F1A2E013028
:102C0C000A128A1145260A168A1100303602333010
:102C1C0003193502031C1A2E01300A128A11512095
:102C2C000A168A117A13FA138312031352088316A5
:102C3C00EC005B0603194E2E6C08DB001130EB0127
:102C4C00EB0A6C06031D332E02308312D6000A12D7
:102C5C008A15D8230A168A114E2E12306C06031DC3
:102C6C00392E03302B2E13306C06031D3F2E0430EF
:102C7C002B2E14306C06031D452E05302B2E6C08A4
:102C8C0003194C2E8312D601D60A4E2E8312D6016E
:102C9C008316E501FA19592E83125608031D592E75
:102CAC008316E501E50A8316651C602E8312031357
:102CBC008815632E831203138811153083166C0646
:102CCC00031D6E2E02300A128A1145220A168A1131
:102CDC008312560B772E0A128A1172240A168A1145
:102CEC003C2C02305606031DE92E83166B08031D7F
:102CFC00882E83125D085906031D882E5E085A061D
:102D0C000319CE2E83125D08D9005E08DA0002305A
:102D1C00F7000A30F801F20059080A128A117527D7
:102D2C000A168A110A128A159F230A168A1106306E
:102D3C00F7000A30F801F20059080A128A15BD276B
:102D4C000A168A110A128A159F230A168A11023052
:102D5C00F7000630F8000A30F2005A080A128A11FD
:102D6C0075270A168A110A128A159F230A168A11C8
:102D7C000630F700F8000A30F2005A080A128A15D9
:102D8C00BD270A168A110A128A159F230A168A1160
:102D9C005F08F3000130F3050430F2000A300A1228
:102DAC008A15EF210A168A11831203135F08F300A8
:102DBC000130F3050630F2000A300A128A15EF21B1
:102DCC000A168A11712E03305606031D4D2F8316D9
:102DDC006B08031D092F0A30F20083125F080A12D8
:102DEC008A15BD270A168A118312CF000A30F20009
:102DFC0083165C080A128A15BD270A168A118312DB
:102E0C004F0603191B2F0630F7000330F8000A3069
:102E1C00F20083125F080A128A15BD270A168A115E
:102E2C000A128A159F230A168A1183166B08031D32
:102E3C00372F0A30F20083125F080A128A117527A5
:102E4C000A168A118312CF000A30F20083165C082E
:102E5C000A128A1175270A168A1183124F06031952
:102E6C00492F0230F7000330F8000A30F2008312C9
:102E7C005F080A128A1175270A168A110A128A1516
:102E8C009F230A168A115F088316DC00712E04300A
:102E9C005606031DA52F83166B08031D5E2F831288
:102EAC0065085806031D5E2F66085B060319712E14
:102EBC0083126508D8006608DB000230F7000A3080
:102ECC00F801F20058080A128A1175270A168A119D
:102EDC000A128A159F230A168A110630F7000A3047
:102EEC00F801F20058080A128A15BD270A168A1131
:102EFC000A128A159F230A168A110230F70006302F
:102F0C00F8000A30F2005B080A128A1175270A16BB
:102F1C008A110A128A159F230A168A110630F700A5
:102F2C00F8000A30F2005B080A128A15BD270A164F
:102F3C008A110A128A159F230A168A11712E0530DE
:102F4C005606031DE82F83166B08031DB22F831240
:102F5C0067085C060319712E83126708DC000230C7
:102F6C00F700F8010A128A159F230A168A110630F7
:102F7C00F7000030F8010A128A159F230A168A11ED
:102F8C000230F7000630F8000A30F2005C080A1232
:102F9C008A1175270A168A110A128A159F230A1696
:102FAC008A110630F700F8000A30F2005C080A12A9
:102FBC008A15BD270A168A110A128A159F230A162A
:102FCC008A11712EFA1DF62F5608031DF62FFF30AD
:102FDC00B5005D300A128A15F1230A168A113C2CB1
:102FEC00E81DFC2F8312031387143C2C831203134C
:102FFC0087103C2C0A128A1105290A128A110429FD
:10300C000A128A1135290A128A118B280A128A117E
:10301C00A2280A128A11C6280A128A11D2280A1268
:10302C008A11AE280A128A11BA280A128A11F628B5
:10303C000A128A11FD280A128A11DE280A128A1134
:10304C00E6280A128A11EE280A128A1135290A1268
:10305C008A1135290A128A1135290A128A11352941
:10306C000A128A1114290A128A15D5280A128A15ED
:10307C00EE280A128A15E8280A128A15EB280A1279
:10308C008A15EF280A128A15F0280A128A150829BF
:10309C000A128A157C290A128A1598290A128A158D
:1030AC001C290A128A1548290A128A15C7290A12DC
:1030BC008A15D0290A128A15BC290A128A15D9290F
:0630CC000A128A15E42936
:103ECE0064008001840A0406031900340406682F76
:103EDE000A128A15D8230830F2000030F301F30AD3
:103EEE000A128A15EF290A128A15D8230730F20012
:103EFE000030F301F30A0A128A15EF29F600F700D3
:103F0E000130F4020030031CF503F502740F922FFA
:103F1E00750A03190800770884007208831380005D
:103F2E00F70A872FF601F701721CA32F7408F60704
:103F3E000318F70A7508F7070310F40DF50D0310B3
:103F4E00F30CF20C72087304031D9B2F7708F30019
:103F5E007608F20008000B1DB82F0B118312031305
:103F6E00D30A0B1CD12F8312031306080B10061D48
:103F7E00C22F7A14C32F7A1083120313061EC92F71
:103F8E00FA14CA2FFA1083120313861DD02F7A1536
:103F9E00D12F7A1171088A00700E8300FE0E7E0EEC
:103FAE000900F40084001D3083130006031DEC2F5E
:103FBE00740A840002300006031DEC2F7408023EC2
:103FCE0084000008033903190134740884000008C2
:103FDE00F200740A84000008E23E84000A168A1178
:103FEE0000200A168A15F30072087302031C0034AF
:023FFE0001348C
:04400E00C2EBFFFE04
:00000001FF
