:060000000A128A110C280F
:10000800FE00030EF0000A08F1000A128A158B2878
:100018000A128A110F2883160130D7001630D8012A
:10002800D901DA01DB00FF30DC000730DD000130E8
:10003800DE00DF001030E0000130E100E2001030A7
:10004800E30083120730E000E1000130E200E30042
:100058001030E4000130E500E6001030E700903091
:1000680083178400ED300A128A11EF270A128A11C9
:10007800A03083138400D7300A128A11EF270A129E
:100088008A115030840060300A128A11EF27E80183
:10009800FA0183010A168A11162CB4220A128A114F
:1000A8000230F700F80103230A128A110630F7001C
:1000B8000030F80103230A128A110230F7000630D3
:1000C800F8000A30F20064083C230A128A1103235C
:1000D8000630F700F8000A30F20064080A128A15A0
:1000E800BA270A128A11032B34301D240A128A11E6
:1000F8003408F2003C30F301F400F5019D230A12A4
:100108008A117208B0007308B1003508F2003C305B
:10011800F301F400F5019D230A128A1172083007D1
:10012800B20073080318730A3107B30036083207A0
:10013800F8000030031801303307F90015240A12BB
:100148008A1157230A128A11831603171008F039E7
:10015800013890000F39503890001108F0390238F2
:1001680091000F39503891001208F0390338920085
:100178000F39503892001308F039043893000F39BA
:10018800503893000330EB01EA000230EC00100E07
:100198000F39F200F301F30A10080F3942220A124C
:1001A8008A1183160317110E0F39F200F301F30AAF
:1001B80011080F3942220A128A1183160317120EE8
:1001C8000F39F200F301F30A12080F3942220A121A
:1001D8008A1183160317130E0F39F200F301F30A7D
:1001E80013080F3942220A128A110B3083120313A3
:1001F800AA00AB01B6230A128A112908AD00280803
:10020800AC0060230A128A1150082A06F0392A061F
:10021800D0000B30AA00AB01B6230A128A112908B4
:10022800AD002808AC0060230A128A112A08B00021
:10023800B00E500830060F393006D000500E0F3976
:10024800F200F301F30A50080F3942228312031314
:1002580068100800B700FF3E031C08008400103037
:1002680004020318080008308A000310040D04076C
:10027800003E8200080077220A128A112C240A12F2
:100288008A11F5230A128A11FD230A128A110524FC
:100298000A128A1164260A128A114C2E5E2F672FC1
:1002A800B42A782877220A128A110930F20001301C
:1002B800F301F30A42220A128A1177220A128A11DA
:1002C8000930F2000130F301F30A42220A128A11BE
:1002D8000930F2000230F301F30A42220A128A11AD
:1002E800F52B77220A128A110930F2000130F30146
:1002F800F30A42220A128A110930F2000230F3018D
:10030800F30A42220A128A110930F2000330F3017B
:10031800F30A42220A128A110930F2000430F3016A
:10032800F30A42220A128A110930F2000530F30159
:10033800F30A42220A128A11FD2B77220A128A1125
:100348000930F2000130F301F30A42220A128A113D
:100358000930F2000230F301F30A42220A128A112C
:100368000930F2000330F301F30A42220A128A111B
:100378000930F2000430F301F30A42220A128A110A
:100388000930F2000530F301F30A42220A128A11F9
:100398000930F2000630F301F30A42220A128A11E8
:1003A800052C77220A128A110930F2000130F30174
:1003B800F30A42220A128A110930F2000230F301CC
:1003C800F30A42220A128A110930F2000330F301BB
:1003D800F30A42220A128A11642E77220A128A111B
:1003E8000930F2000130F301F30A42220A128A119D
:1003F8000930F2000230F301F30A42220A128A118C
:100408000930F2000330F301F30A42220A128A117A
:100418000930F2000430F301F30A42220A128A1169
:100428004C2E80220A128A110230F2000030F301A9
:10043800F30A422AB4220A128A110230F20000306A
:10044800F301F30A422AB4220A128A110830F20090
:100458000030F301F30A422A80220A128A11083076
:10046800F2000030F301F30A422A51200A128A11DD
:100478000830F2000030F301F30A422AF60073084C
:10048800031003195F2A760D7E3E84000A168A112E
:1004980000200A128A11F4000A168A110020F500B9
:1004A8000310720DA63E8400740883138004840A26
:1004B800750880040800760D9E3E84000A168A118D
:1004C80000200A128A11F4000A168A110020F50089
:1004D8000310720DA63E8400740883138005840AF5
:1004E80075088005080057230A128A110930F2009E
:1004F8000030F301F30A422AB4220A128A110230A8
:10050800F7000A30F801F2008312031362083C2353
:100518000A128A1103230630F7000A30F801F200A4
:1005280062080A128A15BA270A128A1103230A12C4
:100538008A110230F7000630F8000A30F20063082A
:100548003C230A128A1103230630F700F8000A3008
:10055800F20063080A128A15BA270A128A11032BB5
:1005680057230A128A110A30F2000030F301F30A05
:1005780042220A128A110230F7000A30F801F2000A
:100588008316031351083C230A128A1103230630E9
:10059800F7000A30F801F200831651080A128A158A
:1005A800BA270A128A1103230A128A110230F700A5
:1005B8000630F8000A30F200831652083C230A126B
:1005C8008A1103230630F700F8000A30F200831678
:1005D80052080A128A15BA270A128A1103230A1224
:1005E8008A110430F2000A30F301F30A42220A1297
:1005F8008A110630F2000A30F301F30A422A831204
:100608000313A2000F30A300A401A5010310220DBB
:10061800BE3E84000A168A1100200A128A11A00020
:100628000A168A1100200A128A11A100230A1F2B18
:100638000310A10CA00CFF3E031D1C2B2008F30087
:100648000130F30524087807F200250877074222CD
:100658000A128A11831203130330A303A50A250281
:10066800031C0B2B0530A40A240203180800092BCD
:10067800F300F50172080319552BF401F40AF21B73
:10068800482B0310F20D422B0310F50D720873026C
:10069800031C522B7208F30275140310F20CF40BAE
:1006A800482B750808001830F201F301F400A63051
:1006B800F5010A128A15872CAF01AD1F6A2BAC0908
:1006C800AD09AC0A0319AD0AAF01AF0AAB1F712B14
:1006D800AA09AB09AA0A0319AB0A2A082B040319A9
:1006E800902BAE01AE0AAB1B7D2B0310AA0DAB0DF0
:1006F800762B2B082D02031D832B2A082C02031CA2
:100708008C2B2A08AC022B08031CAD03AD02031086
:10071800AB0CAA0CAE0B7D2B2F080319982BAC0938
:10072800AD09AC0A0319AD0A2D08AB002C08AA00C4
:100738000800F601F701721CA72B7408F6070318C6
:10074800F70A7508F7070310F40DF50D0310F30CFD
:10075800F20C72087304031D9F2B7708F3007608C8
:10076800F20008004130A300C630A2004E30A100BC
:100778006D30A00083165A088312A7008316590803
:100788008312A600831658088312A50083165708FB
:100798008312A400BA2523088316DA0083122208DC
:1007A8008316D900831221088316D80083122008E3
:1007B8008316D7003930D707303003183130D807BF
:1007C800003003180130D907003003180130DA0768
:1007D8005A088312A900831659088312A800A9137E
:1007E800080083120313511CFB2B0030DC2E003051
:1007F800842E83120313D11D032C0C30DC2E0C30F5
:10080800842E83120313511E0F2C0130DC260A128A
:100818008A110230DC2E013084260A128A11023035
:10082800842E78088316D7007908D800D901DA0110
:100838000800F20084005D0883138000720A8400B7
:100848005E0880007208023E84005F08800008008D
:10085800831203135108F30005300310F30CFF3E15
:10086800031D312C73080739702F8312BB00681CD5
:100878003F2C031408003B08031D492C831603175B
:10088800EC0B542C0430EC00542C3B0B542C8316EA
:1008980003170530EC0A6C02031C542CEC01EC0A1B
:1008A80002307C250A128A1100303602C83003193A
:1008B80035020318632C68183D2C03100800023019
:1008C800FB250A128A11831603176A08903E8400D2
:1008D800831700080F3983120313BD00831603170B
:1008E8006A08903E8400000E0F3983120313BE007D
:1008F800A32C831203130B30BD033D02031CB32C3E
:100908000A30BD00B32C831203130B30BD0A3D021D
:10091800031CB32CBD01B32C831203130B30BE038D
:100928003E02031CB32C0A30BE00B32C83120313FF
:100938000B30BE0A3E02031CB32CBE01B32C831637
:1009480003176C08013A0319902C033A0319872CF2
:10095800013A03199A2C073A03197D2CB32C8312F8
:10096800031350080F393D06031DE72C500E0F39AD
:100978003E06031DE72C0B30AA00AB01B6230A1272
:100988008A112908AD002808AC0060230A128A11D0
:1009980050082A06F0392A06D0000B30AA00AB010D
:1009A800B6230A128A112908AD002808AC00602372
:1009B8000A128A112A08BA00BA0E50083A060F39E4
:1009C8003A06D000FF2C831603176B08903E84006C
:1009D800000E0F39F200F3016B08903E8400000806
:1009E8000F3942220A128A11831603175A30EB0A6A
:1009F8006B020318EB01831203133E08F200F301A4
:100A0800F30A3D0842220A128A11831603175A3044
:100A1800EA0A6A020318EA016A08903E840083170A
:100A28000008831203133D06F0393D0680003E0896
:100A3800BA00831603176A08903E840083120313D2
:100A4800BA0E00083A060F393A06800083160317D3
:100A58006A086B06031D352D5A30EB0A6B02031822
:100A6800EB0183120313500E0F39F200F301F30A5E
:100A780050080F3942220A128A11831603176B088D
:100A880083120313BC003C08903E840083170008BF
:100A98000F39BA00831603176A08903E84000008CD
:100AA8000F39831203133A06031D6E2D3C08903E3E
:100AB8008400000E0F39BA00831603176A08903EA7
:100AC8008400000E0F39831203133A06031D6E2D9E
:100AD80068145F2C5A30BC0A3C020318BC01831608
:100AE80003176A08831203133C06031D472D5F2C66
:100AF80083120313B9004B30A800A901AA01AB0166
:100B08005308F200F301F21BF3033908A03E8400F6
:100B180083130008B700B801B71BB803F2023808FE
:100B2800031CF303F302ED250A128A117208A000D0
:100B38007308A1000030A11BFF30A200A3000330FE
:100B4800A701A601A500E830A400BA250A128A1157
:100B58002308AF002208AE002108AD002008AC0031
:100B680004262908B6002808B5000800F601F70190
:100B7800F801F901201CD42D2408F60725080311D3
:100B88000318013E031DF707260803110318013E49
:100B9800031DF807270803110318013E031DF90771
:100BA8000310A40DA50DA60DA70D0310A30CA20CF0
:100BB800A10CA00C2308220421042004031DBE2D2F
:100BC8007908A3007808A2007708A1007608A00099
:100BD8000800F31F08007209F4007309F500F40A0D
:100BE8000319F50A7408F2007508F3000800F2000A
:100BF800A03E840083120313530883138000080067
:100C0800B001B101B201B3012B082A042904280458
:100C18000319432EB401B40AAB1B182E0310A80DF8
:100C2800A90DAA0DAB0D0F2E0310B00DB10DB20D0D
:100C3800B30D2B082F02031D2B2E2A082E02031D8D
:100C48002B2E29082D02031D2B2E28082C02031CED
:100C58003D2E2808AC022908031C290FAD022A08DA
:100C6800031C2A0FAE022B08031C2B0FAF023014F3
:100C78000310AB0CAA0CA90CA80CB40B182E330843
:100C8800AB003208AA003108A9003008A800080003
:100C980083120313511D5A2E0730DC260A128A11BB
:100CA8000930DC260A128A110A30DC2E0730842625
:100CB8000A128A11093084260A128A110A30842EEF
:100CC80083120313D11C762E083084260A128A1147
:100CD8000630DC260A128A110930DC260A128A112B
:100CE8000A30DC2E063084260A128A11093084263E
:100CF8000A128A110A3084260A128A110830DC2E58
:100D0800F500F6010310760D7E3E84000A168A115E
:100D180000200A128A11A0000A168A1100200A125D
:100D28008A11A1000330F20075083427023E8400BE
:100D38000A168A1100200A128A11A2000A168A11BC
:100D480000200A128A11A30020082205A400210805
:100D58002305A50024040319D62E0310760D9E3E04
:100D680084000A168A1100200A128A11A0000A16A5
:100D78008A1100200A128A11A1000330F2007508B6
:100D88003427013E84000A168A1100200A128A11AB
:100D9800A2002207A63E8400200883138005840A47
:100DA800210880050B30F60A760203180800862E03
:100DB800F500F6010310760D7E3E84000A168A11AE
:100DC80000200A128A11A0000A168A1100200A12AD
:100DD8008A11A1000330F20075083427023E84000E
:100DE8000A168A1100200A128A11A2000A168A110C
:100DF80000200A128A11A30020082205A400210855
:100E08002305A500240403192E2F0310760D7E3E1A
:100E180084000A168A1100200A128A11A0000A16F4
:100E28008A1100200A128A11A1000330F200750805
:100E38003427013E84000A168A1100200A128A11FA
:100E4800A2002207A63E8400200883138004840A97
:100E5800210880040B30F60A760203180800DE2EFB
:100E6800F400F30172087418F3070310F20D720806
:100E7800F418F3070310F20D72087419F30703103E
:100E8800F20D7208F419F3070310F20D7208741AC0
:100E9800F3070310F20D7208F41AF3070310F20DAA
:100EA8007208741BF3070310F20D7208F41BF307A2
:100EB8007308080057230A128A110830F20000301C
:100EC800F301F30A422A57230A128A110730F20063
:100ED8000030F301F30A422AF20008307202031CC0
:100EE800772F0730F2007208E00008000317051694
:100EF80085110515851405108316031381179501AF
:100F0800811281110115811401140F178F168F1684
:100F18008B178B1603178801890183120313850128
:100F2800860187018801890183160510851005113E
:100F380085110512851209108910091107108710EB
:100F480086100610881308138812081287130713CF
:100F5800871207128811081187111615961516168B
:100F68008B1508000A168A11CE290A168A11CD296E
:100F78000A168A11002A0A168A1152290A168A1193
:100F88006B290A168A118F290A168A119B290A16B3
:100F98008A1177290A168A1183290A168A11BF2904
:100FA8000A168A11C6290A168A11A7290A168A1149
:100FB800AF290A168A11B7290A168A11002A0A16B1
:100FC8008A11002A0A168A11002A0A168A11002A8A
:100FD8000A168A11DD2964008001840A04060319AF
:060FE80000340406F02FA6
:101000000A128A113F290A128A1154290A128A11D6
:1010100052290A128A1153290A128A1155290A12D1
:101020008A1156290A128A1161290A128A11D529B0
:101030000A128A11F1290A128A1175290A128A11D3
:10104000A1290A128A111E2A0A128A11272A0A12B3
:101050008A11152A0A128A11302A0A128A11392A8B
:101116000B1D91280B1183120313D30A0B1CAA284B
:101126008312031306080B10061D9B287A149C28AD
:101136007A1083120313061EA228FA14A328FA10A3
:1011460083120313861DA9287A15AA287A11710815
:101156008A00700E8300FE0E7E0E0900F4008400E5
:101166001D3083130006031DC528740A840002304F
:101176000006031DC5287408023E840000080339D2
:1011860003190134740884000008F200740A84000C
:101196000008E23E84000A168A1100200A128A1507
:1011A600F30072087302031C00340134B600FF30EA
:1011B600F2000630F301F4003C30F50187240A12F0
:1011C6008A15831203133608840083130008BB00B4
:1011D60018303B0203180800360A84000008C200D3
:1011E6003C30420203180800C30183126819002923
:1011F600FD280029D6270A128A1583162408831289
:10120600B900391C0829BC01C30AB91D18293B08B5
:10121600031D18294208031D182943083C3E840073
:101226000C3083138000C30A362A391E56293B0820
:10123600031D5629193042020318562943083C3E1D
:10124600840083138001800AC30A43083C3E84005D
:10125600023080000530C30A4202031C362A0A30D7
:10126600420203183B2943083C3E840003301529FB
:101276000F3042020318442943083C3E84000430E0
:1012860015291430420203184D2943083C3E8400B8
:1012960005301529193042020318362A43083C3E08
:1012A6008400073015290C30F2003B08BA270A12D1
:1012B6008A158312BB000B303B02031C6429BA015A
:1012C60067293B08013EBA000530420203187F2910
:1012D6003B0B722943083C3E8400193077294308AA
:1012E6003C3E84003B080D3E83138000C30A43083E
:1012F6003C3E84001A30CF290A3042020318952951
:1013060043083C3E8400033083138000C30A43082D
:101316003C3E84000A308000C30A43083C3E8400F9
:101326003B08CE290F30420203189E2943083C3E53
:10133600840004308729143042020318AC2943087C
:101346003C3E8400063083138000C30AB9188A29FC
:10135600CA29193042020318D129391DB729430871
:101366003C3E84000730872943083C3E8400043015
:1013760083138000C30A43083C3E84000930800082
:10138600C30A43083C3E84000B308000C30A43086E
:101396003C3E84003A080D3E8000362A1E3042024A
:1013A6000318DA2943083C3E84000330BB29233066
:1013B60042020318E32943083C3E84000B30222AEC
:1013C600283042020318F32943083C3E84000330C8
:1013D60083138000C30A43083C3E84000A30C229B6
:1013E6002D3042020318132A391D052A43083C3EB4
:1013F6008400073083138000C30A43083C3E840000
:101406000930C82943083C3E840004308313800019
:10141600C30A43083C3E84000A308000C30ADE2922
:10142600323042020318242AB91C1E2A43083C3EC5
:1014360084000630FD2943083C3E840008308313AF
:10144600C8293730420203182D2A43083C3E84003F
:101456000430FD293C3042020318362A43083C3E3C
:1014660084000330FD29C30143083C3E84008313F6
:10147600000A0319672B43083C3E84000008000756
:101486000007013E84000A168A1100200A128A15F6
:10149600B700B8010B30380203188C2A6400831297
:1014A60003130310380D7E3E84000A168A110020AD
:1014B6000A128A15A0000A168A1100200A128A1535
:1014C600A10043083C3E8400831300080007000780
:1014D600023E84000A168A1100200A128A15A2000A
:1014E6000A168A1100200A128A15A300200822056E
:1014F600A40021082305A50024040319842A013029
:10150600852A0030F2003808B1260A128A15B80A70
:101516004D2AF201F20A3708B025E830F20003300E
:10152600F3000310600DD23E84000A168A110020D3
:101536000A128A15F4000A168A1100200A128A1560
:10154600F5008D267308A7007208A600E830F200A1
:101556000330F3000310600DD23E84000A168A1190
:1015660000200A128A15F4000A168A1100200A12AF
:101576008A15F50063260A128A157308A9007208EF
:10158600A800013083120313A8020030031CA9032C
:10159600A902280FD12A290A0319DE2A6400073076
:1015A60083120313A1006030A000A00BD82AA10B60
:1015B600D82ADD2AC42A6400013083120313A60246
:1015C6000030031CA703A702260FEC2A270A0319DB
:1015D600EF2AED2AEE2ADF2A6400F20183120313B2
:1015E6003708B025B030F4000430F5000310600D64
:1015F600D23E84000A168A1100200A128A15A0001B
:101606000A168A1100200A128A15A1002008F4027F
:101616002108031CF503F502E830F2000330F3005D
:101626008D267308AB007208AA00B030F4000430AF
:10163600F5000310600DD23E84000A168A110020C0
:101646000A128A15A0000A168A1100200A128A15A3
:10165600A1002008F4022108031CF503F502E83076
:10166600F2000330F30063260A128A157308AD00F0
:101676007208AC00013083120313AC020030031C65
:10168600AD03AD022C0F4A2B2D0A0319572B64000C
:10169600073083120313A1006030A000A00B512B6A
:1016A600A10B512B562B3D2B6400013083120313E3
:1016B600AA02031CAB032A0F632B2B0A0319662B02
:1016C600642B652B582B6400831203130630C30A60
:1016D6004302031C372AFF30F201B1260A128A158B
:1016E600682C0130F201F20AB1260A128A150A3074
:1016F600F201F20AB1260A128A150930F201F20A3B
:10170600B1260A128A150030F201F20AB1260A122F
:101716008A150B30F201F20AB025E830F2000330E8
:10172600F3000310600DD23E84000A168A110020D1
:101736000A128A15F4000A168A1100200A128A155E
:10174600F5008D267308AF007208AE00E830F2008F
:101756000330F3000310600DD23E84000A168A118E
:1017660000200A128A15F4000A168A1100200A12AD
:101776008A15F50063260A128A157308B1007208E5
:10178600B000013083120313B0020030031CB10312
:10179600B102300FD12B310A0319DE2B640007305A
:1017A60083120313A1006030A000A00BD82BA10B5D
:1017B600D82BDD2BC42B6400013083120313AE0239
:1017C6000030031CAF03AF022E0FEC2B2F0A0319B8
:1017D600EF2BED2BEE2BDF2B64000B30F201B02547
:1017E600B030F4000430F5000310600DD23E8400E2
:1017F6000A168A1100200A128A15A0000A168A11F2
:1018060000200A128A15A1002008F4022108031CF0
:10181600F503F502E830F2000330F3008D26730875
:10182600B3007208B200B030F4000430F5000310C3
:10183600600DD23E84000A168A1100200A128A150B
:10184600A0000A168A1100200A128A15A100200893
:10185600F4022108031CF503F502E830F200033018
:10186600F30063260A128A157308B5007208B400DD
:10187600013083120313B4020030031CB503B50212
:10188600340F482C350A0319552C6400073083128F
:101896000313A1006030A000A00B4F2CA10B4F2C0E
:1018A600542C3B2C6400013083120313B202003027
:1018B600031CB303B302320F632C330A0319662CDD
:1018C600642C652C562C6400842C0530F2004208EA
:1018D600BA270A128A158312A000A1012108003A2C
:1018E6000319762C842C2008013A0319862B033A17
:1018F6000319802B013A03197A2B073A0319742B23
:10190600842CFF30F201B12EF700F6000130F4020C
:101916000030031CF503F502740F942C750A0319A5
:10192600080076088400720883138000F60A892C62
:1019360083120313AE01AF0103102F0D7E3E840008
:101946000A168A1100200A128A15A0000A168A11A0
:1019560000200A128A15A10003102E0DA63E84004F
:1019660083130008A200840A0008A30020082205A9
:10197600A40021082305A50024040319C42C013062
:10198600C52C0030F2002F08B1260A128A150B303A
:10199600AF0A2F02031CA02CF201F20A2E08B02572
:1019A600E830F2000330F3000310600DD23E8400ED
:1019B6000A168A1100200A128A15F4000A168A11DC
:1019C60000200A128A15F5008D267308A7007208F2
:1019D600A600E830F2000330F3000310600DD23E9B
:1019E60084000A168A1100200A128A15F4000A16C3
:1019F6008A1100200A128A15F50063260A128A1532
:101A06007308A9007208A800013083120313A80204
:101A16000030031CA903A902280F142D290A031953
:101A2600212D6400073083120313A1006030A0004B
:101A3600A00B1B2DA10B1B2D202D072D64000130A3
:101A460083120313A6020030031CA703A702260F66
:101A56002F2D270A0319322D302D312D222D64000A
:101A6600FF30F201B025B030F4000430F500031069
:101A7600600DD23E84000A168A1100200A128A15C9
:101A8600A0000A168A1100200A128A15A100200851
:101A9600F4022108031CF503F502E830F2000330D6
:101AA600F3008D267308AB007208AA00B030F4006C
:101AB6000430F5000310600DD23E84000A168A1128
:101AC60000200A128A15A0000A168A1100200A129E
:101AD6008A15A1002008F4022108031CF503F5026B
:101AE600E830F2000330F30063260A128A15730801
:101AF600AD007208AC00013083120313AC02003053
:101B0600031CAD03AD022C0F8B2D2D0A0319982D46
:101B16006400073083120313A1006030A000A00BFD
:101B2600922DA10B922D972D7E2D640001308312EC
:101B36000313AA02031CAB032A0FA42D2B0A0319B5
:101B4600A72DA52DA62D992D6400831203130C3005
:101B5600AE0A2E02031808009E2CF300392E721CC2
:101B6600B82D8312031386140800831203138610FC
:101B76000800721CC22D8312031306140800831278
:101B8600031306100800721CCC2D8312031388174A
:101B960008008312031388130800721CD62D8312C3
:101BA6000313081708008312031308130800721C96
:101BB600E02D83120313881608008312031388127C
:101BC6000800721CEA2D83120313081608008312FC
:101BD600031308120800721CF42D831203138717CF
:101BE60008008312031387130800721CFE2D83124C
:101BF6000313071708008312031307130800721C48
:101C0600082E831203138716080083120313871204
:101C16000800721C122E8312031307160800831283
:101C2600031307120800721C1C2E83120313881557
:101C360008008312031388110800721C262E8312D3
:101C460003130815080083120313081108008312F2
:101C560003138610061088130813881208128713B8
:101C66000713871207128811081108007308003A33
:101C76000319B22D013A0319BC2D033A0319C62DD7
:101C8600013A0319D02D073A0319DA2D013A03193F
:101C9600E42D033A0319EE2D013A0319F82D0F3AF4
:101CA6000319022E013A03190C2E033A0319162EB4
:101CB600013A0319202EF43A03192A2E2A2E080077
:101CC600F701F801720873040319882EF601F60A63
:101CD600F31B712E0310F20DF30D6A2E0310F70D90
:101CE600F80D73087502031D7A2E72087402031C20
:101CF600842E7208F4027308031CF503F5027714A8
:101D06000310F30CF20CF60B712E7808F30077082B
:101D1600F2000800720873040319AC2EF601F60AE5
:101D2600F31B992E0310F20DF30D922E7308750214
:101D3600031D9F2E72087402031CA82E7208F4025B
:101D46007308031CF503F5020310F30CF20CF60BF3
:101D5600992E7508F3007408F2000800F300932F1B
:101D6600721CB92E83120313051408008312031381
:101D760005100800721CC32E831203138514080075
:101D86008312031385100800721CCD2E83120313D1
:101D9600051508008312031305110800721CD72EBF
:101DA6008312031385150800831203138511080097
:101DB600721CE12E83120313051608008312031307
:101DC60005120800721CEB2E8312031385160800F9
:101DD6008312031385120800721CF52E8312031357
:101DE600091408008312031309100800721CFF2E41
:101DF6008312031389140800831203138910080041
:101E0600721C092F8312031309150800831203138A
:101E160009110800721C132F8312031307140800FC
:101E26008312031307100800721C1D2F831203135D
:101E3600871408008312031387100800721C272FCB
:101E46008312031305142A2F831203130510721C21
:101E5600302F831203138514332F83120313851037
:101E6600721C392F8312031305153C2F831203139B
:101E76000511721C422F831203138515452F8312F9
:101E860003138511721C4B2F8312031305164E2F55
:101E9600831203130512721C542F83120313851623
:101EA600572F831203138512721C5D2F831203139F
:101EB6000914602F831203130910721C662F8312F4
:101EC60003138914692F831203138910721C6F2F51
:101ED600831203130915722F831203130911721C3F
:101EE600782F8312031307147B2F83120313071013
:101EF600721C812F831203138714080083120313A5
:101F0600871008008312031305108510051185112B
:101F1600051285120910891009110710871008008B
:101F26007308003A0319B32E013A0319BD2E033A7A
:101F36000319C72E013A0319D12E073A0319DB2ECE
:101F4600013A0319E52E033A0319EF2E013A031954
:101F5600F92E0F3A0319032F013A03190D2F033AED
:101F66000319172FF53A0319212F852F0800F400BE
:101F76000830F500F6017408F30007300310F30C7F
:101F8600FF3E0310031DC22F760D7304F6000310E7
:101F9600F40D72087602031CD22F7208F602F50BB6
:101FA600BE2F760808000130EB270A128A15F300C7
:101FB6000030EB270A128A1583160313A400A530F6
:101FC60073060319E82FE130A40083126815080090
:101FD600F2006400831603178C18EC2F7208831224
:101FE6008D003F3083168C050C1403100C18031457
:101FF6000318013083120C08080010308A00040808
:10200600840A8207003400340034DC340034E034BF
:10201600013401340034E0340234003478340234BC
:1020260080340734023480347F340334E0340F3490
:102036000134E0340F340334E034FF340434003424
:102046007034043400340F3405340034F03406346C
:10205600E034FF340934E03403340534E034013429
:10206600053400340F34073400347834083400342F
:10207600F034093400343C340734C03407340834AF
:10208600C0340F340634E03401340A3400341E34CC
:102096000A340034F03409340034E0340534C034F2
:1020A60001340A34E0340034023411340334063483
:1020B60001340C3404340334053404340034153448
:1020C60006340734073408340834093409340A342A
:1020D6000A340B340B3401340C340D340D340E3405
:1020E6000E340F340F3410341034023400341234EA
:1020F60000341334003414340034003415341534E9
:102106000034803400344034003420340034103439
:10211600003408340034043400340234003401340A
:102126008034003440340034203400341034003419
:1021360008340034043400340234003401340034EA
:10214600FF347F34FF34BF34FF34DF34FF34EF34E1
:10215600FF34F734FF34FB34FF34FD34FF34FE34F0
:102166007F34FF34BF34FF34DF34FF34EF34FF34C1
:10217600F734FF34FB34FF34FD34FF34FE34FF34D0
:10218600DE34F63492342434CE34E7349E34E734E5
:102196009234B7349E34F334DE34F3349234E43478
:1021A600DE34F7349E34F734963400342C3401345C
:1021B600C234013458340234EE34023484340334E5
:1021C6001A340434B034043400341F341C341F343D
:1021D6001E341F341E341F341F341E341F341E3465
:0221E6001F34A4
:10223000C1005208BF0052300310BF0D3F07C0005D
:102240004108400784000A168A1100200A168A11E4
:1022500052060319F0295208BF0052300310BF0D77
:102260003F07C0004108400784000A168A11002079
:102270000A168A11F9005208012283120313520828
:10228000BF0052300310BF0D3F07C0004108400798
:1022900084000A168A1100200A168A11D2000A1236
:1022A0008A112E2983160830DD0A5D020318DD012C
:1022B0001F308312D10583165D088312BF000430DE
:1022C0000310BF0DFF3E0310031D61293F0DD10414
:1022D0000A128A112C2C01305106BF000139C000AE
:1022E0005108FE394004D1000A128A11F52B08303A
:1022F0005106BF000839C0005108F7394004D10029
:102300000A128A11FD2B10305106BF001039C0008F
:102310005108EF394004D1000A128A11052C02300D
:102320005106BF000239C0005108FD394004D100F8
:102330000A128A11642E04305106BF000439C0000D
:102340005108FB394004D1000A128A114C2E20306A
:10235000E20A6206031DAE29E201E20A362B0D30C5
:10236000E30A6306031DB629E301E30A932B1E303B
:10237000E40A6406031DBE291030E400B22B831664
:102380001830D10A51060319D101542B83163C3061
:10239000D20A52060319D201732BD12BE81CD22981
:1023A000E810D329E8140A30F2000030E8180130B0
:1023B000F3000A300A128A11422A41080A128A11CD
:1023C00039240A168A11031C08000530F900520846
:1023D0000122053083120313D2000A128A112E291A
:1023E0005208FD3E031C0800840013300402031849
:1023F000080007308A000310040D0407B63E82006F
:102400000800A100790803190800063079020318B2
:1024100008002108003A0319172A013A03194E2A25
:10242000033A03195B2A013A03197B2A7E2A831295
:102430006819212A1C2A212A0A128A15D6270A1667
:102440008A11831624088312D1008316A3008312F5
:10245000A00005300310A00CFF3E031D2A2A20080F
:102460008316DD000730DD056230C6220A168A11A8
:102470006230F2000330F300DE30F401AB22D130E1
:102480000A128A111D240A168A11D130F200033073
:10249000F300CE30F401AB22E81008005108831697
:1024A00023060319080083125108E82283125108F9
:1024B0008316A3000800CE30F2000330F300D130C1
:1024C000F4017F220A168A117208730403196C2A18
:1024D000D130D6220A168A11DE30F2000330F30022
:1024E0006230F4017F220A168A11720873040319FC
:1024F00008006230232BE81C0800342B0800F7008A
:102500000130F3020030031CF403F402730F8B2A32
:10251000740A0319A82A7208840083130008F500BE
:1025200077088400000875060319A52A720884003C
:102530000008F500770884000008F60075087602A8
:10254000F200F301031CF3030800F70AF20A802AE1
:10255000F201F3010800F8007208F7007808F600AD
:102560000130F3020030031CF403F402730FBB2AA2
:10257000740A03190800770884000008F50076083B
:10258000840075088000F70AF60AB02AF200840079
:102590008312650883138000720A84006608800035
:1025A0007208023E8400670880000800F200840080
:1025B0008313000883120313DD00720A84000008ED
:1025C000DE007208023E84000008DF00FA150800F1
:1025D000F4007408F5006819F22A0A128A15D62741
:1025E0000A168A118316240875060319080075084F
:1025F000F200003009230A168A11A530F2000130DA
:10260000092300300A128A15EB2783160313A4004E
:102610000800F30003178C180A2B730883128D002F
:1026200072088C003F3083168C0503108B1B03143B
:102630008B130C1555308D00AA308D008C140C11A5
:1026400003188B170800F20084008313000883121C
:102650000313E500720A84000008E6007208023ED7
:1026600084000008E7000800FA1108000230F700B3
:102670000A30F801F20062080A128A113C230A1695
:102680008A110A128A1103230A168A110630F700EA
:102690000A30F801F20062080A128A15BA270A16EF
:1026A0008A110A128A11032B0230F7000A30F8014E
:1026B000F20051080A128A113C230A168A110A12E2
:1026C0008A1103230A168A110630F7000A30F8012E
:1026D000F200831651080A128A15BA270A168A11BF
:1026E0000A128A11032B0230F7000630F8000A3074
:1026F000F20052080A128A113C230A168A110A12A1
:102700008A1103230A168A110630F700F8000A30EE
:10271000F200831652080A128A15BA270A168A117D
:102720000A128A11032B0230F7000630F8000A3033
:10273000F20063080A128A113C230A168A110A124F
:102740008A1103230A168A110630F700F8000A30AE
:10275000F20063080A128A15BA270A168A110A12A9
:102760008A11032B0230F7000630F8000A30F2001D
:1027700064080A128A113C230A168A110A128A1165
:1027800003230A168A110630F700F8000A30F20017
:1027900064080A128A15BA270A168A110A128A11BF
:1027A000032BF801F201F20A78080A128A15B02503
:1027B0000A168A11F901F201F20A79080A128A1539
:1027C000B1260A168A113230F600F7010130F602FE
:1027D0000030031CF703F702760FF12B770A031979
:1027E000FC2B64000730F5006030F400F40BF62B8E
:1027F000F50BF62BFB2BE62B6400F20179080A128D
:102800008A15B1260A168A110B30F90A7902031CBF
:10281000DB2BF20178080A128A15B0250A168A11F4
:102820000C30F80A780203180800D22B0A128A1119
:102830007A270A168A117B14FB1483126819272C35
:10284000222C272C0A128A15D6270A168A118316DB
:1028500024088312CF0005300310CF0CFF3E031D68
:102860002C2C4F0807390A128A1170270A168A1170
:1028700053088316EA00EB0164004B308316031300
:102880006A02031C702C4B308312D30204305702AF
:10289000031CD70A3C30DF0A5F02031C702C3C305B
:1028A000DF01DE0A5E02031C702C1830DE01DD0A37
:1028B0005D02031C702C6530DD01E50A0A128A15E1
:1028C000B1200A168A11003A031D702C0D30E50163
:1028D000E50AE60A6602031C702CE601E60AE70A2E
:1028E000FA1D7F2C043083125D06031D7F2C5E08C9
:1028F000031D7F2C5F08031D7F2CFA16FA11FA19AD
:10290000B52D831287157A1C872C0130882C003056
:10291000CF00E81D8D2C01308E2C00304F0603199E
:10292000B52DE8117A1C952CE8158312031357086E
:102930004B30A80003194A2DA901AA01AB01CF0011
:102940008316250883124F02A000A101031CA103D6
:10295000A201A11BA2032208A3000330A701A60124
:10296000A500E830A4000A128A11BA250A168A11B5
:102970002308AF002208AE002108AD002008AC00FB
:102980000A128A1104260A168A112B088316E900F6
:1029900083122A088316E800831229088316E700A9
:1029A000831228088316E60083125708FF3EA00012
:1029B000FF3003180030A100A201A11BA2032208CE
:1029C000A3000330A701A601A500E830A4000A1265
:1029D0008A11BA250A168A1120088316E60783127F
:1029E000210803110318013E8316031DE707831214
:1029F000220803110318013E8316031DE807831202
:102A0000230803110318013E8316031DE9078316EB
:102A10004B308312A800A901AA01AB0183166A08F2
:102A20008312A0000330A101A201A301A701A60106
:102A3000A500E830A4000A128A11BA250A168A11E4
:102A40002308AF002208AE002108AD002008AC002A
:102A50000A128A1104260A168A1128088316E60724
:102A60008312290803110318013E8316031DE7078B
:102A700083122A0803110318013E8316031DE80779
:102A800083122B0803110318013E8316031DE90767
:102A900083168C2DA901AA01AB01831625086A02B1
:102AA0008312A000A101031CA103A201A11BA20388
:102AB0002208A300FA30A400A501A601A7010A126A
:102AC0008A11BA250A168A112308AF002208AE001F
:102AD0002108AD002008AC000A128A1104260A164B
:102AE0008A112B088316E90083122A088316E8004E
:102AF000831229088316E700831228088316E6004C
:102B000002308312CF0003108316E60DE70DE80DA7
:102B1000E90D8312CF0B832D8312D70183166A0828
:102B2000A50067088312C200831666088312C100DD
:102B30005D30C3006530C4000030E81901300A166A
:102B40008A1516250A168A118316E400640BAB2D2C
:102B5000FA158312B42DFA1EB52D053083125D02CD
:102B6000031CB52DFA12FA158711FA1CB92D013084
:102B7000BA2D00308312CF007B1CC02D0130C12D37
:102B800000304F060319D32D7B10FA1CC82D7B147F
:102B90007A137B187A177B1CD32D00300A128A1106
:102BA000FB250A168A117A1DD72D0130D82D003049
:102BB00083120313CF00FB1CDF2D0130E02D00300A
:102BC0004F060319F22DFB107A1DE72DFB14FA13A3
:102BD000FB18FA17FB1CF22D01300A128A11FB2593
:102BE0000A168A117A1F032E00300A128A117C25D8
:102BF0000A168A1100303602333003193502031CDD
:102C00001A2E0030132EFA1F1A2E01300A128A11C2
:102C10007C250A168A11003036023330031935023A
:102C2000031C1A2E01300A168A1118210A168A115D
:102C30007A13FA138312031352088316EC005B060F
:102C400003194E2E6C08DB001130EB01EB0A6C0609
:102C5000031D332E02308312D6000A128A11572325
:102C60000A168A114E2E12306C06031D392E0330BF
:102C70002B2E13306C06031D3F2E04302B2E1430E8
:102C80006C06031D452E05302B2E6C0803194C2EA7
:102C90008312D601D60A4E2E8312D6018316031351
:102CA000E501831256080319FA19592E8316E50116
:102CB000E50A8316651C602E831203138815632EA4
:102CC000831203138811153083166C06031D6E2EB4
:102CD00002300A128A1139240A168A118312560BFD
:102CE000772E0A128A159B240A168A11382C023074
:102CF0005606031DE92E83166B08031D882E8312CA
:102D00005D085906031D882E5E085A060319CE2E4B
:102D100083125D08D9005E08DA000230F7000A303D
:102D2000F801F20059080A128A113C230A168A1186
:102D30000A128A1103230A168A110630F7000A3094
:102D4000F801F20059080A128A15BA270A168A11E0
:102D50000A128A1103230A168A110230F70006307C
:102D6000F8000A30F2005A080A128A113C230A16A7
:102D70008A110A128A1103230A168A110630F700F3
:102D8000F8000A30F2005A080A128A15BA270A1601
:102D90008A110A128A1103230A168A115F08F300A6
:102DA0000130F3050430F2000A300A128A1142227F
:102DB0000A168A11831203135F08F3000130F3052A
:102DC0000630F2000A300A128A1142220A168A11CB
:102DD000712E03305606031D4D2F83166B08031DFD
:102DE000092F0A30F20083125F080A128A15BA27E7
:102DF0000A168A118312CF000A30F20083165C088B
:102E00000A128A15BA270A168A1183124F06031965
:102E10001B2F0630F7000330F8000A30F20083124F
:102E20005F080A128A15BA270A168A110A128A112D
:102E300003230A168A1183166B08031D372F0A30E5
:102E4000F20083125F080A128A113C230A168A11C3
:102E50008312CF000A30F20083165C080A128A112E
:102E60003C230A168A1183124F060319492F023098
:102E7000F7000330F8000A30F20083125F080A12EC
:102E80008A113C230A168A110A128A1103230A1690
:102E90008A115F088316DC00712E04305606031D6C
:102EA000A52F83166B08031D5E2F83126508580635
:102EB000031D5E2F66085B060319712E83126508D9
:102EC000D8006608DB000230F7000A30F801F20093
:102ED00058080A128A113C230A168A110A128A110A
:102EE00003230A168A110630F7000A30F801F200AF
:102EF00058080A128A15BA270A168A110A128A1164
:102F000003230A168A110230F7000630F8000A304F
:102F1000F2005B080A128A113C230A168A110A126F
:102F20008A1103230A168A110630F700F8000A30C6
:102F3000F2005B080A128A15BA270A168A110A12C9
:102F40008A1103230A168A11712E05305606031DB5
:102F5000E82F83166B08031DB22F831267085C06E7
:102F60000319712E83126708DC000230F700F801A4
:102F70000A128A1103230A168A110630F70000305C
:102F8000F8010A128A1103230A168A110230F70087
:102F90000630F8000A30F2005C080A128A113C235D
:102FA0000A168A110A128A1103230A168A11063098
:102FB000F700F8000A30F2005C080A128A15BA27F6
:102FC0000A168A110A128A1103230A168A11712E0F
:102FD000FA1DF62F5608031DF62FFF30F9005D305D
:102FE0000A128A15D9200A168A11382CE81DFC2FDE
:102FF000831203138714382C831203138710382C81
:103A2C00C700C80147080319C82D06304202D73019
:103A3C0003194102031CB52D073042029E300319B5
:103A4C0041020318B52D3B307A165506031D3B2D4C
:103A5C00D430F200BE303F270A168A15E130F2004E
:103A6C00BE3024260A168A15212E76305506031DE3
:103A7C00B32D4930F200C6303F270A168A154C3058
:103A8C00F200C63024260A168A15831654088312AF
:103A9C004906031D8E2D4A08FF3EC500FF30031852
:103AAC000030C60083165508831245064604031DD4
:103ABC008E2D8316560883124B06031D8E2D8316EE
:103ACC00610883124C06031D8E2D83166208831227
:103ADC004D06031D8E2D8316630883124E06031D9F
:103AEC008E2D4308840049088000840A4A0880000F
:103AFC00840A4B088000440884004C088000840A27
:103B0C004D088000840A4E088000C801C80A212E86
:103B1C00C630F2000830F300BE30F4010A168A11E8
:103B2C00AB220A168A153B30D50049088316D400FF
:103B3C0083124A088316D50083124B088316D600CD
:103B4C0083124C088316E10083124D088316E200A1
:103B5C0083124E088316E300212ED501212E02304C
:103B6C004202EE3003194102031CC32D0330420202
:103B7C00B73003194102031C212E0230D5017A12F1
:103B8C00C800212E3B305506031DCE2D7A1ED22D9A
:103B9C0076305506031DD52DD5017A12DD2D3B301F
:103BAC005506031DDD2D0830D4000730E100550803
:103BBC00031DE52D0730D401E1008316BE01003052
:103BCC00831242023330031941020030031C022ECF
:103BDC0042029630031941020318012ED50A6108DE
:103BEC00031D202E0730E100D40A5408BE3E840089
:103BFC0083138001212E00304202973003194102B9
:103C0C00031CC32D00304202FA3003194102031881
:103C1C00C32DD50A5408BE3E84000130C500610A8C
:103C2C00192E0310C50DFF3E031D172E45088313D7
:103C3C008004F52DE103831248080800C0007208C7
:103C4C0084008001720A840080017208023E8400A4
:103C5C0080014008043E8400801D362E0130372E32
:103C6C000030F30072088400730880074008043E9B
:103C7C0084000019432EA001452E0230A000A101A2
:103C8C0072088400200880074008043E84008018D5
:103C9C00512EA201532E0430A200A30172088400FD
:103CAC00220880074008043E840000185F2EA401FF
:103CBC00612E0830A400A501720884002408800736
:103CCC004008053E8400801B6D2EA6016F2E0A3025
:103CDC00A600A70172088400260880074008053E4C
:103CEC008400001B7B2EA8017D2E1430A800A90196
:103CFC0072088400280880074008053E8400001DD7
:103D0C00892E01308A2E0030F300720A8400730869
:103D1C0080074008053E84008018962EAA01982E34
:103D2C000230AA00AB01720A84002A0880074008FE
:103D3C00053E84000018A42EAC01A62E0430AC0065
:103D4C00AD01720A84002C0880074008063E8400EE
:103D5C00801BB22EAE01B42E0830AE00AF01720A39
:103D6C0084002E0880074008063E8400001BC02EED
:103D7C00B001C22E0A30B000B101720A84003008C2
:103D8C0080074008063E8400801ECE2E0130CF2EC8
:103D9C000030F3007208023E84007308800740086C
:103DAC00063E8400001ADC2EB201DE2E0230B20078
:103DBC00B3017208023E8400320880074008063EB8
:103DCC0084008019EB2EB401ED2E0430B400B50143
:103DDC007208023E8400340880074008063E8400C6
:103DEC000019FA2EB601FC2E0830B600B701720885
:103DFC00023E8400360880074008063E8400801886
:103E0C00092FB8010B2F0A30B800B9017208023E15
:103E1C008400380880074008063E84000018182FDC
:103E2C00BA011A2F1430BA00BB017208023E84008A
:103E3C003A0880074008073E8400801B272FBC01EE
:103E4C00292F2830BC00BD017208023E84003C08BA
:103E5C0080074008073E8400001B362FBE01382F18
:103E6C005030BE00BF017208023E84003E0880073D
:103E7C000800B6007208840083138001720A840063
:103E8C0080017208023E840080013608023E8400E4
:103E9C00001D522F0130532F0030F300720A8400A2
:103EAC00730880073608023E840080185F2FA0013B
:103EBC00612F0230A000A101720A84002008800743
:103ECC003608023E840000186D2FA2016F2F0430BB
:103EDC00A200A301720A8400220880073608033E60
:103EEC008400801B7B2FA4017D2F0830A400A5012A
:103EFC00720A8400240880073608033E8400001BE5
:103F0C00892FA6018B2F0A30A600A701720A840004
:103F1C00260880073608033E8400801A972FA801D4
:103F2C00992F1430A800A901720A84002808800770
:103F3C003608033E8400001AA52FAA01A72F2830AB
:103F4C00AA00AB01720A84002A0880073608033ED7
:103F5C008400001DB32F0130B42F0030F300720821
:103F6C008400730880073608033E84008018C02F35
:103F7C00AC01C22F0230AC00AD01720884002C08D9
:103F8C0080073608033E84000018CE2FAE01D02FD8
:103F9C000430AE00AF01720884002E08800736088A
:103FAC00043E8400801BDC2FB001DE2F0830B000F3
:103FBC00B10172088400300880073608043E840082
:103FCC00001BEA2FB201EC2F0A30B200B3017208C9
:103FDC008400320880073608043E8400801AF82FCB
:103FEC00B401FA2F1430B400B501720884003408FF
:043FFC008007080032
:04400E00C2EBFFFE04
:00000001FF
