:060000000A128A110C280F
:10000800FE00030EF0000A08F1000A168A117B2987
:100018000A128A110F2883160130D3001430D40134
:10002800D501D601D700FF30D8000130D900DA0059
:100038001030DB000130DC00DD000A30DE00831206
:100048000730E1000130E200E3001030E400013045
:10005800E500E6001030E700903083178400ED30AB
:100068000A128A11E2270A128A11A0308313840027
:10007800D3300A128A11E2270A128A1150308400FA
:1000880061300A128A11E227E801FA0183010A168F
:100098008A11792CC700C80147080319FE280630C1
:1000A8004202D73003194102031CEB2807304202F1
:1000B8009E30031941020318EB283B30FA16560606
:1000C800031D7328D030F200BA3075220A128A1143
:1000D800DC30F200BA305A210A128A1157297630D8
:1000E8005606031DE9284930F200C23075220A126B
:1000F8008A114C30F200C2305A210A128A11831632
:10010800500883124906031DC6284A08FF3EC50049
:10011800FF3003180030C6008316510883124506C5
:100128004604031DC6288316520883124B06031D76
:10013800C62883165C0883124C06031DC62883163E
:100148005D0883124D06031DC62883165E088312B8
:100158004E06031DC6284308840049088000840A07
:100168004A088000840A4B088000440884004C0830
:100178008000840A4D088000840A4E088000C80167
:10018800C80A5729C230F2000830F300BA30F40127
:1001980096240A128A113B30D60049088316D000EB
:1001A80083124A088316D10083124B088316D200A3
:1001B80083124C088316DC0083124D088316DD0079
:1001C80083124E088316DE005729D60157290230BC
:1001D8004202EE3003194102031CF928033042029F
:1001E800B73003194102031C57290230D601FA120D
:1001F800C80057293B305606031D0429FA1E082952
:1002080076305606031D0B29D601FA1213293B3006
:100218005606031D13290830D5000730E10056089B
:10022800031D1B290730D501E1008316BA010030F0
:10023800831242023330031941020030031C38296B
:10024800420296300319410203183729D60A610879
:10025800031D56290730E100D50A5508BA3E840027
:100268008313800157290030420297300319410255
:10027800031CF92800304202FA300319410203181E
:10028800F928D60A5508BA3E84000130C500610A2B
:100298004F290310C50DFF3E031D4D294508831343
:1002A80080042B29E103831248080800C000720863
:1002B80084008001720A840080017208023E840072
:1002C80080014008043E8400801D6C2901306D299E
:1002D8000030F30072088400730880074008043E69
:1002E800840000197929A0017B290230A000A1010E
:1002F80072088400200880074008043E84008018A3
:100308008729A20189290430A200A3017208840068
:10031800220880074008043E840000189529A4019B
:1003280097290830A400A5017208840024088007D2
:100338004008053E8400801BA329A601A5290A3090
:10034800A600A70172088400260880074008053E19
:100358008400001BB129A801B3291430A800A90101
:1003680072088400280880074008053E8400001DA4
:10037800BF290130C0290030F300720A84007308D5
:1003880080074008053E84008018CC29AA01CE29A0
:100398000230AA00AB01720A84002A0880074008CC
:1003A800053E84000018DA29AC01DC290430AC00D1
:1003B800AD01720A84002C0880074008063E8400BC
:1003C800801BE829AE01EA290830AE00AF01720AA5
:1003D80084002E0880074008063E8400001BF6298A
:1003E800B001F8290A30B000B101720A840030085F
:1003F80080074008063E8400801E042A0130052A32
:100408000030F3007208023E840073088007400839
:10041800063E8400001A122AB201142A0230B200E1
:10042800B3017208023E8400320880074008063E85
:1004380084008019212AB401232A0430B400B501AC
:100448007208023E8400340880074008063E840093
:100458000019302AB601322A0830B600B7017208EE
:10046800023E8400360880074008063E8400801853
:100478003F2AB801412A0A30B800B9017208023E81
:100488008400380880074008063E840000184E2A79
:10049800BA01502A1430BA00BB017208023E840027
:1004A8003A0880074008073E8400801B5D2ABC018B
:1004B8005F2A2830BC00BD017208023E84003C0857
:1004C80080074008073E8400001B6C2ABE016E2A84
:1004D8005030BE00BF017208023E84003E0880070B
:1004E8000800B6007208840083138001720A840031
:1004F80080017208023E840080013608023E8400B2
:10050800001D882A0130892A0030F300720A84000D
:10051800730880073608023E84008018952AA001D7
:10052800972A0230A000A101720A840020088007DF
:100538003608023E84000018A32AA201A52A043026
:10054800A200A301720A8400220880073608033E2D
:100558008400801BB12AA401B32A0830A400A50195
:10056800720A8400240880073608033E8400001BB2
:10057800BF2AA601C12A0A30A600A701720A840070
:10058800260880073608033E8400801ACD2AA80171
:10059800CF2A1430A800A901720A8400280880070D
:1005A8003608033E8400001ADB2AAA01DD2A283017
:1005B800AA00AB01720A84002A0880073608033EA5
:1005C8008400001DE92A0130EA2A0030F30072088D
:1005D8008400730880073608033E84008018F62AD2
:1005E800AC01F82A0230AC00AD01720884002C0876
:1005F80080073608033E84000018042BAE01062B42
:100608000430AE00AF01720884002E088007360857
:10061800043E8400801B122BB001142B0830B0005C
:10062800B10172088400300880073608043E84004F
:10063800001B202BB201222B0A30B200B301720832
:100648008400320880073608043E8400801A2E2B66
:10065800B401302B1430B400B5017208840034089A
:100668008007080083120313B6005208B400523002
:100678000310B40D3407B5003608350784000A1294
:100688008A1102270A128A1152060319EC2B520802
:10069800B40052300310B40D3407B50036083507DE
:1006A80084000A128A1102270A128A11F9005208D4
:1006B800FD23831203135208B40052300310B40D03
:1006C8003407B5003608350784000A128A11022754
:1006D8000A128A11D2000A128A15DA2C0130510640
:1006E800B4000139B5005108FE393504D1000A12A9
:1006F8008A15BE2F08305106B4000839B5005108D4
:10070800F7393504D1000A128A15852F10305106A1
:10071800B4001039B5005108EF393504D1000A1278
:100728008A15912F02305106B4000239B5005108DC
:10073800FD393504D100C92C04305106B400043900
:10074800B5005108FB393504D100B12C2030E20A3C
:100758006206031DB12BE201E20A2E2E0D30E30AD8
:100768006306031DB92BE301E30A8B2E1E30E40A4E
:100778006406031DC12B1030E400AA2E831618301E
:10078800CD0A4D060319CD014C2E83163C30CE0AF6
:100798004E060319CE016B2EC92E7A1ED52B7A125E
:1007A800D62B7A160A30F200F301F30A0A128A15D8
:1007B800C32D36080A168A11D8220A128A11031C78
:1007C8000800F9015208FD2300300A128A15DA2CB4
:1007D8005208FD3E031C080084000D300402031873
:1007E800080010308A000310040D04072D3E820013
:1007F8000800A000790803190800063079020318D8
:1008080008002008003A0319132C013A03193A2C5E
:10081800033A0319462C013A0319662C692C681807
:100828001C2C172C1C2C0A128A15CA270A128A118A
:100838005408D1008316A0006230C3250A128A1119
:100848006230F2000330F300D930F4019624CD3041
:100858000A128A15AF270A128A11CD30F200033026
:10086800F300CA30F40196247A120800510883165E
:1008780020060319080083125108E525510883163C
:10088800A0000800CA30F2000330F300CD30F401B4
:100898006A240A128A11720873040319572CCD307E
:1008A800D3250A128A11D930F2000330F3006230DE
:1008B800F4016A240A128A117208730403190800E1
:1008C80062301B2E7A1E08002C2E0800F70001301B
:1008D800F3020030031CF403F402730F762C740A3D
:1008E8000319932C7208840083130008F500770815
:1008F8008400000875060319902C7208840000080B
:10090800F500770884000008F60075087602F20002
:10091800F301031CF3030800F70AF20A6B2CF20137
:10092800F3010800F8007208F7007808F6000130B3
:10093800F3020030031CF403F402730FA62C740AAC
:1009480003190800770884000008F5007608840079
:1009580075088000F70AF60A9B2C83120313511DB1
:10096800BF2C073041250A128A11093041250A1285
:100978008A110A30412D0730E9240A128A110930F8
:10098800E9240A128A110A30E92C83120313D11CB4
:10099800DB2C0830E9240A128A11063041250A1294
:1009A8008A11093041250A128A110A30412D063070
:1009B800E9240A128A110930E9240A128A110A3034
:1009C800E9240A128A110830412DF500F6010310B6
:1009D800760D7A3E84000A128A1102270A128A11B9
:1009E800A0000A128A1102270A128A11A1000330F4
:1009F800F20075089925023E84000A128A1102271E
:100A08000A128A11A2000A128A1102270A128A11EE
:100A1800A30020082205A40021082305A50024041A
:100A280003193B2D0310760D9A3E84000A128A1191
:100A380002270A128A11A0000A128A1102270A1232
:100A48008A11A1000330F20075089925013E84003F
:100A58000A128A1102270A128A11A2002207A23E4C
:100A68008400200883138005840A210880050B3040
:100A7800F60A760203180800EB2CF500F6010310BD
:100A8800760D7A3E84000A128A1102270A128A1108
:100A9800A0000A128A1102270A128A11A100033043
:100AA800F20075089925023E84000A128A1102276D
:100AB8000A128A11A2000A128A1102270A128A113E
:100AC800A30020082205A40021082305A50024046A
:100AD8000319932D0310760D7A3E84000A128A11A9
:100AE80002270A128A11A0000A128A1102270A1282
:100AF8008A11A1000330F20075089925013E84008F
:100B08000A128A1102270A128A11A2002207A23E9B
:100B18008400200883138004840A210880040B3091
:100B2800F60A760203180800432DF400F301720850
:100B38007418F3070310F20D7208F418F307031082
:100B4800F20D72087419F3070310F20D7208F41904
:100B5800F3070310F20D7208741AF3070310F20D6D
:100B68007208F41AF3070310F20D7208741BF307E6
:100B78000310F20D7208F41BF30773080800F20063
:100B880084008312650883138000720A8400660853
:100B980080007208023E8400670880000800F200A6
:100BA80084008313000883120313DE00720A840092
:100BB8000008DF007208023E84000008E000FA1511
:100BC8000800F400F5009F30F505F5176818F12DB9
:100BD8000A128A15CA270A128A11540875060319B7
:100BE80008007508F2000030002600300A128A1545
:100BF800D9270313D4000800F300831603178C18B1
:100C0800012E730883128D0072088C003F30831602
:100C18008C0503108B1B03148B130C1555308D009A
:100C2800AA308D008C140C1103188B170800F200E1
:100C380084008313000883120313E500720A8400FA
:100C48000008E6007208023E84000008E700080079
:100C5800FA1108000230F7000A30F801F2006208C1
:100C68000A128A15BD260A128A110A128A158426C2
:100C78000A128A110630F7000A30F801F2006208F9
:100C88000A128A15D8260A128A110A128A15842E7F
:100C98000230F7000A30F801F2004D080A128A15EE
:100CA800BD260A128A110A128A1584260A128A1186
:100CB8000630F7000A30F801F20083164D080A12D0
:100CC8008A15D8260A128A110A128A15842E023029
:100CD800F7000630F8000A30F2004E080A128A15AA
:100CE800BD260A128A110A128A1584260A128A1146
:100CF8000630F700F8000A30F20083164E080A1290
:100D08008A15D8260A128A110A128A15842E0230E8
:100D1800F7000630F8000A30F20063080A128A1554
:100D2800BD260A128A110A128A1584260A128A1105
:100D38000630F700F8000A30F20063080A128A1534
:100D4800D8260A128A110A128A15842E0230F70050
:100D58000630F8000A30F20064080A128A15BD2627
:100D68000A128A110A128A1584260A128A11063072
:100D7800F700F8000A30F20064080A128A15D8262B
:100D88000A128A110A128A15842EF701F201F20A50
:100D980077080A128A153A230A128A11F801F20111
:100DA800F20A78080A128A1531220A128A11640096
:100DB8000230F6004030F5002730F400F40BE22E44
:100DC800F50BE22EF60BE22EE92EF20178080A1254
:100DD8008A1531220A128A110B30F80A7802031C8C
:100DE800D32EF20177080A128A153A230A128A11B9
:100DF8000C30F70A770203180800CA2E07308A0059
:100E08000408840A8207003400340034DC340034D7
:100E1800E034013401340034E034023400347834EE
:100E2800023480340734023480347F340334E034AD
:100E38000F340134E0340F340334E034FF34043425
:100E480000347034043400340F3405340034F03482
:100E58000634E034FF340934E03403340534E03434
:100E68000134053400340F3407340034783408343E
:100E78000034F034093400343C340734C0340734C7
:100E88000834C0340F340634E03401340A340034F2
:100E98001E340A340034F03409340034E0340534A4
:100EA800C03401340A34E0340034023410340334DA
:100EB800063401340B340434033405340434053463
:100EC800053406340734073408340834093409343F
:100ED8000A340A3401340B340C340C340D340D3418
:100EE8000E340E340F340F3402340034113400340D
:100EF80012340034133400340034003480340034A5
:100F080040340034203400341034003408340034C1
:100F18000434003402340034013480340034403462
:100F280000342034003410340034083400340434DD
:100F380000340234003401340034FF347F34FF3489
:100F4800BF34FF34DF34FF34EF34FF34F734FF3479
:100F5800FB34FF34FD34FF34FE347F34FF34BF34B8
:100F6800FF34DF34FF34EF34FF34F734FF34FB341D
:100F7800FF34FD34FF34FE34FF34DE34F63492346B
:100F88002434CE34E7349E34E7349234B7349E3474
:100F9800F334DE34F3349234E434DE34F7349E34FC
:100FA800F73400341F341C341F341E341F341E34ED
:100FB8001F341F341E341F341E341F346400800154
:0C0FC800840A0406031900340406E32F19
:10101E00A600FF30F2000630F301F4002C30F5018B
:10102E00ED230A128A158312260884008313000802
:10103E00AB0018302B0203180800260A84000008A3
:10104E00B2003C30320203180800B301681834288D
:10105E0031283428CA270A128A155408A9002918DB
:10106E003A28AC01B30AA91D4A282B08031D4A28A9
:10107E003208031D4A2833082C3E84000C3083139B
:10108E008000B30A6829291E88282B08031D88288A
:10109E00193032020318882833082C3E840083133B
:1010AE008001800AB30A33082C3E8400023080008F
:1010BE000530B30A3202031C68290A3032020318C3
:1010CE006D2833082C3E8400033047280F3032023F
:1010DE000318762833082C3E840004304728143039
:1010EE00320203187F2833082C3E8400053047282F
:1010FE00193032020318682933082C3E8400073059
:10110E0047280C30F2002B08D8260A128A158312B3
:10111E00AB000B302B02031C9628AA0199282B0832
:10112E00013EAA00053032020318B1282B0BA42869
:10113E0033082C3E84001930A92833082C3E840035
:10114E002B080D3E83138000B30A33082C3E840017
:10115E001A3001290A3032020318C72833082C3EF0
:10116E008400033083138000B30A33082C3E8400BE
:10117E000A308000B30A33082C3E84002B08002965
:10118E000F3032020318D02833082C3E840004306E
:10119E00B928143032020318DE2833082C3E84009E
:1011AE00063083138000B30AA918BC28FC28193016
:1011BE00320203180329291DE92833082C3E840026
:1011CE000730B92833082C3E840004308313800086
:1011DE00B30A33082C3E840009308000B30A33086A
:1011EE002C3E84000B308000B30A33082C3E840062
:1011FE002A080D3E800068291E30320203180C2981
:10120E0033082C3E84000330ED28233032020318BD
:10121E00152933082C3E84000B3054292830320215
:10122E000318252933082C3E8400033083138000D5
:10123E00B30A33082C3E84000A30F4282D303202D3
:10124E0003184529291D372933082C3E8400073001
:10125E0083138000B30A33082C3E84000930FA2829
:10126E0033082C3E8400043083138000B30A330805
:10127E002C3E84000A308000B30A1029323032022C
:10128E0003185629A91C502933082C3E8400063019
:10129E002F2933082C3E840008308313FA28373068
:1012AE00320203185F2933082C3E840004302F29A4
:1012BE003C3032020318682933082C3E8400033078
:1012CE002F29B30133082C3E84008313000A03191F
:1012DE00D72933082C3E8400000800070007013E82
:1012EE0084000A128A1102270A128A15A700A80181
:1012FE000B3028020318BE29640083120313031057
:10130E00280D7A3E84000A128A1102270A128A15C3
:10131E00A0000A128A1102270A128A15A1003308A8
:10132E002C3E84008313000800070007023E840051
:10133E000A128A1102270A128A15A2000A128A11AB
:10134E0002270A128A15A30020082205A4002108EC
:10135E002305A50024040319B6290130B72900304E
:10136E00F200280831220A128A15A80A7F29F201F2
:10137E00F20A27083A230A128A15640008308312EB
:10138E000313A100A730A000A00BCB29A10BCB29E2
:10139E00D029F2018312031327083A230A128A1561
:1013AE000630B30A3302031C6929FF30F2013122E1
:1013BE000A128A15122A0130F201F20A31220A1299
:1013CE008A150A30F201F20A31220A128A15093000
:1013DE00F201F20A31220A128A150030F201F20AE3
:1013EE0031220A128A150B30F201F20A3A230A123E
:1013FE008A156400083083120313A100A730A000E1
:10140E00A00B072AA10B072A0C2A0B30F2013A2354
:10141E000A128A152E2A0530F2003208D8260A1230
:10142E008A158312A000A1012108003A0319202A6F
:10143E002E2A2008013A0319F429033A0319EE293A
:10144E00013A0319E829073A0319E2292E2AFF3037
:10145E00F201312AF300132B721C392A8312031363
:10146E00051408008312031305100800721C432A8A
:10147E0083120313851408008312031385100800CA
:10148E00721C4D2A831203130515080083120313D1
:10149E0005110800721C572A8312031385150800C4
:1014AE008312031385110800721C612A8312031321
:1014BE00051608008312031305120800721C6B2A0E
:1014CE008312031385160800831203138512080076
:1014DE00721C752A83120313091408008312031356
:1014EE0009100800721C7F2A831203138914080046
:1014FE008312031389100800721C892A83120313A6
:10150E00091508008312031309110800721C932A8F
:10151E008312031307140800831203130710080025
:10152E00721C9D2A8312031387140800831203135F
:10153E0087100800721CA72A831203130514AA2A07
:10154E00831203130510721CB02A83120313851421
:10155E00B32A831203138510721CB92A8312031344
:10156E000515BC2A831203130511721CC22A83129D
:10157E0003138515C52A831203138511721CCB2AFA
:10158E00831203130516CE2A831203130512721C3F
:10159E00D42A831203138516D72A831203138512B6
:1015AE00721CDD2A831203130914E02A831203131B
:1015BE000910721CE62A831203138914E92A831276
:1015CE0003138910721CEF2A831203130915F22AD2
:1015DE00831203130911721CF82A831203130714C2
:1015EE00FB2A831203130710721C012B83120313A1
:1015FE008714080083120313871008008312031345
:10160E000510851005118511051285120910891016
:10161E0009110710871008007308003A0319332ABE
:10162E00013A03193D2A033A0319472A013A0319CD
:10163E00512A073A03195B2A013A0319652A033A1C
:10164E0003196F2A013A0319792A0F3A0319832ACB
:10165E00013A03198D2A033A0319972AF53A031909
:10166E00A12A052B0800F300C32B721C422B8312F8
:10167E000313861408008312031386100800721CCD
:10168E004C2B831203130614080083120313061047
:10169E000800721C562B831203138817080083123E
:1016AE00031388130800721C602B83120313081790
:1016BE0008008312031308130800721C6A2B83128E
:1016CE000313881608008312031388120800721C75
:1016DE00742B8312031308160800831203130812C7
:1016EE000800721C7E2B83120313871708008312C7
:1016FE00031387130800721C882B8312031307171A
:10170E0008008312031307130800721C922B831216
:10171E000313871608008312031387120800721C26
:10172E009C2B831203130716080083120313071250
:10173E000800721CA62B831203138815080083124F
:10174E00031388110800721CB02B831203130815A3
:10175E000800831203130811080083120313861066
:10176E00061088130813881208128713071387129E
:10177E0007128811081108007308003A03193C2B50
:10178E00013A0319462B033A0319502B013A031958
:10179E005A2B073A0319642B013A03196E2B033A9D
:1017AE000319782B013A0319822B0F3A03198C2B4C
:1017BE00013A0319962B033A0319A02B013A031988
:1017CE00AA2BF43A0319B42BB42B0800F700F60039
:1017DE000130F4020030031CF503F502740FFA2BEE
:1017EE00750A0319080076088400720883138000B6
:1017FE00F60AEF2B35260A128A150230F700F80189
:10180E0084260A128A150630F7000030F801842665
:10181E000A128A150230F7000630F8000A30F2007C
:10182E006408BD260A128A1584260A128A15063005
:10183E00F700F8000A30F2006408D8260A128A155A
:10184E00842E3030AF270A128A153008F2003C3051
:10185E00F301F400F50138270A128A157208AC005C
:10186E007308AD003108F2003C30F301F400F501CD
:10187E0038270A128A1572082C07AE00730803184F
:10188E00730A2D07AF0032082E07F8000030031838
:10189E0001302F07F900A7270A128A15F4260A121B
:1018AE008A15831603171008F039013890000F3986
:1018BE00503890001108F039023891000F39503825
:1018CE0091001208F039033892000F395038920007
:1018DE001308F039043893000F3950389300033051
:1018EE00EB01EA000230EC00100E0F39F200F301AA
:1018FE00F30A10080F39C3250A128A158316031727
:10190E00110E0F39F200F301F30A11080F39C32536
:10191E000A128A1583160317120E0F39F200F301FD
:10192E00F30A12080F39C3250A128A1583160317F4
:10193E00130E0F39F200F301F30A13080F39C32502
:10194E000A128A150B3083120313A600A701512722
:10195E000A128A152508A9002408A800FB260A12D7
:10196E008A1550082606F0392606D0000B30A60040
:10197E00A70151270A128A152508A9002408A800D4
:10198E00FB260A128A152608AC00AC0E50082C064F
:10199E000F392C06D000500E0F39F200F301F30A66
:1019AE0050080F39C32D83120313B300FF3E031CDF
:1019BE00080084000F3004020318080010308A005B
:1019CE000310040D0407003E82000800F8250A12D9
:1019DE008A15BE270A128A1585270A128A1591279B
:1019EE000A128A11C9240A128A150A128A11B12CF6
:1019FE00EE2FF72F352E282CF8250A128A150930CE
:101A0E00F2000130F301F30AC3250A128A1583127C
:101A1E000313511C080000300A128A11412DF825BB
:101A2E000A128A150930F2000130F301F30AC325B8
:101A3E000A128A150930F2000230F301F30AC325A7
:101A4E000A128A150930F2000330F301F30AC32596
:101A5E000A128A150930F2000430F301F30AC32585
:101A6E000A128A15852FF8250A128A150930F200F6
:101A7E000130F301F30AC3250A128A150930F20068
:101A8E000230F301F30AC3250A128A150930F20057
:101A9E000330F301F30AC3250A128A150930F20046
:101AAE000430F301F30AC3250A128A150930F20035
:101ABE000530F301F30AC3250A128A15912FF82572
:101ACE000A128A150930F2000130F301F30AC32518
:101ADE000A128A150930F2000230F301F30AC32507
:101AEE000A128A11C92CF8250A128A150930F20039
:101AFE000130F301F30AC3250A128A150930F200E8
:101B0E000230F301F30AC3250A128A150930F200D6
:101B1E000330F301F30AC3250A128A11B12C0126F0
:101B2E000A128A150230F2000030F301F30AC32DB7
:101B3E0035260A128A150230F2000030F301F30A3C
:101B4E00C32D35260A128A150830F2000030F30133
:101B5E00F30AC32D01260A128A150830F20000304E
:101B6E00F301F30AC32D01240A128A150830F2007C
:101B7E000030F301F30AC32DF600730803100319A6
:101B8E00E02D760D7A3E84000A128A1102270A127F
:101B9E008A15F4000A128A110227F5000310720D3D
:101BAE00A23E8400740883138004840A750880049E
:101BBE000800760D9A3E84000A128A1102270A1234
:101BCE008A15F4000A128A110227F5000310720D0D
:101BDE00A23E8400740883138005840A750880056C
:101BEE000800F4260A128A150930F2000030F301BB
:101BFE00F30AC32D35260A128A150230F7000A3071
:101C0E00F801F200831203136208BD260A128A1528
:101C1E0084260A128A150630F7000A30F801F200FF
:101C2E006208D8260A128A1584260A128A150230EC
:101C3E00F7000630F8000A30F2006308BD260A12DB
:101C4E008A1584260A128A150630F700F8000A3023
:101C5E00F2006308D8260A128A15842EF4260A1278
:101C6E008A150A30F2000030F301F30AC3250A1276
:101C7E008A150230F7000A30F801F20083160313BA
:101C8E004D08BD260A128A1584260A128A150630B8
:101C9E00F7000A30F801F20083164D08D8260A1212
:101CAE008A1584260A128A150230F7000630F800CB
:101CBE000A30F20083164E08BD260A128A158426B3
:101CCE000A128A150630F700F8000A30F200831661
:101CDE004E08D8260A128A1584260A128A1504304E
:101CEE00F2000A30F301F30AC3250A128A150630F0
:101CFE00F2000A30F301F30AC32D83120313A2007C
:101D0E000F30A300A401A5010310220DBA3E8400DA
:101D1E000A128A1102270A128A15A0000A128A11C3
:101D2E0002270A128A15A100230AA02E0310A10C65
:101D3E00A00CFF3E031D9D2E2008F3000130F3057D
:101D4E0024087807F20025087707C3250A128A159A
:101D5E00831203130330A303A50A2502031C8C2E42
:101D6E000530A40A2402031808008A2EF300F50198
:101D7E0072080319D62EF401F40AF21BC92E0310B1
:101D8E00F20DC32E0310F50D72087302031CD32E31
:101D9E007208F30275140310F20CF40BC92E7508B9
:101DAE000800F4000830F500F6017408F30007305F
:101DBE000310F30CFF3E0310031DE02E760D73048B
:101DCE00F6000310F40D72087602031CF02E720852
:101DDE00F602F50BDC2E760808001830F201F3013E
:101DEE00F400A230F501ED2BAB01A91F052FA809B8
:101DFE00A909A80A0319A90AAB01AB0AA71F0C2F40
:101E0E00A609A709A60A0319A70A26082704031973
:101E1E002B2FAA01AA0AA71B182F0310A60DA70D78
:101E2E00112F27082902031D1E2F26082802031C26
:101E3E00272F2608A8022708031CA903A9020310AE
:101E4E00A70CA60CAA0B182F2B080319332FA809C1
:101E5E00A909A80A0319A90A2908A7002808A60093
:101E6E000800F601F701721C422F7408F6070318DA
:101E7E00F70A7508F7070310F40DF50D0310F30CB0
:101E8E00F20C72087304031D3A2F7708F3007608DC
:101E9E00F20008004130F500C630F4004E30F30079
:101EAE006D30F20083165608F9005508F8005408F4
:101EBE00F7005308F6000A168A11C9217508831611
:101ECE00D6007408D5007308D4007208D3003930D8
:101EDE00D307303003183130D407003003180130E7
:101EEE00D507003003180130D60756088312A50017
:101EFE00831655088312A400A5130800831203133A
:101F0E00D11D8D2F0C300A128A11412D0C300A1260
:101F1E008A11E92C83120313511E9F2F01300A12CE
:101F2E008A1141250A128A1502300A128A11412D90
:101F3E0001300A128A11E92402300A128A11E92CA0
:101F4E0078088316D3007908D400D501D60108008D
:101F5E00F20084005E0883138000720A84005F081A
:101F6E0080007208023E8400600880000800831220
:101F7E000313511CC62F00300A128A11412D003056
:101F8E000A128A11E92C0030D9270A128A15031376
:101F9E00D4006039031DD52FD41BD72F8130D40028
:101FAE0068140800F2006400831603178C18DA2FE9
:101FBE00720883128D003F3083168C050C140310AB
:101FCE000C1803140318013083120C080800F426B1
:101FDE000A128A150830F2000030F301F30AC32DFD
:101FEE00F4260A128A150730F2000030F301F30AC4
:101FFE00C32D0A128A15ED2C0A128A15012D0A120A
:10200E008A15FF2C0A128A15002D0A128A15022D26
:10201E000A128A15032D0A128A15662D0A128A15BE
:10202E007A2D0A128A15162D0A128A153A2D0A12BF
:10203E008A159F2D0A128A15A82D0A128A15962D19
:10204E000A128A15B12D0A128A15BA2D0A128A1190
:10205E00D12B0A128A11D02B0A128A11DD2B0A12E9
:10206E008A11722B0A128A11962B0A128A11A02B30
:10207E000A128A117E2B0A128A118A2B0A128A11CF
:10208E00C22B0A128A11C92B0A128A11AA2B0A1202
:0A209E008A11B22B0A128A11BA2B24
:1022F6000B1D81290B1183120313D30A0B1C9A2978
:102306008312031306080B10061D8B297A148C29D9
:102316007A1083120313061E9229FA149329FA10CF
:1023260083120313861D99297A159A297A11710841
:102336008A00700E8300FE0E7E0E0900F4008400F3
:102346001D3083130006031DB529740A840002306C
:102356000006031DB5297408023E840000080339EF
:1023660003190134740884000008F200740A84001A
:102376000008CE3E84000A128A1102270A168A1124
:10238600F30072087302031C003401348312A001A7
:10239600A101A201A301721CE52976088312A007F8
:1023A600770803110318013E031DA10778080311DE
:1023B6000318013E031DA207790803110318013E05
:1023C600031DA3070310F60DF70DF80DF90D031005
:1023D600F50CF40CF30CF20C750874047304720417
:1023E600031DCE2983122308F5002208F4002108D4
:1023F600F3002008F20008000317051685110515DD
:102406008514051083160313811795018112811116
:102416000115811401140F178F168F168B178B1643
:102426000317880189018312031385018601870139
:10243600880189018316051085100511851105127D
:1024460085120910891009110710871086100610C9
:1024560088130813881208128713071387120712A6
:102466008811081187111615961516168B15080072
:10247600AC01AD01AE01AF012708260425042404F2
:1024860003197A2AB001B00AA71B4F2A0310A40D1C
:10249600A50DA60DA70D462A0310AC0DAD0DAE0D6C
:1024A600AF0D27082B02031D622A26082A02031DE8
:1024B600622A25082902031D622A24082802031C11
:1024C600742A2408A8022508031C250FA902260839
:1024D600031C260FAA022708031C270FAB022C1485
:1024E6000310A70CA60CA50CA40CB00B4F2A2F08A2
:1024F600A7002E08A6002D08A5002C08A400080099
:1025060083120313A001A1010310210D7A3E84005A
:102516000A128A1102270A168A11F4000A128A116F
:1025260002270A168A11F5000310200DA23E840028
:1025360083130008F600840A0008F700740876057D
:10254600F80075087705F90078040319AC2A0130FC
:10255600AD2A0030F20021080A128A1531220A1625
:102566008A110B30A10A2102031C882AF201F20A01
:1025760020080A128A153A230A168A1164000730BF
:10258600F5006030F400F40BC62AF50BC62ACB2AF8
:10259600FF30F2010A128A153A230A168A110C3004
:1025A600A00A200203180800862AAD002D08031D84
:1025B600E32A83160317EC0B832B0430EC00832BE2
:1025C6002D0B832B831603170530EC0A6C06031DAF
:1025D600832BEC01EC0A832B6A08903E8400831758
:1025E60000080F3983120313AF00831603176A0816
:1025F600903E840000080F3983120313AC00AC032D
:1026060000082C06F0392C0680000B302F02031C24
:102616000E2B0A30AF00831603176A08903E84001B
:10262600000E0F3983120313B000932B6A08903EF5
:102636008400831700080F3983120313AF00831633
:1026460003176A08903E840000080F3983120313AB
:10265600AC00AC0A00082C06F0392C0680000B30C2
:102666002F02031C0E2BAF010E2B6A08903E84002E
:102676008317000E0F3983120313B0008316031756
:102686006A08903E8400000E0F3983120313AC00D3
:10269600AC03AC0E00082C060F392C0680000B305C
:1026A6003002031C582B0A30B000831603176A0841
:1026B600903E840000080F3983120313AF00932B5A
:1026C6006A08903E84008317000E0F3983120313A5
:1026D600B000831603176A08903E8400000E0F3977
:1026E60083120313AC00AC0AAC0E00082C060F399B
:1026F6002C0680000B303002031C582BB001582BDF
:10270600831603176C08013A0319382B033A031989
:10271600192B013A0319632B073A0319EF2A932B56
:102726008312031350080F392F06031DCF2B500EAB
:102736000F393006031DCF2B0B30A600A7010A1256
:102746008A1551270A168A112508A9002408A80007
:102756000A128A15FB260A168A1150082606F0392F
:102766002606D0000B30A600A7010A128A155127AB
:102776000A168A112508A9002408A8000A128A1533
:10278600FB260A168A112608AC00AC0E50082C0649
:102796000F392C06D000082C831603176B08903EC1
:1027A6008400831700080F3983120313AC00500806
:1027B6000F392C06031DEE2B831603176B08903E6C
:1027C6008400000E0F3983120313AC00500E0F392C
:1027D6002C060319012C831603176B08903E840000
:1027E600000E0F39F200F3016B08903E84000008DA
:1027F6000F390A128A15C3250A168A11831603177A
:102806005A30EB0A6B020318EB01831203133008EC
:10281600F200F301F30A2F080A128A15C3250A16D5
:102826008A11831603175A30EA0A6A020318EA0164
:102836006A08903E840083170008831203132F064C
:10284600F0392F0680003008AC00831603176A089B
:10285600903E840083120313AC0E00082C060F3939
:102866002C068000831603176A086B06031D402C8E
:102876005A30EB0A6B020318EB016B088312031341
:10288600AE002E08903E840000080F39AC00831677
:1028960003176A08903E840000080F398312031359
:1028A6002C06031D6A2C2E08903E8400000E0F395C
:1028B600AC00831603176A08903E8400000E0F3999
:1028C600831203132C06031D6A2C031408005A30C6
:1028D600AE0A2E020318AE01831603176A08831286
:1028E60003132E06031D442C031008000A168A1132
:1028F600FF210A168A117B14FB14831253088316D0
:10290600E500E60164004B30831603136502031CE1
:10291600B92C4B308312D30204305802031CD80A58
:102926003C30E00A6002031CB92C3C30E001DF0AAF
:102936005F02031CB92C1830DF01DE0A5E02031C9D
:10294600B92C6530DE01E50A0A168A11A1210A169C
:102956008A11003A031DB92C0D30E501E50AE60A95
:102966006602031CB92CE601E60AE70AFA1DC82C22
:10297600043083125E06031DC82C5F08031DC82C95
:102986006008031DC82CFA17FA11FA19CC2C831209
:1029960087157A1CD02C0130D12C00308312CF0041
:1029A6007A1FD72C0130D82C00304F060319F62D8C
:1029B6007A137A1CDF2C7A178312031358084B30CC
:1029C600A40003198C2DA501A601A701CF0083162B
:1029D600210883124F02F200F301031CF303F401F2
:1029E600F31BF4037408F5000330F901F801F7004E
:1029F600E830F6000A168A11C9210A168A117508E6
:102A0600AB007408AA007308A9007208A8000A1689
:102A16008A113B220A168A1127088316E4008312BC
:102A260026088316E300831225088316E200831224
:102A360024088316E10083125808FF3EF200FF3097
:102A460003180030F300F401F31BF4037408F500D7
:102A56000330F901F801F700E830F6000A168A118A
:102A6600C9210A168A1172088316E1077308031131
:102A76000318013E031DE207740803110318013E03
:102A8600031DE307750803110318013E031DE40740
:102A96004B308312A400A501A601A7018316650881
:102AA600F2000330F301F401F501F901F801F70032
:102AB600E830F6000A168A11C9210A168A11750825
:102AC600AB007408AA007308A9007208A8000A16C9
:102AD6008A113B220A168A1124088316E1078312FB
:102AE600250803110318013E8316031DE20783120E
:102AF600260803110318013E8316031DE3078312FC
:102B0600270803110318013E8316031DE4078316E5
:102B1600CD2DA501A601A701831621086502F200A5
:102B2600F301031CF303F401F31BF4037408F5002B
:102B3600FA30F600F701F801F9010A168A11C921DF
:102B46000A168A117508AB007408AA007308A90052
:102B56007208A8000A168A113B220A168A1127084B
:102B66008316E400831226088316E30083122508E1
:102B76008316E200831224088316E10002308312D2
:102B8600CF0003108316E10DE20DE30DE40D831271
:102B9600CF0BC42D8312D80183166508A1006208E5
:102BA6008312C200831661088312C1005E30C3001F
:102BB6006530C40000307A1B01300A128A114E209B
:102BC6000A168A118316DF005F0BEC2DFA158312A5
:102BD600F52DFA1FF62D053083125E02031CF62D25
:102BE600FA13FA158711FA1CFA2D0130FB2D003065
:102BF6008312CF007B1C012E0130022E00304F06BF
:102C060003190D2E7B10FA1C092E7B147B1C272E14
:102C16000030222E7A1D112E0130122E0030CF00E8
:102C2600FB1C172E0130182E00304F060319272ED5
:102C3600FB107A1D1F2EFB14FB1C272E01300A12D7
:102C46008A1136230A168A11831203135208831631
:102C5600E700570603195B2E6708D7001030E60118
:102C6600E60A6706031D402E02308312D7000A12B9
:102C76008A15F4260A168A115B2E11306706031D83
:102C8600462E0330382E12306706031D4C2E0430B4
:102C9600382E13306706031D522E0530382E67086E
:102CA6000319592E8312D701D70A5B2E8312D70137
:102CB6008316E001831257080319FA19652E831645
:102CC600E001E00A8316601C6C2E8312031388153C
:102CD6006F2E831203138811570B772E0A168A114B
:102CE60083220A168A11802C02305706031DE92E0C
:102CF60083166608031D882E83125E085A06031D76
:102D0600882E5F085B060319CE2E83125E08DA0052
:102D16005F08DB000230F7000A30F801F2005A08BB
:102D26000A128A15BD260A168A110A128A158426DF
:102D36000A168A110630F7000A30F801F2005A081E
:102D46000A128A15D8260A168A110A128A158426A4
:102D56000A168A110230F7000630F8000A30F2002F
:102D66005B080A128A15BD260A168A110A128A15E6
:102D760084260A168A110630F700F8000A30F20097
:102D86005B080A128A15D8260A168A110A128A15AB
:102D960084260A168A116008F3000130F305043010
:102DA600F2000A300A128A15C3250A168A118312FE
:102DB60003136008F3000130F3050630F2000A3011
:102DC6000A128A15C3250A168A11712E0330570670
:102DD600031D4D2F83166608031D092F0A30F200C6
:102DE600831260080A128A15D8260A168A118312D7
:102DF600CF000A30F200831658080A128A15D82620
:102E06000A168A1183124F0603191B2F0630F70084
:102E16000330F8000A30F200831260080A128A159D
:102E2600D8260A168A110A128A1584260A168A11C3
:102E360083166608031D372F0A30F20083126008D6
:102E46000A128A15BD260A168A118312CF000A3085
:102E5600F200831658080A128A15BD260A168A1128
:102E660083124F060319492F0230F7000330F8008A
:102E76000A30F200831260080A128A15BD260A1665
:102E86008A110A128A1584260A168A116008831680
:102E9600D800712E04305706031DA52F8316660829
:102EA600031D5E2F831265085906031D5E2F6608F3
:102EB6005C060319712E83126508D9006608DC00CA
:102EC6000230F7000A30F801F20059080A128A1592
:102ED600BD260A168A110A128A1584260A168A112E
:102EE6000630F7000A30F801F20059080A128A156E
:102EF600D8260A168A110A128A1584260A168A11F3
:102F06000230F7000630F8000A30F2005C080A12B8
:102F16008A15BD260A168A110A128A1584260A16E9
:102F26008A110630F700F8000A30F2005C080A122F
:102F36008A15D8260A168A110A128A1584260A16AE
:102F46008A11712E05305706031DE82F8316660871
:102F5600031DB22F831267085D060319712E8312B3
:102F66006708DD000230F700F8010A128A15842688
:102F76000A168A110630F7000030F8010A128A157F
:102F860084260A168A110230F7000630F8000A3045
:102F9600F2005D080A128A15BD260A168A110A125F
:102FA6008A1584260A168A110630F700F8000A30B8
:102FB600F2005D080A128A15D8260A168A110A1224
:102FC6008A1584260A168A11712EFA1DF62F5708BD
:102FD600031DF62FFF30F8005E300A128A150F2007
:102FE6000A168A11802C7A1FFC2F8312031387146A
:0A2FF600802C831203138710802C37
:04400E00C2EBFFFE04
:00000001FF
