:060000000A128A110C280F
:10000800FE00030EF0000A08F1000A168A11BD2846
:100018000A128A110F2883160130D6001530D7012D
:10002800D801D901DA00FF30DB000130DC00DD0047
:100038001030DE000130DF00E0001030E1008312F4
:100048000730E1000130E200E3001030E400013045
:10005800E500E6001030E700903083178400ED30AB
:100068000A128A11F8270A128A11A0308313840011
:10007800D6300A128A11F8270A128A1150308400E1
:1000880061300A128A11F827E801FA0183010A1679
:100098008A11312CC1005208BF0052300310BF0D25
:1000A8003F07C0004108400784000A128A11002750
:1000B8000A128A115206031905295208BF00523044
:1000C8000310BF0D3F07C0004108400784000A1213
:1000D8008A1100270A128A11F90052081621831280
:1000E80003135208BF0052300310BF0D3F07C00072
:1000F8004108400784000A128A1100270A128A114F
:10010800D2000A128A15DF2801305106BF000139D2
:10011800C0005108FE394004D1000A128A15E02FA8
:1001280008305106BF000839C0005108F7394004AB
:10013800D1000A128A15EC2F10305106BF00103971
:10014800C0005108EF394004D1000D2B0230510690
:10015800BF000239C0005108FD394004D100F1291F
:1001680004305106BF000439C0005108FB3940046F
:10017800D100D9292030E20A6206031DC528E20110
:10018800E20A662B0D30E30A6306031DCD28E3015E
:10019800E30AC32B1E30E40A6406031DD528103079
:1001A800E400E22B83161830D00A50060319D00158
:1001B800842B83163C30D10A51060319D101A32B95
:1001C800012CE81CE928E810EA28E8140A30F200B3
:1001D8000030E8180130F3000A300A128A15C529E0
:1001E800410846240A128A11031C08000530F90048
:1001F80052081621053083120313D2000A128A15F9
:10020800DF285208FD3E031C080084001230040257
:100218000318080010308A000310040D0407003E7C
:1002280082000800A0007908031908000630790246
:10023800031808002008003A03192C29013A031969
:100248005329033A03195F29013A03197F2982299F
:1002580068193529302935290A128A156B260A1298
:100268008A115408D1008316A3006230EB220A12C7
:100278008A116230F2000330F300DC30F401AF2160
:100288000A128A11D030CA210A128A11D030F2001B
:100298000330F300CD30F401AF21E8100800510815
:1002A8008316230603190800831251081D235108D9
:1002B8008316A3000800CD30F2000330F300D030DD
:1002C800F40183210A128A11720873040319702930
:1002D800D030FB220A128A11DC30F2000330F3001E
:1002E8006230F40183210A128A1172087304031917
:1002F80008006230532BE81C0800642B0800F70044
:100308000130F3020030031CF403F402730F8F2949
:10031800740A0319AC297208840083130008F500D5
:1003280077088400000875060319A9297208840053
:100338000008F500770884000008F60075087602C2
:10034800F200F301031CF3030800F70AF20A8429F8
:10035800F201F3010800F8007208F7007808F600C7
:100368000130F3020030031CF403F402730FBF29B9
:10037800740A03190800770884000008F500760855
:10038800840075088000F70AF60AB429F200840090
:100398005E0883138000720A84005F088000720878
:1003A800023E840060088000080083120313511D78
:1003B800E729073069220A128A11093069220A12CC
:1003C8008A110A30692A073011220A128A11093063
:1003D80011220A128A110A30112A83120313D11C1E
:1003E800032A083011220A128A11063069220A12D9
:1003F8008A11093069220A128A110A30692A0630DC
:1004080011220A128A11093011220A128A110A309D
:1004180011220A128A110830692AF500F601031020
:10042800760D7C3E84000A128A1100270A128A116E
:10043800A0000A128A1100270A128A11A1000330AB
:10044800F2007508C122023E84000A128A110027B0
:100458000A128A11A2000A128A1100270A128A11A6
:10046800A30020082205A40021082305A5002404D0
:100478000319632A0310760D9C3E84000A128A1120
:1004880000270A128A11A0000A128A1100270A12EC
:100498008A11A1000330F2007508C122013E8400D0
:1004A8000A128A1100270A128A11A2002207A53E01
:1004B8008400200883138005840A210880050B30F6
:1004C800F60A760203180800132AF500F60103104D
:1004D800760D7C3E84000A128A1100270A128A11BE
:1004E800A0000A128A1100270A128A11A1000330FB
:1004F800F2007508C122023E84000A128A11002700
:100508000A128A11A2000A128A1100270A128A11F5
:10051800A30020082205A40021082305A50024041F
:100528000319BB2A0310760D7C3E84000A128A1137
:1005380000270A128A11A0000A128A1100270A123B
:100548008A11A1000330F2007508C122013E84001F
:100558000A128A1100270A128A11A2002207A53E50
:100568008400200883138004840A210880040B3047
:10057800F60A7602031808006B2AF400F3017208E1
:100588007418F3070310F20D7208F418F307031038
:10059800F20D72087419F3070310F20D7208F419BA
:1005A800F3070310F20D7208741AF3070310F20D23
:1005B8007208F41AF3070310F20D7208741BF3079C
:1005C8000310F20D7208F41BF30773080800F20019
:1005D80084008312650883138000720A8400660809
:1005E80080007208023E8400670880000800F2005C
:1005F80084008313000883120313DE00720A840048
:100608000008DF007208023E84000008E000FA15C6
:10061800080083120313511E172B013069220A1296
:100628008A110230692A013011220A128A11023015
:10063800112AF400F5009F30F505F5176819292BE4
:100648000A128A156B260A128A11540875060319AC
:1006580008007508F2000030382300300A128A15A5
:100668007A260313D4000800F300831603178C18A6
:10067800392B730883128D0072088C003F30831663
:100688008C0503108B1B03148B130C1555308D0030
:10069800AA308D008C140C1103188B170800F20077
:1006A80084008313000883120313E500720A840090
:1006B8000008E6007208023E84000008E70008000F
:1006C800FA1108000230F7000A30F801F200620857
:1006D8000A128A15BF220A128A110A128A1586225C
:1006E8000A128A110630F7000A30F801F20062088F
:1006F8000A128A153B260A128A110A128A15862AB4
:100708000230F7000A30F801F20050080A128A1580
:10071800BF220A128A110A128A1586220A128A111F
:100728000630F7000A30F801F200831650080A1262
:100738008A153B260A128A110A128A15862A02305D
:10074800F7000630F8000A30F20051080A128A153C
:10075800BF220A128A110A128A1586220A128A11DF
:100768000630F700F8000A30F200831651080A1222
:100778008A153B260A128A110A128A15862A02301D
:10078800F7000630F8000A30F20063080A128A15EA
:10079800BF220A128A110A128A1586220A128A119F
:1007A8000630F700F8000A30F20063080A128A15CA
:1007B8003B260A128A110A128A15862A0230F70085
:1007C8000630F8000A30F20064080A128A15BF22BF
:1007D8000A128A110A128A1586220A128A1106300A
:1007E800F700F8000A30F20064080A128A153B265E
:1007F8000A128A110A128A15862AF801F201F20AE7
:1008080078080A128A158F260A128A11F901F2014C
:10081800F20A79080A128A1532250A128A11323028
:10082800F600F7010130F6020030031CF703F70267
:10083800760F212C770A03192C2C64000730F50059
:100848006030F400F40B262CF50B262C2B2C162CE0
:100858006400F20179080A128A1532250A128A11EF
:100868000B30F90A7902031C0B2CF20178080A12E2
:100878008A158F260A128A110C30F80A7802031892
:100888000800022C8312BB00681C4C2C03140800BF
:100898003B08031D562C83160317EC0B612C043000
:1008A800EC00612C3B0B612C831603170530EC0A16
:1008B8006C02031C612CEC01EC0A023097250A1229
:1008C8008A1100303602C830031935020318702C1B
:1008D80068184A2C03100800023016260A128A11DA
:1008E800831603176A08903E8400831700080F399F
:1008F80083120313BD00831603176A08903E840011
:10090800000E0F3983120313BE00B02C8312031399
:100918000B30BD033D02031CC02C0A30BD00C02CA7
:10092800831203130B30BD0A3D02031CC02CBD010A
:10093800C02C831203130B30BE033E02031CC02CD1
:100948000A30BE00C02C831203130B30BE0A3E02CD
:10095800031CC02CBE01C02C831603176C08013A77
:1009680003199D2C033A0319942C013A0319A72C57
:10097800073A03198A2CC02C8312031350080F3925
:100988003D06031DFC2C500E0F393E06031DFC2CA2
:100998000B30AA00AB010A128A159F270A128A1186
:1009A8002908AD002808AC000A128A1549270A123E
:1009B8008A1150082A06F0392A06D0000B30AA00FE
:1009C800AB010A128A159F270A128A112908AD005D
:1009D8002808AC000A128A1549270A128A112A081F
:1009E800BA00BA0E50083A060F393A06D000162D4A
:1009F800831603176B08903E8400000E0F39F2002F
:100A0800F3016B08903E840000080F390A128A151A
:100A1800C5210A128A11831603175A30EB0A6B0292
:100A28000318EB01831203133E08F200F301F30AE3
:100A38003D080A128A15C5210A128A11831603175E
:100A48005A30EA0A6A020318EA016A08903E8400EA
:100A580083170008831203133D06F0393D06800012
:100A68003E08BA00831603176A08903E8400831272
:100A78000313BA0E00083A060F393A0680008316A7
:100A880003176A086B06031D4E2D5A30EB0A6B02DA
:100A98000318EB0183120313500E0F39F200F30110
:100AA800F30A50080F390A128A15C5210A128A1149
:100AB800831603176B0883120313BC003C08903E8F
:100AC8008400831700080F39BA00831603176A08D1
:100AD800903E840000080F39831203133A06031D61
:100AE800892D3C08903E8400000E0F39BA00831609
:100AF80003176A08903E8400000E0F39831203130F
:100B08003A06031D892D68146C2C5A30BC0A3C0225
:100B18000318BC01831603176A08831203133C06E3
:100B2800031D622D6C2C83120313B9004B30A800EF
:100B3800A901AA01AB015308F200F301F21BF30368
:100B48003908A03E840083130008B700B801B71B1A
:100B5800B803F2023808031CF303F30208260A124A
:100B68008A117208A0007308A1000030A11BFF3091
:100B7800A200A3000330A701A601A500E830A40045
:100B8800D5250A128A112308AF002208AE002108D1
:100B9800AD002008AC001F262908B6002808B500BB
:100BA8000800F601F701F801F901201CEF2D2408CF
:100BB800F607250803110318013E031DF707260849
:100BC80003110318013E031DF80727080311031832
:100BD800013E031DF9070310A40DA50DA60DA70DD1
:100BE8000310A30CA20CA10CA00C230822042104BE
:100BF8002004031DD92D7908A3007808A2007708DE
:100C0800A1007608A0000800F31F08007209F4008C
:100C18007309F500F40A0319F50A7408F200750857
:100C2800F3000800F200A03E840083120313530867
:100C3800831380000800B001B101B201B3012B0891
:100C48002A042904280403195E2EB401B40AAB1B34
:100C5800332E0310A80DA90DAA0DAB0D2A2E0310D3
:100C6800B00DB10DB20DB30D2B082F02031D462E8A
:100C78002A082E02031D462E29082D02031D462E82
:100C880028082C02031C582E2808AC022908031C2B
:100C9800290FAD022A08031C2A0FAE022B08031CD9
:100CA8002B0FAF0230140310AB0CAA0CA90CA80C24
:100CB800B40B332E3308AB003208AA003108A90060
:100CC8003008A800080083120313A201A30103102F
:100CD800230D7C3E84000A128A1100270A128A1109
:100CE800F4000A128A1100270A128A11F50003106B
:100CF800220DA53E840083130008F600840A00082C
:100D0800F70074087605F80075087705F900780487
:100D18000319902E0130912E0030F20023080A1298
:100D28008A1532250A128A110B30A30A2302031CE2
:100D38006C2EF201F20A22080A128A158F260A126C
:100D48008A11A001A00AA101013083120313A00295
:100D58000030031CA103A102200FB52E210A03199C
:100D6800C02E64000730F5006030F400F40BBA2E92
:100D7800F50BBA2EBF2EA82E64006400FF30F201D6
:100D88000A128A158F260A128A110C30A20A220228
:100D9800031808006A2E0A128A15F0280A128A1502
:100DA8000A290A128A1504290A128A1507290A1219
:100DB8008A150B290A128A150C290A128A1568291C
:100DC8000A128A157C290A128A1518290A128A1504
:100DD8003C290A128A15A1290A128A15AA290A1277
:100DE8008A1598290A128A15B3290A128A15BC2964
:100E000007308A000408840A820700340034003462
:100E1000DC340034E034013401340034E034023492
:100E200000347834023480340734023480347F3420
:100E30000334E0340F340134E0340F340334E0344D
:100E4000FF34043400347034043400340F34053477
:100E50000034F0340634E034FF340934E034033431
:100E60000534E0340134053400340F3407340034E1
:100E7000783408340034F034093400343C34073416
:100E8000C03407340834C0340F340634E03401343D
:100E90000A3400341E340A340034F0340934003487
:100EA000E0340534C03401340A34E0340034023410
:100EB00010340334063401340B3404340334053461
:100EC0000434003414340634073407340834083446
:100ED000093409340A340A3401340B340C340C3428
:100EE0000D340D340E340E340F340F34023400340C
:100EF0001134003412340034133400340034143408
:100F0000143400348034003440340034203400344D
:100F10001034003408340034043400340234003413
:100F20000134803400344034003420340034103430
:100F30000034083400340434003402340034013402
:100F40000034FF347F34FF34BF34FF34DF34FF34E8
:100F5000EF34FF34F734FF34FB34FF34FD34FF3417
:100F6000FE347F34FF34BF34FF34DF34FF34EF34DA
:100F7000FF34F734FF34FB34FF34FD34FF34FE34E8
:100F8000FF34DE34F63492342434CE34E7349E34E5
:100F9000E7349234B7349E34F334DE34F33492348D
:100FA000E434DE34F7349E34F73400341F341C3418
:100FB0001F341E341F341E341F341F341E341F349C
:100FC0001E341F340A128A1542270730F2000030FF
:100FD000F301F30A0A128A15C5290A128A15422753
:100FE0000830F2000030F301F30A0A128A15C5290D
:100FF00064008001840A0406031900340406F92FF2
:1010000037220A128A150230F700F80186220A12E6
:101010008A150630F7000030F80186220A128A1578
:101020000230F7000630F8000A30F2006408BF22F0
:101030000A128A1586220A128A150630F700F8006D
:101040000A30F20064083B260A128A15862A3430D8
:101050000A128A11CA210A128A153408F2003C3099
:10106000F301F400F50186270A128A157208B00010
:101070007308B1003508F2003C30F301F400F501CB
:1010800086270A128A1572083007B20073080318FF
:10109000730A3107B30036083207F800003003182E
:1010A00001303307F900F8270A128A1542270A127D
:1010B0008A15831603171008F039013890000F398C
:1010C000503890001108F039023891000F3950382B
:1010D00091001208F039033892000F39503892000D
:1010E0001308F039043893000F3950389300033057
:1010F000EB01EA000230EC00100E0F39F200F301B0
:10110000F30A10080F39C5210A128A15831603172E
:10111000110E0F39F200F301F30A11080F39C5213E
:101120000A128A1583160317120E0F39F200F30103
:10113000F30A12080F39C5210A128A1583160317FC
:10114000130E0F39F200F301F30A13080F39C5210A
:101150000A128A150B3083120313AA00AB019F27D2
:101160000A128A152908AD002808AC0049270A127E
:101170008A1550082A06F0392A06D0000B30AA003A
:10118000AB019F270A128A152908AD002808AC0078
:1011900049270A128A152A08B000B00E50083006F6
:1011A0000F393006D000500E0F39F200F301F30A68
:1011B00050080F39C5218312031368100800B700C7
:1011C000FF3E031C080084000F30040203180800CF
:1011D00006308A000310040D0407CF3E8200080089
:1011E000FA210A128A15E0270A128A15EC270A1238
:1011F0008A110D230A128A150A128A11F1210A1284
:101200008A150A128A11D9290A128A11ED2F0A1297
:101210008A11E22F372A2728FA210A128A15093063
:10122000F2000130F301F30AC5210A128A15E02FFA
:10123000FA210A128A150930F2000130F301F30A8B
:10124000C5210A128A150930F2000230F301F30AAF
:10125000C5210A128A150930F2000330F301F30A9E
:10126000C5210A128A150930F2000430F301F30A8D
:10127000C5210A128A15EC2FFA210A128A150930A3
:10128000F2000130F301F30AC5210A128A15093070
:10129000F2000230F301F30AC5210A128A1509305F
:1012A000F2000330F301F30AC5210A128A1509304E
:1012B000F2000430F301F30AC5210A128A1509303D
:1012C000F2000530F301F30AC5210A128A110D2B31
:1012D000FA210A128A150930F2000130F301F30AEB
:1012E000C5210A128A150930F2000230F301F30A0F
:1012F000C5210A128A11F129FA210A128A15093028
:10130000F2000130F301F30AC5210A128A150930EF
:10131000F2000230F301F30AC5210A128A150930DE
:10132000F2000330F301F30AC5210A128A11D92908
:1013300003220A128A150230F2000030F301F30A88
:10134000C52937220A128A150230F2000030F30153
:10135000F30AC52937220A128A150830F200003034
:10136000F301F30AC52903220A128A150830F20094
:101370000030F301F30AC52900200A128A1508304B
:10138000F2000030F301F30AC529F60073080310D8
:101390000319E229760D7C3E84000A128A11002787
:1013A0000A128A15F4000A128A110027F5000310A8
:1013B000720DA53E8400740883138004840A7508A6
:1013C00080040800760D9C3E84000A128A110027D2
:1013D0000A128A15F4000A128A110027F500031078
:1013E000720DA53E8400740883138005840A750875
:1013F0008005080042270A128A150930F2000030E1
:10140000F301F30AC52937220A128A150230F700C0
:101410000A30F801F200831203136208BF220A1295
:101420008A1586220A128A150630F7000A30F8015A
:10143000F20062083B260A128A1586220A128A15D1
:101440000230F7000630F8000A30F2006308BF22CD
:101450000A128A1586220A128A150630F700F80049
:101460000A30F20063083B260A128A15862A4227B0
:101470000A128A150A30F2000030F301F30AC5217E
:101480000A128A150230F7000A30F801F2008316BA
:1014900003135008BF220A128A1586220A128A15DF
:1014A0000630F7000A30F801F200831650083B2698
:1014B0000A128A1586220A128A150230F7000630AF
:1014C000F8000A30F20083165108BF220A128A156A
:1014D00086220A128A150630F700F8000A30F20058
:1014E000831651083B260A128A1586220A128A158B
:1014F0000430F2000A30F301F30AC5210A128A15FA
:101500000630F2000A30F301F30AC52983120313EF
:10151000A2000F30A300A401A5010310220DBC3EC0
:1015200084000A128A1100270A128A15A0000A12E2
:101530008A1100270A128A15A100230AA22A031081
:10154000A10CA00CFF3E031D9F2A2008F3000130D0
:10155000F30524087807F20025087707C5210A1249
:101560008A15831203130330A303A50A2502031C63
:101570008E2A0530A40A2402031808008C2AF300DE
:10158000F50172080319D82AF401F40AF21BCB2AD8
:101590000310F20DC52A0310F50D72087302031C27
:1015A000D52A7208F30275140310F20CF40BCB2A3F
:1015B00075080800AA00FF30F2000630F301F400BD
:1015C0003030F50157260A128A1583122A08840042
:1015D00083130008AF0018302F02031808002A0AEE
:1015E00084000008B6003C30360203180800B7013A
:1015F0006819FF2AFC2AFF2A6B260A128A1554084A
:10160000AD002D18052BB001B70AAD1D152B2F0805
:10161000031D152B3608031D152B3708303E84009B
:101620000C3083138000B70A332C2D1E532B2F0848
:10163000031D532B193036020318532B3708303E45
:10164000840083138001800AB70A3708303E840083
:10165000023080000530B70A3602031C332C0A30F2
:1016600036020318382B3708303E84000330122B23
:101670000F3036020318412B3708303E8400043007
:10168000122B1430360203184A2B3708303E8400E0
:101690000530122B193036020318332C3708303E30
:1016A00084000730122B0C30F2002F083B260A1260
:1016B0008A158312AF000B302F02031C612BAE0181
:1016C000642B2F08013EAE000530360203187C2B38
:1016D0002F0B6F2B3708303E84001930742B3708DE
:1016E000303E84002F080D3E83138000B70A370870
:1016F000303E84001A30CC2B0A3036020318922B6D
:101700003708303E8400033083138000B70A37085F
:10171000303E84000A308000B70A3708303E84002B
:101720002F08CB2B0F30360203189B2B3708303E87
:1017300084000430842B143036020318A92B370898
:10174000303E8400063083138000B70AAD18872B23
:10175000C72B193036020318CE2B2D1DB42B37089A
:10176000303E84000730842B3708303E840004303C
:1017700083138000B70A3708303E840009308000A8
:10178000B70A3708303E84000B308000B70A3708AC
:10179000303E84002E080D3E8000332C1E30360271
:1017A0000318D72B3708303E84000330B82B233082
:1017B00036020318E02B3708303E84000B301F2C14
:1017C000283036020318F02B3708303E84000330EF
:1017D00083138000B70A3708303E84000A30BF2BDD
:1017E0002D3036020318102C2D1D022C3708303EE8
:1017F0008400073083138000B70A3708303E840026
:101800000930C52B3708303E840004308313800034
:10181000B70A3708303E84000A308000B70ADB2B55
:10182000323036020318212CAD1C1B2C3708303EF9
:1018300084000630FA2B3708303E840008308313CA
:10184000C52B3730360203182A2C3708303E840067
:101850000430FA2B3C3036020318332C3708303E64
:1018600084000330FA2BB7013708303E840083131D
:10187000000A0319BD2C3708303E84000008000719
:101880000007013E84000A128A1100270A128A15F5
:10189000AB00AC010B302C020318892C64008312BE
:1018A000031303102C0D7C3E84000A128A110027BA
:1018B0000A128A15A0000A128A1100270A128A1534
:1018C000A1003708303E840083130008000700079A
:1018D000023E84000A128A1100270A128A15A20009
:1018E0000A128A1100270A128A15A300200822056D
:1018F000A40021082305A50024040319812C01302C
:10190000822C0030F2002C0832250A128A15AC0A0B
:101910004A2CF201F20A2B088F260A128A15A60118
:10192000A60AA701013083120313A6020030031C8C
:10193000A703A702260F9F2C270A0319AC2C6400CB
:10194000073083120313A1006030A000A00BA62C67
:10195000A10BA62CAB2C922C6400F5308312031340
:10196000A0000000A00BB12CB52C6400F201831282
:1019700003132B088F260A128A150630B70A37027E
:10198000031C342CFF30F20132250A128A15132D64
:101990000130F201F20A32250A128A150A30F201E8
:1019A000F20A32250A128A150930F201F20A3225AA
:1019B0000A128A150030F201F20A32250A128A153B
:1019C0000B30F201F20A8F260A128A15A801A80A22
:1019D000A901013083120313A8020030031CA903DC
:1019E000A902280FF62C290A0319032D64000730D9
:1019F00083120313A1006030A000A00BFD2CA10BEB
:101A0000FD2C022DE92C6400F53083120313A00095
:101A10000000A00B082D0C2D64000B30F2018F2666
:101A20000A128A152F2D0530F20036083B260A12BD
:101A30008A158312A000A1012108003A0319212D63
:101A40002F2D2008013A0319DA2C033A0319D42C5C
:101A5000013A0319CE2C073A0319C82C2F2DFF3059
:101A6000F201322DF300142E721C3A2D831203134F
:101A7000051408008312031305100800721C442D7E
:101A800083120313851408008312031385100800C2
:101A9000721C4E2D831203130515080083120313C5
:101AA00005110800721C582D8312031385150800B8
:101AB0008312031385110800721C622D8312031315
:101AC000051608008312031305120800721C6C2D02
:101AD000831203138516080083120313851208006E
:101AE000721C762D8312031309140800831203134A
:101AF00009100800721C802D83120313891408003A
:101B00008312031389100800721C8A2D8312031399
:101B1000091508008312031309110800721C942D83
:101B2000831203130714080083120313071008001D
:101B3000721C9E2D83120313871408008312031353
:101B400087100800721CA82D831203130514AB2DF7
:101B5000831203130510721CB12D83120313851415
:101B6000B42D831203138510721CBA2D8312031334
:101B70000515BD2D831203130511721CC32D83128D
:101B800003138515C62D831203138511721CCC2DEA
:101B9000831203130516CF2D831203130512721C33
:101BA000D52D831203138516D82D831203138512A6
:101BB000721CDE2D831203130914E12D831203130B
:101BC0000910721CE72D831203138914EA2D831266
:101BD00003138910721CF02D831203130915F32DC2
:101BE000831203130911721CF92D831203130714B6
:101BF000FC2D831203130710721C022E8312031391
:101C0000871408008312031387100800831203133C
:101C1000051085100511851105128512091089100E
:101C200009110710871008007308003A0319342DB2
:101C3000013A03193E2D033A0319482D013A0319BD
:101C4000522D073A03195C2D013A0319662D033A08
:101C50000319702D013A03197A2D0F3A0319842DB7
:101C6000013A03198E2D033A0319982DF53A0319F9
:101C7000A22D062E0800F4000830F500F6017408C5
:101C8000F30007300310F30CFF3E0310031D432E37
:101C9000760D7304F6000310F40D72087602031C2F
:101CA000532E7208F602F50B3F2E76080800F70057
:101CB000F6000130F4020030031CF503F502740F46
:101CC000642E750A031908007608840072088313CD
:101CD0008000F60A592E00307A260A128A1503135C
:101CE000D4006039031D762ED41B782E8130D400A9
:101CF00068150800F2006400831603178C187B2E09
:101D0000720883128D003F3083168C050C1403106B
:101D10000C1803140318013083120C080800F30098
:101D2000182F721C972E8312031386140800831237
:101D3000031386100800721CA12E831203130614CD
:101D400008008312031306100800721CAB2E8312C6
:101D50000313881708008312031388130800721CEA
:101D6000B52E8312031308170800831203130813F8
:101D70000800721CBF2E83120313881608008312FA
:101D8000031388120800721CC92E8312031308164D
:101D900008008312031308120800721CD32E83124A
:101DA0000313871708008312031387130800721C9C
:101DB000DD2E831203130717080083120313071382
:101DC0000800721CE72E8312031387160800831283
:101DD000031387120800721CF12E831203130716D7
:101DE00008008312031307120800721CFB2E8312D3
:101DF0000313881508008312031388110800721C4E
:101E0000052F83120313081508008312031308110A
:101E10000800831203138610061088130813881213
:101E20000812871307138712071288110811080078
:101E30007308003A0319912E013A03199B2E033AB5
:101E40000319A52E013A0319AF2E073A0319B92E2B
:101E5000013A0319C32E033A0319CD2E013A03198F
:101E6000D72E0F3A0319E12E013A0319EB2E033A4C
:101E70000319F52E013A0319FF2EF43A0319092F1D
:101E8000092F08001830F201F301F400A530F50124
:101E9000572EAF01AD1F532FAC09AD09AC0A031982
:101EA000AD0AAF01AF0AAB1F5A2FAA09AB09AA0AA4
:101EB0000319AB0A2A082B040319792FAE01AE0AC5
:101EC000AB1B662F0310AA0DAB0D5F2F2B082D0245
:101ED000031D6C2F2A082C02031C752F2A08AC0244
:101EE0002B08031CAD03AD020310AB0CAA0CAE0B08
:101EF000662F2F080319812FAC09AD09AC0A03190D
:101F0000AD0A2D08AB002C08AA000800F601F70165
:101F1000721C902F7408F6070318F70A7508F70764
:101F20000310F40DF50D0310F30CF20C720873049A
:101F3000031D882F7708F3007608F200080041306F
:101F4000A300C630A2004E30A1006D30A000831661
:101F500059088312A700831658088312A600831617
:101F600057088312A500831656088312A4000A128C
:101F70008A11D52523088316D900831222088316D7
:101F8000D800831221088316D700831220088316F5
:101F9000D6003930D607303003183130D70700303B
:101FA00003180130D807003003180130D907590849
:101FB0008312A900831658088312A800A9130800E9
:101FC00083120313511CE82F00300A128A11692A68
:101FD00000300A128A11112A83120313D11DF42F23
:101FE0000C300A128A11692A0C300A128A11112A3D
:101FF00078088316D6007908D700D801D9010800DF
:102000000A128A11E5280A128A11E4280A128A1192
:1020100015290A128A1188280A128A11AA280A1276
:102020008A11B4280A128A1194280A128A11A02847
:102030000A128A11D6280A128A11DD280A128A1178
:10204000BE280A128A11C6280A128A11CE280A123C
:102050008A1115290A128A1115290A128A111529BD
:0C2060000A128A1115290A128A11F428AC
:10217A000B1DC3280B1183120313D30A0B1CDC2873
:10218A008312031306080B10061DCD287A14CE28D5
:10219A007A1083120313061ED428FA14D528FA10CB
:1021AA0083120313861DDB287A15DC287A1171083D
:1021BA008A00700E8300FE0E7E0E0900F400840071
:1021CA001D3083130006031DF728740A84000230A9
:1021DA000006031DF7287408023E8400000803392C
:1021EA0003190134740884000008F200740A840098
:1021FA000008D03E84000A128A1100270A168A11A2
:10220A00F30072087302031C003401340317051625
:10221A008511051585140510831603138117950179
:10222A00811281110115811401140F178F168F164F
:10223A008B178B16031788018901831203138501F3
:10224A008601870188018901831605108510051109
:10225A0085110512851209108910091107108710B6
:10226A00861006108813081388120812871307139A
:10227A008712071288110811871116159615161656
:10228A008B150800C700C80147080319F929063049
:10229A004202D73003194102031CE62907304202E1
:1022AA009E30031941020318E6293B307A16560676
:1022BA00031D6C29D330F200BD3070230A168A112F
:1022CA00DF30F200BD3055220A168A11522A7630C2
:1022DA005606031DE4294930F200C53070230A1658
:1022EA008A114C30F200C53055220A168A1183161B
:1022FA00530883124906031DBF294A08FF3EC50039
:10230A00FF3003180030C6008316540883124506AE
:10231A004604031DBF298316550883124B06031D65
:10232A00BF2983165F0883124C06031DBF29831633
:10233A00600883124D06031DBF29831661088312A4
:10234A004E06031DBF294308840049088000840AF9
:10235A004A088000840A4B088000440884004C081C
:10236A008000840A4D088000840A4E088000C80153
:10237A00C80A522AC530F2000830F300BD30F40111
:10238A000A128A11AF210A168A113B30D60049086F
:10239A008316D30083124A088316D40083124B088B
:1023AA008316D50083124C088316DF0083124D086A
:1023BA008316E00083124E088316E100522AD601E2
:1023CA00522A02304202EE3003194102031CF42958
:1023DA0003304202B73003194102031C522A023069
:1023EA00D6017A12C800522A3B305606031DFF292D
:1023FA007A1E032A76305606031D062AD6017A1259
:10240A000E2A3B305606031D0E2A0830D500073027
:10241A00E1005608031D162A0730D501E10083168C
:10242A00BD010030831242023330031941020030E9
:10243A00031C332A42029630031941020318322A36
:10244A00D60A6108031D512A0730E100D50A55084A
:10245A00BD3E840083138001522A00304202973025
:10246A0003194102031CF42900304202FA3003190D
:10247A0041020318F429D60A5508BD3E84000130EA
:10248A00C500610A4A2A0310C50DFF3E031D482AEA
:10249A00450883138004262AE103831248080800AA
:1024AA00C000720884008001720A840080017208E8
:1024BA00023E840080014008043E8400801D672A91
:1024CA000130682A0030F30072088400730880071C
:1024DA004008043E84000019742AA001762A0230BA
:1024EA00A000A10172088400200880074008043E69
:1024FA0084008018822AA201842A0430A200A3013F
:10250A0072088400220880074008043E84000018EC
:10251A00902AA401922A0830A400A5017208840016
:10252A00240880074008053E8400801B9E2AA601D5
:10253A00A02A0A30A600A70172088400260880078C
:10254A004008053E8400001BAC2AA801AE2A1430BC
:10255A00A800A90172088400280880074008053EDF
:10256A008400001DBA2A0130BB2A0030F300720A27
:10257A008400730880074008053E84008018C72A33
:10258A00AA01C92A0230AA00AB01720A84002A08E9
:10259A0080074008053E84000018D52AAC01D72AD6
:1025AA000430AC00AD01720A84002C088007400890
:1025BA00063E8400801BE32AAE01E52A0830AE00FD
:1025CA00AF01720A84002E0880074008063E840084
:1025DA00001BF12AB001F32A0A30B000B101720AD5
:1025EA008400300880074008063E8400801EFF2AC7
:1025FA000130002B0030F3007208023E8400730899
:10260A0080074008063E8400001A0D2BB2010F2BEA
:10261A000230B200B3017208023E84003208800719
:10262A004008063E840080191C2BB4011E2B04307E
:10263A00B400B5017208023E8400340880074008DD
:10264A00063E840000192B2BB6012D2B0830B6004C
:10265A00B7017208023E8400360880074008063E29
:10266A00840080183A2BB8013C2B0A30B800B90113
:10267A007208023E8400380880074008063E84003B
:10268A000018492BBA014B2B1430BA00BB0172084F
:10269A00023E84003A0880074008073E8400801BF7
:1026AA00582BBC015A2B2830BC00BD017208023ECF
:1026BA0084003C0880074008073E8400001B672B03
:1026CA00BE01692B5030BE00BF017208023E840071
:1026DA003E0880070800B600720884008313800150
:1026EA00720A840080017208023E84008001360862
:1026FA00023E8400001D832B0130842B0030F3003E
:10270A00720A8400730880073608023E8400801823
:10271A00902BA001922B0230A000A101720A840022
:10272A00200880073608023E840000189E2BA2016A
:10273A00A02B0430A200A301720A84002208800799
:10274A003608033E8400801BAC2BA401AE2B083054
:10275A00A400A501720A8400240880073608033EF3
:10276A008400001BBA2BA601BC2B0A30A600A701C5
:10277A00720A8400260880073608033E8400801AFD
:10278A00C82BA801CA2B1430A800A901720A840018
:10279A00280880073608033E8400001AD62BAA01AF
:1027AA00D82B2830AA00AB01720A84002A088007B5
:1027BA003608033E8400001DE42B0130E52B00306F
:1027CA00F30072088400730880073608033E840009
:1027DA008018F12BAC01F32B0230AC00AD0172086A
:1027EA0084002C0880073608033E84000018FF2B5B
:1027FA00AE01012C0430AE00AF01720884002E082D
:10280A0080073608043E8400801B0D2CB0010F2C73
:10281A000830B000B1017208840030088007360819
:10282A00043E8400001B1B2CB2011D2C0A30B2008E
:10283A00B30172088400320880073608043E840017
:10284A00801A292CB4012B2C1430B400B50172085B
:10285A0084003408800708000A168A110B210A1618
:10286A008A117B14FB14831253088316E800E901CA
:10287A0064004B30831603136802031C712C4B301F
:10288A008312D30204305802031CD80A3C30E00AEF
:10289A006002031C712C3C30E001DF0A5F02031C5A
:1028AA00712C1830DF01DE0A5E02031C712C6530C0
:1028BA00DE01E50A0A168A11E3200A168A11003A8D
:1028CA00031D712C0D30E501E50AE60A6602031CB8
:1028DA00712CE601E60AE70AFA1D802C04308312FD
:1028EA005E06031D802C5F08031D802C6008031DF3
:1028FA00802CFA16FA11FA19B62D831287157A1C4A
:10290A00882C0130892C0030CF00E81D8E2C013034
:10291A008F2C00304F060319B62DE8117A1C962C1D
:10292A00E8158312031358084B30A80003194B2DDE
:10293A00A901AA01AB01CF008316240883124F0212
:10294A00A000A101031CA103A201A11BA20322084A
:10295A00A3000330A701A601A500E830A4000A12CB
:10296A008A11D5250A168A112308AF002208AE005B
:10297A002108AD002008AC000A128A111F260A1687
:10298A008A112B088316E70083122A088316E600A9
:10299A00831229088316E500831228088316E400A7
:1029AA0083125808FF3EA000FF3003180030A10030
:1029BA00A201A11BA2032208A3000330A701A601BA
:1029CA00A500E830A4000A128A11D5250A168A1130
:1029DA0020088316E4078312210803110318013E15
:1029EA008316031DE5078312220803110318013E0B
:1029FA008316031DE6078312230803110318013EF9
:102A0A008316031DE70783164B308312A800A9011A
:102A1A00AA01AB01831668088312A0000330A10142
:102A2A00A201A301A701A601A500E830A4000A1289
:102A3A008A11D5250A168A112308AF002208AE008A
:102A4A002108AD002008AC000A128A111F260A16B6
:102A5A008A1128088316E407831229080311031828
:102A6A00013E8316031DE50783122A080311031882
:102A7A00013E8316031DE60783122B080311031870
:102A8A00013E8316031DE70783168D2DA901AA01AE
:102A9A00AB018316240868028312A000A101031C5B
:102AAA00A103A201A11BA2032208A300FA30A400D9
:102ABA00A501A601A7010A128A11D5250A168A11AB
:102ACA002308AF002208AE002108AD002008AC00A0
:102ADA000A128A111F260A168A112B088316E70082
:102AEA0083122A088316E600831229088316E50052
:102AFA00831228088316E40002308312CF000310E1
:102B0A008316E40DE50DE60DE70D8312CF0B842D38
:102B1A008312D80183166808A40065088312C200CC
:102B2A00831664088312C1005E30C3006530C40096
:102B3A000030E81901300A168A1147210A168A114B
:102B4A008316E200620BAC2DFA158312B52DFA1E1C
:102B5A00B62D053083125E02031CB62DFA12FA1541
:102B6A008711FA1CBA2D0130BB2D00308312CF0019
:102B7A007B1CC12D0130C22D00304F060319D42D04
:102B8A007B10FA1CC92D7B147A137B187A177B1CCD
:102B9A00D42D00300A128A1116260A168A117A1DB5
:102BAA00D82D0130D92D003083120313CF00FB1C1E
:102BBA00E02D0130E12D00304F060319F32DFB10F3
:102BCA007A1DE82DFB14FA13FB18FA17FB1CF32DD8
:102BDA0001300A128A1116260A168A117A1F042E41
:102BEA0000300A128A1197250A168A110030360215
:102BFA00333003193502031C1B2E0030142EFA1F22
:102C0A001B2E01300A128A1197250A168A110030E2
:102C1A003602333003193502031C1B2E01300A1207
:102C2A008A114E200A168A117A13FA138312031391
:102C3A0052088316EA005A0603194F2E6A08DA0068
:102C4A001030E901E90A6A06031D342E02308312A4
:102C5A00D7000A128A1542270A168A114F2E1130F6
:102C6A006A06031D3A2E03302C2E12306A06031D03
:102C7A00402E04302C2E13306A06031D462E0530D2
:102C8A002C2E6A0803194D2E8312D701D70A4F2E0C
:102C9A008312D7018316E301831257080319FA191D
:102CAA00592E8316E301E30A8316631C602E8312EE
:102CBA0003138815632E83120313881114308316A5
:102CCA006A06031D6E2E02300A128A1146240A165B
:102CDA008A118312570B772E0A128A1167260A164F
:102CEA008A11382C02305706031DE92E831669080B
:102CFA00031D882E83125E085A06031D882E5F085C
:102D0A005B060319CE2E83125E08DA005F08DB0029
:102D1A000230F7000A30F801F2005A080A128A153E
:102D2A00BF220A168A110A128A1586220A168A11DF
:102D3A000630F7000A30F801F2005A080A128A151A
:102D4A003B260A168A110A128A1586220A168A113F
:102D5A000230F7000630F8000A30F2005B080A1267
:102D6A008A15BF220A168A110A128A1586220A169B
:102D7A008A110630F700F8000A30F2005B080A12DE
:102D8A008A153B260A168A110A128A1586220A16FB
:102D9A008A116008F3000130F3050430F2000A30AA
:102DAA000A128A15C5210A168A11831203136008AA
:102DBA00F3000130F3050630F2000A300A128A15D0
:102DCA00C5210A168A11712E03305706031D4D2F8D
:102DDA0083166908031D092F0A30F200831260085E
:102DEA000A128A153B260A168A118312CF000A3064
:102DFA00F20083165B080A128A153B260A168A1104
:102E0A0083124F0603191B2F0630F7000330F80010
:102E1A000A30F200831260080A128A153B260A1643
:102E2A008A110A128A1586220A168A1183166908D5
:102E3A00031D372F0A30F200831260080A128A151E
:102E4A00BF220A168A118312CF000A30F2008316B3
:102E5A005B080A128A15BF220A168A1183124F06C4
:102E6A000319492F0230F7000330F8000A30F20044
:102E7A00831260080A128A15BF220A168A110A12D8
:102E8A008A1586220A168A1160088316DB00712EBB
:102E9A0004305706031DA52F83166908031D5E2FEC
:102EAA00831265085906031D5E2F66085C0603191E
:102EBA00712E83126508D9006608DC000230F7001B
:102ECA000A30F801F20059080A128A15BF220A16B6
:102EDA008A110A128A1586220A168A110630F70002
:102EEA000A30F801F20059080A128A153B260A1616
:102EFA008A110A128A1586220A168A110230F700E6
:102F0A000630F8000A30F2005C080A128A15BF225D
:102F1A000A168A110A128A1586220A168A11063098
:102F2A00F700F8000A30F2005C080A128A153B26FC
:102F3A000A168A110A128A1586220A168A11712E0F
:102F4A0005305706031DE82F83166908031DB22FA3
:102F5A00831267085D060319712E83126708DD0064
:102F6A000230F700F8010A128A1586220A168A1117
:102F7A000630F7000030F8010A128A1586220A166E
:102F8A008A110230F7000630F8000A30F2005D08B4
:102F9A000A128A15BF220A168A110A128A1586226D
:102FAA000A168A110630F700F8000A30F2005D08A6
:102FBA000A128A153B260A168A110A128A158622CD
:102FCA000A168A11712EFA1DF62F5708031DF62FBD
:102FDA00FF30F8005E300A128A15DA220A168A11C0
:102FEA00382CE81DFC2F831203138714382C831204
:062FFA0003138710382CC0
:04400E00C2EBFFFE04
:00000001FF
