:060000000A128A110C280F
:10000800FE00030EF0000A08F1000A168A15D72E22
:100018000A128A110F2883160130DC001630DD0120
:10002800DE01DF01E000FF30E1000730E2000130CF
:10003800E300E4001030E5000130E600E70010308E
:10004800E8000130E900EA001030EB0083120730C5
:10005800EA00EB000130EC00ED001030EE009030CB
:1000680083178400ED300A128A11F4270A128A11C4
:10007800A03083138400DC300A128A11F4270A1294
:100088008A115F3084006A300A128A11F427EF015E
:10009800FA0183010A128A1151280A168A15FD26C7
:1000A8000A128A117B14FB1483126F1962285D28C7
:1000B80062280A168A11D6270A128A11831624087A
:1000C8008312D50005300310D50CFF3E031D6728A9
:1000D800550807390A128A15F4270A128A11620884
:1000E800DC00DD0164004B30831203135C02031C47
:1000F800B5284B30E20204306602031CE60A3C30A5
:10010800E90A6902031CB528E901E80AFA1D9528DD
:1001180004306706031D95286808031D9528FA16FC
:10012800FA113C306802031CB5281830E801E70AC8
:100138006702031CB528E7018316E630E60A0A16AB
:100148008A1103200A128A11003A031DB5280D30BE
:10015800E601E60AE70A6702031CB528E701E70A91
:10016800E80AFA19BF29831287157A1CBD280130BD
:10017800BE280030D500EF1DC3280130C428003048
:1001880055060319BF29EF117A1CCB28EF158312E6
:10019800031366084B30A80003196529A901AA01B1
:1001A800AB01D5008316250883125502A000A101D2
:1001B800031CA103A201A11BA2032208A300033070
:1001C800A701A601A500E830A4000A168A1577271A
:1001D8000A128A112308AF002208AE002108AD00D8
:1001E8002008AC000A168A15B8270A128A112B08AB
:1001F800DB002A08DA002908D9002808D800660890
:10020800FF3EA000FF3003180030A100A201A11B8F
:10021800A2032208A3000330A701A601A500E83025
:10022800A4000A168A1577270A128A112008D80707
:10023800210803110318013E031DD90722080311E1
:100248000318013E031DDA07230803110318013EB2
:10025800031DDB074B30A800A901AA01AB015C080C
:10026800A0000330A101A201A301A701A601A500D6
:10027800E830A4000A168A1577270A128A1123087B
:10028800AF002208AE002108AD002008AC000A1615
:100298008A15B8270A128A112808D80729080311CD
:1002A8000318013E031DD9072A0803110318013E4C
:1002B800031DDA072B0803110318013E031DDB0792
:1002C8009D29A901AA01AB018316250883125C02A6
:1002D800A000A101031CA103A201A11BA2032208E3
:1002E800A300FA30A400A501A601A7010A168A15E1
:1002F80077270A128A112308AF002208AE002108C6
:10030800AD002008AC000A168A15B8270A128A110F
:100318002B08DB002A08DA002908D9002808D800A9
:100328000230D5000310D80DD90DDA0DDB0DD50B31
:100338009629E6015C088316A50083125908C200B5
:100348005808C1006730C300E630C4000030EF1918
:1003580001300A128A110B240A128A11D600560B90
:10036800B629BD29FA1EBF2905306702031CBF291B
:10037800FA12FA158711FA1CC3290130C429003072
:100388008312D5007B1CCA290130CB2900305506C1
:100398000319DD297B10FA1CD2297B147A137B18E8
:1003A8007A177B1CDD2900300A128A15C5270A1224
:1003B8008A117A1DE1290130E229003083120313E2
:1003C800D500FB1CE9290130EA290030550603193C
:1003D800FC29FB107A1DF129FB14FA13FB18FA17F4
:1003E800FB1CFC2901300A128A15C5270A128A113A
:1003F8007A1F0D2A00300A168A1539270A128A111F
:1004080000303602333003193502031C242A003029
:100418001D2AFA1F242A01300A168A1539270A12BA
:100428008A1100303602333003193502031C242A9E
:1004380001300A128A15EF230A128A117A13FA1365
:10044800831203136108DE008316600883125E06B8
:100458000319592A5E088316E00083121130DD0162
:10046800DD0A5E06031D402A0230E5000A128A15DD
:10047800D0230A128A11592A12305E06031D462A11
:100488000330392A13305E06031D4C2A0430392AFA
:1004980014305E06031D522A0530392A5E080319F6
:1004A800582AE501E50A592AE5018312D701FA1904
:1004B800622A6508031D622AD701D70A571C682AD1
:1004C8008312031388156B2A8312031388111530BE
:1004D8005E06031D752A02300A128A15CD250A12F6
:1004E8008A11650B7D2A0A168A1176250A128A1145
:1004F800732802306506031DF72A5D08031D8F2A3D
:10050800670883162706031D8F2A83126808831637
:1005180028060319DB2A831267088316A7008312AB
:1005280068088316A8000230F7000A30F801F200C4
:1005380027080A168A118C210A128A110A128A15AA
:1005480097230A128A110630F7000A30F801F200E0
:10055800831627080A168A11BA270A128A110A125C
:100568008A1597230A128A110230F7000630F8001C
:100578000A30F200831628080A168A118C210A12FA
:100588008A110A128A1597230A128A110630F7006F
:10059800F8000A30F200831628080A168A11BA27CA
:1005A8000A128A110A128A1597230A128A118312CB
:1005B8006908F3000130F3050430F2000A300A122A
:1005C8008A15E7210A128A11831203136908F300B6
:1005D8000130F3050630F2000A300A128A15E721C5
:1005E8000A128A11772A03306506031D552B5D0808
:1005F800031D152B0A30F20069080A168A11BA275A
:100608000A128A118312D5000A30F2008316610893
:100618000A168A11BA270A128A1183125506031973
:10062800262B0630F7000330F8000A30F20069087C
:100638000A168A11BA270A128A110A128A159723EA
:100648000A128A115D08031D402B0A30F20069085E
:100658000A168A118C210A128A118312D5000A30CF
:10066800F200831661080A168A118C210A128A116F
:10067800831255060319512B0230F7000330F80096
:100688000A30F20069080A168A118C210A128A11A6
:100698000A128A1597230A128A1169088316E1003B
:1006A800772A04306506031DAF2B5D08031D652BF3
:1006B800831666082606031D652B67082906031995
:1006C800772A83166608A6006708A9000230F70093
:1006D8000A30F801F20026080A168A118C210A123B
:1006E8008A110A128A1597230A128A110630F7000E
:1006F8000A30F801F200831626080A168A11BA276A
:100708000A128A110A128A1597230A128A110230CC
:10071800F7000630F8000A30F200831629080A1696
:100728008A118C210A128A110A128A1597230A1231
:100738008A110630F700F8000A30F20083162908FB
:100748000A168A11BA270A128A110A128A159723D9
:100758000A128A11772A05306506031DF32B5D08F6
:10076800031DBB2B831668082A060319772A8316EC
:100778006808AA000230F700F8010A128A159723C0
:100788000A128A110630F7000030F8010A128A1599
:1007980097230A128A110230F7000630F8000A304F
:1007A800F20083162A080A168A118C210A128A1165
:1007B8000A128A1597230A128A110630F700F800E0
:1007C8000A30F20083162A080A168A11BA270A1272
:1007D8008A110A128A1597230A128A11772AFA1D92
:1007E800012C6508031D012CFF30BF0067300A1675
:1007F8008A11A7210A128A117328EF1D072C831268
:100808000313871473288312031387107328C700F0
:10081800C80147080319BE2C06304202D730031915
:100828004102031CAB2C073042029E3003194102DF
:100838000318AB2C3B307A166406031D302CD930D4
:10084800F200C33035260A128A11E930F200C330AB
:100858001A250A128A11172D76306406031DA92C51
:100868004930F200CB3035260A128A114C30F2009A
:10087800CB301A250A128A118316590883124906A1
:10088800031D832C4A08FF3EC500FF3003180030C3
:10089800C60083165A08831245064604031D832C96
:1008A80083165B0883124B06031D832C8316690885
:1008B80083124C06031D832C83166A0883124D0687
:1008C800031D832C83166B0883124E06031D832C8D
:1008D8004308840049088000840A4A088000840A82
:1008E8004B088000440884004C088000840A4D08A6
:1008F8008000840A4E088000C801C80A172DCB3032
:10090800F2000830F300C330F4010A128A15812579
:100918000A128A113B308312E40049088316D90071
:1009280083124A088316DA0083124B088316DB0009
:1009380083124C088316E90083124D088316EA00D7
:1009480083124E088316EB00172DE401172D023091
:100958004202EE3003194102031CB92C0330420253
:10096800B73003194102031C172D0230E4017A1233
:10097800C800172D3B306406031DC42C7A1EC82CF2
:1009880076306406031DCB2CE4017A12D32C3B305D
:100998006406031DD32C0830E3000730EB0064081D
:1009A800031DDB2C0730E301EB008316C301003085
:1009B800831242023330031941020030031CF82C21
:1009C80042029630031941020318F72CE40A6B0817
:1009D800031D162D0730EB00E30A6308C33E8400AD
:1009E80083138001172D003042029730031941020A
:1009F800031CB92C00304202FA30031941020318D3
:100A0800B92CE40A6308C33E84000130C5006B0AB0
:100A18000F2D0310C50DFF3E031D0D2D4508831333
:100A28008004EB2CEB03831248080800C00072080E
:100A380084008001720A840080017208023E8400EA
:100A480080014008043E8400801D2C2D01302D2D8E
:100A58000030F30072088400730880074008043EE1
:100A680084000019392DA0013B2D0230A000A101FE
:100A780072088400200880074008043E840080181B
:100A8800472DA201492D0430A200A3017208840059
:100A9800220880074008043E84000018552DA40150
:100AA800572D0830A400A501720884002408800787
:100AB8004008053E8400801B632DA601652D0A3081
:100AC800A600A70172088400260880074008053E92
:100AD8008400001B712DA801732D1430A800A901F2
:100AE80072088400280880074008053E8400001D1D
:100AF8007F2D0130802D0030F300720A84007308C6
:100B080080074008053E840080188C2DAA018E2D90
:100B18000230AA00AB01720A84002A088007400844
:100B2800053E840000189A2DAC019C2D0430AC00C1
:100B3800AD01720A84002C0880074008063E840034
:100B4800801BA82DAE01AA2D0830AE00AF01720A95
:100B580084002E0880074008063E8400001BB62D3E
:100B6800B001B82D0A30B000B101720A8400300813
:100B780080074008063E8400801EC42D0130C52D24
:100B88000030F3007208023E8400730880074008B2
:100B9800063E8400001AD22DB201D42D0230B200D4
:100BA800B3017208023E8400320880074008063EFE
:100BB80084008019E12DB401E32D0430B400B5019F
:100BC8007208023E8400340880074008063E84000C
:100BD8000019F02DB601F22D0830B600B7017208E1
:100BE800023E8400360880074008063E84008018CC
:100BF800FF2DB801012E0A30B800B9017208023E73
:100C08008400380880074008063E840000180E2E2D
:100C1800BA01102E1430BA00BB017208023E8400DB
:100C28003A0880074008073E8400801B1D2EBC013F
:100C38001F2E2830BC00BD017208023E84003C080B
:100C480080074008073E8400001B2C2EBE012E2E74
:100C58005030BE00BF017208023E84003E08800783
:100C68000800B6007208840083138001720A8400A9
:100C780080017208023E840080013608023E84002A
:100C8800001D482E0130492E0030F300720A8400FE
:100C9800730880073608023E84008018552EA0018C
:100CA800572E0230A000A101720A84002008800794
:100CB8003608023E84000018632EA201652E043017
:100CC800A200A301720A8400220880073608033EA6
:100CD8008400801B712EA401732E0830A400A50186
:100CE800720A8400240880073608033E8400001B2B
:100CF8007F2EA601812E0A30A600A701720A840061
:100D0800260880073608033E8400801A8D2EA80125
:100D18008F2E1430A800A901720A840028088007C1
:100D28003608033E8400001A9B2EAA019D2E283007
:100D3800AA00AB01720A84002A0880073608033E1D
:100D48008400001DA92E0130AA2E0030F30072087D
:100D58008400730880073608033E84008018B62E86
:100D6800AC01B82E0230AC00AD01720884002C082A
:100D780080073608033E84000018C42EAE01C62E34
:100D88000430AE00AF01720884002E0880073608D0
:100D9800043E8400801BD22EB001D42E0830B0004F
:100DA800B10172088400300880073608043E8400C8
:100DB800001BE02EB201E22E0A30B200B301720825
:100DC8008400320880073608043E8400801AEE2E1C
:100DD800B401F02E1430B400B50172088400340850
:040DE8008007080078
:100E000007308A000408840A820700340034003462
:100E1000DC340034E034013401340034E034023492
:100E200000347834023480340734023480347F3420
:100E30000334E0340F340134E0340F340334E0344D
:100E4000FF34043400347034043400340F34053477
:100E50000034F0340634E034FF340934E034033431
:100E60000534E03401340534803407340734003469
:100E7000783408340034F034093400343C34073416
:100E8000C03407340834C0340F340634E03401343D
:100E90000A3400341E340A340034F0340934003487
:100EA000E0340534C03401340A34E0340034023410
:100EB00011340334063401340C340434033405345F
:100EC0000434003415340634073407340834083445
:100ED000093409340A340A340B340B3401340C3429
:100EE0000D340D340E340E340F340F3410341034EE
:100EF0000234003412340034133400341434003417
:100F00000034153415340034803400344034003457
:100F100020340034103400340834003404340034F5
:100F2000023400340134803400344034003420343E
:100F300000341034003408340034043400340234F3
:100F4000003401340034FF347F34FF34BF34FF34C5
:100F5000DF34FF34EF34FF34F734FF34FB34FF3435
:100F6000FD34FF34FE347F34FF34BF34FF34DF34CC
:100F7000FF34EF34FF34F734FF34FB34FF34FD34F7
:100F8000FF34FE34FF34DE34F63492342434CE346D
:100F9000E7349E34E7349234B7349E34F334DE348D
:100FA000F3349234E434DE34F7349E34F7347D3451
:100FB0000034FA34003477340134F43401347134B9
:100FC0000234EE3402346B340334E8340334003436
:100FD0001F341C341F341E341F341E341F341F347E
:100FE0001E341F341E341F3464008001840A04063A
:080FF000031900340406F52F7B
:1010140034309C250A128A153408F2003C30F3015E
:10102400F400F5019F270A128A157208B0007308AC
:10103400B1003508F2003C30F301F400F5019F27BC
:101044000A128A1572083007B20073080318730A6B
:101054003107B30036083207F800003003180130B6
:101064003307F900E7230A128A15D0230A128A15D6
:10107400831603171008F039013890000F395038DF
:1010840090001108F039023891000F39503891005E
:101094001208F039033892000F39503892001308BF
:1010A400F039043893000F39503893000330EB01C2
:1010B400EA000230EC00100E0F39F200F301F30ADB
:1010C40010080F39E7210A128A1583160317110E27
:1010D4000F39F200F301F30A11080F39E7210A125C
:1010E4008A1583160317120E0F39F200F301F30A5F
:1010F40012080F39E7210A128A1583160317130EF3
:101104000F39F200F301F30A13080F39E7210A1229
:101114008A150B3083120313AA00AB014E270A125F
:101124008A152908AD002808AC0011270A128A156F
:101134005F082A06F0392A06DF000B30AA00AB014B
:101144004E270A128A152908AD002808AC00112779
:101154000A128A152A08B000B00E5F0830060F394B
:101164003006DF005F0E0F39F200F301F30A5F0867
:101174000F39E721831203136F100800B700FF3EF5
:10118400031C0800840010300402031808001830FF
:101194008A000310040D0407393E820008001C2253
:1011A4000A128A15B8270A128A15D7230A128A1531
:1011B400DF230A128A158F270A128A154E220A1271
:1011C4008A15362AE22FEB2F482B0A281C220A12F2
:1011D4008A15D7230A128A15DF230A128A158F2744
:1011E4000A128A154E220A128A1536220A128A1502
:1011F4000930F2000130F301F30AE7291C220A1234
:101204008A150930F2000130F301F30AE7210A12CA
:101214008A150930F2000230F301F30AE7210A12B9
:101224008A15D72B1C220A128A150930F2000130C4
:10123400F301F30AE7210A128A150930F200023099
:10124400F301F30AE7210A128A150930F200033088
:10125400F301F30AE7210A128A150930F200043077
:10126400F301F30AE7210A128A150930F200053066
:10127400F301F30AE7210A128A15DF2B1C220A1252
:101284008A150930F2000130F301F30AE7210A124A
:101294008A150930F2000230F301F30AE7210A1239
:1012A4008A150930F2000330F301F30AE7210A1228
:1012B4008A150930F2000430F301F30AE7210A1217
:1012C4008A150930F2000530F301F30AE7210A1206
:1012D4008A150930F2000630F301F30AE7210A12F5
:1012E4008A158F2F1C220A128A150930F200013048
:1012F400F301F30AE7210A128A150930F2000230D9
:10130400F301F30AE7210A128A150930F2000330C7
:10131400F301F30AE7210A128A154E2A1C220A1243
:101324008A150930F2000130F301F30AE7210A12A9
:101334008A150930F2000230F301F30AE7210A1298
:101344008A150930F2000330F301F30AE7210A1287
:101354008A150930F2000430F301F30AE7210A1276
:101364008A15362A0A168A1146210A128A1502306B
:10137400F2000030F301F30AE72948230A128A1520
:101384000230F2000030F301F30AE72948230A127D
:101394008A150830F2000030F301F30AE7290A162F
:1013A4008A1146210A128A150830F2000030F3012E
:1013B400F30AE7290A168A1107210A128A15083046
:1013C400F2000030F301F30AE729F6007308031072
:1013D4000319042A760D7E3E84000A128A1100271E
:1013E4000A128A15F4000A128A110027F500031064
:1013F400720DAB3E8400740883138004840A75085C
:1014040080040800760D9E3E84000A128A1100278B
:101414000A128A15F4000A128A110027F500031033
:10142400720DAB3E8400740883138005840A75082A
:1014340080050800D0230A128A150930F200003012
:10144400F301F30AE7210A128A15F8010B30F200BE
:10145400F301F30A7808E7210A128A150B30F80A17
:10146400780203180800282A83120313601D442AF3
:101474000730C6220A128A150930C6220A128A15B2
:101484000A30C62A07306E220A128A1509306E22E3
:101494000A128A150A306E2A83120313E01C602A8A
:1014A40008306E220A128A150630C6220A128A15DC
:1014B4000930C6220A128A150A30C62A06306E225C
:1014C4000A128A1509306E220A128A150A306E220F
:1014D4000A128A150830C62AF500F6010310760DA3
:1014E4007E3E84000A128A1100270A128A15A0007F
:1014F4000A128A1100270A128A15A1000330F20089
:1015040075081E23023E84000A128A1100270A125B
:101514008A15A2000A128A1100270A128A15A3004A
:1015240020082205A40021082305A500240403198A
:10153400C02A0310760D9E3E84000A128A110027E9
:101544000A128A15A0000A128A1100270A128A15A3
:10155400A1000330F20075081E23013E84000A1224
:101564008A1100270A128A15A2002207AB3E8400C2
:10157400200883138005840A210880050B30F60AAD
:10158400760203180800702AF500F6010310760DA0
:101594007E3E84000A128A1100270A128A15A000CE
:1015A4000A128A1100270A128A15A1000330F200D8
:1015B40075081E23023E84000A128A1100270A12AB
:1015C4008A15A2000A128A1100270A128A15A3009A
:1015D40020082205A40021082305A50024040319DA
:1015E400182B0310760D7E3E84000A128A11002700
:1015F4000A128A15A0000A128A1100270A128A15F3
:10160400A1000330F20075081E23013E84000A1273
:101614008A1100270A128A15A2002207AB3E840011
:10162400200883138004840A210880040B30F60AFE
:10163400760203180800C82AF400F301720874182B
:10164400F3070310F20D7208F418F3070310F20DF8
:1016540072087419F3070310F20D7208F419F307F2
:101664000310F20D7208741AF3070310F20D7208D6
:10167400F41AF3070310F20D7208741BF307031036
:10168400F20D7208F41BF30773080800D0230A1242
:101694008A150A30F2000030F301F30AE721023020
:1016A400F7000A30F801F2008316031356080A16ED
:1016B4008A118C210A128A1597230630F7000A3002
:1016C400F801F200831656080A168A11BA270A127C
:1016D4008A1597230230F7000630F8000A30F2002A
:1016E400831657080A168A118C210A128A15972321
:1016F4000630F700F8000A30F200831657080A167D
:101704008A11BA270A128A1597230A128A150430F5
:10171400F2000A30F301F30AE7210A128A150630AF
:10172400F2000A30F301F30AE72983120313A2003B
:101734000F30A300A401A5010310220DBE3E8400B6
:101744000A128A1100270A128A15A0000A128A11A5
:1017540000270A128A15A100230AB32B0310A10C37
:10176400A00CFF3E031DB02B2008F3000130F3054D
:1017740024087807F20025087707E7210A128A155A
:10178400831203130330A303A50A2502031C9F2B12
:101794000530A40A2402031808009D2B1830F20116
:1017A400F301F400AB30F501CE2F83120313601C58
:1017B400DD2B0030C62A00306E2A83120313E01D8D
:1017C400E52B0C30C62A0C306E2A78088316DC0010
:1017D4007908DD00DE01DF010800C1006108BF00F7
:1017E40052300310BF0D3F07C0004108400784007A
:1017F4000A128A1100270A128A1561060319C12CDC
:101804006108BF0052300310BF0D3F07C0004108FC
:10181400400784000A128A1100270A128A15F90067
:101824006108D224831203136108BF0052300310ED
:10183400BF0D3F07C0004108400784000A128A1107
:1018440000270A128A15E100C02883160830E20A2C
:1018540062020318E2011F308312E0058316620856
:101864008312BF0004300310BF0DFF3E0310031D9D
:10187400362C3F0DE004B82F01306006BF0001395B
:10188400C0006008FE394004E000D72B0830600631
:10189400BF000839C0006008F7394004E000DF2BBE
:1018A40010306006BF001039C0006008EF394004F2
:1018B400E0008F2F02306006BF000239C0006008CC
:1018C400FD394004E0004E2A04306006BF000439AC
:1018D400C0006008FB394004E000362A2030EC0ADE
:1018E4006C06031D772CEC01EC0A0A168A112B28CE
:1018F4000D30ED0A6D06031D812CED01ED0A0A166B
:101904008A1158281E30EE0A6E06031D8B2C1030E7
:10191400EE000A168A11412883161830D60A560694
:101924000319D6010A168A116F2883163C30D70A88
:1019340057060319D7010A168A1186280A168A112E
:10194400D728EF1CA72CEF10A82CEF140A30F200B4
:101954000030EF180130F3000A30E7294108CD25A3
:101964000A128A15031C08000530F9006108D22404
:101974000A128A15053083120313E100C028610896
:10198400FD3E031C08008400133004020318080001
:1019940018308A000310040D0407003E820008007A
:1019A400A100790803190800063079020318080019
:1019B4002108003A0319E82C013A0319202D033AAF
:1019C40003192F2D013A0319512D542D83126F1928
:1019D400F22CED2CF22C0A168A11D6270A128A153B
:1019E400831624088312E0008316A3008312A00048
:1019F40005300310A00CFF3E031DFB2C20088316AA
:101A0400E2000730E2056C30AC250A128A156C300E
:101A1400F2000330F300E330F40181250A128A1541
:101A2400D6309C250A128A15D630F2000330F30012
:101A3400D330F40181258312EF1008006008831667
:101A4400230603190800831260080A168A119E20CF
:101A5400831260088316A3000800D330F200033019
:101A6400F300D630F40155250A128A15720873045E
:101A74000319402DD630BB250A128A15E330F20033
:101A84000330F3006C30F40155250A128A157208EC
:101A94007304031908006C300A168A15C62EEF1C4D
:101AA4000800FE2F0800F7000130F3020030031C89
:101AB400F403F402730F612D740A03197E2D720866
:101AC400840083130008F500770884000008750675
:101AD40003197B2D720884000008F5007708840040
:101AE4000008F60075087602F200F301031CF30304
:101AF4000800F70AF20A562DF201F3010800F80073
:101B04007208F7007808F6000130F3020030031C75
:101B1400F403F402730F912D740A03190800770873
:101B240084000008F5007608840075088000F70A30
:101B3400F60A862DF200840083126708831380005E
:101B4400720A8400680880007208023E84006908F2
:101B540080000800F2008400660883138000720A83
:101B64008400670880007208023E840068088000D0
:101B74000800F20084008313000883120313E700B3
:101B8400720A84000008E8007208023E840000081B
:101B9400E900FA150800BB006F1CD22D03140800DD
:101BA4003B08031DDC2D83160317EC0BE72D0430D3
:101BB400EC00E72D3B0BE72D831603170530EC0AE9
:101BC4006C02031CE72DEC01EC0A02300A168A159C
:101BD40039270A128A1500303602C8300319350233
:101BE4000318F82D6F18D02D031008000230C527F4
:101BF4000A128A15831603176A08903E8400831715
:101C040000080F3983120313BD00831603176A08F3
:101C1400903E8400000E0F3983120313BE00382E49
:101C2400831203130B30BD033D02031C482E0A30FC
:101C3400BD00482E831203130B30BD0A3D02031C62
:101C4400482EBD01482E831203130B30BE033E02FF
:101C5400031C482E0A30BE00482E831203130B3097
:101C6400BE0A3E02031C482EBE01482E83160317EB
:101C74006C08013A0319252E033A03191C2E013A64
:101C840003192F2E073A0319122E482E8312031319
:101C94005F080F393D06031D7C2E5F0E0F393E068B
:101CA400031D7C2E0B30AA00AB014E270A128A15A5
:101CB4002908AD002808AC0011270A128A155F080C
:101CC4002A06F0392A06DF000B30AA00AB014E27A2
:101CD4000A128A152908AD002808AC0011270A1237
:101CE4008A152A08BA00BA0E5F083A060F393A066E
:101CF400DF00942E831603176B08903E8400000EB9
:101D04000F39F200F3016B08903E840000080F398C
:101D1400E7210A128A15831603175A30EB0A6B025D
:101D24000318EB01831203133E08F200F301F30AD4
:101D34003D08E7210A128A15831603175A30EA0A66
:101D44006A020318EA016A08903E840083170008B7
:101D5400831203133D06F0393D0680003E08BA00A5
:101D6400831603176A08903E840083120313BA0E85
:101D740000083A060F393A068000831603176A08EA
:101D84006B06031DCA2E5A30EB0A6B020318EB01D3
:101D9400831203135F0E0F39F200F301F30A5F0895
:101DA4000F39E7210A128A15831603176B08831269
:101DB4000313BC003C08903E8400831700080F39CD
:101DC400BA00831603176A08903E840000080F398E
:101DD400831203133A06031D032F3C08903E84002C
:101DE400000E0F39BA00831603176A08903E840068
:101DF400000E0F39831203133A06031D032F6F14C9
:101E0400F42D5A30BC0A3C020318BC018316031794
:101E14006A08831203133C06031DDC2EF42DAF0164
:101E2400AD1F1B2FAC09AD09AC0A0319AD0AAF01F4
:101E3400AF0AAB1F222FAA09AB09AA0A0319AB0ADE
:101E44002A082B040319412FAE01AE0AAB1B2E2F17
:101E54000310AA0DAB0D272F2B082D02031D342FC1
:101E64002A082C02031C3D2F2A08AC022B08031C51
:101E7400AD03AD020310AB0CAA0CAE0B2E2F2F0832
:101E84000319492FAC09AD09AC0A0319AD0A2D0891
:101E9400AB002C08AA0008004130A300C630A20001
:101EA4004E30A1006D30A00083165F088312A70096
:101EB40083165E088312A60083165D088312A500AC
:101EC40083165C088312A4000A168A157727230850
:101ED4008316DF00831222088316DE008312210892
:101EE4008316DD00831220088316DC003930DC07FA
:101EF400303003183130DD07003003180130DE07BD
:101F0400003003180130DF075F088312A90083162D
:101F14005E088312A800A913080083120313601E2D
:101F2400992F0130C6220A128A150230C62A0130BE
:101F34006E220A128A1502306E2AF601F701721C0B
:101F4400A92F7408F6070318F70A7508F707031092
:101F5400F40DF50D0310F30CF20C72087304031D59
:101F6400A12F7708F3007608F20008008312031308
:101F74006008F30005300310F30CFF3E031DBD2F72
:101F840073080739F42FF200A03E84008312031370
:101F94006208831380000800F600F7000130F402A1
:101FA4000030031CF503F502740FDB2F750A0319C7
:101FB400080077088400720883138000F70AD02F82
:101FC400D0230A128A150830F2000030F301F30A14
:101FD400E729D0230A128A150730F2000030F301F2
:101FE400F30AE729F20008307202031CFB2F0730C2
:0C1FF400F2007208EA000800FA11080070
:10200600F40084001D3083130006031D1728740A8C
:10201600840002300006031D17287408023E84005F
:102026000008033903190134740884000008F2001B
:10203600740A84000008E23E84000A128A1100270E
:102046000A168A11F30072087302031C0034013465
:102056000230F7000A30F801F2006C088C210A12EF
:102066008A1597230A168A110630F7000A30F801F6
:10207600F2006C08BA270A128A15972B0230F7006D
:102086000630F8000A30F2006E088C210A128A1512
:1020960097230A168A110630F700F8000A30F20074
:1020A6006E08BA270A128A15972B0230F7000630F7
:1020B600F8000A30F2006D088C210A128A1597235F
:1020C6000A168A110630F700F8000A30F2006D0889
:1020D600BA270A128A15972B0230F7000A30F80140
:1020E600F20056088C210A128A1597230A168A11BD
:1020F6000630F7000A30F801F20083165608BA27B0
:102106000A128A15972B0230F7000630F8000A30BB
:10211600F20057088C210A128A1597230A168A118B
:102126000630F700F8000A30F20083165708BA277F
:102136000A128A15972BF4007408F5006F19A62861
:10214600D6270A168A11831624087506031908006D
:102156007508F2000030BD200A168A11A530F2007B
:102166000130BD200A168A110030EB2783160313AF
:10217600A4000800F30003178C18BE287308831206
:102186008D0072088C003F3083168C0503108B1B64
:1021960003148B130C1555308D00AA308D008C144A
:1021A6000C1103188B170800F701F201F20A7708E1
:1021B6003A260A168A11F801F201F20A7808702402
:1021C6000A168A110230F6004030F5002730F40076
:1021D600F40BEB28F50BEB28F60BEB28F228F201B3
:1021E600780870240A168A110B30F80A7802031C44
:1021F600DF28F20177083A260A168A110C30F70A08
:10220600770203180800D8280A128A1548230A16E6
:102216008A110230F700F8010A128A1597230A1666
:102226008A110630F7000030F8010A128A15972342
:102236000A168A110230F7000630F8000A30F2005A
:102246006E088C210A128A1597230A168A110630FF
:10225600F700F8000A30F2006E08BA270A128A154B
:1022660097230A168A110430F2000A30F3010A1283
:102276008A15E7210A168A110630F2000A30F301A0
:102286000A128A15E7290A128A1548230A168A119C
:102296000230F7000A30F801F200831203136C08CB
:1022A6008C210A128A1597230A168A110630F7001E
:1022B6000A30F801F2006C08BA270A128A15972329
:1022C6000A168A110230F7000630F8000A30F200CA
:1022D6006D088C210A128A1597230A168A11063070
:1022E600F700F8000A30F2006D08BA270A128A15BC
:1022F60097230A168A110430F2000A30F3010A12F3
:102306008A15E7210630F2000A30F3010A128A150F
:10231600E729F300F50172080319A529F401F40A67
:10232600F21B98290310F20D92290310F50D72087D
:102336007302031CA2297208F30275140310F20C2F
:10234600F40B982975080800C6008400831300085A
:10235600CC0018304C0203180800460A8400000816
:10236600D3003C3053020318080083126F19C029AA
:10237600BD29C029D6270A168A1183162408831276
:10238600CA00D4014A1CC929CD01D40ACA1DD729BD
:102396004C08031DD7295308031DD72954084D3E61
:1023A60084000C3083139B2A4A1E152A4C08031DF1
:1023B600152A193053020318152A54084D3E840075
:1023C60083138001800AD40A54084D3E84000230EB
:1023D60080000530D40A5302031CED2A0A3053024A
:1023E6000318FA2954084D3E840003309B2A0F3007
:1023F60053020318032A54084D3E840004309B2AD6
:102406001430530203180C2A54084D3E840005303C
:102416009B2A193053020318ED2A54084D3E8400B6
:1024260007309B2A0C30F2004C08BA270A168A118C
:102436008312CC000B304C02031C232ACB01262A24
:102446004C08013ECB000530530203183E2A4C0BC4
:10245600312A54084D3E84001930362A54084D3E20
:1024660084004C080D3E83138000D40A54084D3E68
:1024760084001A309B2A0A30530203184A2A540849
:102486004D3E8400033083138000D40A602A0F3047
:1024960053020318532A54084D3E84000430462A3A
:1024A6001430530203186B2A54084D3E840006303C
:1024B60083138000D40ACA1C962A54084D3E840011
:1024C6000A308000D40A54084D3E84004C089A2AEB
:1024D600193053020318822A4A1D762A54084D3EA3
:1024E60084000730462A54084D3E84000430831386
:1024F6008000D40A54084D3E84000930BD2A1E309F
:10250600530203188B2A54084D3E840003307A2A5E
:102516002330530203189E2A54084D3E84000B3084
:1025260083138000D40A54084D3E84004B080D3EA8
:102536008000D40AED2A283053020318A72A54082B
:102546004D3E84000330B62A2D3053020318C42AA8
:102556004A1DB22A54084D3E84000730CE2A54083C
:102566004D3E8400043083138000D40A54084D3E47
:1025760084000A308000D40A54084D3E84000B3093
:10258600942A323053020318DB2ACA1CD62A54086E
:102596004D3E8400063083138000D40A54084D3E15
:1025A60084000930942A54084D3E84000830932A4A
:1025B600373053020318E42A54084D3E8400043091
:1025C600CE2A3C3053020318ED2A54084D3E8400AF
:1025D6000330CE2AC801540848020318BB2B48080A
:1025E6004D3E84008313000800070007013E840067
:1025F6000A128A1100270A168A11C700C9010B3070
:10260600490203183E2B0310490D7E3E84000A1230
:102616008A1100270A168A11C0000A128A11002799
:102626000A168A11C10048084D3E8400831300082B
:1026360000070007023E84000A128A1100270A16C4
:102646008A11C2000A128A1100270A168A11C300CB
:1026560040084205C40041084305C5004404031967
:10266600362B0130372B0030F200490870240A1649
:102676008A11C90A022BF201F20A47083A26031008
:102686006A0DD23E84000A128A1100270A168A11A0
:10269600A0000A128A1100270A168A11A1006827CB
:1026A6000A168A112008A6002108A7002208A800F9
:1026B6004930A3009D30A4004030A500ED260A163F
:1026C6008A112308B2002408B3002508B400152592
:1026D6000A168A113208C0003308C1003408C20045
:1026E6003508C300F2018312031347083A26E8307F
:1026F600A0000330A10003106A0DD23E84000A1226
:102706008A1100270A168A11C0000A128A110027A8
:102716000A168A11C1004008A0024108031CA10341
:10272600A10268270A168A112008A6002108A70018
:102736002208A8004930A3009D30A4004030A5001F
:10274600ED260A168A112308B2002408B3002508CC
:10275600B40015250A168A113208C2003308C300D0
:102766003408C4003508C50083120313C80AEE2ACC
:10277600FF30F20170240A168A11512C0A30F20138
:10278600F20A70240A168A110930F201F20A70243C
:102796000A168A110030F201F20A70240A168A110A
:1027A6000130F201F20A70240A168A110B30F20186
:1027B600F20A3A2603106A0DD23E84000A128A11E2
:1027C60000270A168A11A0000A128A1100270A1683
:1027D6008A11A10068270A168A112008A600210876
:1027E600A7002208A8004930A3009D30A40040306D
:1027F600A500ED260A168A112308B2002408B300A4
:102806002508B40015250A168A113208C0003308B7
:10281600C1003408C2003508C3000B30F2013A2665
:10282600E830A0000330A10003106A0DD23E8400F8
:102836000A128A1100270A168A11C0000A128A1182
:1028460000270A168A11C1004008A0024108031C8D
:10285600A103A10268270A168A112008A6002108EA
:10286600A7002208A8004930A3009D30A4004030EC
:10287600A500ED260A168A112308B2002408B30023
:102886002508B40015250A168A113208C200330835
:10289600C3003408C4003508C5006D2C0530F200AD
:1028A6005308BA270A168A118312C000C1014108CB
:1028B600003A03195F2C6D2C4008013A0319D32BFB
:1028C600033A0319CD2B013A0319C72B073A03190B
:1028D600C12B6D2CFF30F201702CF300EE2C721C14
:1028E600782C8312031305140800831203130510B2
:1028F6000800721C822C83120313851408008312AD
:10290600031385100800721C8C2C83120313051503
:1029160008008312031305110800721C962C8312FB
:102926000313851508008312031385110800721C12
:10293600A02C831203130516080083120313051235
:102946000800721CAA2C8312031385160800831232
:10295600031385120800721CB42C83120313091486
:1029660008008312031309100800721CBE2C831280
:102976000313891408008312031389100800721CBC
:10298600C82C8312031309150800831203130911B7
:102996000800721CD22C831203130714080083123A
:1029A600031307100800721CDC2C83120313871410
:1029B60008008312031387100800831203130510FF
:1029C6008510051185110512851209108910091146
:1029D6000710871008007308003A0319722C013A91
:1029E60003197C2C033A0319862C013A0319902CFF
:1029F600073A03199A2C013A0319A42C033A03192E
:102A0600AE2C013A0319B82C0F3A0319C22C013A1D
:102A16000319CC2C033A0319D62CF53A0319E02CEA
:102A2600E02C08003208B6003308B7003408B800B6
:102A36000310370D380DBE003E08031D272DB201C9
:102A4600B301B401B50108003208B6003308B70077
:102A56003408B80017300310B80CB70CB60CFF3E9C
:102A6600031D2E2D3608B900B317B4013208BA007B
:102A76003308BB003408BC008E30BD01BE02BE1F49
:102A8600512D3E08803A8F3E031C222D0310BD0CAB
:102A9600BC0CBB0CBA0CBE0F492D5F2D18303E0284
:102AA6000318222D3E0803195F2D0310BA0DBB0D26
:102AB600BC0DBD0DBE03552D390803196D2DBA0980
:102AC600BB09BC09BD09BA0A0319BB0A0319BC0A2A
:102AD6000319BD0A3D08B5003C08B4003B08B30025
:102AE6003A08B200080083120313C6010310460D0C
:102AF600AB3E840083130008BF00840A0008C000B0
:102B06003F040319302EC5010310450D7E3E840097
:102B16000A128A1100270A168A11BF000A128A11A0
:102B260000270A168A11C0000310460DAB3E84002A
:102B360083130008C100840A0008C2003F0841054B
:102B4600C30040084205C40043040319AC2D0130FC
:102B5600AD2D0030F200450870240A168A110B309C
:102B6600C50A4502031C882DF201F20A46083A26D8
:102B760003106A0DD23E84000A128A1100270A1633
:102B86008A11A0000A128A1100270A168A11A100CA
:102B960068270A168A112008A6002108A70022081D
:102BA600A8004930A3009D30A4004030A500ED26C2
:102BB6000A168A112308B2002408B3002508B400B7
:102BC60015250A168A113208BF003308C0003408DA
:102BD600C1003508C200F2018312031346083A26E3
:102BE600E830A0000330A10003106A0DD23E840035
:102BF6000A128A1100270A168A11BF000A128A11C0
:102C060000270A168A11C0003F08A0024008031CCC
:102C1600A103A10268270A168A112008A600210826
:102C2600A7002208A8004930A3009D30A400403028
:102C3600A500ED260A168A112308B2002408B3005F
:102C46002508B40015250A168A113208C100330872
:102C5600C2003408C3003508C400831203130C30C5
:102C6600C60A4602031C7A2DFF30F201702CF300CF
:102C7600C32E721C422E831203138614080083127D
:102C8600031386100800721C4C2E831203130614BD
:102C960008008312031306100800721C562E8312B6
:102CA6000313881708008312031388130800721C85
:102CB600602E8312031308170800831203130813E8
:102CC6000800721C6A2E83120313881608008312EA
:102CD600031388120800721C742E8312031308163D
:102CE60008008312031308120800721C7E2E83123A
:102CF6000313871708008312031387130800721C37
:102D0600882E831203130717080083120313071371
:102D16000800721C922E8312031387160800831272
:102D2600031387120800721C9C2E831203130716C6
:102D360008008312031307120800721CA62E8312C2
:102D46000313881508008312031388110800721CE8
:102D5600B02E8312031308150800831203130811FB
:102D660008008312031386100610881308138812AE
:102D76000812871307138712071288110811080013
:102D86007308003A03193C2E013A0319462E033AFA
:102D96000319502E013A03195A2E073A0319642EC5
:102DA600013A03196E2E033A0319782E013A0319D4
:102DB600822E0F3A03198C2E013A0319962E033AE6
:102DC6000319A02E013A0319AA2EF43A0319B42EB8
:102DD600B42E08002308A9002408AA002508AB0081
:102DE60003102A0D2B0DAC002C08031DFE2EA3018B
:102DF600A401A50108002608A9002708AA0028089A
:102E0600AB0003102A0D2B0DB1003108031D0F2F47
:102E1600A301A401A501080031087B3EAC072508E3
:102E2600B1002808B1068030B1050730A417A717EE
:102E3600A801AD01AE01AF01B000231C302F26085A
:102E4600AD07270803110318270A031DAE07280834
:102E560003110318280A031DAF070310A50CA40CC1
:102E6600A30C0310A60DA70DA80DB00B202F09303B
:102E7600B000231C4C2F2608AD07270803110318A2
:102E8600270A031DAE07280803110318280A031D85
:102E9600AF070310A50CA40CA30C0310AF0CAE0CCB
:102EA600AD0CB00B3C2F2D08F2002E08F3002F08B6
:102EB600F4002C08F5003108F60078277208A30004
:102EC6007308A4007408A50008002008F200210871
:102ED600F3008E30F401F500F60178277208A000A1
:102EE6007308A1007408A200080075080319802F52
:102EF600740873047204031D892FF201F301F401AF
:102F06000800F50A0310F40CF30CF20CFE307405FD
:102F16000319982F842FF50AF20A0319F30A0319E5
:102F2600F40A0310F40CF30CF20CFF3074050319C9
:102F3600A62F8E2F02307502031CA82FF50303104F
:102F4600F20DF30DF40DF31F9D2F751CF3130310F3
:102F5600F50C7508F900F801F7017708F20478080E
:102F6600F3047908F4047608031DF4170800F40046
:102F76000830F500F6017408F30007300310F30C6F
:102F8600FF3E0310031DC22F760D7304F6000310D7
:102F9600F40D72087602031CD22F7208F602F50BA6
:102FA600BE2F760808000130EB270A168A11F300B7
:102FB6000030EB270A168A1183160313A400A530E6
:102FC60073060319E82FE130A40083126F15080079
:102FD600F2006400831603178C18EC2F7208831214
:102FE6008D003F3083168C050C1403100C18031447
:102FF6000318013083120C0808000A128A15A32C44
:103006000A128A15A02C0A128A15D12C0A128A15C0
:10301600272C0A128A153E2C0A128A155C2C0A12D3
:103026008A15662C0A128A15482C0A128A15522C01
:103036000A128A158E2C0A128A15972C0A128A15DC
:10304600702C0A128A157A2C0A128A15842C0A12F6
:103056008A15D12C0A128A15D12C0A128A15D12C5E
:103066000A128A15D12C0A128A15B02C0A128A1550
:10307600D1280A128A15E6280A128A15E4280A12A5
:103086008A15E5280A128A15E7280A128A15E828F9
:103096000A128A1500290A128A1574290A128A1533
:1030A60090290A128A1514290A128A1540290A1229
:1030B6008A15BF290A128A15C8290A128A15B4293F
:0C30C6000A128A15D1290A128A15DC2989
:103D8C00F20084008313000883160313E600720A02
:103D9C0084000008E7007208023E84000008E80076
:103DAC0008000B1DDD2E0B1183120313E20A0B1CF2
:103DBC00F62E8312031306080B10061DE72E7A1439
:103DCC00E82E7A1083120313061EEE2EFA14EF2E31
:103DDC00FA1083120313861DF52E7A15F62E7A111E
:103DEC0071088A00700E8300FE0E7E0E0900031708
:103DFC0005168511051585140510831603138117F7
:103E0C009501811281110115811401140F178F1660
:103E1C008F168B178B1603178801890183120313D6
:103E2C00850186018701880189018316051085109B
:103E3C000511851105128512091089100911071039
:103E4C00871086100610881308138812081287131F
:103E5C00071387120712881108118711161596156A
:103E6C0016168B15080083120313B9004B30A800EB
:103E7C00A901AA01AB016208F200F301F21BF303E2
:103E8C003908A03E840083130008B700B801B71BA3
:103E9C00B803F2023808031CF303F302AA270A162C
:103EAC008A157208A0007308A1000030A11BFF3016
:103EBC00A200A3000330A701A601A500E830A400CE
:103ECC0077270A168A152308AF002208AE002108AE
:103EDC00AD002008AC00B8272908B6002808B500AA
:103EEC000800F601F701F801F901201C912F2408B4
:103EFC00F607250803110318013E031DF7072608D2
:103F0C0003110318013E031DF807270803110318BA
:103F1C00013E031DF9070310A40DA50DA60DA70D59
:103F2C000310A30CA20CA10CA00C23082204210446
:103F3C002004031D7B2F7908A3007808A2007708C2
:103F4C00A1007608A0000800F31F08007209F40015
:103F5C007309F500F40A0319F50A7408F2007508E0
:103F6C00F3000800B001B101B201B3012B082A041F
:103F7C00290428040319F72FB401B40AAB1BCC2F66
:103F8C000310A80DA90DAA0DAB0DC32F0310B00D76
:103F9C00B10DB20DB30D2B082F02031DDF2F2A0814
:103FAC002E02031DDF2F29082D02031DDF2F2808E9
:103FBC002C02031CF12F2808AC022908031C290F22
:103FCC00AD022A08031C2A0FAE022B08031C2B0F70
:103FDC00AF0230140310AB0CAA0CA90CA80CB40B38
:103FEC00CC2F3308AB003208AA003108A9003008E6
:043FFC00A800080011
:04400E00C2EBFFFE04
:00000001FF
