:060000000A128A110C280F
:10000800FE00030EF0000A08F1000A168A115928AA
:100018000A128A110F2883160130D6001530D7012D
:10002800D801D901DA00FF30DB000130DC00DD0047
:100038001030DE000130DF00E0001030E1008312F4
:100048000730E1000130E200E3001030E400013045
:10005800E500E6001030E700903083178400ED30AB
:100068000A128A11F8270A128A11A0308313840011
:10007800D6300A128A11F8270A128A1150308400E1
:1000880061300A128A11F827E801FA0183010A1679
:100098008A11352CC1005208BF0052300310BF0D21
:1000A8003F07C0004108400784000A128A11002750
:1000B8000A128A1152060319FF285208BF0052304B
:1000C8000310BF0D3F07C0004108400784000A1213
:1000D8008A1100270A128A11F90052081021831286
:1000E80003135208BF0052300310BF0D3F07C00072
:1000F8004108400784000A128A1100270A128A114F
:10010800D2000A128A15E42801305106BF000139CD
:10011800C0005108FE394004D100072B08305106B1
:10012800BF000839C0005108F7394004D1000A124D
:100138008A15EC2F10305106BF001039C000510845
:10014800EF394004D1000F2B02305106BF000239AD
:10015800C0005108FD394004D100EB290430510694
:10016800BF000439C0005108FB394004D100D3292D
:100178002030E20A6206031DC328E201E20A682B66
:100188000D30E30A6306031DCB28E301E30AC52B00
:100198001E30E40A6406031DD3281030E400662EDE
:1001A80083161830D00A50060319D001862B8316FF
:1001B8003C30D10A51060319D101A52B852E681CA4
:1001C800E7286810E82868140A30F200F301F30AF7
:1001D8000A128A15D1294108E4230A128A11031C3C
:1001E8000800F9015208102183120313D2015208A2
:1001F8000A128A15E4285208FD3E031C08008400F0
:10020800123004020318080006308A000310040D97
:100218000407CA3E82000800A000790803190800F4
:1002280006307902031808002008003A0319262925
:10023800013A03194D29033A03195929013A0319B7
:1002480079297C29E8182F292A292F290A128A15A1
:1002580077260A128A115408D1008316A300623047
:10026800E5220A128A116230F2000330F300DC3012
:10027800F401A9210A128A11D030C4210A128A1164
:10028800D030F2000330F300CD30F401A92168101A
:100298000800510883162306031908008312510821
:1002A8001F2351088316A3000800CD30F200033045
:1002B800F300D030F4017D210A128A117208730408
:1002C80003196A29D030F5220A128A11DC30F200AB
:1002D8000330F3006230F4017D210A128A1172089A
:1002E8007304031908006230552B681C0800662B3C
:1002F8000800F7000130F3020030031CF403F40295
:10030800730F8929740A0319A629720884008313B4
:100318000008F50077088400000875060319A3296A
:10032800720884000008F500770884000008F600C9
:1003380075087602F200F301031CF3030800F70ABC
:10034800F20A7E29F201F3010800F8007208F700AA
:100358007808F6000130F3020030031CF403F402BD
:10036800730FB929740A0319080077088400000874
:10037800F5007608840075088000F70AF60AAE29A9
:10038800F20084005E0883138000720A84005F080C
:1003980080007208023E8400600880000800831212
:1003A8000313511DE129073063220A128A1109300B
:1003B80063220A128A110A30632A07300B220A12B2
:1003C8008A1109300B220A128A110A300B2A831269
:1003D8000313D11CFD2908300B220A128A1106309A
:1003E80063220A128A11093063220A128A110A301A
:1003F800632A06300B220A128A1109300B220A12CC
:100408008A110A300B220A128A110830632AF50071
:10041800F6010310760D7C3E84000A128A1100272B
:100428000A128A11A0000A128A1100270A128A11D8
:10043800A1000330F2007508BB22023E84000A12B4
:100448008A1100270A128A11A2000A128A110027AB
:100458000A128A11A30020082205A40021082305F6
:10046800A500240403195D2A0310760D9C3E840020
:100478000A128A1100270A128A11A0000A128A1188
:1004880000270A128A11A1000330F2007508BB2266
:10049800013E84000A128A1100270A128A11A2005A
:1004A8002207A53E8400200883138005840A2108BA
:1004B80080050B30F60A7602031808000D2AF500AD
:1004C800F6010310760D7C3E84000A128A1100277B
:1004D8000A128A11A0000A128A1100270A128A1128
:1004E800A1000330F2007508BB22023E84000A1204
:1004F8008A1100270A128A11A2000A128A110027FB
:100508000A128A11A30020082205A4002108230545
:10051800A50024040319B52A0310760D7C3E840037
:100528000A128A1100270A128A11A0000A128A11D7
:1005380000270A128A11A1000330F2007508BB22B5
:10054800013E84000A128A1100270A128A11A200A9
:100558002207A53E8400200883138004840A21080A
:1005680080040B30F60A760203180800652AF400A6
:10057800F30172087418F3070310F20D7208F418E7
:10058800F3070310F20D72087419F3070310F20D44
:100598007208F419F3070310F20D7208741AF307BE
:1005A8000310F20D7208F41AF3070310F20D720823
:1005B800741BF3070310F20D7208F41BF30773089A
:1005C8000800F20084008312650883138000720A11
:1005D8008400660880007208023E84006708800074
:1005E8000800F20084008313000883120313DE005E
:1005F800720A84000008DF007208023E84000008C6
:10060800E000FA15080083120313511C0D2B00306B
:10061800632A00300B2A83120313511E192B013051
:1006280063220A128A110230632A01300B220A124D
:100638008A1102300B2AF400F5009F30F505F517F2
:10064800E8182B2B0A128A1577260A128A115408E1
:100658007506031908007508F20000303A230030C7
:100668000A128A1586260313D4000800F30083169D
:1006780003178C183B2B730883128D0072088C00AB
:100688003F3083168C0503108B1B03148B130C153A
:1006980055308D00AA308D008C140C1103188B175F
:1006A8000800F20084008313000883120313E50096
:1006B800720A84000008E6007208023E84000008FE
:1006C800E7000800FA1108000230F7000A30F801C4
:1006D800F20062080A128A15CB220A128A110A123B
:1006E8008A1592220A128A110630F7000A30F80198
:1006F800F20062080A128A1547260A128A110A129B
:100708008A15922A0230F7000A30F801F2005008E0
:100718000A128A15CB220A128A110A128A15922203
:100728000A128A110630F7000A30F801F20083161F
:1007380050080A128A1547260A128A110A128A15BF
:10074800922A0230F7000630F8000A30F200510809
:100758000A128A15CB220A128A110A128A159222C3
:100768000A128A110630F700F8000A30F2008316E0
:1007780051080A128A1547260A128A110A128A157E
:10078800922A0230F7000630F8000A30F2006308B7
:100798000A128A15CB220A128A110A128A15922283
:1007A8000A128A110630F700F8000A30F2006308CE
:1007B8000A128A1547260A128A110A128A15922ADB
:1007C8008312BB003B08031DF02B83160317EC0BA9
:1007D800FB2B0430EC00FB2B3B0BFB2B8316031786
:1007E8000530EC0A6C06031DFB2BEC01EC0A023009
:1007F80096250A128A1100303602C83003193502CC
:100808000318082C03100800023015260A128A1152
:10081800A12C6A08903E8400831700080F398312C0
:100828000313BD00831603176A08903E840000086E
:100838000F3983120313BA00BA0300083A06F039D5
:100848003A0680000B303D02031C2C2C0A30BD00F8
:10085800831603176A08903E8400000E0F3983122E
:100868000313BE00B12C6A08903E84008317000869
:100878000F3983120313BD00831603176A08903ECD
:10088800840000080F3983120313BA00BA0A00085B
:100898003A06F0393A0680000B303D02031C2C2C36
:1008A800BD012C2C6A08903E84008317000E0F3976
:1008B80083120313BE00831603176A08903E840050
:1008C800000E0F3983120313BA00BA03BA0E0008D8
:1008D8003A060F393A0680000B303E02031C762C8C
:1008E8000A30BE00831603176A08903E8400000889
:1008F8000F3983120313BD00B12C6A08903E84009F
:100908008317000E0F3983120313BE0083160317D3
:100918006A08903E8400000E0F3983120313BA0050
:10092800BA0ABA0E00083A060F393A0680000B30A8
:100938003E02031C762CBE01762C831603176C0826
:10094800013A0319562C033A0319372C013A0319B3
:10095800812C073A03190D2CB12C8312031350086C
:100968000F393D06031DED2C500E0F393E06031DB1
:10097800ED2C0B30AA00AB010A128A15AB270A121C
:100988008A112908AD002808AC000A128A155527D3
:100998000A128A1150082A06F0392A06D0000B30AC
:1009A800AA00AB010A128A15AB270A128A11290874
:1009B800AD002808AC000A128A1555270A128A11B8
:1009C8002A08BA00BA0E50083A060F393A06D0007B
:1009D800262D831603176B08903E840083170008A2
:1009E8000F3983120313BA0050080F393A06031D52
:1009F8000C2D831603176B08903E8400000E0F39E8
:100A080083120313BA00500E0F393A0603191F2D2B
:100A1800831603176B08903E8400000E0F39F2000E
:100A2800F3016B08903E840000080F390A128A15FA
:100A3800D1210A128A11831603175A30EB0A6B0266
:100A48000318EB01831203133E08F200F301F30AC3
:100A58003D080A128A15D1210A128A118316031732
:100A68005A30EA0A6A020318EA016A08903E8400CA
:100A780083170008831203133D06F0393D068000F2
:100A88003E08BA00831603176A08903E8400831252
:100A98000313BA0E00083A060F393A068000831687
:100AA80003176A086B06031D5E2D5A30EB0A6B02AA
:100AB8000318EB016B0883120313BC003C08903E3B
:100AC800840000080F39BA00831603176A08903E9D
:100AD800840000080F39831203133A06031D882D7A
:100AE8003C08903E8400000E0F39BA0083160317A5
:100AF8006A08903E8400000E0F39831203133A06E9
:100B0800031D882D031408005A30BC0A3C02031840
:100B1800BC01831603176A08831203133C060319E2
:100B2800062C622D83120313B9004B30A800A901CB
:100B3800AA01AB015308F200F301F21BF3033908D1
:100B4800A03E840083130008B700B801B71BB803A0
:100B5800F2023808031CF303F30207260A128A116B
:100B68007208A0007308A1000030A11BFF30A2008A
:100B7800A3000330A701A601A500E830A400D425EE
:100B88000A128A112308AF002208AE002108AD001E
:100B98002008AC001E262908B6002808B500080061
:100BA800F601F701F801F901201CEE2D2408F607DB
:100BB800250803110318013E031DF7072608031132
:100BC8000318013E031DF807270803110318013E07
:100BD800031DF9070310A40DA50DA60DA70D0310FD
:100BE800A30CA20CA10CA00C2308220421042004AD
:100BF800031DD82D7908A3007808A2007708A10062
:100C08007608A0000800F31F08007209F4007309B1
:100C1800F500F40A0319F50A7408F2007508F300E0
:100C28000800F200A03E84008312031353088313C4
:100C380080000800B001B101B201B3012B082A04F9
:100C48002904280403195D2EB401B40AAB1B322E03
:100C58000310A80DA90DAA0DAB0D292E0310B00D78
:100C6800B10DB20DB30D2B082F02031D452E2A0816
:100C78002E02031D452E29082D02031D452E280886
:100C88002C02031C572E2808AC022908031C290F24
:100C9800AD022A08031C2A0FAE022B08031C2B0FD7
:100CA800AF0230140310AB0CAA0CA90CA80CB40B9F
:100CB800322E3308AB003208AA003108A9003008E8
:100CC800A80008000230F7000630F8000A30F200E9
:100CD80064080A128A15CB220A128A110A128A1586
:100CE80092220A128A110630F700F8000A30F20040
:100CF80064080A128A1547260A128A110A128A15E6
:100D0800922AF801F201F20A78080A128A159B263B
:100D18000A128A11F901F201F20A79080A128A15EF
:100D28003E250A128A113230F600F7010130F60228
:100D38000030031CF703F702760FA52E770A031974
:100D4800B02E64000730F5006030F400F40BAA2ED2
:100D5800F50BAA2EAF2E9A2E6400F20179080A121A
:100D68008A153E250A128A110B30F90A7902031CEA
:100D78008F2EF20178080A128A159B260A128A1108
:100D88000C30F80A780203180800862E0A128A1115
:100D9800E3280A128A11E2280A128A110F290A1274
:100DA8008A1188280A128A11A8280A128A11B228D8
:100DB8000A128A1192280A128A119E280A128A1186
:100DC800D4280A128A11DB280A128A11BC280A12AE
:100DD8008A11C4280A128A11CC280A128A110F29EA
:100DE8000A128A110F290A128A110F290A128A1166
:100DF8000F290A128A11EF2807308A000408840A8A
:100E08008207003400340034DC340034E034013428
:100E180001340034E034023400347834023480344D
:100E28000734023480347F340334E0340F3401341F
:100E3800E0340F340334E034FF34043400347034C5
:100E4800043400340F3405340034F0340634E0340C
:100E5800FF340934E03403340534E0340134053414
:100E680000340F3407340034783408340034F03454
:100E7800093400343C340734C03407340834C034EF
:100E88000F340634E03401340A3400341E340A3492
:100E98000034F03409340034E0340534C03401340B
:100EA8000A34E03400340234103403340634013494
:100EB8000B34043403340534043400341434063455
:100EC8000734073408340834093409340A340A3436
:100ED80001340B340C340C340D340D340E340E3410
:100EE8000F340F3402340034113400341234003417
:100EF800133400340034143414340034803400348F
:100F080040340034203400341034003408340034C1
:100F18000434003402340034013480340034403462
:100F280000342034003410340034083400340434DD
:100F380000340234003401340034FF347F34FF3489
:100F4800BF34FF34DF34FF34EF34FF34F734FF3479
:100F5800FB34FF34FD34FF34FE347F34FF34BF34B8
:100F6800FF34DF34FF34EF34FF34F734FF34FB341D
:100F7800FF34FD34FF34FE34FF34DE34F63492346B
:100F88002434CE34E7349E34E7349234B7349E3474
:100F9800F334DE34F3349234E434DE34F7349E34FC
:100FA800F73400341F341C341F341E341F341E34ED
:100FB8001F341F341E341F341E341F340A128A157E
:100FC8004E270730F2000030F301F30A0A128A159F
:100FD800D1290A128A154E270830F2000030F30191
:100FE800F30A0A128A15D12964008001840A0406CA
:080FF800031900340406F92F6F
:1010120043220A128A150230F700F80192220A12BC
:101022008A150630F7000030F80192220A128A155A
:101032000230F7000630F8000A30F2006408CB22D2
:101042000A128A1592220A128A150630F700F8004F
:101052000A30F200640847260A128A15922A3430AE
:101062000A128A11C4210A128A153408F2003C308D
:10107200F301F400F50192270A128A157208B000F2
:101082007308B1003508F2003C30F301F400F501B9
:1010920092270A128A1572083007B20073080318E1
:1010A200730A3107B30036083207F800003003181C
:1010B20001303307F900F8270A128A154E270A125F
:1010C2008A15831603171008F039013890000F397A
:1010D200503890001108F039023891000F39503819
:1010E20091001208F039033892000F3950389200FB
:1010F2001308F039043893000F3950389300033045
:10110200EB01EA000230EC00100E0F39F200F3019D
:10111200F30A10080F39D1210A128A158316031710
:10112200110E0F39F200F301F30A11080F39D12120
:101132000A128A1583160317120E0F39F200F301F1
:10114200F30A12080F39D1210A128A1583160317DE
:10115200130E0F39F200F301F30A13080F39D121EC
:101162000A128A150B3083120313AA00AB01AB27B4
:101172000A128A152908AD002808AC0055270A1260
:101182008A1550082A06F0392A06D0000B30AA0028
:10119200AB01AB270A128A152908AD002808AC005A
:1011A20055270A128A152A08B000B00E50083006D8
:1011B2000F393006D000500E0F39F200F301F30A56
:1011C20050080F39D129B700FF3E031C08008400E4
:1011D2000F3004020318080010308A000310040DB7
:1011E2000407003E8200080006220A128A11072321
:1011F2000A128A15EC270A128A110F230A128A157B
:101202000A128A11EB210A128A150A128A11D329AB
:101212000A128A11ED2F0A128A11E22F432A30286C
:1012220006220A128A150930F2000130F301F30A8C
:10123200D1210A128A1583120313511C08000030AF
:101242000A128A11632A06220A128A150930F2004A
:101252000130F301F30AD1210A128A150930F20092
:101262000230F301F30AD1210A128A150930F20081
:101272000330F301F30AD1210A128A150930F20070
:101282000430F301F30AD1210A128A15EC2F062247
:101292000A128A150930F2000130F301F30AD12152
:1012A2000A128A150930F2000230F301F30AD12141
:1012B2000A128A150930F2000330F301F30AD12130
:1012C2000A128A150930F2000430F301F30AD1211F
:1012D2000A128A150930F2000530F301F30AD1210E
:1012E2000A128A110F2B06220A128A150930F200FD
:1012F2000130F301F30AD1210A128A150930F200F2
:101302000230F301F30AD1210A128A11EB290622D3
:101312000A128A150930F2000130F301F30AD121D1
:101322000A128A150930F2000230F301F30AD121C0
:101332000A128A150930F2000330F301F30AD121AF
:101342000A128A11D3290F220A128A150230F200D8
:101352000030F301F30AD12943220A128A1502301E
:10136200F2000030F301F30AD12943220A128A154E
:101372000830F2000030F301F30AD1290F220A12D9
:101382008A150830F2000030F301F30AD12909204E
:101392000A128A150830F2000030F301F30AD1294B
:1013A200F600730803100319EE29760D7C3E8400C3
:1013B2000A128A1100270A128A15F4000A128A11E7
:1013C2000027F5000310720DA53E840074088313F4
:1013D2008004840A750880040800760D9C3E84000F
:1013E2000A128A1100270A128A15F4000A128A11B7
:1013F2000027F5000310720DA53E840074088313C4
:101402008005840A7508800508004E270A128A158D
:101412000930F2000030F301F30AD12943220A1203
:101422008A150230F7000A30F801F2008312031322
:101432006208CB220A128A1592220A128A150630F3
:10144200F7000A30F801F200620847260A128A15EC
:1014520092220A128A150230F7000630F8000A308A
:10146200F2006308CB220A128A1592220A128A1506
:101472000630F700F8000A30F200630847260A1225
:101482008A15922A4E270A128A150A30F200003073
:10149200F301F30AD1210A128A150230F7000A3049
:1014A200F801F200831603135008CB220A128A15A0
:1014B20092220A128A150630F7000A30F801F20069
:1014C2008316500847260A128A1592220A128A1592
:1014D2000230F7000630F8000A30F2008316510895
:1014E200CB220A128A1592220A128A150630F700B6
:1014F200F8000A30F2008316510847260A128A15AC
:1015020092220A128A150430F2000A30F301F30A19
:10151200D1210A128A150630F2000A30F301F30AC9
:10152200D12983120313A2000F30A300A401A50145
:101532000310220DBC3E84000A128A1100270A12EF
:101542008A15A0000A128A1100270A128A15A10020
:10155200230AAE2A0310A10CA00CFF3E031DAB2AE6
:101562002008F3000130F30524087807F20025086B
:101572007707D1210A128A15831203130330A303BA
:10158200A50A2502031C9A2A0530A40A240203187C
:101592000800982AF300F50172080319E42AF401FD
:1015A200F40AF21BD72A0310F20DD12A0310F50D0B
:1015B20072087302031CE12A7208F3027514031005
:1015C200F20CF40BD72A75080800AA00FF30F200CB
:1015D2000630F301F4003030F50163260A128A1551
:1015E20083122A08840083130008AF0018302F02E8
:1015F200031808002A0A84000008B6003C303602AC
:1016020003180800B701E8180B2B082B0B2B7726C1
:101612000A128A155408AD002D18112BB001B70A11
:10162200AD1D212B2F08031D212B3608031D212B55
:101632003708303E84000C3083138000B70A3F2CF9
:101642002D1E5F2B2F08031D5F2B19303602031846
:101652005F2B3708303E840083138001800AB70A6B
:101662003708303E8400023080000530B70A360267
:10167200031C3F2C0A3036020318442B3708303E35
:10168200840003301E2B0F30360203184D2B37080F
:10169200303E840004301E2B143036020318562BC1
:1016A2003708303E840005301E2B193036020318ED
:1016B2003F2C3708303E840007301E2B0C30F200DE
:1016C2002F0847260A128A158312AF000B302F0209
:1016D200031C6D2BAE01702B2F08013EAE000530AE
:1016E20036020318882B2F0B7B2B3708303E8400E1
:1016F2001930802B3708303E84002F080D3E8313AB
:101702008000B70A3708303E84001A30D82B0A30DE
:10171200360203189E2B3708303E840003308313B1
:101722008000B70A3708303E84000A308000B70ACA
:101732003708303E84002F08D72B0F3036020318AB
:10174200A72B3708303E84000430902B1430360229
:101752000318B52B3708303E84000630831380000F
:10176200B70AAD18932BD32B193036020318DA2B94
:101772002D1DC02B3708303E84000730902B3708D0
:10178200303E8400043083138000B70A3708303EAD
:10179200840009308000B70A3708303E84000B30DD
:1017A2008000B70A3708303E84002E080D3E8000C4
:1017B2003F2C1E3036020318E32B3708303E8400DC
:1017C2000330C42B233036020318EC2B3708303E8B
:1017D20084000B302B2C283036020318FC2B3708E0
:1017E200303E8400033083138000B70A3708303E4E
:1017F20084000A30CB2B2D30360203181C2C2D1DF1
:101802000E2C3708303E8400073083138000B70A5D
:101812003708303E84000930D12B3708303E84002F
:10182200043083138000B70A3708303E84000A3040
:101832008000B70AE72B3230360203182D2CAD1C7C
:10184200272C3708303E84000630062C3708303EFD
:10185200840008308313D12B373036020318362C1C
:101862003708303E84000430062C3C303602031820
:101872003F2C3708303E84000330062CB70137086E
:10188200303E84008313000A0319C92C3708303E06
:101892008400000800070007013E84000A128A1132
:1018A20000270A128A15AB00AC010B302C02031878
:1018B200952C64008312031303102C0D7C3E8400CC
:1018C2000A128A1100270A128A15A0000A128A1126
:1018D20000270A128A15A1003708303E84008313BC
:1018E200000800070007023E84000A128A1100273E
:1018F2000A128A15A2000A128A1100270A128A15F0
:10190200A30020082205A40021082305A500240421
:1019120003198D2C01308E2C0030F2002C083E254C
:101922000A128A15AC0A562CF201F20A2B089B26DF
:101932000A128A15A601A60AA7010130831203130F
:10194200A6020030031CA703A702260FAB2C270A0E
:101952000319B82C6400073083120313A10060300E
:10196200A000A00BB22CA10BB22CB72C9E2C6400B1
:10197200F53083120313A0000000A00BBD2CC12C74
:101982006400F201831203132B089B260A128A15A4
:101992000630B70A3702031C402CFF30F2013E2505
:1019A2000A128A151F2D0130F201F20A3E250A128F
:1019B2008A150A30F201F20A3E250A128A15093006
:1019C200F201F20A3E250A128A150030F201F20AE9
:1019D2003E250A128A150B30F201F20A9B260A12E0
:1019E2008A15A801A80AA901013083120313A802CB
:1019F2000030031CA903A902280F022D290A03198A
:101A02000F2D6400073083120313A1006030A00081
:101A1200A00B092DA10B092D0E2DF52C6400F5301C
:101A220083120313A0000000A00B142D182D6400D4
:101A32000B30F2019B260A128A153B2D0530F2006B
:101A4200360847260A128A158312A000A10121082E
:101A5200003A03192D2D3B2D2008013A0319E62CDB
:101A6200033A0319E02C013A0319DA2C073A031955
:101A7200D42C3B2DFF30F2013E2DF300202E721CA0
:101A8200462D831203130514080083120313051055
:101A92000800721C502D8312031385140800831250
:101AA200031385100800721C5A2D831203130515A7
:101AB20008008312031305110800721C642D83129F
:101AC2000313851508008312031385110800721C85
:101AD2006E2D8312031305160800831203130512D9
:101AE2000800721C782D83120313851608008312D6
:101AF200031385120800721C822D8312031309142A
:101B020008008312031309100800721C8C2D831223
:101B12000313891408008312031389100800721C2E
:101B2200962D83120313091508008312031309115A
:101B32000800721CA02D83120313071408008312DD
:101B4200031307100800721CAA2D831203138714B3
:101B520008008312031387100800721CB42D83122D
:101B620003130514B72D831203130510721CBD2D28
:101B7200831203138514C02D831203138510721C64
:101B8200C62D831203130515C92D831203130511E4
:101B9200721CCF2D831203138515D22D83120313CA
:101BA2008511721CD82D831203130516DB2D8312A7
:101BB20003130512721CE12D831203138516E42D03
:101BC200831203138512721CEA2D83120313091464
:101BD200ED2D831203130910721CF32D83120313CC
:101BE2008914F62D831203138910721CFC2D8312A3
:101BF20003130915FF2D831203130911721C052EFD
:101C0200831203130714082E831203130710721C86
:101C12000E2E8312031387140800831203138710F6
:101C22000800831203130510851005118511051292
:101C3200851209108910091107108710080073080E
:101C4200003A0319402D013A03194A2D033A0319A8
:101C5200542D013A03195E2D073A0319682D013AF2
:101C62000319722D033A03197C2D013A0319862DAB
:101C72000F3A0319902D013A03199A2D033A0319C9
:101C8200A42DF53A0319AE2D122E0800F4000830E7
:101C9200F500F6017408F30007300310F30CFF3E61
:101CA2000310031D4F2E760D7304F6000310F40D7E
:101CB20072087602031C5F2E7208F602F50B4B2E99
:101CC20076080800F700F6000130F4020030031C29
:101CD200F503F502740F702E750A031908007608D1
:101CE2008400720883138000F60A652E003086266F
:101CF2000A128A150313D4006039031D822ED41BE5
:101D0200842E8130D400E8140800F20064008316A7
:101D120003178C18872E720883128D003F308316AA
:101D22008C050C1403100C180314031801308312D1
:101D32000C080800F300242F721CA32E8312031335
:101D4200861408008312031386100800721CAD2E3D
:101D520083120313061408008312031306100800EB
:101D6200721CB72E83120313881708008312031301
:101D720088130800721CC12E83120313081708006F
:101D82008312031308130800721CCB2E8312031351
:101D9200881608008312031388120800721CD52EBD
:101DA2008312031308160800831203130812080093
:101DB200721CDF2E8312031387170800831203138A
:101DC20087130800721CE92E8312031307170800F9
:101DD2008312031307130800721CF32E83120313DA
:101DE200871608008312031387120800721CFD2E47
:101DF2008312031307160800831203130712080045
:101E0200721C072F83120313881508008312031311
:101E120088110800721C112F831203130815080081
:101E2200831203130811080083120313861006108D
:101E320088130813881208128713071387120712D0
:101E42008811081108007308003A03199D2E013AFF
:101E52000319A72E033A0319B12E013A0319BB2E17
:101E6200073A0319C52E013A0319CF2E033A031973
:101E7200D92E013A0319E32E0F3A0319ED2E013A36
:101E82000319F72E033A0319012F013A03190B2FF5
:101E9200F43A0319152F152F08001830F201F30137
:101EA200F400A530F501632EAF01AD1F5F2FAC0921
:101EB200AD09AC0A0319AD0AAF01AF0AAB1F662F19
:101EC200AA09AB09AA0A0319AB0A2A082B040319A7
:101ED200852FAE01AE0AAB1B722F0310AA0DAB0DFC
:101EE2006B2F2B082D02031D782F2A082C02031CAE
:101EF200812F2A08AC022B08031CAD03AD0203108C
:101F0200AB0CAA0CAE0B722F2F0803198D2FAC0944
:101F1200AD09AC0A0319AD0A2D08AB002C08AA00C2
:101F22000800F601F701721C9C2F7408F6070318CB
:101F3200F70A7508F7070310F40DF50D0310F30CFB
:101F4200F20C72087304031D942F7708F3007608CD
:101F5200F20008004130A300C630A2004E30A100BA
:101F62006D30A000831659088312A7008316580803
:101F72008312A600831657088312A50083165608FB
:101F82008312A4000A128A11D42523088316D900C9
:101F9200831222088316D800831221088316D700E1
:101FA200831220088316D6003930D6073030031842
:101FB2003130D707003003180130D807003003183A
:101FC2000130D90759088312A900831658088312D1
:101FD200A800A913080083120313D11DF42F0C309B
:101FE2000A128A11632A0C300A128A110B2A780803
:101FF2008316D6007908D700D801D90108000A1241
:102002008A15F5280A128A150F290A128A15092932
:102012000A128A150C290A128A1510290A128A151F
:1020220011290A128A1574290A128A1588290A1294
:102032008A1524290A128A1548290A128A15AD29F5
:102042000A128A15B6290A128A15A4290A128A15B1
:08205200BF290A128A15C829F2
:1020B2000B1D5F280B1183120313D30A0B1C782804
:1020C2008312031306080B10061D69287A146A2866
:1020D2007A1083120313061E7028FA147128FA105C
:1020E20083120313861D77287A1578287A117108CE
:1020F2008A00700E8300FE0E7E0E0900F40084003A
:102102001D3083130006031D9328740A84000230D5
:102112000006031D93287408023E84000008033958
:1021220003190134740884000008F200740A840060
:102132000008D03E84000A128A1100270A168A116A
:10214200F30072087302031C0034013403170516EE
:102152008511051585140510831603138117950142
:10216200811281110115811401140F178F168F1618
:102172008B178B16031788018901831203138501BC
:1021820086018701880189018316051085100511D2
:10219200851105128512091089100911071087107F
:1021A2008610061088130813881208128713071363
:1021B200871207128811081187111615961516161F
:1021C2008B15080083120313A201A3010310230D30
:1021D2007C3E84000A128A1100270A168A11F40032
:1021E2000A128A1100270A168A11F5000310220D1D
:1021F200A53E840083130008F600840A0008F70055
:1022020074087605F80075087705F9007804031953
:102212000C2901300D290030F20023080A128A1518
:102222003E250A168A110B30A30A2302031CE82852
:10223200F201F20A22080A128A159B260A168A114C
:10224200A001A00AA101013083120313A0020030F1
:10225200031CA103A102200F3129210A03193C29E1
:1022620064000730F5006030F400F40B3629F50BFA
:1022720036293B29242964006400FF30F2010A1246
:102282008A159B260A168A110C30A20A220203180A
:102292000800E628C700C80147080319FD290630CF
:1022A2004202D73003194102031CEA2907304202D5
:1022B2009E30031941020318EA293B307A1656066A
:1022C200031D7029D330F200BD3074230A168A111F
:1022D200DF30F200BD3059220A168A11562A7630B2
:1022E2005606031DE8294930F200C53074230A1648
:1022F2008A114C30F200C53059220A168A1183160F
:10230200530883124906031DC3294A08FF3EC5002C
:10231200FF3003180030C6008316540883124506A6
:102322004604031DC3298316550883124B06031D59
:10233200C32983165F0883124C06031DC329831623
:10234200600883124D06031DC32983166108831298
:102352004E06031DC3294308840049088000840AED
:102362004A088000840A4B088000440884004C0814
:102372008000840A4D088000840A4E088000C8014B
:10238200C80A562AC530F2000830F300BD30F40105
:102392000A128A11A9210A168A113B30D60049086D
:1023A2008316D30083124A088316D40083124B0883
:1023B2008316D50083124C088316DF0083124D0862
:1023C2008316E00083124E088316E100562AD601D6
:1023D200562A02304202EE3003194102031CF82948
:1023E20003304202B73003194102031C562A02305D
:1023F200D6017A12C800562A3B305606031D032A1C
:102402007A1E072A76305606031D0A2AD6017A1248
:10241200122A3B305606031D122A0830D500073017
:10242200E1005608031D1A2A0730D501E100831680
:10243200BD010030831242023330031941020030E1
:10244200031C372A42029630031941020318362A26
:10245200D60A6108031D552A0730E100D50A55083E
:10246200BD3E840083138001562A00304202973019
:1024720003194102031CF82900304202FA30031901
:1024820041020318F829D60A5508BD3E84000130DE
:10249200C500610A4E2A0310C50DFF3E031D4C2ADA
:1024A2004508831380042A2AE1038312480808009E
:1024B200C000720884008001720A840080017208E0
:1024C200023E840080014008043E8400801D6B2A85
:1024D20001306C2A0030F300720884007308800710
:1024E2004008043E84000019782AA0017A2A0230AA
:1024F200A000A10172088400200880074008043E61
:1025020084008018862AA201882A0430A200A3012E
:1025120072088400220880074008043E84000018E4
:10252200942AA401962A0830A400A5017208840006
:10253200240880074008053E8400801BA22AA601C9
:10254200A42A0A30A600A701720884002608800780
:102552004008053E8400001BB02AA801B22A1430AC
:10256200A800A90172088400280880074008053ED7
:102572008400001DBE2A0130BF2A0030F300720A17
:102582008400730880074008053E84008018CB2A27
:10259200AA01CD2A0230AA00AB01720A84002A08DD
:1025A20080074008053E84000018D92AAC01DB2AC6
:1025B2000430AC00AD01720A84002C088007400888
:1025C200063E8400801BE72AAE01E92A0830AE00ED
:1025D200AF01720A84002E0880074008063E84007C
:1025E200001BF52AB001F72A0A30B000B101720AC5
:1025F2008400300880074008063E8400801E032BBA
:102602000130042B0030F3007208023E840073088C
:1026120080074008063E8400001A112BB201132BDA
:102622000230B200B3017208023E84003208800711
:102632004008063E84008019202BB401222B04306E
:10264200B400B5017208023E8400340880074008D5
:10265200063E840000192F2BB601312B0830B6003C
:10266200B7017208023E8400360880074008063E21
:10267200840080183E2BB801402B0A30B800B90103
:102682007208023E8400380880074008063E840033
:1026920000184D2BBA014F2B1430BA00BB0172083F
:1026A200023E84003A0880074008073E8400801BEF
:1026B2005C2BBC015E2B2830BC00BD017208023EBF
:1026C20084003C0880074008073E8400001B6B2BF7
:1026D200BE016D2B5030BE00BF017208023E840065
:1026E2003E0880070800B600720884008313800148
:1026F200720A840080017208023E8400800136085A
:10270200023E8400001D872B0130882B0030F3002D
:10271200720A8400730880073608023E840080181B
:10272200942BA001962B0230A000A101720A840012
:10273200200880073608023E84000018A22BA2015E
:10274200A42B0430A200A301720A8400220880078D
:102752003608033E8400801BB02BA401B22B083044
:10276200A400A501720A8400240880073608033EEB
:102772008400001BBE2BA601C02B0A30A600A701B5
:10278200720A8400260880073608033E8400801AF5
:10279200CC2BA801CE2B1430A800A901720A840008
:1027A200280880073608033E8400001ADA2BAA01A3
:1027B200DC2B2830AA00AB01720A84002A088007A9
:1027C2003608033E8400001DE82B0130E92B00305F
:1027D200F30072088400730880073608033E840001
:1027E2008018F52BAC01F72B0230AC00AD0172085A
:1027F20084002C0880073608033E84000018032C4E
:10280200AE01052C0430AE00AF01720884002E0820
:1028120080073608043E8400801B112CB001132C63
:102822000830B000B1017208840030088007360811
:10283200043E8400001B1F2CB201212C0A30B2007E
:10284200B30172088400320880073608043E84000F
:10285200801A2D2CB4012F2C1430B400B50172084B
:1028620084003408800708000A168A11A7200A1675
:102872008A117B14FB14831253088316E800E901C2
:1028820064004B30831603136802031C752C4B3013
:102892008312D30204305802031CD80A3C30E00AE7
:1028A2006002031C752C3C30E001DF0A5F02031C4E
:1028B200752C1830DF01DE0A5E02031C752C6530B0
:1028C200DE01E50A0A168A117F200A168A11003AE9
:1028D200031D752C0D30E501E50AE60A6602031CAC
:1028E200752CE601E60AE70AFA1D842C04308312ED
:1028F2005E06031D842C5F08031D842C6008031DE3
:10290200842CFA16FA11FA19BA2D831287157A1C39
:102912008C2C01308D2C0030CF00681D922C0130A0
:10292200932C00304F060319BA2D68117A1C9A2C89
:1029320068158312031358084B30A80003194F2D52
:10294200A901AA01AB01CF008316240883124F020A
:10295200A000A101031CA103A201A11BA203220842
:10296200A3000330A701A601A500E830A4000A12C3
:102972008A11D4250A168A112308AF002208AE0054
:102982002108AD002008AC000A128A111E260A1680
:102992008A112B088316E70083122A088316E600A1
:1029A200831229088316E500831228088316E4009F
:1029B20083125808FF3EA000FF3003180030A10028
:1029C200A201A11BA2032208A3000330A701A601B2
:1029D200A500E830A4000A128A11D4250A168A1129
:1029E20020088316E4078312210803110318013E0D
:1029F2008316031DE5078312220803110318013E03
:102A02008316031DE6078312230803110318013EF0
:102A12008316031DE70783164B308312A800A90112
:102A2200AA01AB01831668088312A0000330A1013A
:102A3200A201A301A701A601A500E830A4000A1281
:102A42008A11D4250A168A112308AF002208AE0083
:102A52002108AD002008AC000A128A111E260A16AF
:102A62008A1128088316E407831229080311031820
:102A7200013E8316031DE50783122A08031103187A
:102A8200013E8316031DE60783122B080311031868
:102A9200013E8316031DE7078316912DA901AA01A2
:102AA200AB018316240868028312A000A101031C53
:102AB200A103A201A11BA2032208A300FA30A400D1
:102AC200A501A601A7010A128A11D4250A168A11A4
:102AD2002308AF002208AE002108AD002008AC0098
:102AE2000A128A111E260A168A112B088316E7007B
:102AF20083122A088316E600831229088316E5004A
:102B0200831228088316E40002308312CF000310D8
:102B12008316E40DE50DE60DE70D8312CF0B882D2C
:102B22008312D80183166808A40065088312C200C4
:102B3200831664088312C1005E30C3006530C4008E
:102B42000030681901300A168A114B210A168A11BF
:102B52008316E200620BB02DFA158312B92DFA1E0C
:102B6200BA2D053083125E02031CBA2DFA12FA1531
:102B72008711FA1CBE2D0130BF2D00308312CF0009
:102B82007B1CC52D0130C62D00304F060319D62DF2
:102B92007B10FA1CCD2D7B147B18D62D00307A17B2
:102BA2000A128A1115260A168A117A1DDA2D0130A7
:102BB200DB2D003083120313CF00FB1CE22D01300A
:102BC200E32D00304F060319F32DFB107A1DEA2D79
:102BD200FB14FB18F32D0130FA170A128A1115267D
:102BE2000A168A117A1F042E00300A128A119625BB
:102BF2000A168A1100303602333003193502031CDB
:102C02001B2E0030142EFA1F1B2E01300A128A11BD
:102C120096250A168A11003036023330031935021E
:102C2200031C1B2E01300A128A114E200A168A1129
:102C32007A13FA138312031352088316EA005A0610
:102C420003194F2E6A08DA001030E901E90A6A0610
:102C5200031D342E02308312D7000A128A154E2722
:102C62000A168A114F2E11306A06031D3A2E0330BE
:102C72002C2E12306A06031D402E04302C2E1330E7
:102C82006A06031D462E05302C2E6A0803194D2EA6
:102C92008312D701D70A4F2E8312D7018316E3017D
:102CA200831257080319FA19592E8316E301E30A0E
:102CB2008316631C602E831203138815632E8312FE
:102CC20003138811143083166A06031D6E2E023018
:102CD2000A128A11E4230A168A118312570B772EDD
:102CE2000A168A11E3200A168A113C2C0230570672
:102CF200031DE92E83166908031D882E83125E08C0
:102D02005A06031D882E5F085B060319CE2E831216
:102D12005E08DA005F08DB000230F7000A30F801D3
:102D2200F2005A080A128A15CB220A168A110A12CE
:102D32008A1592220A168A110630F7000A30F80123
:102D4200F2005A080A128A1547260A168A110A122E
:102D52008A1592220A168A110230F7000630F8000C
:102D62000A30F2005B080A128A15CB220A168A116F
:102D72000A128A1592220A168A110630F700F80002
:102D82000A30F2005B080A128A1547260A168A11CF
:102D92000A128A1592220A168A116008F30001307B
:102DA200F3050430F2000A300A128A15D1210A16FC
:102DB2008A11831203136008F3000130F305063011
:102DC200F2000A300A128A15D1210A168A11712ECE
:102DD20003305706031D4D2F83166908031D092F63
:102DE2000A30F200831260080A128A1547260A1670
:102DF2008A118312CF000A30F20083165B080A128E
:102E02008A1547260A168A1183124F0603191B2FA9
:102E12000630F7000330F8000A30F200831260082F
:102E22000A128A1547260A168A110A128A1592224E
:102E32000A168A1183166908031D372F0A30F20019
:102E4200831260080A128A15CB220A168A1183128B
:102E5200CF000A30F20083165B080A128A15CB22D1
:102E62000A168A1183124F060319492F0230F700FE
:102E72000330F8000A30F200831260080A128A1541
:102E8200CB220A168A110A128A1592220A168A116E
:102E920060088316DB00712E04305706031DA52F30
:102EA20083166908031D5E2F831265085906031DE8
:102EB2005E2F66085C060319712E83126508D9001D
:102EC2006608DC000230F7000A30F801F200590807
:102ED2000A128A15CB220A168A110A128A1592221E
:102EE2000A168A110630F7000A30F801F200590872
:102EF2000A128A1547260A168A110A128A1592227E
:102F02000A168A110230F7000630F8000A30F20081
:102F12005C080A128A15CB220A168A110A128A152D
:102F220092220A168A110630F700F8000A30F200DF
:102F32005C080A128A1547260A168A110A128A158D
:102F420092220A168A11712E05305706031DE82FA8
:102F520083166908031DB22F831267085D060319E1
:102F6200712E83126708DD000230F700F8010A12A1
:102F72008A1592220A168A110630F7000030F801EB
:102F82000A128A1592220A168A110230F7000630B6
:102F9200F8000A30F2005D080A128A15CB220A16DE
:102FA2008A110A128A1592220A168A110630F7002D
:102FB200F8000A30F2005D080A128A1547260A163E
:102FC2008A110A128A1592220A168A11712EFA1D84
:102FD200F62F5708031DF62FFF30F8005E300A1255
:102FE2008A15E6220A168A113C2C681DFC2F8312D0
:0E2FF200031387143C2C8312031387103C2C0E
:04400E00C2EBFFFE04
:00000001FF
