:060000000A128A110C280F
:10000800FE00030EF0000A08F1000A168A15372FC1
:100018000A128A110F2883160130D7001630D8012A
:10002800D901DA01DB00FF30DC000730DD000130E8
:10003800DE00DF001030E0000130E100E2001030A7
:10004800E30083120730E000E1000130E200E30042
:100058001030E4000130E500E6001030E700903091
:1000680083178400ED300A168A1593260A128A111E
:10007800A03083138400D7300A168A1593260A12F3
:100088008A115030840060300A168A159326E801D8
:10009800FA0183010A128A1151280A168A15C427FF
:1000A8000A128A117B14FB148312681962285D28CE
:1000B80062280A168A11D6270A128A11831624087A
:1000C8008312CF0005300310CF0CFF3E031D6728B5
:1000D8004F0807390A168A1100200A128A11530894
:1000E8008316EA00EB0164004B30831603136A029F
:1000F800031CB6284B308312D30204305702031C6A
:10010800D70A3C30DF0A5F02031CB628DF01DE0A8B
:10011800FA1D972804305D06031D97285E08031D05
:100128009728FA16FA113C305E02031CB6281830DC
:10013800DE01DD0A5D02031CB6286530DD01E50A33
:100148000A168A155D270A128A11003A031DB62875
:100158000D30E501E50AE60A6602031CB628E60149
:10016800E60AE70AFA19EC29831287157A1CBE28D1
:100178000130BF280030CF00E81DC4280130C52851
:1001880000304F060319EC29E8117A1CCC28E81531
:100198008312031357084B30A80003198129A901BA
:1001A800AA01AB01CF008316250883124F02A000D5
:1001B800A101031CA103A201A11BA2032208A30001
:1001C8000330A701A601A500E830A4000A128A118D
:1001D8005D270A128A112308AF002208AE00210801
:1001E800AD002008AC000A128A119E270A128A1153
:1001F8002B088316E90083122A088316E800831265
:1002080029088316E700831228088316E60083125C
:100218005708FF3EA000FF3003180030A100A201DC
:10022800A11BA2032208A3000330A701A601A50071
:10023800E830A4000A128A115D270A128A112008E0
:100248008316E6078312210803110318013E83165B
:10025800031DE7078312220803110318013E8316C2
:10026800031DE8078312230803110318013E8316B0
:10027800031DE90783164B308312A800A901AA01C0
:10028800AB0183166A088312A0000330A101A20102
:10029800A301A701A601A500E830A4000A128A114B
:1002A8005D270A128A112308AF002208AE00210830
:1002B800AD002008AC000A128A119E270A128A1182
:1002C80028088316E6078312290803110318013E3C
:1002D8008316031DE70783122A0803110318013E3A
:1002E8008316031DE80783122B0803110318013E28
:1002F8008316031DE9078316C329A901AA01AB01C7
:10030800831625086A028312A000A101031CA10319
:10031800A201A11BA2032208A300FA30A400A50190
:10032800A601A7010A128A115D270A128A11230859
:10033800AF002208AE002108AD002008AC000A1268
:100348008A119E270A128A112B088316E900831244
:100358002A088316E800831229088316E700831207
:1003680028088316E60002308312CF000310831694
:10037800E60DE70DE80DE90D8312CF0BBA298312BC
:10038800D70183166A08A50067088312C20083167E
:1003980066088312C1005D30C3006530C4000030B8
:1003A800E81901300A128A1135240A128A118316B3
:1003B800E400640BE229FA158312EB29FA1EEC29F2
:1003C800053083125D02031CEC29FA12FA15871115
:1003D800FA1CF0290130F12900308312CF007B1C70
:1003E800F7290130F82900304F0603190A2A7B1033
:1003F800FA1CFF297B147A137B187A177B1C0A2AAC
:1004080000300A128A11F7270A128A117A1D0E2A59
:1004180001300F2A003083120313CF00FB1C162A69
:100428000130172A00304F060319292AFB107A1DBC
:100438001E2AFB14FA13FB18FA17FB1C292A013091
:100448000A128A11F7270A128A117A1F3A2A0030EB
:100458000A128A111F270A128A1100303602333015
:1004680003193502031C512A00304A2AFA1F512A5F
:1004780001300A128A111F270A128A110030360227
:10048800333003193502031C512A01300A128A1528
:10049800E5230A128A117A13FA13831203135208F6
:1004A8008316EC005B060319852A6C08DB00113003
:1004B800EB01EB0A6C06031D6A2A02308312D60090
:1004C8000A128A15A7230A128A11852A12306C0685
:1004D800031D702A0330622A13306C06031D762A26
:1004E8000430622A14306C06031D7C2A0530622A07
:1004F8006C080319832A8312D601D60A852A831227
:10050800D6018316E501FA19902A83125608031DAD
:10051800902A8316E501E50A8316651C972A83123B
:10052800031388159A2A831203138811153083162A
:100538006C06031DA52A02300A128A15D1250A1253
:100548008A118312560BAE2A0A168A11E3200A1260
:100558008A11732802305606031D1E2B83166B085A
:10056800031DBF2A83125D085906031DBF2A5E08B2
:100578005A060319052B83125D08D9005E08DA00B4
:100588000230F7000A30F801F20059080A128A15F9
:10059800CA230A128A110A128A1518270A128A11FE
:1005A8000630F7000A30F801F20059080A168A11D5
:1005B800A6270A128A110A128A1518270A128A11FE
:1005C8000230F7000630F8000A30F2005A080A1222
:1005D8008A15CA230A128A110A128A1518270A12BA
:1005E8008A110630F700F8000A30F2005A080A1695
:1005F8008A11A6270A128A110A128A1518270A12BE
:100608008A115F08F3000130F3050430F2000A3064
:100618000A128A15DF210A128A115F08F3000130D5
:10062800F3050630F2000A300A128A15DF210A1291
:100638008A11A82A03305606031D822B83166B08DD
:10064800031D3E2B0A30F20083125F080A168A1136
:10065800A6270A128A118312CF000A30F2008316E5
:100668005C080A168A11A6270A128A1183124F06F5
:100678000319502B0630F7000330F8000A30F20057
:1006880083125F080A168A11A6270A128A110A120B
:100698008A1518270A128A1183166B08031D6C2BFA
:1006A8000A30F20083125F080A128A15CA230A1256
:1006B8008A118312CF000A30F20083165C080A12EE
:1006C8008A15CA230A128A1183124F0603197E2B30
:1006D8000230F7000330F8000A30F20083125F0896
:1006E8000A128A15CA230A128A110A128A151827A9
:1006F8000A128A115F088316DC00A82A04305606FD
:10070800031DDA2B83166B08031D932B83126508D0
:100718005806031D932B66085B060319A82A831243
:100728006508D8006608DB000230F7000A30F801D7
:10073800F20058080A128A15CA230A128A110A12E4
:100748008A1518270A128A110630F7000A30F801AC
:10075800F20058080A168A11A6270A128A110A12E4
:100768008A1518270A128A110230F7000630F80095
:100778000A30F2005B080A128A15CA230A128A1183
:100788000A128A1518270A128A110630F700F8008B
:100798000A30F2005B080A168A11A6270A128A1183
:1007A8000A128A1518270A128A11A82A053056062D
:1007B800031D1D2C83166B08031DE72B8312670886
:1007C8005C060319A82A83126708DC000230F700C8
:1007D800F8010A128A1518270A128A110630F7003A
:1007E8000030F8010A128A1518270A128A110230F5
:1007F800F7000630F8000A30F2005C080A128A1581
:10080800CA230A128A110A128A1518270A128A118B
:100818000630F700F8000A30F2005C080A168A1160
:10082800A6270A128A110A128A1518270A128A118B
:10083800A82AFA1D2B2C5608031D2B2CFF30F90073
:100848005D300A168A1120220A128A117328E81DBF
:10085800312C831203138714732883120313871010
:100868007328C700C80147080319E72C063042025D
:10087800D73003194102031CD42C073042029E30A2
:10088800031941020318D42C3B307A165506031D70
:100898005A2CD430F200BE305E260A128A11E1309A
:1008A800F200BE3043250A128A11402D76305506D3
:1008B800031DD22C4930F200C6305E260A128A1176
:1008C8004C30F200C63043250A128A1183165408A8
:1008D80083124906031DAD2C4A08FF3EC500FF30B0
:1008E80003180030C60083165508831245064604CF
:1008F800031DAD2C8316560883124B06031DAD2C21
:100908008316610883124C06031DAD2C83166208FA
:1009180083124D06031DAD2C8316630883124E0601
:10092800031DAD2C4308840049088000840A4A0846
:100938008000840A4B088000440884004C0880002A
:10094800840A4D088000840A4E088000C801C80A3D
:10095800402DC630F2000830F300BE30F4010A1210
:100968008A1585250A128A113B30D5004908831655
:10097800D40083124A088316D50083124B088316C5
:10098800D60083124C088316E10083124D088316A3
:10099800E20083124E088316E300402DD501402D56
:1009A80002304202EE3003194102031CE22C0330EC
:1009B8004202B73003194102031C402D0230D50111
:1009C8007A12C800402D3B305506031DED2C7A1EC7
:1009D800F12C76305506031DF42CD5017A12FC2C27
:1009E8003B305506031DFC2C0830D4000730E100CD
:1009F8005508031D042D0730D401E1008316BE01FC
:100A08000030831242023330031941020030031CC4
:100A1800212D42029630031941020318202DD50AD0
:100A28006108031D3F2D0730E100D40A5408BE3E7B
:100A3800840083138001402D00304202973003194F
:100A48004102031CE22C00304202FA300319410231
:100A58000318E22CD50A5408BE3E84000130C500B4
:100A6800610A382D0310C50DFF3E031D362D4508BC
:100A780083138004142DE103831248080800C00082
:100A8800720884008001720A840080017208023EA4
:100A9800840080014008043E8400801D552D0130EB
:100AA800562D0030F3007208840073088007400850
:100AB800043E84000019622DA001642D0230A000BC
:100AC800A10172088400200880074008043E8400C1
:100AD8008018702DA201722D0430A200A3017208A3
:100AE8008400220880074008043E840000187E2DF8
:100AF800A401802D0830A400A501720884002408F0
:100B080080074008053E8400801B8C2DA6018E2D91
:100B18000A30A600A701720884002608800740084A
:100B2800053E8400001B9A2DA8019C2D1430A800B6
:100B3800A90172088400280880074008053E84003F
:100B4800001DA82D0130A92D0030F300720A840081
:100B5800730880074008053E84008018B52DAA0157
:100B6800B72D0230AA00AB01720A84002A08800758
:100B78004008053E84000018C32DAC01C52D043083
:100B8800AC00AD01720A84002C0880074008063EBC
:100B98008400801BD12DAE01D32D0830AE00AF01EB
:100BA800720A84002E0880074008063E8400001B55
:100BB800DF2DB001E12D0A30B000B101720A8400C6
:100BC800300880074008063E8400801EED2D013065
:100BD800EE2D0030F3007208023E8400730880078F
:100BE8004008063E8400001AFB2DB201FD2D02309C
:100BF800B200B3017208023E840032088007400840
:100C0800063E840080190A2EB4010C2E0430B4006C
:100C1800B5017208023E8400340880074008063E89
:100C280084000019192EB6011B2E0830B600B70132
:100C38007208023E8400360880074008063E840099
:100C48008018282EB8012A2E0A30B800B901720877
:100C5800023E8400380880074008063E84000018D9
:100C6800372EBA01392E1430BA00BB017208023E81
:100C780084003A0880074008073E8400801B462EFF
:100C8800BC01482E2830BC00BD017208023E840019
:100C98003C0880074008073E8400001B552EBE0113
:100CA800572E5030BE00BF017208023E84003E0835
:100CB80080070800B6007208840083138001720A56
:100CC800840080017208023E840080013608023EDA
:100CD8008400001D712E0130722E0030F300720A5C
:100CE8008400730880073608023E840080187E2E30
:100CF800A001802E0230A000A101720A8400200801
:100D080080073608023E840000188C2EA2018E2E21
:100D18000430A200A301720A840022088007360862
:100D2800033E8400801B9A2EA4019C2E0830A40048
:100D3800A501720A8400240880073608033E84004F
:100D4800001BA82EA601AA2E0A30A600A701720A27
:100D58008400260880073608033E8400801AB62ED1
:100D6800A801B82E1430A800A901720A8400280826
:100D780080073608033E8400001AC42EAA01C62E36
:100D88002830AA00AB01720A84002A0880073608B6
:100D9800033E8400001DD22E0130D32E0030F30014
:100DA80072088400730880073608033E84008018A0
:100DB800DF2EAC01E12E0230AC00AD0172088400D8
:100DC8002C0880073608033E84000018ED2EAE017B
:100DD800EF2E0430AE00AF01720884002E088007A1
:100DE8003608043E8400801BFB2EB001FD2E08301F
:100DF800B000B10172088400300880073608043E4C
:100E08008400001B092FB2010B2F0A30B200B30176
:100E180072088400320880073608043E8400801A6D
:100E2800172FB401192F1430B400B50172088400CB
:100E380034088007080083120313B9004B30A80058
:100E4800A901AA01AB015308F200F301F21BF30355
:100E58003908A03E840083130008B700B801B71B07
:100E6800B803F2023808031CF303F30290270A12AE
:100E78008A117208A0007308A1000030A11BFF307E
:100E8800A200A3000330A701A601A500E830A40032
:100E98005D270A128A112308AF002208AE00210834
:100EA800AD002008AC009E272908B6002808B50028
:100EB8000800F601F701F801F901201C772F240832
:100EC800F607250803110318013E031DF707260836
:100ED80003110318013E031DF8072708031103181F
:100EE800013E031DF9070310A40DA50DA60DA70DBE
:100EF8000310A30CA20CA10CA00C230822042104AB
:100F08002004031D612F7908A3007808A200770840
:100F1800A1007608A0000800F31F08007209F40079
:100F28007309F500F40A0319F50A7408F200750844
:100F3800F3000800B001B101B201B3012B082A0483
:100F4800290428040319DD2FB401B40AAB1BB22FFE
:100F58000310A80DA90DAA0DAB0DA92F0310B00DF4
:100F6800B10DB20DB30D2B082F02031DC52F2A0892
:100F78002E02031DC52F29082D02031DC52F280881
:100F88002C02031CD72F2808AC022908031C290FA0
:100F9800AD022A08031C2A0FAE022B08031C2B0FD4
:100FA800AF0230140310AB0CAA0CA90CA80CB40B9C
:100FB800B22F3308AB003208AA003108A900300864
:100FC800A8000800F20084008313000883120313AA
:100FD800E500720A84000008E6007208023E8400F8
:100FE8000008E7000800F200A03E84008312031303
:080FF800530883138000080078
:101004003430A0250A128A153408F2003C30F3016A
:10101400F400F501D0270A128A157208B00073088B
:10102400B1003508F2003C30F301F400F501D0279B
:101034000A128A1572083007B20073080318730A7B
:101044003107B30036083207F800003003180130C6
:101054003307F900F6270A128A15A7230A128A15FC
:10106400831603171008F039013890000F395038EF
:1010740090001108F039023891000F39503891006E
:101084001208F039033892000F39503892001308CF
:10109400F039043893000F39503893000330EB01D2
:1010A400EA000230EC00100E0F39F200F301F30AEB
:1010B40010080F39DF210A128A1583160317110E3F
:1010C4000F39F200F301F30A11080F39DF210A1274
:1010D4008A1583160317120E0F39F200F301F30A6F
:1010E40012080F39DF210A128A1583160317130E0B
:1010F4000F39F200F301F30A13080F39DF210A1242
:101104008A150B30AA00AB018F270A128A15290809
:10111400AD002808AC0052270A128A1550082A0686
:10112400F0392A06D0000B30AA00AB018F270A122F
:101134008A152908AD002808AC0052270A128A151E
:101144002A08B000B00E500830060F393006D0001F
:10115400500E0F39F200F301F30A50080F39DF2162
:1011640068100800B700FF3E031C0800840010301C
:1011740004020318080019308A000310040D040740
:10118400493E8200080020220A128A15E9270A1221
:101194008A15B0230A128A15B6230A128A15BC23AB
:1011A4000A128A153F220A128A15292A0A168A1552
:1011B4009B2E0A168A110A28592B022820220A1269
:1011C4008A15B0230A128A15B6230A128A15BC237B
:1011D4000A128A153F220A128A1529220A128A152E
:1011E4000930F2000130F301F30ADF2920220A1248
:1011F4008A150930F2000130F301F30ADF210A12E3
:101204008A150930F2000230F301F30ADF210A12D1
:101214008A15B02B20220A128A150930F2000130F7
:10122400F301F30ADF210A128A150930F2000230B1
:10123400F301F30ADF210A128A150930F2000330A0
:10124400F301F30ADF210A128A150930F20004308F
:10125400F301F30ADF210A128A150930F20005307E
:10126400F301F30ADF210A128A15B62B20220A128F
:101274008A150930F2000130F301F30ADF210A1262
:101284008A150930F2000230F301F30ADF210A1251
:101294008A150930F2000330F301F30ADF210A1240
:1012A4008A150930F2000430F301F30ADF210A122F
:1012B4008A150930F2000530F301F30ADF210A121E
:1012C4008A150930F2000630F301F30ADF210A120D
:1012D4008A15BC2B20220A128A150930F20001302B
:1012E400F301F30ADF210A128A150930F2000230F1
:1012F400F301F30ADF210A128A150930F2000330E0
:10130400F301F30ADF210A128A153F2A20220A1266
:101314008A150930F2000130F301F30ADF210A12C1
:101324008A150930F2000230F301F30ADF210A12B0
:101334008A150930F2000330F301F30ADF210A129F
:101344008A150930F2000430F301F30ADF210A128E
:101354008A15292A0A168A1195200A128A1502303A
:10136400F2000030F301F30ADF2959230A128A1527
:101374000230F2000030F301F30ADF2959230A1284
:101384008A150830F2000030F301F30ADF290A1647
:101394008A1195200A128A150830F2000030F301F0
:1013A400F30ADF290A168A1152200A128A15083014
:1013B400F2000030F301F30ADF29F600730803108A
:1013C4000319022A760D8F3E840098300318013EDB
:1013D40083120313FF000A168A1500200A128A15C5
:1013E400F4000A168A150020F5000310720DA63EBB
:1013F4008400740883138004840A75088004080038
:10140400760DAF3E840098300318013E8312031317
:10141400FF000A168A1500200A128A15F4000A161B
:101424008A150020F5000310720DA63E840074088E
:1014340083138005840A750880050800A7230A120F
:101444008A150930F2000030F301F30ADF29511D37
:10145400352A0730C6220A128A150930C6220A1212
:101464008A150A30C62A07305D220A128A15093005
:101474005D220A128A150A305D2AD11C4F2A0830CF
:101484005D220A128A150630C6220A128A1509300C
:10149400C6220A128A150A30C62A06305D220A12AA
:1014A4008A1509305D220A128A150A305D220A1251
:1014B4008A150830C62AF500F6010310760D8F3E12
:1014C400840098300318013EFF000A168A15002094
:1014D4000A128A15A0000A168A1500200A128A1513
:1014E400A1000330F20075082F23013E123E840050
:1014F40098300318013EFF000A168A1500200A12CC
:101504008A15A2000A168A1500200A128A15A30059
:1015140020082205A40021082305A500240403199A
:10152400C02A0310760DAF3E840098300318013EA4
:10153400FF000A168A1500200A128A15A0000A164E
:101544008A1500200A128A15A1000330F2007508DA
:101554002F23123E840098300318013EFF000A1620
:101564008A1500200A128A15A2002207A63E8400CA
:10157400200883138005840A210880050B30F60AAD
:101584007602031808005F2AF500F6010310760DB1
:101594008F3E840098300318013EFF000A168A1516
:1015A40000200A128A15A0000A168A1500200A12C1
:1015B4008A15A1000330F20075082F23013E123E64
:1015C400840098300318013EFF000A168A15002093
:1015D4000A128A15A2000A168A1500200A128A1510
:1015E400A30020082205A40021082305A500240443
:1015F4000319292B0310760D8F3E840098300318AD
:10160400013EFF000A168A1500200A128A15A0005E
:101614000A168A1500200A128A15A1000330F20066
:1016240075082F23123E840098300318013EFF00F2
:101634000A168A1500200A128A15A2002207A63E5D
:101644008400200883138004840A210880040B305A
:10165400F60A760203180800C82AF400F301720897
:101664007418F3070310F20D7208F418F30703104B
:10167400F20D72087419F3070310F20D7208F419CD
:10168400F3070310F20D7208741AF3070310F20D36
:101694007208F41AF3070310F20D7208741BF307AF
:1016A4000310F20D7208F41BF30773080800A72354
:1016B4000A128A150A30F2000030F301F30ADF211E
:1016C4000A128A150230F7000A30F801F200831674
:1016D4005108CA230A128A1518270630F7000A305F
:1016E400F801F200831651080A168A11A6270A1275
:1016F4008A1518270A128A150230F7000630F800F6
:101704000A30F20083165208CA230A128A151827CF
:101714000630F700F8000A30F200831652080A1661
:101724008A11A6270A128A1518270A128A15043064
:10173400F2000A30F301F30ADF210A128A15063097
:10174400F2000A30F301F30ADF291830F201F30141
:10175400F400A630F5010A168A11C22F511CB42BCD
:101764000030C62A00305D2AD11DBA2B0C30C62A9F
:101774000C305D2A511EC42B0130C6220A128A1570
:101784000230C62A01305D220A128A1502305D2A0F
:10179400F300F50172080319E32BF401F40AF21BB8
:1017A400D62B0310F20DD02B0310F50D7208730223
:1017B400031CE02B7208F30275140310F20CF40BF3
:1017C400D62B75080800C1000310520D633EBF00FC
:1017D40098300318013EC00041083F0784004008C8
:1017E4000318400AFF000A168A1500200A128A15F7
:1017F40052060319C62C0310520D633EBF009830E5
:101804000318013EC00041083F0784004008031844
:10181400400AFF000A168A1500200A128A15F900E8
:101824005208D724831203130310520D633EBF00E2
:1018340098300318013EC00041083F078400400867
:101844000318400AFF000A168A1500200A128A1596
:10185400D200B42883160830DD0A5D020318DD01C6
:101864001F308312D10583165D088312BF00043034
:101874000310BF0DFF3E0310031D3B2C3F0DD1048D
:10188400E92F01305106BF000139C0005108FE396B
:101894004004D100B02B08305106BF000839C00005
:1018A4005108F7394004D100B62B10305106BF005F
:1018B4001039C0005108EF394004D100BC2B02306C
:1018C4005106BF000239C0005108FD394004D1005F
:1018D4003F2A04305106BF000439C0005108FB39C7
:1018E4004004D100292A2030E20A6206031D7C2C20
:1018F400E201E20A0A168A15A62E0D30E30A6306EF
:10190400031D862CE301E30A0A168A15DF2E1E3016
:10191400E40A6406031D902C1030E4000A168A15AC
:10192400FC2E83161830D10A51060319D1010A1668
:101934008A15C22E83163C30D20A52060319D201EC
:101944000A168A15192F0A168A111528E81CAC2CB8
:10195400E810AD2CE8140A30F2000030E818013029
:10196400F3000A30DF294108D1250A128A15031C25
:1019740008000530F9005208D7240A128A150530E8
:1019840083120313D200B4285208FD3E031C08003E
:101994008400133004020318080019308A0003106D
:1019A400040D0407103E82000800A1007908031901
:1019B400080006307902031808002108003A0319C8
:1019C400ED2C013A0319242D033A0319332D013A5E
:1019D4000319552D582D83126819F72CF22CF72C66
:1019E4000A168A11D6270A128A1583162408831226
:1019F400D1008316A3008312A00005300310A00CAD
:101A0400FF3E031D002D20088316DD000730DD0591
:101A14006230AF250A128A156230F2000330F300F7
:101A2400DE30F40185250A128A15D130A0250A1268
:101A34008A15D130F2000330F300CE30F40185254D
:101A4400E8100800510883162306031908008312BE
:101A540051080A168A158927831251088316A30090
:101A64000800CE30F2000330F300D130F4015925E0
:101A74000A128A15720873040319442DD130BF2544
:101A84000A128A15DE30F2000330F3006230F401EA
:101A940059250A128A157208730403190800623062
:101AA4000A128A11E62FE81C0800FE2F0800F7002E
:101AB4000130F3020030031CF403F402730F652DAC
:101AC400740A0319822D7208840083130008F50038
:101AD400770884000008750603197F2D72088400B6
:101AE4000008F500770884000008F60075087602FF
:101AF400F200F301031CF3030800F70AF20A5A2D5B
:101B0400F201F3010800F8007208F7007808F60003
:101B14000130F3020030031CF403F402730F952D1B
:101B2400740A03190800770884000008F500760891
:101B3400840075088000F70AF60A8A2DF2008400F2
:101B44005D0883138000720A84005E0880007208B6
:101B5400023E84005F0880000800F20084008312C3
:101B6400650883138000720A840066088000720886
:101B7400023E8400670880000800F200840083139A
:101B8400000883120313DD00720A84000008DE00DB
:101B94007208023E84000008DF00FA150800831270
:101BA400BB00681CD72D031408003B08031DE12D5E
:101BB40083160317EC0BEC2D0430EC00EC2D3B0BDF
:101BC400EC2D831603170530EC0A6C02031CEC2D74
:101BD400EC01EC0A02300A128A111F270A128A1534
:101BE40000303602C830031935020318FD2D681879
:101BF400D52D0310080002300A128A11F7270A12A1
:101C04008A15831603176A08903E84008317000818
:101C14000F3983120313BD00831603176A08903E1D
:101C24008400000E0F3983120313BE003F2E83126B
:101C340003130B30BD033D02031C4F2E0A30BD00BD
:101C44004F2E831203130B30BD0A3D02031C4F2E8B
:101C5400BD014F2E831203130B30BE033E02031C3F
:101C64004F2E0A30BE004F2E831203130B30BE0AD0
:101C74003E02031C4F2EBE014F2E831603176C0821
:101C8400013A03192C2E033A0319232E013A03199E
:101C9400362E073A0319192E4F2E831203135008B8
:101CA4000F393D06031D832E500E0F393E06031DCA
:101CB400832E0B30AA00AB018F270A128A1529083C
:101CC400AD002808AC0052270A128A1550082A06CB
:101CD400F0392A06D0000B30AA00AB018F270A1274
:101CE4008A152908AD002808AC0052270A128A1563
:101CF4002A08BA00BA0E50083A060F393A06D0003C
:101D04009B2E831603176B08903E8400000E0F3938
:101D1400F200F3016B08903E840000080F39DF21C4
:101D24000A128A15831603175A30EB0A6B0203183A
:101D3400EB01831203133E08F200F301F30A3D089A
:101D4400DF210A128A15831603175A30EA0A6A0237
:101D54000318EA016A08903E84008317000883127E
:101D640003133D06F0393D0680003E08BA00831691
:101D740003176A08903E840083120313BA0E000806
:101D84003A060F393A068000831603176A086B0671
:101D9400031DD12E5A30EB0A6B020318EB01831298
:101DA4000313500E0F39F200F301F30A50080F39F0
:101DB400DF210A128A15831603176B088312031393
:101DC400BC003C08903E8400831700080F39BA0019
:101DD400831603176A08903E840000080F398312A3
:101DE40003133A06031D0A2F3C08903E8400000E9C
:101DF4000F39BA00831603176A08903E8400000E58
:101E04000F39831203133A06031D0A2F6814F92DA0
:101E14005A30BC0A3C020318BC01831603176A0833
:101E2400831203133C06031DE32EF92D8312A20033
:101E34000F30A300A401A5010310220DCF3E84009E
:101E440098300318013EFF000A168A1500200A1272
:101E54008A15A0000A168A1500200A128A15A10004
:101E6400230A372F0310A10CA00CFF3E031D342FAF
:101E74002008F3000130F30524087807F200250850
:101E84007707DF210A128A150330A303A50A250266
:101E9400031C1F2F0530A40A2402031808001D2F59
:101EA400AF01AD1F5C2FAC09AD09AC0A0319AD0A33
:101EB400AF01AF0AAB1F632FAA09AB09AA0A031922
:101EC400AB0A2A082B040319822FAE01AE0AAB1BFE
:101ED4006F2F0310AA0DAB0D682F2B082D02031DC5
:101EE400752F2A082C02031C7E2F2A08AC022B080B
:101EF400031CAD03AD020310AB0CAA0CAE0B6F2F89
:101F04002F0803198A2FAC09AD09AC0A0319AD0ACD
:101F14002D08AB002C08AA0008004130A300C630ED
:101F2400A2004E30A1006D30A00083165A0883121F
:101F3400A700831659088312A60083165808831233
:101F4400A500831657088312A4000A128A115D277C
:101F540023088316DA00831222088316D900831219
:101F640021088316D800831220088316D70039303D
:101F7400D707303003183130D80700300318013048
:101F8400D907003003180130DA075A088312A90070
:101F9400831659088312A800A9130800F601F70153
:101FA400721CDA2F7408F6070318F70A7508F70786
:101FB4000310F40DF50D0310F30CF20C7208730406
:101FC400031DD22F7708F3007608F20008005108A9
:101FD400F30005300310F30CFF3E031DEC2F7308D0
:101FE40007390A168A11002878088316D700790859
:101FF400D800D901DA010800FA110800F20008300B
:102004007202031C07280730F2007208E00008007F
:102014000A128A15A7230730F2000030F301F30AED
:102024000A128A15DF29F801F201F20A7808A526B6
:102034000A168A11F901F201F20A790800260A1631
:102044008A113230F600F7010130F6020030031C29
:10205400F703F702760F3128770A03193C28640046
:102064000730F5006030F400F40B3628F50B362801
:102074003B2826286400F201790800260A168A11F2
:102084000B30F90A7902031C1D28F2017808A526F1
:102094000A168A110C30F80A780203180800162868
:1020A4000A128A1559230A168A110230F700F80118
:1020B4000A128A1518270A168A110630F70000300A
:1020C400F8010A128A1518270A168A110230F70035
:1020D4000630F8000A30F20064080A128A15CA238E
:1020E4000A168A110A128A1518270A168A11063046
:1020F400F700F8000A30F2006408A6270A128A15CD
:1021040018270A168A110430F2000A30F3010A1261
:102114008A15DF210A168A110630F2000A30F3010B
:102124000A128A15DF290A128A1559230A168A11F6
:102134000230F7000A30F801F20062080A128A1528
:10214400CA230A168A110A128A1518270A168A112E
:102154000630F7000A30F801F2006208A6270A12D6
:102164008A1518270A168A110230F7000630F8007B
:102174000A30F20063080A128A15CA230A168A1161
:102184000A128A1518270A168A110630F700F80071
:102194000A30F2006308A6270A128A1518270A16BD
:1021A4008A110430F2000A30F3010A128A15DF2181
:1021B4000A168A110630F2000A30F3010A128A154F
:1021C400DF298312AF0103102F0DA63E8400831371
:1021D4000008A000840A0008A10020040319162A9C
:1021E400AE0103102E0D8F3E840098300318013E7B
:1021F400FF000A168A1500200A168A11A0000A1682
:102204008A1500200A168A11A10003102F0DA63E7C
:10221400840083130008A200840A0008A300200895
:102224002205A40021082305A500240403191C2960
:1022340001301D290030F2002E0800260A168A11EA
:102244000B30AE0A2E02031CF428F201F20A2F0806
:10225400A526E830F2000330F3000310600DF33ECE
:10226400840098300318013EFF000A168A150020E6
:102274000A168A11F4000A168A1500200A168A1111
:10228400F50082277308AB007208AA00E830F20058
:102294000330F3000310600DF33E840098300318FC
:1022A400013EFF000A168A1500200A168A11F4005E
:1022B4000A168A1500200A168A11F50058270A16EC
:1022C4008A117308A7007208A60001308312031351
:1022D400A6020030031CA703A702260F7429270AAD
:1022E400031981296400073083120313A1006030AD
:1022F400A000A00B7B29A10B7B29802967296400FE
:10230400831203132A082B0403199D29A330A00068
:10231400A00B8A2900000030831203132B026530BE
:1023240003192A02031C9D296430AA020030031CED
:10233400AB03AB0282296400F201831203132F085A
:10234400A526E830F2000330F3000310600DE33EED
:10235400840098300318013EFF000A168A150020F5
:102364000A168A11F4000A168A1500200A168A1120
:10237400F50082277308AD007208AC00E830F20063
:102384000330F3000310600DE33E8400983003181B
:10239400013EFF000A168A1500200A168A11F4006D
:1023A4000A168A1500200A168A11F50058270A16FB
:1023B4008A117308A9007208A8000130831203135C
:1023C400A8020030031CA903A902280FEC29290A3A
:1023D4000319F9296400073083120313A100603044
:1023E400A000A00BF329A10BF329F829DF2964002D
:1023F400831203132C082D040319152AA330A000FB
:10240400A00B022A00000030831203132D02653052
:1024140003192C02031C152A6430AC020030031C7F
:10242400AD03AD02FA296400831203130C30AF0A22
:102434002F02031CE628FF30F201002EAE00FF300D
:10244400F2000630F301F4003C30F501C2270A160D
:102454008A1183122E08840083130008BB001830ED
:102464003B02031808002E0A84000008C2003C3016
:10247400420203180800C30183126819462A432A3A
:10248400462AD6270A168A11831624088312B9000D
:10249400391C4E2ABC01C30AB91D5E2A3B08031D20
:1024A4005E2A4208031D5E2A43083C3E84000C3029
:1024B40083138000C30A7C2B391E9C2A3B08031D0E
:1024C4009C2A1930420203189C2A43083C3E84008B
:1024D40083138001800AC30A43083C3E840002300F
:1024E40080000530C30A4202031C7C2B0A304202DE
:1024F4000318812A43083C3E840003305B2A0F30D2
:10250400420203188A2A43083C3E840004305B2AB2
:10251400143042020318932A43083C3E84000530D9
:102524005B2A1930420203187C2B43083C3E84008A
:1025340007305B2A0C30F2003B08A6270A168A11E2
:102544008312BB000B303B02031CAA2ABA01AD2A3A
:102554003B08013EBA00053042020318C52A3B0B72
:10256400B82A43083C3E84001930BD2A43083C3E47
:1025740084003B080D3E83138000C30A43083C3E9D
:1025840084001A30152B0A3042020318DB2A430850
:102594003C3E8400033083138000C30A43083C3E5E
:1025A40084000A308000C30A43083C3E84003B0890
:1025B400142B0F3042020318E42A43083C3E8400E3
:1025C4000430CD2A143042020318F22A43083C3E58
:1025D4008400063083138000C30AB918D02A102B54
:1025E400193042020318172B391DFD2A43083C3EBB
:1025F40084000730CD2A43083C3E84000430831312
:102604008000C30A43083C3E840009308000C30AAA
:1026140043083C3E84000B308000C30A43083C3E20
:1026240084003A080D3E80007C2B1E3042020318C1
:10263400202B43083C3E84000330012B233042020C
:102644000318292B43083C3E84000B30682B2830A8
:1026540042020318392B43083C3E840003308313A1
:102664008000C30A43083C3E84000A30082B2D3006
:1026740042020318592B391D4B2B43083C3E84005E
:10268400073083138000C30A43083C3E84000930AA
:102694000E2B43083C3E8400043083138000C30A9D
:1026A40043083C3E84000A308000C30A242B3230A5
:1026B400420203186A2BB91C642B43083C3E840075
:1026C4000630432B43083C3E8400083083130E2B12
:1026D400373042020318732B43083C3E8400043015
:1026E400432B3C30420203187C2B43083C3E8400BD
:1026F4000330432BC30143083C3E84008313000A88
:102704000319CE2C43083C3E840000080007000750
:10271400123E840098300318013EFF000A168A1501
:1027240000200A168A11AF00B8010B3038020318D2
:10273400DF2B6400831203130310380D8F3E8400D3
:1027440098300318013EFF000A168A1500200A1665
:102754008A11A0000A168A1500200A168A11A100FF
:1027640043083C3E84008313000800070007013E31
:10277400123E840098300318013EFF000A168A15A1
:1027840000200A168A11A2000A168A1500200A16C9
:102794008A11A30020082205A40021082305A5000E
:1027A40024040319D72B0130D82B0030F200380849
:1027B40000260A168A11B80A972BF201F20A2F088A
:1027C400A526E830F2000330F3000310600DF33E59
:1027D400840098300318013EFF000A168A15002071
:1027E4000A168A11F4000A168A1500200A168A119C
:1027F400F50082277308B1007208B000E830F200D7
:102804000330F3000310600DF33E84009830031886
:10281400013EFF000A168A1500200A168A11F400E8
:102824000A168A1500200A168A11F50058270A1676
:102834008A117308A7007208A600013083120313DB
:10284400A6020030031CA703A702260F2C2C270A7C
:102854000319392C6400073083120313A10060307C
:10286400A000A00B332CA10B332C382C1F2C64009C
:1028740083120313300831040319552CA330A0002C
:10288400A00B422C00000030831203133102653088
:1028940003193002031C552C6430B0020030031CB1
:1028A400B103B1023A2C6400F201831203132F081E
:1028B400A526E830F2000330F3000310600DE33E78
:1028C400840098300318013EFF000A168A15002080
:1028D4000A168A11F4000A168A1500200A168A11AB
:1028E400F50082277308B3007208B200E830F200E2
:1028F4000330F3000310600DE33E840098300318A6
:10290400013EFF000A168A1500200A168A11F400F7
:102914000A168A1500200A168A11F50058270A1685
:102924008A117308A9007208A800013083120313E6
:10293400A8020030031CA903A902280FA42C290A09
:102944000319B12C6400073083120313A100603013
:10295400A000A00BAB2CA10BAB2CB02C972C6400CB
:1029640083120313320833040319CD2CA330A000BF
:10297400A00BBA2C0000003083120313330265301D
:1029840003193202031CCD2C6430B2020030031C44
:10299400B303B302B22C6400831203130630C30AD8
:1029A4004302031C7D2BFF30F20100260A168A1114
:1029B400E12D0130F201F20A00260A168A110A30CA
:1029C400F201F20A00260A168A110930F201F20A0B
:1029D40000260A168A110030F201F20A00260A16AD
:1029E4008A110B30F201F20AA526E830F200033016
:1029F400F3000310600DF33E840098300318013E89
:102A0400FF000A168A1500200A168A11F4000A1615
:102A14008A1500200A168A11F50082277308B5006A
:102A24007208B400E830F2000330F3000310600DC4
:102A3400F33E840098300318013EFF000A168A15FD
:102A440000200A168A11F4000A168A1500200A16B4
:102A54008A11F50058270A168A117308AB00720808
:102A6400AA00013083120313AA020030031CAB0333
:102A7400AB022A0F402D2B0A03194D2D6400073099
:102A840083120313A1006030A000A00B472DA10BFB
:102A9400472D4C2D332D6400831203133408350461
:102AA4000319692DA330A000A00B562D000000309F
:102AB400831203133502653003193402031C692D94
:102AC4006430B4020030031CB503B5024E2D64001B
:102AD4000B30F201A526E830F2000330F3000310B6
:102AE400600DE33E840098300318013EFF000A168F
:102AF4008A1500200A168A11F4000A168A15002085
:102B04000A168A11F50082277308B7007208B60006
:102B1400E830F2000330F3000310600DE33E84005C
:102B240098300318013EFF000A168A1500200A1681
:102B34008A11F4000A168A1500200A168A11F50073
:102B440058270A168A117308AD007208AC000130C8
:102B540083120313AC020030031CAD03AD022C0F2F
:102B6400B62D2D0A0319C32D6400073083120313F5
:102B7400A1006030A000A00BBD2DA10BBD2DC22D66
:102B8400A92D640083120313360837040319DF2DBB
:102B9400A330A000A00BCC2D00000030831203133F
:102BA4003702653003193602031CDF2D6430B60288
:102BB4000030031CB703B702C42D6400FD2D05309B
:102BC400F2004208A6270A168A118312A000A10166
:102BD4002108003A0319EF2DFD2D2008013A0319AD
:102BE400ED2C033A0319E72C013A0319E12C073AB7
:102BF4000319DB2CFD2DFF30F201002EF3007E2E95
:102C0400721C082E83120313051408008312031385
:102C140005100800721C122E831203138514080079
:102C24008312031385100800721C1C2E83120313D5
:102C3400051508008312031305110800721C262EC3
:102C440083120313851508008312031385110800EA
:102C5400721C302E8312031305160800831203130B
:102C640005120800721C3A2E8312031385160800FD
:102C74008312031385120800721C442E831203135B
:102C8400091408008312031309100800721C4E2E45
:102C94008312031389140800831203138910080094
:102CA400721C582E83120313091508008312031390
:102CB40009110800721C622E831203130714080002
:102CC4008312031307100800721C6C2E8312031363
:102CD4008714080083120313871008008312031358
:102CE400051085100511851105128512091089102A
:102CF40009110710871008007308003A0319022EFF
:102D0400013A03190C2E033A0319162E013A03193A
:102D1400202E073A03192A2E013A0319342E033AB6
:102D240003193E2E013A0319482E0F3A0319522E65
:102D3400013A03195C2E033A0319662EF53A031976
:102D4400702E702E0800F3002E2F721CAD2E8312ED
:102D54000313861408008312031386100800721CE0
:102D6400B72E8312031306140800831203130610EC
:102D74000800721CC12E83120313881708008312E3
:102D8400031388130800721CCB2E83120313081735
:102D940008008312031308130800721CD52E831233
:102DA4000313881608008312031388120800721C88
:102DB400DF2E83120313081608008312031308126C
:102DC4000800721CE92E831203138717080083126C
:102DD400031387130800721CF32E831203130717BF
:102DE40008008312031307130800721CFD2E8312BC
:102DF4000313871608008312031387120800721C3A
:102E0400072F8312031307160800831203130712F4
:102E14000800721C112F83120313881508008312F3
:102E2400031388110800721C1B2F83120313081547
:102E34000800831203130811080083120313861079
:102E440006108813081388120812871307138712B1
:102E540007128811081108007308003A0319A72EF5
:102E6400013A0319B12E033A0319BB2E013A03198F
:102E7400C52E073A0319CF2E013A0319D92E033A66
:102E84000319E32E013A0319ED2E0F3A0319F72E15
:102E9400013A0319012F033A03190B2F013A0319BD
:102EA400152FF43A03191F2F1F2F0800F701F801FB
:102EB4007208730403197D2FF601F60AF31B662FBB
:102EC4000310F20DF30D5F2F0310F70DF80D7308C7
:102ED4007502031D6F2F72087402031C792F720888
:102EE400F4027308031CF503F50277140310F30CC2
:102EF400F20CF60B662F7808F3007708F20008004E
:102F0400720873040319A12FF601F60AF31B8E2F1E
:102F14000310F20DF30D872F73087502031D942F10
:102F240072087402031C9D2F7208F4027308031CB8
:102F3400F503F5020310F30CF20CF60B8E2F750853
:102F4400F3007408F2000800F4000830F500F601FC
:102F54007408F30007300310F30CFF3E0310031D45
:102F6400AE2F760D7304F6000310F40D720876028A
:102F7400031CBE2F7208F602F50BAA2F7608080070
:102F8400F700F6000130F4020030031CF503F502EB
:102F9400740FCF2F750A031908007608840072088D
:102FA40083138000F60AC42F0130EB270A168A1116
:102FB400F3000030EB270A168A1183160313A400CA
:102FC400A53073060319E82FE130A40083126815B5
:102FD4000800F2006400831603178C18EC2F7208A3
:102FE40083128D003F3083168C050C1403100C18CB
:102FF40003140318013083120C080800FF1B0A286D
:1030040083137F1883170008840A0319FF0A080032
:103014007F087F398A000408840A0319FF0A8200A2
:1030240000340034DC340034E0340134013400343E
:10303400E034023400347834023480340734023407
:1030440080347F340334E0340F340134E0340F34FB
:103054000334E034FF340434003470340434003472
:103064000F3405340034F0340634E034FF340934CA
:10307400E03403340534E0340134053400340F34CF
:1030840007340034783408340034F034093400341C
:103094003C340734C03407340834C0340F340634A5
:1030A400E03401340A3400341E340A340034F03479
:1030B40009340034E0340534C03401340A34E034D3
:1030C4000034023411340334063401340C3404342F
:1030D4000334053404340034153406340734073417
:1030E40008340834093409340A340A340B340B34F0
:1030F40001340C340D340D340E340E340F340F34CB
:1031040010341034023400341234003413340034D4
:10311400143400340034153415340034803400344D
:103124004034003420340034103400340834003483
:103134000434003402340034013480340034403424
:10314400003420340034103400340834003404349F
:1031540000340234003401340034FF347F34FF344B
:10316400BF34FF34DF34FF34EF34FF34F734FF343B
:10317400FB34FF34FD34FF34FE347F34FF34BF347A
:10318400FF34DF34FF34EF34FF34F734FF34FB34DF
:10319400FF34FD34FF34FE34FF34DE34F63492342D
:1031A4002434CE34E7349E34E7349234B7349E3436
:1031B400F334DE34F3349234E434DE34F7349E34BE
:1031C400F734BC34023458340234F43401349034C7
:1031D40001342C340134C8340034643400340034F1
:1031E400003464340034C83400342C340134903452
:1031F4000134F434013458340234BC3402342034FD
:10320400033400341F341C341F341E341F341E3462
:103214001F341F341E341F341E341F340A128A15FF
:10322400A82C0A128A15A52C0A128A15D62C0A1261
:103234008A152C2C0A128A15432C0A128A15612C21
:103244000A128A156B2C0A128A154D2C0A128A1539
:10325400572C0A128A15932C0A128A159C2C0A12CE
:103264008A15752C0A128A157F2C0A128A15892C44
:103274000A128A15D62C0A128A15D62C0A128A1515
:10328400D62C0A128A15D62C0A128A15B52C0A12C3
:103294008A15C5280A128A15DE280A128A15D82822
:1032A4000A128A15DB280A128A15DF280A128A15DF
:1032B400E0280A128A15F8280A128A156C290A12BB
:1032C4008A1588290A128A150C290A128A1538299E
:1032D4000A128A15B7290A128A15C0290A128A15F0
:0E32E400AC290A128A15C9290A128A15D429A2
:103D260064008001840A0406031900340406942EF4
:103D36000A128A15A7230830F2000030F301F30AAD
:103D46000A128A15DF290230F7000A30F801F2005C
:103D560062080A128A15CA230A168A150A128A15D1
:103D660018270A168A150630F7000A30F801F200FD
:103D760062080A168A11A6270A128A15182F023017
:103D8600F7000A30F801F20051080A128A15CA2310
:103D96000A168A150A128A1518270A168A1506306F
:103DA600F7000A30F801F200831651080A168A1144
:103DB600A6270A128A15182F0230F7000630F800D7
:103DC6000A30F20063080A128A15CA230A168A15EF
:103DD6000A128A1518270A168A150630F700F800FF
:103DE6000A30F20063080A168A11A6270A128A15F3
:103DF600182F0230F7000630F8000A30F200640887
:103E06000A128A15CA230A168A150A128A1518274B
:103E16000A168A150630F700F8000A30F200640820
:103E26000A168A11A6270A128A15182F0230F700D9
:103E36000630F8000A30F20052080A128A15CA2320
:103E46000A168A150A128A1518270A168A150630BE
:103E5600F700F8000A30F200831652080A168A1193
:103E6600A6270A128A15182F0B1D3D2F0B11831238
:103E76000313D30A0B1C562F8312031306080B10C9
:103E8600061D472F7A14482F7A1083120313061E35
:103E96004E2FFA144F2FFA1083120313861D552F37
:103EA6007A15562F7A1171088A00700E8300FE0E5D
:103EB6007E0E0900F40084001D3083130006031DE6
:103EC600712F740A840002300006031D712F7408D6
:103ED600023E840000080339031901347408840083
:103EE6000008F200740A84000008033E840099303A
:103EF6000318013EFF000A168A1500200A168A15C5
:103F0600F30072087302031C00340134F4007408D1
:103F1600F5006819932F0A168A11D6270A168A15EC
:103F2600831624087506031908007508F200003088
:103F3600AA270A168A15A530F2000130AA270030F2
:103F46000A168A11EB2783160313A4000800F30050
:103F560003178C18AB2F730883128D0072088C0020
:103F66003F3083168C0503108B1B03148B130C1523
:103F760055308D00AA308D008C140C1103188B1748
:103F860008000317051685110515851405108316F7
:103F960003138117950181128111011581140114F2
:103FA6000F178F168F168B178B160317880189012B
:103FB600831203138501860187018801890183160F
:103FC6000510851005118511051285120910891035
:103FD6000911071087108610061088130813881217
:103FE6000812871307138712071288110811871101
:0A3FF6001615961516168B15080017
:04400E00C2EBFFFE04
:00000001FF
