:060000000A128A110C280F
:10000800FE00030EF0000A08F1000A168A116D2C92
:100018000A128A110F2883161330DB00FF30DC0028
:100028000130DD00DE001030DF000130E000E100CB
:100038000A30E20083120730E1000130E200E300F9
:100048001030E4000130E500E6001030E700A03091
:1000580083138400D2300A128A11DE270A128A1109
:100068005030840061300A128A11DE27E801FA0153
:1000780083010A128A1140280A168A11F1240A12E9
:100088008A117B14FB14831252088316D800D901F5
:1000980064004B30831603135802031C80284B302E
:1000A8008312D20204305702031CD70A3C30E00AFC
:1000B8006002031C80283C30E001DF0A5F02031C59
:1000C80080281830DF01DE0A5E02031C80286530B4
:1000D800DE01E50A0A168A1193240A128A11003AE7
:1000E800031D80280D30E501E50AE60A6602031CB7
:1000F8008028E601E60AE70AFA1D8F2804308312F1
:100108005E06031D8F285F08031D8F286008031DE6
:100118008F28FA17FA11FA199328831287157A1C6F
:1001280097280130982800308312CF007A1F9E2824
:1001380001309F2800304F060319BD297A137A1C15
:10014800A6287A178312031357084B30A400031903
:100158005129A501A601A701CF0058084F02F200B6
:10016800F301031CF303F401F31BF4037408F50013
:100178000330F901F801F700E830F6000A168A1191
:10018800BB240A128A117508AB007408AA00730808
:10019800A9007208A8000A128A11B1260A128A1147
:1001A80027088316D700831226088316D6008312E1
:1001B80025088316D500831224088316D4008312D9
:1001C8005708FF3EF200FF3003180030F300F40137
:1001D800F31BF4037408F5000330F901F801F70084
:1001E800E830F6000A168A11BB240A128A1172082E
:1001F8008316D407730803110318013E031DD5079E
:10020800740803110318013E031DD607750803116E
:100218000318013E031DD7074B308312A400A50124
:10022800A601A70183165808F2000330F301F40170
:10023800F501F901F801F700E830F6000A168A110D
:10024800BB240A128A117508AB007408AA00730847
:10025800A9007208A8000A128A11B1260A128A1186
:1002680024088316D4078312250803110318013EB6
:100278008316031DD5078312260803110318013EB0
:100288008316031DD6078312270803110318013E9E
:100298008316031DD70783169229A501A601A70176
:1002A800580883165802F200F301031CF303F40103
:1002B800F31BF4037408F500FA30F600F701F801AF
:1002C800F9010A168A11BB240A128A117508AB00B3
:1002D8007408AA007308A9007208A8000A128A11F3
:1002E800B1260A128A1127088316D7008312260816
:1002F8008316D600831225088316D5008312240896
:100308008316D40002308312CF0003108316D40D55
:10031800D50DD60DD70D8312CF0B89298312D7019E
:10032800831658088312D800831655088312C20012
:10033800831654088312C1005E30C3006530C400C0
:1003480000307A1B01300A128A11C7230A128A1157
:100358008316D200520BB329FA158312BC29FA1F4F
:10036800BD29053083125E02031CBD29FA13FA1554
:100378008711FA1CC1290130C22900308312CF002D
:100388007B1CC8290130C92900304F060319D4291C
:100398007B10FA1CD0297B147B1CEE290030E9293C
:1003A8007A1DD8290130D9290030CF00FB1CDE295D
:1003B8000130DF2900304F060319EE29FB107A1DA2
:1003C800E629FB14FB1CEE2901300A168A11822546
:1003D8000A128A118312031351088316DA005B0686
:1003E8000319222A5A08DB000F30D901D90A5A0604
:1003F800031D072A02308312D6000A128A15A32782
:100408000A128A11222A10305A06031D0D2A0330B7
:10041800FF2911305A06031D132A0430FF29123010
:100428005A06031D192A0530FF295A080319202ADC
:100438008312D601D60A222A8312D6018316D30143
:10044800831256080319FA192C2A8316D301D30AE2
:100458008316531C332A831203138815362A8312F2
:1004680003138811560B3E2A0A168A112D250A12E3
:100478008A11472802305606031DB02A83165908E8
:10048800031D4F2A83125E085A06031D4F2A5F0870
:100498005B060319952A83125E08DA005F08DB0001
:1004A8000230F7000A30F801F2005A080A128A15D9
:1004B8005A260A128A110A128A1521260A128A1144
:1004C8000630F7000A30F801F2005A080A128A15B5
:1004D80075260A128A110A128A1521260A128A1109
:1004E8000230F7000630F8000A30F2005B080A1202
:1004F8008A155A260A128A110A128A1521260A1200
:100508008A110630F700F8000A30F2005B080A1278
:100518008A1575260A128A110A128A1521260A12C4
:100528008A116008F3000130F3050430F2000A3044
:100538000A128A1560250A128A11831203136008A9
:10054800F3000130F3050630F2000A300A128A156A
:1005580060250A128A11382A03305606031D142B07
:1005680083165908031DD02A0A30F2008312600846
:100578000A128A1575260A128A118312CF000A30C8
:10058800F20083165C080A128A1575260A128A1167
:1005980083124F060319E22A0630F7000330F800E9
:1005A8000A30F200831260080A128A1575260A12A8
:1005B8008A110A128A1521260A128A1183165908E5
:1005C800031DFE2A0A30F200831260080A128A15F7
:1005D8005A260A128A118312CF000A30F2008316B3
:1005E8005C080A128A155A260A128A1183124F06C3
:1005F8000319102B0230F7000330F8000A30F2001C
:10060800831260080A128A155A260A128A110A12D7
:100618008A1521260A128A1160088316DC00382AF6
:1006280004305606031D6C2B83165908031D252B11
:10063800831265085906031D252B66085C060319F5
:10064800382A83126508D9006608DC000230F700F2
:100658000A30F801F20059080A128A155A260A12B5
:100668008A110A128A1521260A128A110630F70001
:100678000A30F801F20059080A128A1575260A127A
:100688008A110A128A1521260A128A110230F700E5
:100698000630F8000A30F2005C080A128A155A2659
:1006A8000A128A110A128A1521260A128A1106309C
:1006B800F700F8000A30F2005C080A128A1575265D
:1006C8000A128A110A128A1521260A128A11382A50
:1006D80005305606031DAF2B83165908031D792BC9
:1006E800831267085D060319382A83126708DD003C
:1006F8000230F700F8010A128A1521260A128A1117
:100708000630F7000030F8010A128A1521260A126D
:100718008A110230F7000630F8000A30F2005D084E
:100728000A128A155A260A128A110A128A152126CD
:100738000A128A110630F700F8000A30F2005D0844
:100748000A128A1575260A128A110A128A15212692
:100758000A128A11382AFA1DBD2B5608031DBD2B13
:10076800FF30F8005E300A128A1566200A128A11D4
:1007780047287A1FC32B8312031387144728831231
:10078800031387104728C700C80147080319792CA5
:1007980006304202D73003194102031C662C073089
:1007A80042029E30031941020318662C3B30FA16A8
:1007B8005506031DEC2BCF30F200B930F0250A1294
:1007C8008A11E030F200B930D5240A128A11D22CED
:1007D80076305506031D642C4930F200C130F025EF
:1007E8000A128A114C30F200C130D5240A128A113B
:1007F80083164F0883124906031D3F2C4A08FF3E03
:10080800C500FF3003180030C60083165008831255
:1008180045064604031D3F2C8316510883124B06D8
:10082800031D3F2C8316600883124C06031D3F2CC2
:100838008316610883124D06031D3F2C8316620838
:1008480083124E06031D3F2C43088400490880008C
:10085800840A4A088000840A4B08800044088400FF
:100868004C088000840A4D088000840A4E088000E5
:10087800C801C80AD22CC130F2000830F300B930E0
:10088800F4010A168A11D3260A128A113B30D500C0
:1008980049088316CF0083124A088316D0008312B2
:1008A8004B088316D10083124C088316E00083128C
:1008B8004D088316E10083124E088316E200D22CFD
:1008C800D501D22C02304202EE3003194102031C3A
:1008D800742C03304202B73003194102031CD22C96
:1008E8000230D501FA12C800D22C3B305506031D40
:1008F8007F2CFA1E832C76305506031D862CD501D5
:10090800FA128E2C3B305506031D8E2C0830D4006D
:100918000730E1005508031D962C0730D401E1008B
:100928008316B901003083124202333003194102A1
:100938000030031CB32C42029630031941020318FD
:10094800B22CD50A6108031DD12C0730E100D40A66
:100958005408B93E840083138001D22C003042022F
:10096800973003194102031C742C00304202FA30FC
:10097800031941020318742CD50A5408B93E84009F
:100988000130C500610ACA2C0310C50DFF3E031DC6
:10099800C82C450883138004A62CE1038312480859
:1009A8000800C000720884008001720A8400800177
:1009B8007208023E840080014008043E8400801DC5
:1009C800E72C0130E82C0030F3007208840073082B
:1009D80080074008043E84000019F42CA001F62C7E
:1009E8000230A000A1017208840020088007400896
:1009F800043E84008018022DA201042D0430A200B8
:100A0800A30172088400220880074008043E84007D
:100A18000018102DA401122D0830A400A501720899
:100A28008400240880074008053E8400801B1E2D92
:100A3800A601202D0A30A600A70172088400260806
:100A480080074008053E8400001B2C2DA8012E2D90
:100A58001430A800A90172088400280880074008FB
:100A6800053E8400001D3A2D01303B2D0030F30077
:100A7800720A8400730880074008053E84008018C5
:100A8800472DAA01492D0230AA00AB01720A840041
:100A98002A0880074008053E84000018552DAC013F
:100AA800572D0430AC00AD01720A84002C08800771
:100AB8004008063E8400801B632DAE01652D08307A
:100AC800AE00AF01720A84002E0880074008063E77
:100AD8008400001B712DB001732D0A30B000B101E4
:100AE800720A8400300880074008063E8400801E91
:100AF8007F2D0130802D0030F3007208023E840003
:100B0800730880074008063E8400001A8D2DB20144
:100B18008F2D0230B200B3017208023E8400320801
:100B280080074008063E840080199C2DB4019E2D44
:100B38000430B400B5017208023E8400340880070E
:100B48004008063E84000019AB2DB601AD2D0830D3
:100B5800B600B7017208023E8400360880074008D4
:100B6800063E84008018BA2DB801BC2D0A30B800A2
:100B7800B9017208023E8400380880074008063E22
:100B880084000018C92DBA01CB2D1430BA00BB015E
:100B98007208023E84003A0880074008073E840035
:100BA800801BD82DBC01DA2D2830BC00BD0172088D
:100BB800023E84003C0880074008073E8400001B72
:100BC800E72DBE01E92D5030BE00BF017208023E7C
:100BD80084003E0880070800B6007208840083136A
:100BE8008001720A840080017208023E840080013C
:100BF8003608023E8400001D032E0130042E00300A
:100C0800F300720A8400730880073608023E8400E5
:100C18008018102EA001122E0230A000A101720A25
:100C28008400200880073608023E840000181E2E23
:100C3800A201202E0430A200A301720A8400220817
:100C480080073608033E8400801B2C2EA4012E2E1C
:100C58000830A400A501720A840024088007360819
:100C6800033E8400001B3A2EA6013C2E0A30A60043
:100C7800A701720A8400260880073608033E84000C
:100C8800801A482EA8014A2E1430A800A901720A19
:100C98008400280880073608033E8400001A562E70
:100CA800AA01582E2830AA00AB01720A84002A082B
:100CB80080073608033E8400001D642E0130652E2F
:100CC8000030F30072088400730880073608033E7A
:100CD80084008018712EAC01732E0230AC00AD0177
:100CE800720884002C0880073608033E8400001828
:100CF8007F2EAE01812E0430AE00AF017208840051
:100D08002E0880073608043E8400801B8D2EB00113
:100D18008F2E0830B000B1017208840030088007B7
:100D28003608043E8400001B9B2EB2019D2E0A301B
:100D3800B200B30172088400320880073608043E06
:100D48008400801AA92EB401AB2E1430B400B5016A
:100D580072088400340880070800AC01AD01AE01B8
:100D6800AF0127082604250424040319F02EB00136
:100D7800B00AA71BC52E0310A40DA50DA60DA70D1F
:100D8800BC2E0310AC0DAD0DAE0DAF0D27082B0218
:100D9800031DD82E26082A02031DD82E250829024D
:100DA800031DD82E24082802031CEA2E2408A802B2
:100DB8002508031C250FA9022608031C260FAA02D2
:100DC8002708031C270FAB022C140310A70CA60C32
:100DD800A50CA40CB00BC52E2F08A7002E08A60042
:0A0DE8002D08A5002C08A400080047
:100E000007308A000408840A820700340034003462
:100E1000DC340034E034013401340034E034023492
:100E200000347834023480340734023480347F3420
:100E30000334E0340F340134E0340F340334E0344D
:100E4000FF34043400347034043400340F34053477
:100E50000034F0340634E034FF340934E034033431
:100E60000534E0340134053400340F3407340034E1
:100E7000783408340034F034093400343C34073416
:100E8000C03407340834C0340F340634E03401343D
:100E90000A3400341E340A340034F0340934003487
:100EA000E0340534C03401340A34E0340034023410
:100EB0000F340334053401340A3404340334003469
:100EC000043405340634063407340734083408344F
:100ED0000934093401340A340B340B340C340C3427
:100EE0000D340D340E340E3402340034103400341A
:100EF00011340034123400340034003480340034AF
:100F000040340034203400341034003408340034C9
:100F1000043400340234003401348034003440346A
:100F200000342034003410340034083400340434E5
:100F300000340234003401340034FF347F34FF3491
:100F4000BF34FF34DF34FF34EF34FF34F734FF3481
:100F5000FB34FF34FD34FF34FE347F34FF34BF34C0
:100F6000FF34DF34FF34EF34FF34F734FF34FB3425
:100F7000FF34FD34FF34FE34FF34DE34F634923473
:100F80002434CE34E7349E34E7349234B7349E347C
:100F9000F334DE34F3349234E434DE34F7349E3404
:100FA000F73400341F341C341F341E341F341E34F5
:100FB0001F341F341E341F341E341F34640080015C
:0C0FC000840A0406031900340406DF2F25
:101000000A128A158F2C0A128A15A12C0A128A1527
:101010009F2C0A128A15A02C0A128A15A22C0A12D9
:101020008A15032D0A128A15172D0A128A15B32C58
:101030000A128A15D72C0A128A153C2D0A128A1513
:10104000452D0A128A15332D0A128A154E2D0A12C1
:041050008A15572D79
:10106A00F701F201F20A770890230A128A15F801A9
:10107A00F201F20A780887220A128A1564000230FD
:10108A00F6004030F5002730F400F40B4A28F50B3F
:10109A004A28F60B4A285128F201780887220A12B0
:1010AA008A150B30F80A7802031C3D28F2017708EA
:1010BA0090230A128A150C30F70A770203180800DF
:1010CA003628A600FF30F2000630F301F4002C3077
:1010DA00F50143240A128A1526088400831300089E
:1010EA00AB0018302B0203180800260A84000008F7
:1010FA00B2003C30320203180800B30168188A288B
:10110A0087288A28CA270A128A155308A900291883
:10111A009028AC01B30AA91DA0282B08031DA028FA
:10112A003208031DA02833082C3E84000C30831398
:10113A008000B30ABE29291EDE282B08031DDE28DB
:10114A00193032020318DE2833082C3E8400831338
:10115A008001800AB30A33082C3E840002308000E2
:10116A000530B30A3202031CBE290A3032020318C0
:10117A00C32833082C3E840003309D280F303202E6
:10118A000318CC2833082C3E840004309D281430E0
:10119A0032020318D52833082C3E840005309D28D6
:1011AA00193032020318BE2933082C3E8400073056
:1011BA009D280C30F2002B0875260A128A15831214
:1011CA00AB000B302B02031CEC28AA01EF282B08DA
:1011DA00013EAA0005303202031807292B0BFA2810
:1011EA0033082C3E84001930FF2833082C3E840033
:1011FA002B080D3E83138000B30A33082C3E84006B
:10120A001A3057290A30320203181D2933082C3E96
:10121A008400033083138000B30A33082C3E840011
:10122A000A308000B30A33082C3E84002B08562962
:10123A000F3032020318262933082C3E840004306A
:10124A000F29143032020318342933082C3E840043
:10125A00063083138000B30AA918122952291930BB
:10126A00320203185929291D3F2933082C3E8400CC
:10127A0007300F2933082C3E840004308313800082
:10128A00B30A33082C3E840009308000B30A3308BD
:10129A002C3E84000B308000B30A33082C3E8400B5
:1012AA002A080D3E8000BE291E3032020318622928
:1012BA0033082C3E840003304329233032020318BA
:1012CA006B2933082C3E84000B30AA2928303202BD
:1012DA0003187B2933082C3E8400033083138000D3
:1012EA00B30A33082C3E84000A304A292D303202D0
:1012FA0003189B29291D8D2933082C3E84000730A9
:10130A0083138000B30A33082C3E84000930502925
:10131A0033082C3E8400043083138000B30A330858
:10132A002C3E84000A308000B30A66293230320229
:10133A000318AC29A91CA62933082C3E84000630C0
:10134A00852933082C3E840008308313502937300E
:10135A0032020318B52933082C3E8400043085294B
:10136A003C3032020318BE2933082C3E8400033075
:10137A008529B30133082C3E84008313000A03191C
:10138A002D2A33082C3E8400000800070007013E7E
:10139A0084000A128A1100270A128A15A700A801D6
:1013AA000B3028020318142A640083120313031053
:1013BA00280D783E84000A128A1100270A128A151B
:1013CA00A0000A128A1100270A128A15A1003308FE
:1013DA002C3E84008313000800070007023E8400A5
:1013EA000A128A1100270A128A15A2000A128A1101
:1013FA0000270A128A15A30020082205A400210842
:10140A002305A500240403190C2A01300D2A0030F3
:10141A00F200280887220A128A15A80AD529F20199
:10142A00F20A270890230A128A15640008308312E8
:10143A000313A100A730A000A00B212AA10B212A87
:10144A00262AF20183120313270890230A128A1507
:10145A000630B30A3302031CBF29FF30F201872288
:10146A000A128A15682A0130F201F20A87220A1240
:10147A008A150A30F201F20A87220A128A150930FD
:10148A00F201F20A87220A128A150030F201F20AE0
:10149A0087220A128A150B30F201F20A90230A12E5
:1014AA008A156400083083120313A100A730A00034
:1014BA00A00B5D2AA10B5D2A622A0B30F201902350
:1014CA000A128A15842A0530F200320875260A1291
:1014DA008A158312A000A1012108003A0319762A6D
:1014EA00842A2008013A03194A2A033A0319442A8A
:1014FA00013A03193E2A073A0319382A842AFF3087
:10150A00F201872AF300692B721C8F2A83120313B4
:10151A00051408008312031305100800721C992A87
:10152A00831203138514080083120313851008001D
:10153A00721CA32A831203130515080083120313CE
:10154A0005110800721CAD2A8312031385150800C1
:10155A008312031385110800721CB72A831203131E
:10156A00051608008312031305120800721CC12A0B
:10157A0083120313851608008312031385120800C9
:10158A00721CCB2A83120313091408008312031353
:10159A0009100800721CD52A831203138914080043
:1015AA008312031389100800721CDF2A83120313A3
:1015BA00091508008312031309110800721CE92A8D
:1015CA008312031307140800831203130710080079
:1015DA00721CF32A8312031387140800831203135D
:1015EA0087100800721CFD2A831203130514002BAE
:1015FA00831203130510721C062B8312031385141E
:10160A00092B831203138510721C0F2B83120313E9
:10161A000515122B831203130511721C182B831242
:10162A00031385151B2B831203138511721C212B9F
:10163A00831203130516242B831203130512721C3B
:10164A002A2B8312031385162D2B8312031385125B
:10165A00721C332B831203130914362B83120313C0
:10166A000910721C3C2B8312031389143F2B83121B
:10167A0003138910721C452B831203130915482B77
:10168A00831203130911721C4E2B831203130714BE
:10169A00512B831203130710721C572B8312031347
:1016AA008714080083120313871008008312031398
:1016BA00051085100511851105128512091089106A
:1016CA0009110710871008007308003A0319892ABC
:1016DA00013A0319932A033A03199D2A013A031975
:1016EA00A72A073A0319B12A013A0319BB2A033A6E
:1016FA000319C52A013A0319CF2A0F3A0319D92A1D
:10170A00013A0319E32A033A0319ED2AF53A0319B0
:10171A00F72A5B2B0800F300192C721C982B8312F2
:10172A000313861408008312031386100800721C20
:10173A00A22B831203130614080083120313061044
:10174A000800721CAC2B831203138817080083123B
:10175A00031388130800721CB62B8312031308178D
:10176A0008008312031308130800721CC02B83128B
:10177A000313881608008312031388120800721CC8
:10178A00CA2B8312031308160800831203130812C4
:10179A000800721CD42B83120313871708008312C4
:1017AA00031387130800721CDE2B83120313071717
:1017BA0008008312031307130800721CE82B831214
:1017CA000313871608008312031387120800721C7A
:1017DA00F22B83120313071608008312031307124E
:1017EA000800721CFC2B831203138815080083124D
:1017FA00031388110800721C062C831203130815A0
:10180A0008008312031308110800831203138610B9
:10181A0006108813081388120812871307138712F1
:10182A0007128811081108007308003A0319922B4D
:10183A00013A03199C2B033A0319A62B013A0319FF
:10184A00B02B073A0319BA2B013A0319C42B033AEE
:10185A000319CE2B013A0319D82B0F3A0319E22B9D
:10186A00013A0319EC2B033A0319F62B013A03192F
:10187A00002CF43A03190A2C0A2C0800F700F60087
:10188A000130F4020030031CF503F502740F502CEA
:10189A00750A031908007608840072088313800009
:1018AA00F60A452CD2250A128A150230F700F801E9
:1018BA0021260A128A150630F7000030F80121267F
:1018CA000A128A150230F7000630F8000A30F200D0
:1018DA0064085A260A128A1521260A128A1506301F
:1018EA00F700F8000A30F200640875260A128A1511
:1018FA00212EF900FF3E031C080084000E3004026A
:10190A000318080008308A000310040D0407003E7B
:10191A008200080095250A128A15C2270A128A151A
:10192A00AA270A128A15B2270A128A15A9260A12A2
:10193A008A15912EEE2FF72FD22D95250A128A1588
:10194A000930F2000130F301F30A60250A128A1500
:10195A0083120313501C08000030212F95250A1208
:10196A008A150930F2000130F301F30A60250A12E0
:10197A008A150930F2000230F301F30A60250A12CF
:10198A008A150930F2000330F301F30A60250A12BE
:10199A008A150930F2000430F301F30A60250A12AD
:1019AA008A15AA2F95250A128A150930F2000130E4
:1019BA00F301F30A60250A128A150930F20002308F
:1019CA00F301F30A60250A128A150930F20003307E
:1019DA00F301F30A60250A128A150930F20004306D
:1019EA00F301F30A60250A128A150930F20005305C
:1019FA00F301F30A60250A128A15B22F95250A12F5
:101A0A008A150930F2000130F301F30A60250A123F
:101A1A008A150930F2000230F301F30A60250A122E
:101A2A008A15A92E95250A128A150930F200013065
:101A3A00F301F30A60250A128A150930F20002300E
:101A4A00F301F30A60250A128A150930F2000330FD
:101A5A00F301F30A60250A128A15912E9E250A12AD
:101A6A008A150230F2000030F301F30A602DD22504
:101A7A000A128A150230F2000030F301F30A602DCF
:101A8A00D2250A128A150830F2000030F301F30A4F
:101A9A00602D9E250A128A150830F2000030F301E3
:101AAA00F30A602D57240A128A150830F200003012
:101ABA00F301F30A602DF6007308031003197D2D54
:101ACA00760D783E84000A128A1100270A128A15B6
:101ADA00F4000A128A110027F5000310720DA13EC4
:101AEA008400740883138004840A7508800408003B
:101AFA00760D983E84000A128A1100270A128A1566
:101B0A00F4000A128A110027F5000310720DA13E93
:101B1A008400740883138005840A75088005080008
:101B2A00A3270A128A150930F2000030F301F30ADA
:101B3A00602DD2250A128A150230F7000A30F80100
:101B4A00F2008312031362085A260A128A15212602
:101B5A000A128A150630F7000A30F801F200620804
:101B6A0075260A128A1521260A128A150230F700EA
:101B7A000630F8000A30F20063085A260A128A155B
:101B8A0021260A128A150630F700F8000A30F200F8
:101B9A00630875260A128A15212EA3270A128A15A6
:101BAA000A30F2000030F301F30A60250A128A159E
:101BBA000230F7000A30F801F200831603134C08CA
:101BCA005A260A128A1521260A128A150630F700A1
:101BDA000A30F801F20083164C0875260A128A1593
:101BEA0021260A128A150230F7000630F8000A3058
:101BFA00F20083164D085A260A128A1521260A125D
:101C0A008A150630F700F8000A30F20083164D08EC
:101C1A0075260A128A1521260A128A150430F2003C
:101C2A000A30F301F30A60250A128A150630F20017
:101C3A000A30F301F30A602D83120313A2000F3056
:101C4A00A300A401A5010310220DB83E84000A12C4
:101C5A008A1100270A128A15A0000A128A1100277F
:101C6A000A128A15A100230A3D2E0310A10CA00C0A
:101C7A00FF3E031D3A2E2008F3000130F305240825
:101C8A007807F2002508770760250A128A15831259
:101C9A0003130330A303A50A2502031C292E0530CA
:101CAA00A40A240203180800272EF300F50172087B
:101CBA000319732EF401F40AF21B662E0310F20DB7
:101CCA00602E0310F50D72087302031C702E720841
:101CDA00F30275140310F20CF40B662E7508080053
:101CEA00F4000830F500F6017408F3000730031019
:101CFA00F30CFF3E0310031D7D2E760D7304F600D0
:101D0A000310F40D72087602031C8D2E7208F60277
:101D1A00F50B792E7608080083120313501D9F2EA7
:101D2A00073021270A128A15093021270A128A1533
:101D3A000A30212F0730C9260A128A150930C92606
:101D4A000A128A150A30C92E83120313D01CBB2E1D
:101D5A000830C9260A128A15063021270A128A155E
:101D6A00093021270A128A150A30212F0630C9267E
:101D7A000A128A150930C9260A128A150A30C92692
:101D8A000A128A150830212FF500F6010310760D84
:101D9A00783E84000A128A1100270A128A15A000C6
:101DAA000A128A1100270A128A15A1000330F200CA
:101DBA0075087927023E84000A128A1100270A123E
:101DCA008A15A2000A128A1100270A128A15A3008C
:101DDA0020082205A40021082305A50024040319CC
:101DEA001B2F0310760D983E84000A128A110027D1
:101DFA000A128A15A0000A128A1100270A128A15E5
:101E0A00A1000330F20075087927013E84000A1206
:101E1A008A1100270A128A15A2002207A13E84000D
:101E2A00200883138005840A210880050B30F60AEE
:101E3A00760203180800CB2EF500F6010310760D82
:101E4A00783E84000A128A1100270A128A15A00015
:101E5A000A128A1100270A128A15A1000330F20019
:101E6A0075087927023E84000A128A1100270A128D
:101E7A008A15A2000A128A1100270A128A15A300DB
:101E8A0020082205A40021082305A500240403191B
:101E9A00732F0310760D783E84000A128A110027E8
:101EAA000A128A15A0000A128A1100270A128A1534
:101EBA00A1000330F20075087927013E84000A1256
:101ECA008A1100270A128A15A2002207A13E84005D
:101EDA00200883138004840A210880040B30F60A40
:101EEA00760203180800232FF400F301720874180D
:101EFA00F3070310F20D7208F418F3070310F20D3A
:101F0A0072087419F3070310F20D7208F419F30733
:101F1A000310F20D7208741AF3070310F20D720817
:101F2A00F41AF3070310F20D7208741BF307031077
:101F3A00F20D7208F41BF307730808001830F20157
:101F4A00F301F400A130F501432C83120313D01DD1
:101F5A00B02F0C30212F0C30C92E83120313501EC0
:101F6A00BC2F013021270A128A150230212F013095
:101F7A00C9260A128A150230C92E83120313501C6D
:101F8A00C82F0030212F0030C92E0030D9270A125D
:101F9A008A150313D3006039031DD52FD31BD72FFE
:101FAA008130D30068140800F20064008316031716
:101FBA008C18DA2F720883128D003F3083168C0535
:101FCA000C1403100C1803140318013083120C08A4
:101FDA000800A3270A128A150830F2000030F3011C
:101FEA00F30A602DA3270A128A150730F20000307F
:101FFA00F301F30A602D0A168A11212E0A168A1194
:10200A001E2E0A168A11BC2D0A168A11E02D0A16EE
:10201A008A11EC2D0A168A11C82D0A168A11D42D96
:10202A000A168A11102E0A168A11172E0A168A11F2
:0E203A00F82D0A168A11002E0A168A11082E99
:1028DA000B1D732C0B1183120313D20A0B1C8C2CA5
:1028EA008312031306080B10061D7D2C7A147E2C06
:1028FA007A1083120313061E842CFA14852CFA10FC
:10290A0083120313861D8B2C7A158C2C7A1171086D
:10291A008A00700E8300FE0E7E0E0900F400840009
:10292A001D3083130006031DA72C740A840002308D
:10293A000006031DA72C7408023E84000008033910
:10294A0003190134740884000008F200740A840030
:10295A000008CC3E84000A128A1100270A168A113E
:10296A00F30072087302031C003401348312A001BD
:10297A00A101A201A301721CD72C76088312A00719
:10298A00770803110318013E031DA10778080311F4
:10299A000318013E031DA207790803110318013E1B
:1029AA00031DA3070310F60DF70DF80DF90D03101B
:1029BA00F50CF40CF30CF20C75087404730472042D
:1029CA00031DC02C83122308F5002208F4002108F5
:1029DA00F3002008F20008000317051685110515F3
:1029EA00851405108316031381179501811281112D
:1029FA000115811401140F178F168F168B178B165A
:102A0A00031788018901831203138501860187014F
:102A1A008801890183160510851005118511051293
:102A2A0085120910891009110710871086100610DF
:102A3A0088130813881208128713071387120712BC
:102A4A008811081187111615961516168B15080088
:102A5A0083120313A001A1010310210D783E840003
:102A6A000A128A1100270A168A11F4000A128A1118
:102A7A0000270A168A11F5000310200DA13E8400D2
:102A8A0083130008F600840A0008F7007408760524
:102A9A00F80075087705F90078040319562D0130F6
:102AAA00572D0030F20021080A128A1587220A16C9
:102ABA008A110B30A10A2102031C322DF201F20AFB
:102ACA0020080A128A1590230A168A116400073010
:102ADA00F5006030F400F40B702DF50B702D752D98
:102AEA00FF30F2010A128A1590230A168A110C3055
:102AFA00A00A200203180800302D83120313A8002D
:102B0A005108A60052300310A60D2607A700280870
:102B1A00270784000A128A1100270A168A11510609
:102B2A000319292E5108A60052300310A60D2607B4
:102B3A00A7002808270784000A128A1100270A1604
:102B4A008A11F90051083A26831203135108A60084
:102B5A0052300310A60D2607A7002808270784006D
:102B6A000A128A110027D1000A128A157E2C013016
:102B7A005006A6000139A7005008FE392704D000E4
:102B8A000A128A15C22F08305006A6000839A70073
:102B9A005008F7392704D0000A128A15AA2F1030D4
:102BAA005006A6001039A7005008EF392704D000B4
:102BBA000A128A15B22F02305006A6000239A7005F
:102BCA005008FD392704D0000A128A15A92E0430AC
:102BDA005006A6000439A7005008FB392704D00084
:102BEA000A128A15912E2030E20A6206031DFF2D71
:102BFA00E201E20A672F0D30E30A6306031D072E7E
:102C0A00E301E30AC42F1E30E40A6406031D0F2EF3
:102C1A001030E400E32F83161830CC0A4C0603194F
:102C2A00CC01852F83163C30CD0A4D060319CD0100
:102C3A00A42F0A128A1535280A307A16F200F301EF
:102C4A00F30A0A128A15602D5108FD3E031C08007A
:102C5A0084000C3004020318080010308A000310A4
:102C6A00040D0407003E82000800A0007908031939
:102C7A00080005307902031808002008003A0319F1
:102C8A00502E013A0319772E033A0319832E013A7B
:102C9A000319A32EA62E6818592E542E592E0A123D
:102CAA008A15CA270A168A115308D0008316A0006B
:102CBA006230EE260A168A116230F2000330F300FF
:102CCA00DD30F401D3260A168A11CC30FE260A1604
:102CDA008A11CC30F2000330F300C930F401D32654
:102CEA007A12080050088316200603190800831276
:102CFA0050081E2750088316A0000800C930F200A9
:102D0A000330F300CC30F401A7260A168A117208A0
:102D1A0073040319942ECC300C270A168A11DD305D
:102D2A00F2000330F3006230F401A7260A168A1172
:102D3A0072087304031908006230542F7A1E0800BF
:102D4A00652F0800F7000130F3020030031CF4037A
:102D5A00F402730FB32E740A0319D02E720884007A
:102D6A0083130008F5007708840000087506031924
:102D7A00CD2E720884000008F50077088400000848
:102D8A00F60075087602F200F301031CF30308004B
:102D9A00F70AF20AA82EF201F3010800F8007208F5
:102DAA00F7007808F6000130F3020030031CF40340
:102DBA00F402730FE32E740A0319080077088400DB
:102DCA000008F5007608840075088000F70AF60AFC
:102DDA00D82EF20084008312650883138000720AD9
:102DEA008400660880007208023E8400670880003A
:102DFA000800F20084005E088000720A84005F08FE
:102E0A0080007208023E8400600880000800F20018
:102E1A0084008313000883120313DE00720A8400FD
:102E2A000008DF007208023E84000008E000FA157C
:102E3A000800F400F5009F30F505F51768182A2FE9
:102E4A000A128A15CA270A168A115308750603191F
:102E5A0008007508F2000030392700300A128A1576
:102E6A00D9270313D3000800F300831603178C181D
:102E7A003A2F730883128D0072088C003F30831634
:102E8A008C0503108B1B03148B130C1555308D0006
:102E9A00AA308D008C140C1103188B170800F2004D
:102EAA0084008313000883120313E500720A840066
:102EBA000008E6007208023E84000008E7000800E5
:102ECA00FA1108000230F7000A30F801F20062082D
:102EDA000A128A155A260A168A110A128A152126F0
:102EEA000A168A110630F7000A30F801F200620861
:102EFA000A128A1575260A168A110A128A15212EAD
:102F0A000230F7000A30F801F2004C080A128A155A
:102F1A005A260A168A110A128A1521260A168A11AF
:102F2A000630F7000A30F801F20083164C080A123C
:102F3A008A1575260A168A110A128A15212E023056
:102F4A00F7000630F8000A30F2004D080A128A1516
:102F5A005A260A168A110A128A1521260A168A116F
:102F6A000630F700F8000A30F20083164D080A12FC
:102F7A008A1575260A168A110A128A15212E023016
:102F8A00F7000630F8000A30F20063080A128A15C0
:102F9A005A260A168A110A128A1521260A168A112F
:102FAA000630F700F8000A30F20063080A128A15A0
:102FBA0075260A168A110A128A15212E0230F7007E
:102FCA000630F8000A30F20064080A128A155A26F6
:102FDA000A168A110A128A1521260A168A11063039
:102FEA00F700F8000A30F20064080A128A157526FA
:062FFA000A128A15212EC7
:04400E00C2EBFFFE04
:00000001FF
