:060000000A128A110C280F
:10000800FE00030EF0000A08F1000A168A15B22F46
:100018000A128A110F285030FA01E801831384006C
:1000280060300A168A155D270A128A11A0308400EA
:10003800D6300A168A155D270A128A11903083175E
:100048008400ED300A168A155D270A128A11E430F9
:100058008313FD001F30FE008430FF00D63084007B
:100068000A168A15A5270A128A116830FD00103071
:10007800FE00F430FF00603084000A168A15A527B8
:1000880083010A168A11DB2BC700C8014708031928
:100098000F2906304202D73003194102031CFC28FD
:1000A800073042029E30031941020318FC283B30F6
:1000B800FA175406031D6D28D330F200BD3087228D
:1000C8000A128A11E130F200BD306C210A128A113D
:1000D800692976305406031DFA284930F200C530E4
:1000E80087220A128A114C30F200C5306C210A129C
:1000F8008A11831603135308831203134906031D39
:10010800CC284A08FF3EC500FF3003180030C6005F
:100118008316031354088312031345064604031D6C
:10012800CC28831603135508831203134B06031DAB
:10013800CC28831603136108831203134C06031D8E
:10014800CC28831603136208831203134D06031D7C
:10015800CC28831603136308831203134E06031D6A
:10016800CC284308840049088000840A4A08800093
:10017800840A4B088000440884004C088000840AE4
:100188004D088000840A4E088000C801C80A692901
:10019800C530F2000830F300BD30F401DB240A1248
:1001A8008A113B30D400490883160313D300831205
:1001B80003134A0883160313D400831203134B084E
:1001C80083160313D500831203134C0883160313F5
:1001D800E100831203134D0883160313E200831210
:1001E80003134E0883160313E3006929D401692910
:1001F80002304202EE3003194102031C0A2903307F
:100208004202B73003194102031C69290230D401A4
:10021800FA13C80069293B305406031D1529FA1F33
:10022800192976305406031D1C29D401FA132429F0
:100238003B305406031D24290830D3000730E10061
:100248005408031D2D290730D301E1008316031339
:10025800BD010030831242023330031941020030DD
:10026800031C4A29420296300319410203184929FE
:10027800D40A6108031D68290730E100D30A53082E
:10028800BD3E840083138001692900304202973003
:1002980003194102031C0A2900304202FA300319EB
:1002A800410203180A29D40A5308BD3E84000130CC
:1002B800C500610A61290310C50DFF3E031D5F29B2
:1002C8004508831380043D29E10383124808080088
:1002D800C000720884008001720A840080017208DC
:1002E800023E840080014008043E8400801D7E296F
:1002F80001307F290030F3007208840073088007FA
:100308004008043E840000198B29A0018D29023081
:10031800A000A10172088400200880074008043E5C
:10032800840080189929A2019B290430A200A30106
:1003380072088400220880074008043E84000018E0
:10034800A729A401A9290830A400A50172088400DE
:10035800240880074008053E8400801BB529A601B3
:10036800B7290A30A600A70172088400260880076A
:100378004008053E8400001BC329A801C529143084
:10038800A800A90172088400280880074008053ED3
:100398008400001DD1290130D2290030F300720AEF
:1003A8008400730880074008053E84008018DE2911
:1003B800AA01E0290230AA00AB01720A84002A08C7
:1003C80080074008053E84000018EC29AC01EE299E
:1003D8000430AC00AD01720A84002C088007400884
:1003E800063E8400801BFA29AE01FC290830AE00C5
:1003F800AF01720A84002E0880074008063E840078
:10040800001B082AB0010A2A0A30B000B101720A9A
:100418008400300880074008063E8400801E162AA3
:100428000130172A0030F3007208023E8400730876
:1004380080074008063E8400001A242AB201262AB2
:100448000230B200B3017208023E8400320880070D
:100458004008063E84008019332AB401352A043046
:10046800B400B5017208023E8400340880074008D1
:10047800063E84000019422AB601442A0830B60014
:10048800B7017208023E8400360880074008063E1D
:1004980084008018512AB801532A0A30B800B901DB
:1004A8007208023E8400380880074008063E84002F
:1004B8000018602ABA01622A1430BA00BB01720817
:1004C800023E84003A0880074008073E8400801BEB
:1004D8006F2ABC01712A2830BC00BD017208023E97
:1004E80084003C0880074008073E8400001B7E2AE1
:1004F800BE01802A5030BE00BF017208023E84004F
:100508003E0880070800B600720884008313800143
:10051800720A840080017208023E84008001360855
:10052800023E8400001D9A2A01309B2A0030F30005
:10053800720A8400730880073608023E8400801817
:10054800A72AA001A92A0230A000A101720A8400EA
:10055800200880073608023E84000018B52AA20148
:10056800B72A0430A200A301720A84002208800777
:100578003608033E8400801BC32AA401C52A08301C
:10058800A400A501720A8400240880073608033EE7
:100598008400001BD12AA601D32A0A30A600A7018D
:1005A800720A8400260880073608033E8400801AF1
:1005B800DF2AA801E12A1430A800A901720A8400E0
:1005C800280880073608033E8400001AED2AAA018D
:1005D800EF2A2830AA00AB01720A84002A08800793
:1005E8003608033E8400001DFB2A0130FC2A003037
:1005F800F30072088400730880073608033E8400FD
:100608008018082BAC010A2B0230AC00AD0172082F
:1006180084002C0880073608033E84000018162B37
:10062800AE01182B0430AE00AF01720884002E080A
:1006380080073608043E8400801B242BB001262B3B
:100648000830B000B101720884003008800736080D
:10065800043E8400001B322BB201342B0A30B20056
:10066800B30172088400320880073608043E84000B
:10067800801A402BB401422B1430B400B501720823
:100688008400340880070800BC005108BA005230C2
:100698000310BA0D3A07BB003C083B0784000A1652
:1006A8008A1100200A128A11510603191E2C5108BA
:1006B800BA0052300310BA0D3A07BB003C083B079A
:1006C80084000A168A1100200A128A11F9005108BA
:1006D8002F24831203135108BA0052300310BA0DA5
:1006E8003A07BB003C083B0784000A168A11002021
:1006F8000A128A11D1000A128A15BD29831603131A
:100708000830DD0A5D020318DD011F308312031370
:10071800DC05831603135D0883120313BA00043043
:100728000310BA0DFF3E0310031D952B3A0DDC0490
:100738000A128A15D02F01305C06BA000139BB00B5
:100748005C08FE393B04DC000A128A15F42F0830D5
:100758005C06BA000839BB005C08F7393B04DC00CA
:10076800612E10305C06BA001039BB005C08EF3906
:100778003B04DC00692E02305C06BA000239BB007B
:100788005C08FD393B04DC001D2D04305C06BA0012
:100798000439BB005C08FB393B04DC00052D203024
:1007A800E20A6206031DDA2BE201E20ACC2E0D30C2
:1007B800E30A6306031DE22BE301E30A2B2F1E3035
:1007C800E40A6406031DEA2B1030E4004A2F83165E
:1007D80003131830D00A50060319D001EA2E8316E5
:1007E80003133C30D10A51060319D1010A2F692F8E
:1007F800E81C002CE810012CE8140A30F200003044
:10080800E8180130F3000A300A128A15DC2A3C087D
:100818000A168A11D5210A128A11031C080005300C
:10082800F90051082F24053083120313D1000A124E
:100838008A15BD295108FD3E031C080084001330A9
:1008480004020318080018308A000310040D040776
:10085800003E82000800A10079080319080006304C
:100868007902031808002108003A0319452C013AB7
:1008780003197C2C033A03198B2C013A0319AB2C6E
:10088800AE2C7A1B4C2C492C4C2C17260A128A1198
:10089800831203136008DC0083160313A30083127A
:1008A8000313A00005300310A00CFF3E031D572CB6
:1008B800200883160313DD000730DD0562303E266D
:1008C8000A128A116230F2000330F300DE30F401BC
:1008D800DB240A128A11D030F6240A128A11D03089
:1008E800F2000330F300CD30F401DB24E8100800F7
:1008F8005C088316031323060319080083120313E5
:100908005C0879265C0883160313A3000800CD3021
:10091800F2000330F300D030F401AF240A128A1138
:100928007208730403199C2CD0304F260A128A11BE
:10093800DE30F2000330F3006230F401AF240A1213
:100948008A1172087304031908006230B92EE81C72
:100958000800CA2E0800F7000130F3020030031C1B
:10096800F403F402730FBB2C740A0319D82C720811
:10097800840083130008F5007708840000087506D2
:100988000319D52C720884000008F5007708840044
:100998000008F60075087602F200F301031CF30361
:1009A8000800F70AF20AB02CF201F3010800F80077
:1009B8007208F7007808F6000130F3020030031CD3
:1009C800F403F402730FEB2C740A03190800770878
:1009D80084000008F5007608840075088000F70A8E
:1009E800F60AE02CF20084005D0883138000720A86
:1009F80084005E0880007208023E84005F08800060
:100A08000800831203135C1D132D073095250A1265
:100A18008A11093095250A128A110A30952D073056
:100A28003D250A128A1109303D250A128A110A3019
:100A38003D2D83120313DC1C2F2D08303D250A128F
:100A48008A11063095250A128A11093095250A124D
:100A58008A110A30952D06303D250A128A1109306F
:100A68003D250A128A110A303D250A128A110830DA
:100A7800952DF500F6010310760D7E3E84000A16CA
:100A88008A1100200A128A11A0000A168A11002071
:100A98000A128A11A1000330F2007508ED25023E02
:100AA80084000A168A1100200A128A11A2000A1666
:100AB8008A1100200A128A11A30020082205A40026
:100AC80021082305A500240403198F2D0310760D92
:100AD8009E3E84000A168A1100200A128A11A0007C
:100AE8000A168A1100200A128A11A1000330F200A6
:100AF8007508ED25013E84000A168A1100200A12A5
:100B08008A11A2002207A53E8400200883138005CD
:100B1800840A210880050B30F60A760203180800BB
:100B28003F2DF500F6010310760D7E3E84000A166F
:100B38008A1100200A128A11A0000A168A110020C0
:100B48000A128A11A1000330F2007508ED25023E51
:100B580084000A168A1100200A128A11A2000A16B5
:100B68008A1100200A128A11A30020082205A40075
:100B780021082305A50024040319E72D0310760D89
:100B88007E3E84000A168A1100200A128A11A000EB
:100B98000A168A1100200A128A11A1000330F200F5
:100BA8007508ED25013E84000A168A1100200A12F4
:100BB8008A11A2002207A53E84002008831380041E
:100BC800840A210880040B30F60A7602031808000C
:100BD800972DF400F30172087418F3070310F20D4F
:100BE8007208F418F3070310F20D72087419F3076A
:100BF8000310F20D7208F419F3070310F20D7208CE
:100C0800741AF3070310F20D7208F41AF3070310AD
:100C1800F20D7208741BF3070310F20D7208F41B2F
:100C2800F30773080800013026260A128A11F30018
:100C3800A53A031D242E0030262683120313E00054
:100C48007A170800F2006400831603178C18272E01
:100C58007208831203178D003F30831603178C0523
:100C68000C1403100C180314031801308312031713
:100C78000C080800F200840083120313650883132C
:100C88008000720A8400660880007208023E8400B0
:100C9800670880000800F2008400831300088312AC
:100CA8000313DD00720A84000008DE007208023EA9
:100CB80084000008DF00FA15080083120313DC1D06
:100CC800672E0C30952D0C303D2D831203135C1EBE
:100CD800732E013095250A128A110230952D0130A4
:100CE8003D250A128A1102303D2DF4007A1B7F2E11
:100CF80017260A128A1103136008740603190800DC
:100D08007408F200003096260A128A11A530F20003
:100D1800013096260A128A11003026268312031300
:100D2800E0000800F300831603178C18972E730849
:100D3800831203178D0072088C003F308316031747
:100D48008C058312031303108B1B03148B13831658
:100D580003170C1555308D00AA308D008C140C111A
:100D68008312031303188B170800F20084008313FF
:100D7800000883120313E500720A84000008E600E5
:100D88007208023E84000008E7000800FA11080013
:100D98000230F7000A30F801F20062080A128A15D8
:100DA8002B230A128A110A128A15CC200A128A11D8
:100DB8000630F7000A30F801F20062080A128A15B4
:100DC800C4260A128A110A128A15CC280230F700A2
:100DD8000A30F801F20050080A128A152B230A1269
:100DE8008A110A128A15CC200A128A110630F700D5
:100DF8000A30F801F2008316031350080A128A1504
:100E0800C4260A128A110A128A15CC280230F70061
:100E18000630F8000A30F20051080A128A152B230E
:100E28000A128A110A128A15CC200A128A1106306F
:100E3800F700F8000A30F2008316031351080A126B
:100E48008A15C4260A128A110A128A15CC28023079
:100E5800F7000630F8000A30F20063080A128A1513
:100E68002B230A128A110A128A15CC200A128A1117
:100E78000630F700F8000A30F20063080A128A15F3
:100E8800C4260A128A110A128A15CC280230F700E1
:100E98000630F8000A30F20064080A128A152B237B
:100EA8000A128A110A128A15CC200A128A110630EF
:100EB800F700F8000A30F20064080A128A15C426FE
:100EC8000A128A110A128A15CC28F801F201F20ACC
:100ED800F30178080A128A150A260A128A11F901FA
:100EE800F201F20A79080A128A155F250A128A1194
:100EF8000230F7004030F6002730F500F50B822F5E
:100F0800F60B822FF70B822F892F6400F2017908E4
:100F18000A128A155F250A128A110B30F90A79021A
:100F2800031C742FF201F30178080A128A150A26A5
:100F38000A128A110C30F80A7802031808006A2F7E
:100F480083120317051685110515851405108316D8
:100F58000313811795018112811101158114011460
:100F68000F178F168F168B178B168316031788018A
:100F7800890183120313850186018701880189018C
:100F880083160313051085100511851105128512A6
:100F98000910891009110710871086100610881388
:100FA800081388120812871307138712071288116B
:100FB800081187111615961516168B1508000A16AE
:100FC8008A1175290A168A117C290A168A11842918
:100FD8000A168A118F290A168A119A290A168A115D
:0E0FE800A4290A168A11AF290A168A11BA29FD
:101006007A200A128A150230F700F801CC200A125B
:101016008A150630F7000030F801CC200A128A152E
:101026000230F7000630F8000A30F20064082B237D
:101036000A128A15CC200A128A150630F700F80023
:101046000A30F2006408C4260A128A15CC200A1255
:101056008A150430F2000A30F301DC220A128A15DE
:101066000630F2000A30F301DC2A7A200A128A15C9
:101076000230F7000A30F801F20083120313620807
:101086002B230A128A15CC200A128A150630F7007D
:101096000A30F801F2006208C4260A128A15CC202A
:1010A6000A128A150230F7000630F8000A30F200FC
:1010B60063082B230A128A15CC200A128A150630D9
:1010C600F700F8000A30F2006308C4260A128A15EF
:1010D600CC200A128A150430F2000A30F301DC2211
:1010E6000A128A150630F2000A30F301DC2A382784
:1010F6000A128A150A30F2000030F301F30ADC22E4
:101106000A128A150230F7000A30F801F200831637
:10111600031350082B230A128A15CC200A128A15AB
:101126000630F7000A30F801F20083160313500860
:10113600C4260A128A15CC200A128A150230F70034
:101146000630F8000A30F2008316031351082B23E9
:101156000A128A15CC200A128A150630F700F80002
:101166000A30F200831603135108C4260A128A15A0
:10117600CC200A128A150430F2000A30F301F30A71
:10118600DC220A128A150630F2000A30F301F30A4D
:10119600DC2A83120313A2000F30A300A401A501C9
:1011A6000310220DBE3E84000A168A1100200A1280
:1011B6008A15A0000A168A1100200A128A15A100B3
:1011C600230AE8280310A10CA00CFF3E031DE52806
:1011D6002008F3000130F30524087807F2002508FB
:1011E6007707DC220A128A15831203130330A3033E
:1011F600A50A2502031CD4280530A40A24020318D4
:101206000800D22830300A128A11F6240A128A15EA
:101216003008F2003C30F301F400F5017E270A1293
:101226008A157208AC007308AD003108F2003C3034
:10123600F301F400F5017E2772082C07AE0073084F
:101246000318730A2D07AF0032082E07F800003086
:10125600031801302F07F9000A168A1565270A12A6
:101266008A1538270A128A15831603171008F039CB
:10127600013890000F39503890001108F0390238C3
:1012860091000F39503891001208F0390338920056
:101296000F39503892001308F039043893000F398B
:1012A600503893000330EB01EA000230EC00100ED8
:1012B6000F39F200F301F30A10080F39DC220A1283
:1012C6008A1583160317110E0F39F200F301F30A7C
:1012D60011080F39DC220A128A1583160317120E1B
:1012E6000F39F200F301F30A12080F39DC220A1251
:1012F6008A1583160317130E0F39F200F301F30A4A
:1013060013080F39DC220A128A150B3083120313D5
:10131600A600A70197270A128A152508A9002408FE
:10132600A80041270A128A1550082606F039260613
:10133600D0000B30A600A70197270A128A152508A8
:10134600A9002408A80041270A128A152608AC001D
:10135600AC0E50082C060F392C06D000500E0F3953
:10136600F200F301F30A50080F39DC22831203134B
:1013760068100800B300FF3E031C0800840010300C
:1013860004020318080018308A000310040D04072D
:10139600393E8200080011230A128A15D0270A1244
:1013A6008A15F4270A128A1161260A128A150A1268
:1013B6008A1169260A128A150A128A111D250A122D
:1013C6008A150A128A11052D0A168A156E2F0A1613
:1013D6008A15792F7A28052911230A128A15D0270A
:1013E6000A128A150930F2000130F301F30ADC2AE9
:1013F60011230A128A150930F2000130F301F30AAB
:10140600DC220A128A150930F2000230F301F30ACF
:10141600DC220A128A15F42F11230A128A150930C2
:10142600F2000130F301F30ADC220A128A150930B0
:10143600F2000230F301F30ADC220A128A1509309F
:10144600F2000330F301F30ADC220A128A1509308E
:10145600F2000430F301F30ADC220A128A1509307D
:10146600F2000530F301F30ADC220A128A11612E1A
:1014760011230A128A150930F2000130F301F30A2A
:10148600DC220A128A150930F2000230F301F30A4F
:10149600DC220A128A150930F2000330F301F30A3E
:1014A600DC220A128A150930F2000430F301F30A2D
:1014B600DC220A128A150930F2000530F301F30A1C
:1014C600DC220A128A150930F2000630F301F30A0B
:1014D600DC220A128A11692E11230A128A15093092
:1014E600F2000130F301F30ADC220A128A150930F0
:1014F600F2000230F301F30ADC220A128A150930DF
:10150600F2000330F301F30ADC220A128A111D2DC0
:1015160011230A128A150930F2000130F301F30A89
:10152600DC220A128A150930F2000230F301F30AAE
:10153600DC220A128A150930F2000330F301F30A9D
:10154600DC220A128A150930F2000430F301F30A8C
:10155600DC220A128A11052D38200A128A15023059
:10156600F2000030F301F30ADC2A7A200A128A1507
:101576000230F2000030F301F30ADC2A7A200A1264
:101586008A150830F2000030F301F30ADC2A38200D
:101596000A128A150830F2000030F301F30ADC2A39
:1015A60003200A128A150830F2000030F301F30A0C
:1015B600DC2AF600730803100319F92A760D7E3E1D
:1015C60084000A168A1100200A128A15F4000A16E7
:1015D6008A110020F5000310720DA53E84007408E0
:1015E60083138004840A750880040800760D9E3EE5
:1015F60084000A168A1100200A128A15F4000A16B7
:101606008A110020F5000310720DA53E84007408AF
:1016160083138005840A75088005080038270A1296
:101626008A150930F2000030F301F30ADC220A12AF
:101636008A15F8010B30F200F301F30A7808DC2270
:101646000A128A150B30F80A7802031808001D2BB7
:10165600F300F50172080319442BF401F40AF21B96
:10166600372B0310F20D312B0310F50D72087302A0
:10167600031C412B7208F30275140310F20CF40BD1
:10168600372B75080800A600840083130008AC00F9
:1016960018302C0203180800260A84000008B3003C
:1016A6003C303302031808007A1B602B5B2B602B3F
:1016B6000A128A1117260A128A1583120313600862
:1016C600AA00FF30B4002A1C6E2BB40A34082D3E43
:1016D600840083138001AA1D7D2B2C08031D7D2BFE
:1016E6003308031D7D2BB40A34082D3E84000C30CC
:1016F6008313A32C2A1EBF2B2C08031DBF2B1930C6
:1017060033020318BF2BB40A34082D3E840083131A
:101716008001800AB40A34082D3E8400023080001D
:1017260005303302031CA42C0A3033020318A12B04
:10173600B40A34082D3E84000330A32C0F30330244
:101746000318AB2BB40A34082D3E84000430A32CB6
:10175600143033020318B52BB40A34082D3E840026
:101766000530A32C19303302B40A0318A52C34080B
:101776002D3E84000730A32C0C30F2002C08C42622
:101786000A128A158312AC000B302C02031CCD2BD7
:10179600AB01D02B2C08013EAB00053033020318F9
:1017A600EA2B2C0BDC2BB40A34082D3E84001930AE
:1017B600E22BB40A34082D3E84002C080D3E831318
:1017C6008000B40A34082D3E84001A30A32C0A3057
:1017D60033020318F42BB40A34082D3E8400033078
:1017E600172C0F3033020318FE2BB40A34082D3E93
:1017F60084000430172C1430330203180C2CB40A5E
:1018060034082D3E8400063083138000AA18192C54
:101816009D2C1930330203182B2C2A1D252CB40AB3
:1018260034082D3E8400073083138000B40A340840
:101836002D3E84000A308000B40A34082D3E840010
:101846002C08A22CB40A34082D3E84000430342C13
:101856001E30330203183C2CB40A34082D3E840093
:10186600033083138000B40A34082D3E8400093007
:10187600682C233033020318462CB40A34082D3E54
:1018860084000B30802C283033020318502CB40A05
:1018960034082D3E84000330612C2D3033020318AA
:1018A6006F2C2A1D5C2CB40A34082D3E84000730A8
:1018B600952CB40A34082D3E84000430831380002E
:1018C600B40A34082D3E84000A308000B40A340875
:1018D6002D3E84000B309C2C323033020318822CB0
:1018E600AA1C7B2CB40A34082D3E84000630952CA5
:1018F600B40A34082D3E8400083083139C2C3730FC
:10190600330203188C2CB40A34082D3E84000430AC
:10191600952C3C303302B40A0318A52C34082D3E0E
:101926008400033083138000B40A34082D3E8400FB
:1019360009308000B40A34082D3E84002B080D3E81
:101946008000B40AA8013408280203180E2D2808BE
:101956002D3E84008313000800070007013E840023
:101966000A168A1100200A128A15A700A901031077
:10197600290D7E3E84000A168A1100200A128A1555
:10198600A0000A168A1100200A128A15A10028084A
:101996002D3E84008313000800070007023E8400E2
:1019A6000A168A1100200A128A15A2000A168A113E
:1019B60000200A128A15A30020082205A400210887
:1019C6002305A50024040319EA2C0130EB2C003072
:1019D600F20029085F250A128A150B30A90A290286
:1019E600031CBB2CF201F20AF30127080A260A1689
:1019F6008A1174210A128A15F201F3018312031364
:101A060027080A260A128A15E0260A128A15831260
:101A16000313A80AA62CFF30F2015F250A128A15C5
:101A2600402D0A30F201F20A5F250A128A150930A2
:101A3600F201F20A5F250A128A150030F201F20A53
:101A46005F250A128A150130F201F20A5F250A1291
:101A56008A150B30F201F20AF3010A260A168A11D8
:101A660074210A128A150B30F201F3010A260A12B2
:101A76008A15E0260A128A155C2D0530F200330815
:101A8600C4260A128A158312A000A1012108003A71
:101A960003194E2D5C2D2008013A0319262D033A11
:101AA6000319202D013A03191A2D073A0319142D8B
:101AB6005C2DFF30F2015F2DF30072080319652DCE
:101AC6007A16E32D7A12E32D7A1E6D2D83120313F7
:101AD6000514080083120313051008007A1E772DDB
:101AE600831203138514080083120313851008005C
:101AF6007A1E812D83120313051508008312031322
:101B0600051108007A1E8B2D831203138515080014
:101B160083120313851108007A1E952D8312031371
:101B26000516080083120313051208007A1E9F2D5E
:101B36008312031385160800831203138512080007
:101B46007A1EA92D831203130914080083120313A6
:101B5600091008007A1EB32D831203138914080096
:101B660083120313891008007A1EBD2D83120313F6
:101B76000915080083120313091108007A1EC72DE0
:101B860083120313071408008312031307100800B7
:101B96007A1ED12D831203138714080083120313B0
:101BA600871008008312031305108510051185118F
:101BB60005128512091089100911071087100800EF
:101BC6007308003A0319672D013A0319712D033A78
:101BD60003197B2D013A0319852D073A03198F2D19
:101BE600013A0319992D033A0319A32D013A031952
:101BF600AD2D0F3A0319B72D013A0319C12D033A3A
:101C06000319CB2DF53A0319D52DD52D0800F4006F
:101C1600720873040319112EFA169A2EFA129A2EC6
:101C2600FA1E192E83120313861408008312031357
:101C360086100800FA1E232E8312031306140800CA
:101C46008312031306100800FA1E2D2E83120313A7
:101C5600881708008312031388130800FA1E372E0C
:101C660083120313081708008312031308130800CE
:101C7600FA1E412E831203138816080083120313DB
:101C860088120800FA1E4B2E83120313081608004A
:101C96008312031308120800FA1E552E831203132B
:101CA600871708008312031387130800FA1E5F2E96
:101CB6008312031307170800831203130713080080
:101CC600FA1E692E83120313871608008312031364
:101CD60087120800FA1E732E8312031307160800D4
:101CE6008312031307120800FA1E7D2E83120313B4
:101CF600881508008312031388110800FA1E872E20
:101D06008312031308150800831203130811080031
:101D160083120313861006108813081388120812FC
:101D26008713071387120712881108110800740811
:101D3600003A0319132E013A03191D2E033A03190B
:101D4600272E013A0319312E073A03193B2E013A81
:101D56000319452E033A03194F2E013A0319592E3A
:101D66000F3A0319632E013A03196D2E033A03192C
:101D7600772E013A0319812EF43A03198B2E8B2EF6
:101D86000800F4000830F500F6017408F300073087
:101D96000310F30CFF3E0310031DCC2E760D7304C7
:101DA600F6000310F40D72087602031CDC2E72088E
:101DB600F602F50BC82E76080800282F0630F30029
:101DC6009430F200F20BE52EF30BE52E00006400D2
:101DD60008000530F300C830F200F20BF02EF30BCA
:101DE600F02E0000640008000430F300FC30F2001E
:101DF600F20BFB2EF30BFB2E640008000430F300FD
:101E06002F30F200F20B052FF30B052F00006400B4
:101E160008000330F3006330F200F20B102FF30BCF
:101E2600102F000064000800F530F2001A2FF20BA4
:101E3600192F1D2F64000800CC30F200F20B212F61
:101E460000006400080064000800831603135A08A3
:101E56008400083004020318E12E18308A000310AB
:101E6600040D0407693E820008001830F201F301F0
:101E7600F400A530F5010A168A11FC28AB01A91F4A
:101E86004B2FA809A909A80A0319A90AAB01AB0A8D
:101E9600A71F522FA609A709A60A0319A70A2608EB
:101EA60027040319712FAA01AA0AA71B5E2F031084
:101EB600A60DA70D572F27082902031D642F2608F4
:101EC6002802031C6D2F2608A8022708031CA90355
:101ED600A9020310A70CA60CAA0B5E2F2B08031948
:101EE600792FA809A909A80A0319A90A2908A70088
:101EF6002808A6000800F601F701721C882F74084E
:101F0600F6070318F70A7508F7070310F40DF50D21
:101F16000310F30CF20C72087304031D802F77086C
:101F2600F3007608F20008004130F500C630F400F0
:101F36004E30F3006D30F200831603135908F90092
:101F46005808F8005708F7005608F6000A168A11CE
:101F56005423750883160313D9007408D800730830
:101F6600D7007208D6003930D60730300318313022
:101F7600D707003003180130D807003003180130A6
:101F8600D907590883120313A500831603135808AB
:101F960083120313A400A5130800831203135C081D
:101FA600F70005300310F70CFF3E031DD52F770809
:101FB600F8000730F805F901790878020830F200D0
:101FC600F3010318F30A7908033EDC220A128A1584
:101FD6000830F90A7902031CDF2F78080A168A15D9
:101FE600922F831203135C1CFC2F00300A128A11F5
:101FF600952D00300A128A113D2D10308A000408F2
:10200600840A8207003400340034DC340034E034BF
:10201600013401340034E0340234003478340234BC
:1020260080340734023480347F340334E0340F3490
:102036000134E0340F340334E034FF340434003424
:102046007034043400340F3405340034F03406346C
:10205600E034FF340934E03403340534E034013429
:1020660005348034073407340034783408340034B7
:10207600F034093400343C340734C03407340834AF
:10208600C0340F340634E03401340A3400341E34CC
:102096000A340034F03409340034E0340534C034F2
:1020A60001340A34E0340034023411340334063483
:1020B60001340C3404340334053404340034153448
:1020C60006340734073408340834093409340A342A
:1020D6000A340B340B3401340C340D340D340E3405
:1020E6000E340F340F3410341034023400341234EA
:1020F60000341334003414340034003415341534E9
:102106000034803400344034003420340034103439
:10211600003408340034043400340234003401340A
:102126008034003440340034203400341034003419
:1021360008340034043400340234003401340034EA
:10214600FF347F34FF34BF34FF34DF34FF34EF34E1
:10215600FF34F734FF34FB34FF34FD34FF34FE34F0
:102166007F34FF34BF34FF34DF34FF34EF34FF34C1
:10217600F734FF34FB34FF34FD34FF34FE34FF34D0
:10218600DE34F63492342434CE34E7349E34E734E5
:102196009234B7349E34F334DE34F3349234E43478
:1021A600DE34F7349E34F73400341F341C341F34C5
:1021B6001E341F341E341F341F341E341F341E3485
:1021C6001F347D340034FA34003477340134F43467
:1021D600013471340234EE3402346B340334E8349F
:1021E6000334E1340734013401341034013401344A
:1021F6001034F600F7000130F4020030031CF5033A
:10220600F502740F0929750A031908007708840076
:10221600720883138000F70AFE28F6010310760D74
:10222600A53E84008313000883120313A000840ACA
:102236000008A100200403196A29F5010310750D91
:102246007E3E84000A168A1100200A168A11A00012
:102256000A168A1100200A168A11A1000310760DAB
:10226600A53E840083130008A200840A0008A30088
:1022760020082205A40021082305A500240403192B
:102286004629013047290030F20075080A128A15DE
:102296005F250A168A110B30F50A7502031C2229DE
:1022A600F201F20AF30176080A128A150A260A16BC
:1022B6008A117421F201F30176080A128A150A2698
:1022C6000A168A110A128A15E0260A168A110C3095
:1022D600F60A7602031C1229FF30F2010A128A1549
:1022E6005F2DC529CC30F200F20B7729000064007F
:1022F6000800F530F2007F29F20B7E29822964005E
:1023060008000330F3006330F200F20B8829F30B68
:1023160088290000640008000430F3002F30F20022
:10232600F20B9329F30B9329000064000800043094
:10233600F300FC30F200F20B9E29F30B9E29640099
:1023460008000530F300C830F200F20BA829F30BA1
:10235600A8290000640008000630F3009430F2005B
:10236600F20BB329F30BB329000064000800073011
:10237600F3006030F200F20BBE29F30BBE29C3292D
:1023860064000800831603135A0884000830040208
:102396000318752907308A000310040D0407E33E6D
:1023A600820008008312B600681CDB2903140800AB
:1023B6003608031DE52983160317EC0BF0290430B4
:1023C600EC00F029360BF029831603170530EC0ACA
:1023D6006C02031CF029EC01EC0A023026230A16D3
:1023E6008A1100303202C830031931020318FF295E
:1023F6006818D9290310080002308A230A168A11A0
:10240600831603176A08903E8400831700080F3965
:1024160083120313B800831603176A08903E8400DC
:10242600000E0F3983120313B9003F2A83120313D8
:102436000B30B8033802031C4F2A0A30B8004F2A63
:10244600831203130B30B80A3802031C4F2AB80153
:102456004F2A831203130B30B9033902031C4F2A88
:102466000A30B9004F2A831203130B30B90A390216
:10247600031C4F2AB9014F2A831603176C08013A29
:1024860003192C2A033A0319232A013A0319362A77
:10249600073A0319192A4F2A8312031350080F39D2
:1024A6003806031D8B2A500E0F393906031D8B2A59
:1024B6000B30A600A7010A128A1597270A168A1159
:1024C6002508A9002408A8000A128A1541270A1619
:1024D6008A1150082606F0392606D0000B30A600D1
:1024E600A7010A128A1597270A168A112508A90034
:1024F6002408A8000A128A1541270A168A112608F6
:10250600B500B50E500835060F393506D000A52A98
:10251600831603176B08903E8400000E0F39F200F5
:10252600F3016B08903E840000080F390A128A15E1
:10253600DC220A168A11831603175A30EB0A6B023D
:102546000318EB01831203133908F200F301F30AAF
:1025560038080A128A15DC220A168A11831603170E
:102566005A30EA0A6A020318EA016A08903E8400B1
:1025760083170008831203133806F03938068000E3
:102586003908B500831603176A08903E8400831243
:102596000313B50E000835060F393506800083167D
:1025A60003176A086B06031DDD2A5A30EB0A6B0215
:1025B6000318EB0183120313500E0F39F200F301D7
:1025C600F30A50080F390A128A15DC220A168A11F4
:1025D600831603176B0883120313B7003708903E60
:1025E6008400831700080F39B500831603176A089D
:1025F600903E840000080F39831203133506031D2D
:10260600182B3708903E8400000E0F39B50083164C
:1026160003176A08903E8400000E0F3983120313D5
:102626003506031D182B6814FB295A30B70A3702E2
:102636000318B701831603176A08831203133706B4
:10264600031DF12AFB2983120313B4004B30A400A7
:10265600A501A601A7013408A03E84008313000843
:102666005202F200F301031CF303F401F31BF4031B
:102676007408F5000330F901F801F700E830F600B8
:1026860054230A168A117508AB007408AA00730849
:10269600A9007208A80093232508B2002408B100F7
:1026A60008008312A001A101A201A301721C702BD4
:1026B60076088312A007770803110318013E031D4D
:1026C600A107780803110318013E031DA207790824
:1026D60003110318013E031DA3070310F60DF70DA2
:1026E600F80DF90D0310F50CF40CF30CF20C75084B
:1026F600740473047204031D592B83122308F50016
:102706002208F4002108F3002008F2000800F20075
:10271600A03E84008312031352088313800008002E
:10272600AC01AD01AE01AF0127082604250424043F
:102736000319D22BB001B00AA71BA72B0310A40DB7
:10274600A50DA60DA70D9E2B0310AC0DAD0DAE0D60
:10275600AF0D27082B02031DBA2B26082A02031DDC
:10276600BA2B25082902031DBA2B24082802031CAC
:10277600CC2B2408A8022508031C250FA90226082D
:10278600031C260FAA022708031C270FAB022C14D2
:102796000310A70CA60CA50CA40CB00BA72B2F0896
:1027A600A7002E08A6002D08A5002C08A4000800E6
:1027B6000A128A11A4270A168A117B14FB147A1BA3
:1027C600EB2BE62BEB2B0A128A1117260A168A1117
:1027D600831203136008CF0005300310CF0CFF3EB1
:1027E600031DF02B4F0807390A168A1592270A1679
:1027F6008A118312520883160313EA00EB01640060
:102806004B30831603136A02031C422C4B3083128F
:102816000313D20204305602031CD60A3C30DF0AE8
:102826005F02031C422C3C30DF01DE0A5E02031C01
:10283600422CDE01DD0AFA1D292C04305D06031D3B
:10284600292C5E08031D292CE815FA1118305D02A3
:10285600031C422C6530DD01E50A0A168A15D827C5
:102866000A168A11003A031D422C0D30E501E50ACD
:10287600E60A6602031C422CE601E60AE70AFA1992
:10288600992D831287157A1C4A2C01304B2C003067
:10289600CF00681D502C0130512C00304F06031913
:1028A600992D68117A1C582C681583120313560843
:1028B6004B30A40003191F2DA501A601A701CF00C7
:1028C600831603132408831203134F02F200F30145
:1028D600031CF303F401F31BF4037408F50003303F
:1028E600F901F801F700E830F6000A168A115423B8
:1028F6000A168A117508AB007408AA007308A900A5
:102906007208A8000A168A1193230A168A11270844
:1029160083160313E9008312031326088316031391
:10292600E80083120313250883160313E7008312B6
:102936000313240883160313E600831203135608B1
:10294600FF3EF200FF3003180030F300F401F31BE2
:10295600F4037408F5000330F901F801F700E830D4
:10296600F6000A168A1154230A168A11720883166B
:102976000313E607730803110318013E031DE70757
:10298600740803110318013E031DE80775080311B7
:102996000318013E031DE9074B3083120313A400FD
:1029A600A501A601A701831603136A08F2000330E6
:1029B600F301F401F501F901F801F700E830F6003A
:1029C6000A168A1154230A168A117508AB00740870
:1029D600AA007308A9007208A8000A168A11932390
:1029E6000A168A11240883160313E60783120313B3
:1029F600250803110318013E0319042D831603133A
:102A0600E70783120313260803110318013E03196F
:102A16000F2D83160313E8078312031327080311E8
:102A26000318013E03191A2D83160313E9078312AF
:102A36000313831603136B2DA501A601A7018316A5
:102A4600031324086A02F200F301031CF303F401E2
:102A5600F31BF4037408F500FA30F600F701F801E9
:102A6600F9010A168A1154230A168A117508AB0051
:102A76007408AA007308A9007208A8000A168A1129
:102A860093230A168A11270883160313E900831273
:102A96000313260883160313E8008312031325087D
:102AA60083160313E7008312031324088316031304
:102AB600E600023083120313CF00031083160313BC
:102AC600E60DE70DE80DE90D83120313CF0B602D1C
:102AD6008312D601831603136A08A40067088312BB
:102AE6000313C20083160313660883120313C1007F
:102AF6005D30C3006530C4000030681901300A1229
:102B06008A1148200A168A1183160313E400640BFF
:102B16008D2D952D83120313E81D992D14305E0219
:102B2600031C992D8312E811FA158711FA1C9D2DA5
:102B360001309E2D00308312CF007B1CA42D013066
:102B4600A52D00304F060319B92D7B10FA1CAC2DAC
:102B56007B148312031368127B1868167B1CB92D2D
:102B660000300A168A118A230A168A117A1DBD2D8B
:102B76000130BE2D003083120313CF00FB1CC52D80
:102B86000130C62D00304F060319DA2DFB107A1DD1
:102B9600CD2DFB1483120313E812FB18E816FB1C59
:102BA600DA2D01300A168A118A230A168A1183122F
:102BB6000313681EED2D00300A168A1126230A1605
:102BC6008A1100303202333003193102031C062EFB
:102BD6000030FD2DE81E062E01300A168A11262326
:102BE6000A168A1100303202333003193102031CEF
:102BF600062E01300A128A1148230A168A118312F8
:102C060003136812E812510883160313EC005B06DF
:102C160003193C2E6C08DB001130EB01EB0A6C0645
:102C2600031D1F2E023083120313D5000A128A15C4
:102C360038270A168A113C2E12306C06031D252EE3
:102C46000330162E13306C06031D2B2E0430162E61
:102C560014306C06031D312E0530162E6C08031930
:102C6600392E83120313D501D50A3C2E8312031382
:102C7600D50183160313E501FA194A2E83120313AD
:102C86005508031D4A2E83160313E501E50A83162C
:102C96000313651C522E831203138815552E8312B7
:102CA600031388111530831603136C06031D612E5A
:102CB60002300A168A11D5210A168A118312550B7B
:102CC6006A2E0A168A1110210A168A11FC2B023066
:102CD6005506031DDE2E831603136B08031D7D2E7A
:102CE600831203135D085806031D7D2E5E085906E0
:102CF6000319C32E83125D08D8005E08D90002307E
:102D0600F7000A30F801F20058080A128A152B2338
:102D16000A168A110A128A15CC200A168A1106305A
:102D2600F7000A30F801F20058080A128A15C4267C
:102D36000A168A110A128A15CC200A168A1102303E
:102D4600F7000630F8000A30F20059080A128A1510
:102D56002B230A168A110A128A15CC200A168A1102
:102D66000630F700F8000A30F20059080A128A15F0
:102D7600C4260A168A110A128A15CC200A168A1146
:102D86005F08F3000130F3050430F2000A300A123E
:102D96008A15DC220A168A11831203135F08F300D0
:102DA6000130F3050630F2000A300A128A15DC22D9
:102DB6000A168A11642E03305506031D492F831601
:102DC60003136B08031D012F0A30F200831203134D
:102DD6005F080A128A15C4260A168A118312CF00C2
:102DE6000A30F200831603135C080A128A15C426F9
:102DF6000A168A1183124F060319132F0630F7009D
:102E06000330F8000A30F20083125F080A128A15AE
:102E1600C4260A168A110A128A15CC200A168A11A5
:102E2600831603136B08031D322F0A30F200831238
:102E360003135F080A128A152B230A168A118312B6
:102E4600CF000A30F200831603135C080A128A15B3
:102E56002B230A168A1183124F060319442F0230B8
:102E6600F7000330F8000A30F20083125F080A12F6
:102E76008A152B230A168A110A128A15CC200A16DD
:102E86008A115F0883160313DC00642E043055068E
:102E9600031DA32F831603136B08031D5C2F8312D8
:102EA600031365085706031D5C2F66085A060319A7
:102EB600642E83126508D7006608DA000230F70030
:102EC6000A30F801F20057080A128A152B230A164F
:102ED6008A110A128A15CC200A168A110630F700C2
:102EE6000A30F801F20057080A128A15C4260A1693
:102EF6008A110A128A15CC200A168A110230F700A6
:102F06000630F8000A30F2005A080A128A152B23F6
:102F16000A168A110A128A15CC200A168A11063058
:102F2600F700F8000A30F2005A080A128A15C42679
:102F36000A168A110A128A15CC200A168A11642EDC
:102F460005305506031DE82F831603136B08031D72
:102F5600B22F8312031367085B060319642E8312CC
:102F66006708DB000230F700F8010A128A15CC2048
:102F76000A168A110630F7000030F8010A128A157F
:102F8600CC200A168A110230F7000630F8000A3003
:102F9600F2005B080A128A152B230A168A110A12F6
:102FA6008A15CC200A168A110630F700F8000A3076
:102FB600F2005B080A128A15C4260A168A110A123A
:102FC6008A15CC200A168A11642EFA1DF62F55088A
:102FD600031DF62FFF30F7005D300A128A154623CF
:102FE6000A168A11FC2B681DFC2F83120313871403
:102FF600FC2B831203138710FC2B0A128A11FC2B5D
:103006000A128A11FB2B0A128A112E2C0A128A1115
:10301600822B0A128A119F2B0A128A11BF2B0A12BF
:103026008A11C92B0A128A11AB2B0A128A11B52BE7
:103036000A128A11EB2B0A128A11F32B0A128A1131
:10304600D32B0A128A11DB2B0A128A11E32B0A12DE
:103056008A112E2C0A128A112E2C0A128A112E2C53
:103066000A128A112E2C0A128A110B2C0A128A15A0
:10307600CE290A128A15ED290A128A15E7290A129B
:103086008A15EA290A128A15EE290A128A15EF29E3
:103096000A128A15FB290A128A156F2A0A128A153C
:1030A6008B2A0A128A150F2A0A128A153B2A0A1235
:1030B6008A15B82A0A128A15C12A0A128A15AF2A4F
:1030C6000A128A15CA2A0A128A15D32A0A128A15D8
:1030D600E12E0A128A15EC2E0A128A15F72E0A120A
:1030E6008A15012F0A128A150C2F0A128A15172F14
:0C30F6000A128A151F2F0A128A15262FB5
:103EBA0064008001840A04060319003404065E2F94
:103ECA00780883160313D6007908D700D801D901D8
:103EDA0008000A128A1538270830F2000030F30168
:103EEA00F30A0A128A15DC2A0A128A1538270730B9
:103EFA00F2000030F301F30A0A128A15DC2A0134AF
:103F0A0000340034003407341634FF3407340134E3
:103F1A0001341034013401341034F20008307202D2
:103F2A00031C9C2F073083160313DA00080072085B
:103F3A0083160313DA0008007E088A007F088200CD
:103F4A00A1270A168A158000840A04087D06031927
:103F5A000034FF0A0319FE0AA52F0B1DB82F0B11F7
:103F6A0083120313D20A0B1CD12F831203130608E0
:103F7A000B10061DC22F7A14C32F7A108312031353
:103F8A00061EC92FFA14CA2FFA1083120313861DAC
:103F9A00D02F7A15D12F7A1171088A00700E8300FA
:103FAA00FE0E7E0E0900F40084001D308313000605
:103FBA00031DEC2F740A840002300006031DEC2F47
:103FCA007408023E84000008033903190134740896
:103FDA0084000008F200740A84000008D23E8400BB
:103FEA000A168A1100200A168A15F300720873024B
:063FFA00031C0034013439
:04400E00C2EBFFFE04
:00000001FF
