:060000000A128A110C280F
:10000800FE00030EF0000A08F1000A168A15B22F46
:100018000A128A110F285030FA01E801831384006C
:1000280060300A128A11F6250A128A11A03084005B
:10003800D6300A128A11F6250A128A1190308317CF
:100048008400ED300A128A11F6250A128A11E4306A
:100058008313FD001F30FE007F30FF00D630840080
:100068000A168A1591270A128A116830FD0007308E
:10007800FE00F830FF00603084000A168A159127C8
:1000880083010A128A1148280A128A11B9270A120A
:100098008A117B14FB147A1B5828532858280A16EF
:1000A8008A11D5240A128A11831203136008CF001B
:1000B80005300310CF0CFF3E031D5D284F0807399C
:1000C8000A168A1158270A128A11831252088316AF
:1000D8000313EA00EB0164004B30831603136A0232
:1000E800031CAF284B3083120313D202043056028C
:1000F800031CD60A3C30DF0A5F02031CAF283C30E1
:10010800DF01DE0A5E02031CAF28DE01DD0AFA1DEC
:10011800962804305D06031D96285E08031D962860
:100128006816FA1118305D02031CAF286530DD012E
:10013800E50A0A168A15D8270A128A11003A031DF9
:10014800AF280D30E501E50AE60A6602031CAF2870
:10015800E601E60AE70AFA19082A831287157A1CC3
:10016800B7280130B8280030CF00681DBD280130FD
:10017800BE2800304F060319082A68117A1CC528C2
:1001880068158312031356084B30A40003198C29F1
:10019800A501A601A701CF00831603132408831223
:1001A80003134F02F200F301031CF303F401F31BE2
:1001B800F4037408F5000330F901F801F700E8309A
:1001C800F6000A168A1122270A128A117508AB004E
:1001D8007408AA007308A9007208A8000A168A11F0
:1001E800B8270A128A11270883160313E900831215
:1001F8000313260883160313E80083120313250844
:1002080083160313E70083120313240883160313CA
:10021800E600831203135608FF3EF200FF3003186E
:100228000030F300F401F31BF4037408F500033005
:10023800F901F801F700E830F6000A168A112227BA
:100248000A128A11720883160313E607730803114A
:100258000318013E031DE707740803110318013E44
:10026800031DE807750803110318013E031DE9077C
:100278004B3083120313A400A501A601A70183161E
:1002880003136A08F2000330F301F401F501F901E0
:10029800F801F700E830F6000A168A1122270A1238
:1002A8008A117508AB007408AA007308A9007208BF
:1002B800A8000A168A11B8270A128A112408831678
:1002C8000313E60783120313250803110318013EDD
:1002D8000319712983160313E707831203132608EA
:1002E80003110318013E03197C2983160313E80739
:1002F80083120313270803110318013E03198729E2
:1003080083160313E9078312031383160313D829EB
:10031800A501A601A7018316031324086A02F200A7
:10032800F301031CF303F401F31BF4037408F50051
:10033800FA30F600F701F801F9010A168A112227A6
:100348000A128A117508AB007408AA007308A9007C
:100358007208A8000A168A11B8270A128A112708F3
:1003680083160313E9008312031326088316031365
:10037800E80083120313250883160313E70083128A
:100388000313240883160313E600023083120313B1
:10039800CF00031083160313E60DE70DE80DE90DF2
:1003A80083120313CF0BCD298312D60183160313AF
:1003B8006A08A400670883120313C2008316031394
:1003C800660883120313C1005D30C3006530C400A2
:1003D8000030681901300A168A1108200A128A1199
:1003E80083160313E400640BFD29FA158312031323
:1003F800072A83120313681E082A05305D02031CAE
:10040800082A6812FA158711FA1C0C2A01300D2ADD
:1004180000308312CF007B1C132A0130142A0030CD
:100428004F060319262A7B10FA1C1B2A7B14FB1083
:100438007B18FB147B1C262A00300A168A11DC263E
:100448000A128A117A1D2A2A01302B2A00308312B7
:100458000313CF00E81D322A0130332A00304F063B
:100468000319492AE8117A1D3A2AE8158312031359
:10047800E812E819E81683120313E81D492A013027
:100488000A168A11DC260A128A11FB1C5A2A003025
:100498000A168A11F4260A128A1100303202333001
:1004A80003193102031C732A00306A2AE81E732AD2
:1004B80001300A168A11F4260A128A110030320213
:1004C800333003193102031C732A01300A168A11CA
:1004D80008230A128A11FB1083120313E812510829
:1004E80083160313EC005B060319A92A6C08DB00CA
:1004F8001130EB01EB0A6C06031D8C2A02308312C3
:100508000313D5000A128A15DC230A128A11A92AB4
:1005180012306C06031D922A0330832A13306C06AE
:10052800031D982A0430832A14306C06031D9E2A62
:100538000530832A6C080319A62A83120313D501F0
:10054800D50AA92A83120313D50183160313E501DB
:10055800FA19B72A831203135508031DB72A8316FD
:100568000313E501E50A83160313651CBF2A8312EA
:1005780003138815C22A83120313881115308316B2
:1005880003136C06031DCE2A02300A168A111F2592
:100598000A128A118312550BD72A0A128A11F426D5
:1005A8000A128A11692802305506031D4B2B83163F
:1005B80003136B08031DEA2A831203135D08580608
:1005C800031DEA2A5E0859060319302B83125D08B9
:1005D800D8005E08D9000230F7000A30F801F200AE
:1005E80058080A128A1187250A128A110A128A15CE
:1005F800A3230A128A110630F7000A30F801F20024
:1006080058080A128A1573270A128A110A128A15BB
:10061800A3230A128A110230F7000630F8000A30C4
:10062800F20059080A128A1187250A128A110A1239
:100638008A15A3230A128A110630F700F8000A3037
:10064800F20059080A128A1573270A128A110A1227
:100658008A15A3230A128A115F08F3000130F305F3
:100668000430F2000A300A128A15F0210A128A119F
:10067800831203135F08F3000130F3050630F2001C
:100688000A300A128A15F0210A128A11D12A033077
:100698005506031DB62B831603136B08031D6E2B1B
:1006A8000A30F200831203135F080A128A157327AF
:1006B8000A128A118312CF000A30F200831603133C
:1006C8005C080A128A1573270A128A1183124F06C8
:1006D8000319802B0630F7000330F8000A30F200C7
:1006E80083125F080A128A1573270A128A110A12DE
:1006F8008A15A3230A128A11831603136B08031D94
:100708009F2B0A30F200831203135F080A128A1122
:1007180087250A128A118312CF000A30F200831645
:1007280003135C080A128A1187250A128A11831298
:100738004F060319B12B0230F7000330F8000A30D6
:10074800F20083125F080A128A1187250A128A1199
:100758000A128A15A3230A128A115F088316031343
:10076800DC00D12A04305506031D102C8316031310
:100778006B08031DC92B8312031365085706031D55
:10078800C92B66085A060319D12A83126508D700AF
:100798006608DA000230F7000A30F801F20057085C
:1007A8000A128A1187250A128A110A128A15A323A6
:1007B8000A128A110630F7000A30F801F2005708C9
:1007C8000A128A1573270A128A110A128A15A32394
:1007D8000A128A110230F7000630F8000A30F200D7
:1007E8005A080A128A1187250A128A110A128A15CA
:1007F800A3230A128A110630F700F8000A30F20023
:100808005A080A128A1573270A128A110A128A15B7
:10081800A3230A128A11D12A05305506031D552C27
:10082800831603136B08031D1F2C83120313670819
:100838005B060319D12A83126708DB000230F70030
:10084800F8010A128A15A3230A128A110630F70042
:100858000030F8010A128A15A3230A128A110230FD
:10086800F7000630F8000A30F2005B080A128A1115
:1008780087250A128A110A128A15A3230A128A11D5
:100888000630F700F8000A30F2005B080A128A15F1
:1008980073270A128A110A128A15A3230A128A11C7
:1008A800D12AFA1D632C5508031D632CFF30F7006D
:1008B8005D300A128A15F5230A128A116928681D03
:1008C800692C831203138714692883120313871072
:1008D80069280230F7000A30F801F200620887251B
:1008E8000A128A15A3230A128A110630F7000A3061
:1008F800F801F20062080A128A1573270A128A118F
:100908000A128A15A32B0230F7000630F8000A30C5
:10091800F200640887250A128A15A3230A128A118D
:100928000630F700F8000A30F20064080A128A1547
:1009380073270A128A110A128A15A32B0230F700AC
:100948000630F8000A30F200630887250A128A1573
:10095800A3230A128A110630F700F8000A30F200C1
:1009680063080A128A1573270A128A110A128A154D
:10097800A32B0230F7000A30F801F200500887254F
:100988000A128A15A3230A128A110630F7000A30C0
:10099800F801F2008316031350080A128A15732708
:1009A8000A128A110A128A15A32B0230F7000630A0
:1009B800F8000A30F200510887250A128A15A32385
:1009C8000A128A110630F700F8000A30F20083167E
:1009D800031351080A128A1573270A128A110A1278
:1009E8008A15A32B0A128A1551230A128A1102307A
:1009F800F700F8010A128A15A3230A128A11063091
:100A0800F7000030F8010A128A15A3230A128A1186
:100A18000230F7000630F8000A30F2006408872533
:100A28000A128A15A3230A128A110630F700F80061
:100A38000A30F20064080A128A1573270A128A110A
:100A48000A128A15A3230A128A110430F2000A3006
:100A5800F3010A128A15F0210A128A110630F200EF
:100A68000A30F3010A128A15F0290A128A1551234D
:100A78000A128A110230F7000A30F801F2008312D4
:100A88000313620887250A128A15A3230A128A11FA
:100A98000630F7000A30F801F20062080A128A15D7
:100AA80073270A128A110A128A15A3230A128A11B5
:100AB8000230F7000630F8000A30F2006308872594
:100AC8000A128A15A3230A128A110630F700F800C1
:100AD8000A30F20063080A128A1573270A128A116B
:100AE8000A128A15A3230A128A110430F2000A3066
:100AF800F3010A128A15F0210630F2000A30F301D8
:100B08000A128A15F029F300F50172080319A02DBD
:100B1800F401F40AF21B932D0310F20D8D2D03102E
:100B2800F50D72087302031C9D2D7208F3027514EB
:100B38000310F20CF40B932D75080800F801F2016C
:100B4800F20AF30178080A128A15B9260A128A11DC
:100B5800F901F201F20A79080A128A150E260A1218
:100B68008A110230F7004030F6002730F500F50B07
:100B7800BB2DF60BBB2DF70BBB2DC22D6400F2016C
:100B880079080A128A150E260A128A110B30F90AF8
:100B98007902031CAD2DF201F30178080A128A15B7
:100BA800B9260A128A110C30F80A780203180800CC
:100BB800A32DF601F701721CE72D7408F607031838
:100BC800F70A7508F7070310F40DF50D0310F30C79
:100BD800F20C72087304031DDF2D7708F300760802
:100BE800F200080064008001840A04060319003436
:040BF8000406F72DCB
:100C000006308A000408840A820700340034003465
:100C1000DC340034E034013401340034E034023494
:100C200000347834023480340734023480347F3422
:100C30000334E0340F340134E0340F340334E0344F
:100C4000FF34043400347034043400340F34053479
:100C50000034F0340634E034FF340934E034033433
:100C60000534E0340134053480340734073400346B
:100C7000783408340034F034093400343C34073418
:100C8000C03407340834C0340F340634E03401343F
:100C90000A3400341E340A340034F0340934003489
:100CA000E0340534C03401340A34E0340034023412
:100CB00011340334063401340C3404340334053461
:100CC0000434003415340634073407340834083447
:100CD000093409340A340A340B340B3401340C342B
:100CE0000D340D340E340E340F340F3410341034F0
:100CF0000234003412340034133400341434003419
:100D00000034153415340034803400344034003459
:100D100020340034103400340834003404340034F7
:100D20000234003401348034003440340034203440
:100D300000341034003408340034043400340234F5
:100D4000003401340034FF347F34FF34BF34FF34C7
:100D5000DF34FF34EF34FF34F734FF34FB34FF3437
:100D6000FD34FF34FE347F34FF34BF34FF34DF34CE
:100D7000FF34EF34FF34F734FF34FB34FF34FD34F9
:100D8000FF34FE34FF34DE34F63492342434CE346F
:100D9000E7349E34E7349234B7349E34F334DE348F
:100DA000F3349234E434DE34F7349E34F7340034D0
:100DB0001F341C341F341E341F341E341F341F34A0
:100DC0001E341F341E341F347D340034FA34003492
:100DD00077340134F434013471340234EE340234A3
:100DE0006B340334E8340334F6010310760DA53E6A
:100DF00084008313000883120313A000840A0008F0
:100E0000A100200403194E2FF5010310750D7E3E3D
:100E100084000A128A1100260A128A11A0000A12FE
:100E20008A1100260A128A11A1000310760DA53E30
:100E3000840083130008A200840A0008A30020088D
:100E40002205A40021082305A500240403192A2F44
:100E500001302B2F0030F20075080A128A150E2679
:100E60000A128A110B30F50A7502031C062FF201D3
:100E7000F20AF30176080A128A15B9260A128A11B3
:100E80005827F201F30176080A128A15B9260A12C8
:100E90008A110A128A158F270A128A110C30F60A53
:100EA0007602031CF62EFF30F2010A128A150E2E6E
:100EB000A92FCC30F200F20B5B2F00006400080079
:100EC000F530F200632FF20B622F662F64000800EA
:100ED0000330F3006330F200F20B6C2FF30B6C2F36
:100EE0000000640008000430F3002F30F200F20B21
:100EF000772FF30B772F0000640008000430F30015
:100F0000FC30F200F20B822FF30B822F64000800FA
:100F10000530F300C830F200F20B8C2FF30B8C2F4E
:100F20000000640008000630F3009430F200F20B79
:100F3000972FF30B972F0000640008000730F30091
:100F40006030F200F20BA22FF30BA22FA72F640048
:100F50000800831603135A0884000830040203189B
:100F6000592F18308A000310040D0407693E8200CF
:100F70000800831203170516851105158514051041
:100F800083160313811795018112811101158114B4
:100F900001140F178F168F168B178B1683160317D6
:100FA0008801890183120313850186018701880165
:100FB000890183160313051085100511851105128B
:100FC0008512091089100911071087108610061064
:100FD0008813081388120812871307138712071241
:100FE0008811081187111615961516168B1508000D
:100FF000E134073401340134103401340134103445
:1010060030300A168A11C6240A128A153008F200F0
:101016003C30F301F400F5010A128A11DD250A12AB
:101026008A157208AC007308AD003108F2003C3036
:10103600F301F400F5010A128A11DD250A128A1558
:1010460072082C07AE0073080318730A2D07AF0049
:1010560032082E07F8000030031801302F07F90078
:10106600F7270A128A15DC230A128A158316031734
:101076001008F039013890000F39503890001108E7
:10108600F039023891000F39503891001208F039C2
:10109600033892000F39503892001308F03904389B
:1010A60093000F39503893000330EB01EA00023009
:1010B600EC00100E0F39F200F301F30A10080F3995
:1010C600F0210A128A1583160317110E0F39F20042
:1010D600F301F30A11080F39F0210A128A15831653
:1010E6000317120E0F39F200F301F30A12080F3933
:1010F600F0210A128A1583160317130E0F39F20010
:10110600F301F30A13080F39F0210B30831203138E
:10111600A600A7010A168A11A5260A128A1525080D
:10112600A9002408A8000A168A1168260A128A1538
:1011360050082606F0392606D0000B30A600A70177
:101146000A168A11A5260A128A152508A900240856
:10115600A8000A168A1168260A128A152608AC0003
:10116600AC0E50082C060F392C06D000500E0F3945
:10117600F200F301F30A50080F39F021831203132A
:1011860068100800B300FF3E031C080084001030FE
:1011960004020318080018308A000310040D04071F
:1011A600393E8200080025220A168A11E5260A120F
:1011B6008A15E5230A128A15ED230A128A15E727EE
:1011C6000A128A1557220A128A153F2A0A168A1502
:1011D600692F0A168A15742F512B032825220A1205
:1011E6008A15E5230A128A15ED230A128A15E727BE
:1011F6000A128A1557220A128A153F220A128A15DE
:101206000930F2000130F301F30AF02925220A120F
:101216008A150930F2000130F301F30AF0210A12AF
:101226008A150930F2000230F301F30AF0210A129E
:101236008A15E52B25220A128A150930F20001309B
:10124600F301F30AF0210A128A150930F20002307E
:10125600F301F30AF0210A128A150930F20003306D
:10126600F301F30AF0210A128A150930F20004305C
:10127600F301F30AF0210A128A150930F20005304B
:10128600F301F30AF0210A128A15ED2B25220A1220
:101296008A150930F2000130F301F30AF0210A122F
:1012A6008A150930F2000230F301F30AF0210A121E
:1012B6008A150930F2000330F301F30AF0210A120D
:1012C6008A150930F2000430F301F30AF0210A12FC
:1012D6008A150930F2000530F301F30AF0210A12EB
:1012E6008A150930F2000630F301F30AF0210A12DA
:1012F6008A15E72F25220A128A150930F2000130D5
:10130600F301F30AF0210A128A150930F2000230BD
:10131600F301F30AF0210A128A150930F2000330AC
:10132600F301F30AF0210A128A15572A25220A1216
:101336008A150930F2000130F301F30AF0210A128E
:101346008A150930F2000230F301F30AF0210A127D
:101356008A150930F2000330F301F30AF0210A126C
:101366008A150930F2000430F301F30AF0210A125B
:101376008A153F2A0A128A1139250A128A1502305D
:10138600F2000030F301F30AF02951230A128A15FC
:101396000230F2000030F301F30AF02951230A1259
:1013A6008A150830F2000030F301F30AF0290A1218
:1013B6008A1139250A128A150830F2000030F30125
:1013C600F30AF0290A128A11F6240A128A1508303D
:1013D600F2000030F301F30AF029F6007308031057
:1013E60003190D2A760D7E3E84000A128A11002604
:1013F6000A128A15F4000A128A110026F500031053
:10140600720DA53E8400740883138004840A75084F
:1014160080040800760D9E3E84000A128A1100267A
:101426000A128A15F4000A128A110026F500031022
:10143600720DA53E8400740883138005840A75081E
:1014460080050800DC230A128A150930F2000030F4
:10145600F301F30AF0210A128A15F8010B30F200A3
:10146600F301F30A7808F0210A128A150B30F80AFC
:10147600780203180800312A831203135C1D4D2AD3
:101486000730CF220A128A150930CF220A128A158E
:101496000A30CF2A073077220A128A1509307722B6
:1014A6000A128A150A30772A83120313DC1C692A6A
:1014B600083077220A128A150630CF220A128A15B8
:1014C6000930CF220A128A150A30CF2A063077222F
:1014D6000A128A15093077220A128A150A307722EB
:1014E6000A128A150830CF2AF500F6010310760D88
:1014F6007E3E84000A128A1100260A128A15A0006E
:101506000A128A1100260A128A15A1000330F20077
:1015160075082723023E84000A128A1100260A1241
:101526008A15A2000A128A1100260A128A15A30039
:1015360020082205A40021082305A5002404031978
:10154600C92A0310760D9E3E84000A128A110026CF
:101556000A128A15A0000A128A1100260A128A1592
:10156600A1000330F20075082723013E84000A1209
:101576008A1100260A128A15A2002207A53E8400B7
:10158600200883138005840A210880050B30F60A9B
:10159600760203180800792AF500F6010310760D85
:1015A6007E3E84000A128A1100260A128A15A000BD
:1015B6000A128A1100260A128A15A1000330F200C7
:1015C60075082723023E84000A128A1100260A1291
:1015D6008A15A2000A128A1100260A128A15A30089
:1015E60020082205A40021082305A50024040319C8
:1015F600212B0310760D7E3E84000A128A110026E6
:101606000A128A15A0000A128A1100260A128A15E1
:10161600A1000330F20075082723013E84000A1258
:101626008A1100260A128A15A2002207A53E840006
:10163600200883138004840A210880040B30F60AEC
:10164600760203180800D12AF400F3017208741810
:10165600F3070310F20D7208F418F3070310F20DE6
:1016660072087419F3070310F20D7208F419F307E0
:101676000310F20D7208741AF3070310F20D7208C4
:10168600F41AF3070310F20D7208741BF307031024
:10169600F20D7208F41BF30773080800DC230A1224
:1016A6008A150A30F2000030F301F30AF021023005
:1016B600F7000A30F801F2008316031350080A12E5
:1016C6008A1187250A128A15A3230A128A1506305B
:1016D600F7000A30F801F200831603135008732747
:1016E6000A128A15A3230230F7000630F8000A30E2
:1016F600F2008316031351080A128A1187250A126B
:101706008A15A3230A128A150630F700F8000A3054
:10171600F20083160313510873270A128A15A323AE
:101726000A128A150430F2000A30F301F30AF02196
:101736000A128A150630F2000A30F301F30AF0297C
:1017460083120313A2000F30A300A401A501031006
:10175600220DBE3E84000A128A1100260A128A153C
:10176600A0000A128A1100260A128A15A100230A6D
:10177600BF2B0310A10CA00CFF3E031DBC2B2008A1
:10178600F3000130F30524087807F20025087707EF
:10179600F0210A128A15831203130330A303A50A44
:1017A6002502031CAB2B0530A40A240203180800EB
:1017B600A92B1830F201F301F400A530F5010A1641
:1017C6008A159E2F831203135C1CEB2B0030CF2A45
:1017D6000030772A83120313DC1DF32B0C30CF2A3B
:1017E6000C30772AA600840083130008AC0018305A
:1017F6002C0203180800260A84000008B3003C30B7
:101806003302031808007A1B0F2C0A2C0F2C0A1619
:101816008A11D5240A128A15831203136008AA00B6
:10182600FF30B4002A1C1D2CB40A34082D3E840057
:1018360083138001AA1D2C2C2C08031D2C2C330885
:10184600031D2C2CB40A34082D3E84000C3083135F
:10185600522D2A1E6E2C2C08031D6E2C19303302B5
:1018660003186E2CB40A34082D3E840083138001BD
:10187600800AB40A34082D3E840002308000053008
:101886003302031C532D0A3033020318502CB40ABA
:1018960034082D3E84000330522D0F3033020318D6
:1018A6005A2CB40A34082D3E84000430522D1430CC
:1018B60033020318642CB40A34082D3E8400053024
:1018C600522D19303302B40A0318542D34082D3E14
:1018D60084000730522D0C30F2002C0873270A12B0
:1018E6008A158312AC000B302C02031C7C2CAB0136
:1018F6007F2C2C08013EAB00053033020318992CCF
:101906002C0B8B2CB40A34082D3E84001930912CF4
:10191600B40A34082D3E84002C080D3E8313800043
:10192600B40A34082D3E84001A30522D0A30330290
:101936000318A32CB40A34082D3E84000330C62CA9
:101946000F3033020318AD2CB40A34082D3E840040
:101956000430C62C143033020318BB2CB40A3408E6
:101966002D3E8400063083138000AA18C82C4C2D07
:10197600193033020318DA2C2A1DD42CB40A340881
:101986002D3E8400073083138000B40A34082D3EB0
:1019960084000A308000B40A34082D3E84002C08E6
:1019A600512DB40A34082D3E84000430E32C1E3039
:1019B60033020318EB2CB40A34082D3E840003309E
:1019C60083138000B40A34082D3E84000930172D95
:1019D600233033020318F52CB40A34082D3E840054
:1019E6000B302F2D283033020318FF2CB40A34088D
:1019F6002D3E84000330102D2D30330203181E2D8A
:101A06002A1D0B2DB40A34082D3E84000730442DC0
:101A1600B40A34082D3E8400043083138000B40ACF
:101A260034082D3E84000A308000B40A34082D3E66
:101A360084000B304B2D323033020318312DAA1C93
:101A46002A2DB40A34082D3E84000630442DB40AEB
:101A560034082D3E8400083083134B2D3730330273
:101A660003183B2DB40A34082D3E84000430442D5F
:101A76003C303302B40A0318542D34082D3E84003A
:101A8600033083138000B40A34082D3E84000930E5
:101A96008000B40A34082D3E84002B080D3E8000D9
:101AA600B40AA801340828020318BD2D28082D3EC3
:101AB60084008313000800070007013E84000A1211
:101AC6008A1100260A128A15A700A9010310290DFA
:101AD6007E3E84000A128A1100260A128A15A00088
:101AE6000A128A1100260A128A15A10028082D3E1C
:101AF60084008313000800070007023E84000A12D0
:101B06008A1100260A128A15A2000A128A110026D4
:101B16000A128A15A30020082205A400210823051D
:101B2600A50024040319992D01309A2D0030F200E6
:101B360029080E260A128A150B30A90A2902031C47
:101B46006A2DF201F20AF3012708B9260A128A1150
:101B560058270A128A15F201F30183120313270884
:101B6600B9260A128A158F270A128A1583120313B9
:101B7600A80A552DFF30F2010E260A128A15EF2DFE
:101B86000A30F201F20A0E260A128A150930F2010B
:101B9600F20A0E260A128A150030F201F20A0E2601
:101BA6000A128A150130F201F20A0E260A128A1565
:101BB6000B30F201F20AF301B9260A128A115827EC
:101BC6000A128A150B30F201F301B9260A128A1598
:101BD6008F270A128A150B2E0530F2003308732759
:101BE6000A128A158312A000A1012108003A0319DE
:101BF600FD2D0B2E2008013A0319D52D033A0319A2
:101C0600CF2D013A0319C92D073A0319C32D0B2EFF
:101C1600FF30F2010E2EF30072080319142E7A1605
:101C2600922E7A12922E7A1E1C2E831203130514FC
:101C3600080083120313051008007A1E262E83124D
:101C460003138514080083120313851008007A1EF7
:101C5600302E831203130515080083120313051192
:101C660008007A1E3A2E8312031385150800831284
:101C76000313851108007A1E442E831203130516DA
:101C8600080083120313051208007A1E4E2E8312D3
:101C960003138516080083120313851208007A1EA3
:101CA600582E831203130914080083120313091014
:101CB60008007A1E622E8312031389140800831209
:101CC6000313891008007A1E6C2E8312031309155C
:101CD600080083120313091108007A1E762E831258
:101CE60003130714080083120313071008007A1E53
:101CF600802E8312031387140800831203138710A0
:101D060008008312031305108510051185110512AD
:101D16008512091089100911071087100800730829
:101D2600003A0319162E013A0319202E033A031915
:101D36002A2E013A0319342E073A03193E2E013A88
:101D46000319482E033A0319522E013A03195C2E41
:101D56000F3A0319662E013A0319702E033A031936
:101D66007A2EF53A0319842E842E0800F4007208A0
:101D760073040319C02EFA16492FFA12492FFA1EB8
:101D8600C82E8312031386140800831203138610C9
:101D96000800FA1ED22E83120313061408008312BB
:101DA600031306100800FA1EDC2E8312031388178D
:101DB60008008312031388130800FA1EE62E831206
:101DC6000313081708008312031308130800FA1EEA
:101DD600F02E831203138816080083120313881249
:101DE6000800FA1EFA2E831203130816080083123F
:101DF600031308120800FA1E042F83120313871711
:101E060008008312031387130800FA1E0E2F83128D
:101E16000313071708008312031307130800FA1E9B
:101E2600182F8312031387160800831203138712D1
:101E36000800FA1E222F83120313071608008312C6
:101E4600031307120800FA1E2C2F8312031388159A
:101E560008008312031388110800FA1E362F831216
:101E660003130815080083120313081108008312D0
:101E76000313861006108813081388120812871396
:101E86000713871207128811081108007408003A10
:101E96000319C22E013A0319CC2E033A0319D62E82
:101EA600013A0319E02E073A0319EA2E013A0319FB
:101EB600F42E033A0319FE2E013A0319082F0F3A9E
:101EC6000319122F013A03191C2F033A0319262F5F
:101ED600013A0319302FF43A03193A2F3A2F080022
:101EE600F4000830F500F6017408F300073003101B
:101EF600F30CFF3E0310031D7B2F760D7304F600D3
:101F06000310F40D72087602031C8B2F7208F6027A
:101F1600F50B772F76080800D72F0630F30094309C
:101F2600F200F20B942FF30B942F000064000800CC
:101F36000530F300C830F200F20B9F2FF30B9F2FF2
:101F46000000640008000430F300FC30F200F20BDD
:101F5600AA2FF30BAA2F640008000430F3002F30D9
:101F6600F200F20BB42FF30BB42F0000640008004C
:101F76000330F3006330F200F20BBF2FF30BBF2FD9
:101F8600000064000800F530F200C92FF20BC82FDC
:101F9600CC2F64000800CC30F200F20BD02F0000EA
:101FA6006400080064000800831603135A088400BE
:101FB600083004020318902F18308A000310040D0D
:101FC6000407813E82000800831203135C1EF12F72
:101FD6000130CF220A128A150230CF2A0130772229
:101FE6000A128A150230772A780883160313D60058
:0A1FF6007908D700D801D9010800CE
:10201000C700C80147080319CF2806304202D7304D
:1020200003194102031CBC28073042029E300319E9
:1020300041020318BC283B30FA175406031D2D2813
:10204000D330F200BD3047220A168A11E130F20087
:10205000BD302C210A168A11292976305406031D19
:10206000BA284930F200C53047220A168A114C308E
:10207000F200C5302C210A168A1183160313530867
:10208000831203134906031D8C284A08FF3EC5002E
:10209000FF3003180030C600831603135408831260
:1020A000031345064604031D8C28831603135508A5
:1020B000831203134B06031D8C2883160313610838
:1020C000831203134C06031D8C2883160313620826
:1020D000831203134D06031D8C2883160313630814
:1020E000831203134E06031D8C28430884004908FD
:1020F0008000840A4A088000840A4B088000440853
:1021000084004C088000840A4D088000840A4E0830
:102110008000C801C80A2929C530F2000830F30040
:10212000BD30F401AB240A168A113B30D4004908B3
:1021300083160313D300831203134A088316031371
:10214000D400831203134B0883160313D5008312A4
:1021500003134C0883160313E100831203134D0885
:1021600083160313E200831203134E08831603132E
:10217000E3002929D401292902304202EE30031953
:102180004102031CCA2803304202B730031941023E
:10219000031C29290230D401FA13C80029293B3035
:1021A0005406031DD528FA1FD92876305406031D7E
:1021B000DC28D401FA13E4283B305406031DE4283C
:1021C0000830D3000730E1005408031DED28073024
:1021D000D301E10083160313BD01003083124202D4
:1021E0003330031941020030031C0A2942029630A1
:1021F0000319410203180929D40A6108031D28297B
:102200000730E100D30A5308BD3E840083138001E8
:10221000292900304202973003194102031CCA28C1
:1022200000304202FA30031941020318CA28D40AC6
:102230005308BD3E84000130C500610A2129031006
:10224000C50DFF3E031D1F29450883138004FD288B
:10225000E103831248080800C0007208840080016E
:10226000720A840080017208023E840080014008E6
:10227000043E8400801D3E2901303F290030F300D8
:1022800072088400730880074008043E8400001927
:102290004B29A0014D290230A000A1017208840041
:1022A000200880074008043E840080185929A201B4
:1022B0005B290430A200A301720884002208800771
:1022C0004008043E840000186729A40169290830E9
:1022D000A400A50172088400240880074008053E78
:1022E0008400801B7529A60177290A30A600A70162
:1022F00072088400260880074008053E8400001B01
:102300008329A80185291430A800A9017208840036
:10231000280880074008053E8400001D91290130EF
:1023200092290030F300720A840073088007400885
:10233000053E840080189E29AA01A0290230AA0027
:10234000AB01720A84002A0880074008053E840019
:102350000018AC29AC01AE290430AC00AD01720A02
:1023600084002C0880074008063E8400801BBA29A0
:10237000AE01BC290830AE00AF01720A84002E08FD
:1023800080074008063E8400001BC829B001CA2906
:102390000A30B000B101720A84003008800740089A
:1023A000063E8400801ED6290130D7290030F30074
:1023B0007208023E8400730880074008063E8400CD
:1023C000001AE429B201E6290230B200B301720812
:1023D000023E8400320880074008063E84008019CF
:1023E000F329B401F5290430B400B5017208023EA6
:1023F0008400340880074008063E84000019022A41
:10240000B601042A0830B600B7017208023E840003
:10241000360880074008063E84008018112AB8015B
:10242000132A0A30B800B9017208023E8400380845
:1024300080074008063E84000018202ABA01222A9C
:102440001430BA00BB017208023E84003A088007CB
:102450004008073E8400801B2F2ABC01312A283007
:10246000BC00BD017208023E84003C0880074008A1
:10247000073E8400001B3E2ABE01402A5030BE00A9
:10248000BF017208023E84003E0880070800B600C3
:102490007208840083138001720A8400800172082C
:1024A000023E840080013608023E8400001D5A2A44
:1024B00001305B2A0030F300720A84007308800741
:1024C0003608023E84008018672AA001692A02307B
:1024D000A000A101720A8400200880073608023E8D
:1024E00084000018752AA201772A0430A200A301F3
:1024F000720A8400220880073608033E8400801B8D
:10250000832AA401852A0830A400A501720A840048
:10251000240880073608033E8400001B912AA60188
:10252000932A0A30A600A701720A840026088007B1
:102530003608033E8400801A9F2AA801A12A14307D
:10254000A800A901720A8400280880073608033E03
:102550008400001AAD2AAA01AF2A2830AA00AB01D4
:10256000720A84002A0880073608033E8400001D92
:10257000BB2A0130BC2A0030F300720884007308C3
:1025800080073608033E84008018C82AAC01CA2A96
:102590000230AC00AD01720884002C0880073608B8
:1025A000033E84000018D62AAE01D82A0430AE00BB
:1025B000AF01720884002E0880073608043E8400AC
:1025C000801BE42AB001E62A0830B000B10172088D
:1025D0008400300880073608043E8400001BF22A7D
:1025E000B201F42A0A30B200B30172088400320842
:1025F00080073608043E8400801A002BB401022BA9
:102600001430B400B5017208840034088007080053
:10261000BC005108BA0052300310BA0D3A07BB0093
:102620003C083B0784000A128A1100260A168A1108
:1026300051060319EE2B5108BA0052300310BA0D9F
:102640003A07BB003C083B0784000A128A110026A7
:102650000A168A11F9005108FF2383120313510847
:10266000BA0052300310BA0D3A07BB003C083B07D2
:1026700084000A128A1100260A168A11D1000A1251
:102680008A15C528831603130830DD0A5D02031876
:10269000DD011F3083120313DC05831603135D086D
:1026A00083120313BA0004300310BA0DFF3E031067
:1026B000031D552B3A0DDC04E52E01305C06BA00F3
:1026C0000139BB005C08FE393B04DC000A128A15A4
:1026D000E52B08305C06BA000839BB005C08F73906
:1026E0003B04DC000A128A15ED2B10305C06BA00A0
:1026F0001039BB005C08EF393B04DC000A128A1574
:10270000E72F02305C06BA000239BB005C08FD39D5
:102710003B04DC000A128A15572A04305C06BA0012
:102720000439BB005C08FB393B04DC000A128A1543
:102730003F2A2030E20A6206031DA02BE201E20AD2
:102740000A128A116D2C0D30E30A6306031DAA2BB1
:10275000E301E30A0A128A11A22C1E30E40A64067D
:10276000031DB42B1030E4000A128A11872C831643
:1027700003131830D00A50060319D0010A128A1127
:10278000BD2C831603133C30D10A51060319D10125
:102790000A128A11D92C0A128A11A22DE81CD22BF6
:1027A000E810D32BE8140A30F2000030E8180130AA
:1027B000F3000A300A128A15F0293C081F250A1670
:1027C0008A11031C08000530F9005108FF23053069
:1027D00083120313D1000A128A15C5285108FD3E41
:1027E000031C08008400133004020318080018308A
:1027F0008A000310040D0407003E82000800A100B7
:102800007908031908000630790203180800210826
:10281000003A0319152C013A03194C2C033A0319F9
:102820005B2C013A03197B2C7E2C7A1B1C2C192C57
:102830001C2CD5240A168A11831203136008DC00AD
:1028400083160313A30083120313A00005300310A3
:10285000A00CFF3E031D272C200883160313DD0068
:102860000730DD056230FC240A168A116230F2005E
:102870000330F300DE30F401AB240A168A11D030A5
:10288000C6240A168A11D030F2000330F300CD308E
:10289000F401AB24E81008005C0883160313230638
:1028A00003190800831203135C0867275C0883166A
:1028B0000313A3000800CD30F2000330F300D03042
:1028C000F4017F240A168A117208730403196C2C10
:1028D000D0300D250A168A11DE30F2000330F300E5
:1028E0006230F4017F240A168A11720873040319F6
:1028F00008006230A72FE81C0800F22E0800F7003D
:102900000130F3020030031CF403F402730F8B2C2C
:10291000740A0319A82C7208840083130008F500B8
:1029200077088400000875060319A52C7208840036
:102930000008F500770884000008F60075087602A4
:10294000F200F301031CF3030800F70AF20A802CDB
:10295000F201F3010800F8007208F7007808F600A9
:102960000130F3020030031CF403F402730FBB2C9C
:10297000740A03190800770884000008F500760837
:10298000840075088000F70AF60AB02CF200840073
:102990005D0883138000720A84005E08800072085C
:1029A000023E84005F08800008000130E4240A161B
:1029B0008A11F300A53A031DE22C0030E4248312AF
:1029C0000313E0007A170800F2006400831603176F
:1029D0008C18E52C7208831203178D003F30831684
:1029E00003178C050C1403100C1803140318013082
:1029F000831203170C080800F200840083120313EB
:102A0000650883138000720A8400660880007208DB
:102A1000023E8400670880000800F20084008313EF
:102A2000000883120313DD00720A84000008DE0030
:102A30007208023E84000008DF00FA1508008312C5
:102A4000B600681C252D031408003608031D2F2D21
:102A500083160317EC0B3A2D0430EC003A2D360B9D
:102A60003A2D831603170530EC0A6C02031C3A2D2D
:102A7000EC01EC0A0230F4260A168A110030320208
:102A8000C830031931020318492D6818232D03108B
:102A900008000230DC260A168A11831603176A081A
:102AA000903E8400831700080F3983120313B80087
:102AB000831603176A08903E8400000E0F398312B4
:102AC0000313B900892D831203130B30B8033802A6
:102AD000031C992D0A30B800992D831203130B3073
:102AE000B80A3802031C992DB801992D83120313DB
:102AF0000B30B9033902031C992D0A30B900992D06
:102B0000831203130B30B90A3902031C992DB90142
:102B1000992D831603176C08013A0319762D033A91
:102B200003196D2D013A0319802D073A0319632DFE
:102B3000992D8312031350080F393806031DCD2D2C
:102B4000500E0F393906031DCD2D0B30A600A701FD
:102B5000A5260A168A112508A9002408A8006826B7
:102B60000A168A1150082606F0392606D0000B30C6
:102B7000A600A701A5260A168A112508A90024087F
:102B8000A80068260A168A112608B500B50E500856
:102B900035060F393506D000E72D831603176B086D
:102BA000903E8400000E0F39F200F3016B08903E56
:102BB000840000080F390A128A15F0210A168A11BA
:102BC000831603175A30EB0A6B020318EB018312CA
:102BD00003133908F200F301F30A38080A128A15C0
:102BE000F0210A168A11831603175A30EA0A6A027C
:102BF0000318EA016A08903E8400831700088312D4
:102C000003133806F039380680003908B5008316FA
:102C100003176A08903E840083120313B50E000860
:102C200035060F3935068000831603176A086B06D0
:102C3000031D1F2E5A30EB0A6B020318EB0183129F
:102C40000313500E0F39F200F301F30A50080F3945
:102C50000A128A15F0210A168A11831603176B08C7
:102C600083120313B7003708903E840083170008CF
:102C70000F39B500831603176A08903E84000008D8
:102C80000F39831203133506031D5A2E3708903E61
:102C90008400000E0F39B500831603176A08903EB2
:102CA0008400000E0F39831203133506031D5A2EBC
:102CB0006814452D5A30B70A37020318B701831636
:102CC00003176A08831203133706031D332E452D9D
:102CD000AB01A91F722EA809A909A80A0319A90AFC
:102CE000AB01AB0AA71F792EA609A709A60A0319EB
:102CF000A70A260827040319982EAA01AA0AA71BC7
:102D0000852E0310A60DA70D7E2E27082902031D70
:102D10008B2E26082802031C942E2608A8022708BA
:102D2000031CA903A9020310A70CA60CAA0B852E4D
:102D30002B080319A02EA809A909A80A0319A90A92
:102D40002908A7002808A60008004130F500C63071
:102D5000F4004E30F3006D30F2008316031359086F
:102D6000F9005808F8005708F7005608F60022271F
:102D7000750883160313D9007408D8007308D700A8
:102D80007208D6003930D607303003183130D707F3
:102D9000003003180130D807003003180130D9077C
:102DA000590883120313A5008316031358088312CE
:102DB0000313A400A5130800F200A03E84008312B0
:102DC00003135208831380000800831203135C0866
:102DD000F30005300310F30CFF3E031DEA2E7308C9
:102DE0000739582FFA11080083120313B4004B302F
:102DF000A400A501A601A7013408A03E8400831306
:102E000000085202F200F301031CF303F401F31B68
:102E1000F4037408F5000330F901F801F700E83015
:102E2000F60022270A168A117508AB007408AA005A
:102E30007308A9007208A800B8272508B200240862
:102E4000B10008008312A001A101A201A301721C1C
:102E50003E2F76088312A007770803110318013E5E
:102E6000031DA107780803110318013E031DA207E3
:102E7000790803110318013E031DA3070310F60D83
:102E8000F70DF80DF90D0310F50CF40CF30CF20C22
:102E90007508740473047204031D272F831223081A
:102EA000F5002208F4002108F3002008F2000800D1
:102EB000F20008307202031C622F073083160313DE
:102EC000DA000800720883160313DA000800F40021
:102ED0007A1B6D2FD5240A168A1103136008740615
:102EE000031908007408F200003084270A168A11BA
:102EF000A530F200013084270A168A110030E4243C
:102F000083120313E0000800F300831603178C18E4
:102F1000852F7308831203178D0072088C003F30D1
:102F2000831603178C058312031303108B1B0314E2
:102F30008B13831603170C1555308D00AA308D00A6
:102F40008C140C118312031303188B170800F20062
:102F500084008313000883120313E500720A8400BF
:102F60000008E6007208023E84000008E70008003E
:102F7000AC01AD01AE01AF012708260425042404ED
:102F80000319F72FB001B00AA71BCC2F0310A40D13
:102F9000A50DA60DA70DC32F0310AC0DAD0DAE0DE5
:102FA000AF0D27082B02031DDF2F26082A02031D61
:102FB000DF2F25082902031DDF2F24082802031C08
:102FC000F12F2408A8022508031C250FA9022608B2
:102FD000031C260FAA022708031C270FAB022C1480
:102FE0000310A70CA60CA50CA40CB00BCC2F2F081B
:102FF000A7002E08A6002D08A5002C08A400080094
:103000000A168A11CE2B0A168A11CB2B0A168A11A0
:10301000FE2B0A168A11422B0A168A115D2B0A16FC
:103020008A11812B0A168A118D2B0A168A11692B97
:103030000A168A11752B0A168A11B72B0A168A11DD
:10304000C12B0A168A11992B0A168A11A32B0A166C
:103050008A11AD2B0A168A11FE2B0A168A11FE2B35
:103060000A168A11FE2B0A168A11FE2B0A168A11DD
:10307000DD2B0A128A15D6280A128A15EF280A12A1
:103080008A15E9280A128A15EC280A128A15F028EE
:103090000A128A15F1280A128A1509290A128A15B4
:1030A0007D290A128A1599290A128A151D290A12E0
:1030B0008A1549290A128A15C8290A128A15D1299E
:1030C0000A128A15BD290A128A15DA290A128A15E6
:1030D000E5290A128A11592F0A128A11602F0A1241
:1030E0008A11682F0A128A11732F0A128A117E2FF1
:1030F0000A128A11882F0A128A11932F0A128A1132
:103100009E2F0A128A15902F0A128A159B2F0A12D7
:103110008A15A62F0A128A15B02F0A128A15BB2FFC
:103120000A128A15C62F0A128A15CE2F0A128A157C
:02313000D52F99
:103ED2000A128A15DC230830F2000030F301F30ADB
:103EE2000A128A15F0290A128A15DC230730F20019
:103EF2000030F301F30A0A128A15F0290134003462
:103F02000034003407341634FF34073401340134EA
:103F120010340134013410347E088A007F08820094
:103F22008D270A168A158000840A04087D06031963
:103F32000034FF0A0319FE0A912FF600F700013040
:103F4200F4020030031CF503F502740FAB2F750A5F
:103F52000319080077088400720883138000F70AA7
:103F6200A02F0B1DB82F0B1183120313D20A0B1CA7
:103F7200D12F8312031306080B10061DC22F7A14C9
:103F8200C32F7A1083120313061EC92FFA14CA2FE5
:103F9200FA1083120313861DD02F7A15D12F7A11AE
:103FA20071088A00700E8300FE0E7E0E0900F40076
:103FB20084001D3083130006031DEC2F740A840055
:103FC20002300006031DEC2F7408023E8400000834
:103FD200033903190134740884000008F200740ADA
:103FE20084000008D23E84000A128A1100260A16B2
:0E3FF2008A15F30072087302031C00340134B8
:04400E00C2EBFFFE04
:00000001FF
